{
  "_format": "hh-sol-artifact-1",
  "contractName": "TestLiquidityProtection",
  "sourceName": "contracts/helpers/TestLiquidityProtection.sol",
  "abi": [
    {
      "inputs": [
        {
          "internalType": "contract ILiquidityProtectionSettings",
          "name": "settings",
          "type": "address"
        },
        {
          "internalType": "contract ILiquidityProtectionStore",
          "name": "store",
          "type": "address"
        },
        {
          "internalType": "contract ILiquidityProtectionStats",
          "name": "stats",
          "type": "address"
        },
        {
          "internalType": "contract ILiquidityProtectionSystemStore",
          "name": "systemStore",
          "type": "address"
        },
        {
          "internalType": "contract ITokenHolder",
          "name": "wallet",
          "type": "address"
        },
        {
          "internalType": "contract ITokenGovernance",
          "name": "networkTokenGovernance",
          "type": "address"
        },
        {
          "internalType": "contract ITokenGovernance",
          "name": "govTokenGovernance",
          "type": "address"
        },
        {
          "internalType": "contract ICheckpointStore",
          "name": "lastRemoveCheckpointStore",
          "type": "address"
        }
      ],
      "stateMutability": "nonpayable",
      "type": "constructor"
    },
    {
      "anonymous": false,
      "inputs": [
        {
          "indexed": true,
          "internalType": "address",
          "name": "prevOwner",
          "type": "address"
        },
        {
          "indexed": true,
          "internalType": "address",
          "name": "newOwner",
          "type": "address"
        }
      ],
      "name": "OwnerUpdate",
      "type": "event"
    },
    {
      "inputs": [],
      "name": "acceptOwnership",
      "outputs": [],
      "stateMutability": "nonpayable",
      "type": "function"
    },
    {
      "inputs": [],
      "name": "acceptStoreOwnership",
      "outputs": [],
      "stateMutability": "nonpayable",
      "type": "function"
    },
    {
      "inputs": [],
      "name": "acceptWalletOwnership",
      "outputs": [],
      "stateMutability": "nonpayable",
      "type": "function"
    },
    {
      "inputs": [
        {
          "internalType": "contract IConverterAnchor",
          "name": "poolAnchor",
          "type": "address"
        },
        {
          "internalType": "contract IReserveToken",
          "name": "reserveToken",
          "type": "address"
        },
        {
          "internalType": "uint256",
          "name": "amount",
          "type": "uint256"
        }
      ],
      "name": "addLiquidity",
      "outputs": [
        {
          "internalType": "uint256",
          "name": "",
          "type": "uint256"
        }
      ],
      "stateMutability": "payable",
      "type": "function"
    },
    {
      "inputs": [
        {
          "internalType": "address",
          "name": "owner",
          "type": "address"
        },
        {
          "internalType": "contract IConverterAnchor",
          "name": "poolAnchor",
          "type": "address"
        },
        {
          "internalType": "contract IReserveToken",
          "name": "reserveToken",
          "type": "address"
        },
        {
          "internalType": "uint256",
          "name": "amount",
          "type": "uint256"
        }
      ],
      "name": "addLiquidityFor",
      "outputs": [
        {
          "internalType": "uint256",
          "name": "",
          "type": "uint256"
        }
      ],
      "stateMutability": "payable",
      "type": "function"
    },
    {
      "inputs": [
        {
          "internalType": "contract IDSToken",
          "name": "poolToken",
          "type": "address"
        },
        {
          "internalType": "contract IReserveToken",
          "name": "reserveToken",
          "type": "address"
        }
      ],
      "name": "averageRateTest",
      "outputs": [
        {
          "internalType": "uint256",
          "name": "",
          "type": "uint256"
        },
        {
          "internalType": "uint256",
          "name": "",
          "type": "uint256"
        }
      ],
      "stateMutability": "view",
      "type": "function"
    },
    {
      "inputs": [
        {
          "internalType": "uint256",
          "name": "startIndex",
          "type": "uint256"
        },
        {
          "internalType": "uint256",
          "name": "endIndex",
          "type": "uint256"
        }
      ],
      "name": "claimBalance",
      "outputs": [],
      "stateMutability": "nonpayable",
      "type": "function"
    },
    {
      "inputs": [
        {
          "internalType": "uint256",
          "name": "amount",
          "type": "uint256"
        },
        {
          "internalType": "uint256",
          "name": "total",
          "type": "uint256"
        },
        {
          "internalType": "uint256",
          "name": "lossN",
          "type": "uint256"
        },
        {
          "internalType": "uint256",
          "name": "lossD",
          "type": "uint256"
        },
        {
          "internalType": "uint256",
          "name": "levelN",
          "type": "uint256"
        },
        {
          "internalType": "uint256",
          "name": "levelD",
          "type": "uint256"
        }
      ],
      "name": "compensationAmountTest",
      "outputs": [
        {
          "internalType": "uint256",
          "name": "",
          "type": "uint256"
        }
      ],
      "stateMutability": "pure",
      "type": "function"
    },
    {
      "inputs": [],
      "name": "currentTime",
      "outputs": [
        {
          "internalType": "uint256",
          "name": "",
          "type": "uint256"
        }
      ],
      "stateMutability": "view",
      "type": "function"
    },
    {
      "inputs": [
        {
          "internalType": "uint256",
          "name": "initialRateN",
          "type": "uint256"
        },
        {
          "internalType": "uint256",
          "name": "initialRateD",
          "type": "uint256"
        },
        {
          "internalType": "uint256",
          "name": "currentRateN",
          "type": "uint256"
        },
        {
          "internalType": "uint256",
          "name": "currentRateD",
          "type": "uint256"
        }
      ],
      "name": "impLossTest",
      "outputs": [
        {
          "internalType": "uint256",
          "name": "",
          "type": "uint256"
        },
        {
          "internalType": "uint256",
          "name": "",
          "type": "uint256"
        }
      ],
      "stateMutability": "pure",
      "type": "function"
    },
    {
      "inputs": [],
      "name": "newOwner",
      "outputs": [
        {
          "internalType": "address",
          "name": "",
          "type": "address"
        }
      ],
      "stateMutability": "view",
      "type": "function"
    },
    {
      "inputs": [],
      "name": "owner",
      "outputs": [
        {
          "internalType": "address",
          "name": "",
          "type": "address"
        }
      ],
      "stateMutability": "view",
      "type": "function"
    },
    {
      "inputs": [
        {
          "internalType": "contract IConverterAnchor",
          "name": "poolAnchor",
          "type": "address"
        }
      ],
      "name": "poolAvailableSpace",
      "outputs": [
        {
          "internalType": "uint256",
          "name": "",
          "type": "uint256"
        },
        {
          "internalType": "uint256",
          "name": "",
          "type": "uint256"
        }
      ],
      "stateMutability": "view",
      "type": "function"
    },
    {
      "inputs": [
        {
          "internalType": "contract IDSToken",
          "name": "poolToken",
          "type": "address"
        },
        {
          "internalType": "contract IReserveToken",
          "name": "reserveToken",
          "type": "address"
        },
        {
          "internalType": "uint256",
          "name": "reserveAmount",
          "type": "uint256"
        },
        {
          "internalType": "uint256",
          "name": "poolRateN",
          "type": "uint256"
        },
        {
          "internalType": "uint256",
          "name": "poolRateD",
          "type": "uint256"
        },
        {
          "internalType": "uint256",
          "name": "reserveRateN",
          "type": "uint256"
        },
        {
          "internalType": "uint256",
          "name": "reserveRateD",
          "type": "uint256"
        }
      ],
      "name": "poolROI",
      "outputs": [
        {
          "internalType": "uint256",
          "name": "",
          "type": "uint256"
        }
      ],
      "stateMutability": "view",
      "type": "function"
    },
    {
      "inputs": [
        {
          "internalType": "uint256",
          "name": "poolAmount",
          "type": "uint256"
        },
        {
          "internalType": "uint256",
          "name": "poolRateN",
          "type": "uint256"
        },
        {
          "internalType": "uint256",
          "name": "poolRateD",
          "type": "uint256"
        },
        {
          "internalType": "uint256",
          "name": "addRateN",
          "type": "uint256"
        },
        {
          "internalType": "uint256",
          "name": "addRateD",
          "type": "uint256"
        },
        {
          "internalType": "uint256",
          "name": "removeRateN",
          "type": "uint256"
        },
        {
          "internalType": "uint256",
          "name": "removeRateD",
          "type": "uint256"
        }
      ],
      "name": "protectedAmountPlusFeeTest",
      "outputs": [
        {
          "internalType": "uint256",
          "name": "",
          "type": "uint256"
        }
      ],
      "stateMutability": "pure",
      "type": "function"
    },
    {
      "inputs": [
        {
          "internalType": "uint256",
          "name": "id",
          "type": "uint256"
        },
        {
          "internalType": "uint32",
          "name": "portion",
          "type": "uint32"
        }
      ],
      "name": "removeLiquidity",
      "outputs": [],
      "stateMutability": "nonpayable",
      "type": "function"
    },
    {
      "inputs": [
        {
          "internalType": "uint256",
          "name": "id",
          "type": "uint256"
        },
        {
          "internalType": "uint32",
          "name": "portion",
          "type": "uint32"
        },
        {
          "internalType": "uint256",
          "name": "removeTimestamp",
          "type": "uint256"
        }
      ],
      "name": "removeLiquidityReturn",
      "outputs": [
        {
          "internalType": "uint256",
          "name": "",
          "type": "uint256"
        },
        {
          "internalType": "uint256",
          "name": "",
          "type": "uint256"
        },
        {
          "internalType": "uint256",
          "name": "",
          "type": "uint256"
        }
      ],
      "stateMutability": "view",
      "type": "function"
    },
    {
      "inputs": [
        {
          "internalType": "uint256",
          "name": "poolTokenRateN",
          "type": "uint256"
        },
        {
          "internalType": "uint256",
          "name": "poolTokenRateD",
          "type": "uint256"
        },
        {
          "internalType": "uint256",
          "name": "poolAmount",
          "type": "uint256"
        },
        {
          "internalType": "uint256",
          "name": "reserveAmount",
          "type": "uint256"
        },
        {
          "internalType": "uint128",
          "name": "addSpotRateN",
          "type": "uint128"
        },
        {
          "internalType": "uint128",
          "name": "addSpotRateD",
          "type": "uint128"
        },
        {
          "internalType": "uint128",
          "name": "removeSpotRateN",
          "type": "uint128"
        },
        {
          "internalType": "uint128",
          "name": "removeSpotRateD",
          "type": "uint128"
        },
        {
          "internalType": "uint128",
          "name": "removeAverageRateN",
          "type": "uint128"
        },
        {
          "internalType": "uint128",
          "name": "removeAverageRateD",
          "type": "uint128"
        },
        {
          "internalType": "uint256",
          "name": "addTimestamp",
          "type": "uint256"
        },
        {
          "internalType": "uint256",
          "name": "removeTimestamp",
          "type": "uint256"
        }
      ],
      "name": "removeLiquidityTargetAmountTest",
      "outputs": [
        {
          "internalType": "uint256",
          "name": "",
          "type": "uint256"
        }
      ],
      "stateMutability": "nonpayable",
      "type": "function"
    },
    {
      "inputs": [
        {
          "internalType": "uint256",
          "name": "newCurrentTime",
          "type": "uint256"
        }
      ],
      "name": "setTime",
      "outputs": [],
      "stateMutability": "nonpayable",
      "type": "function"
    },
    {
      "inputs": [],
      "name": "settings",
      "outputs": [
        {
          "internalType": "contract ILiquidityProtectionSettings",
          "name": "",
          "type": "address"
        }
      ],
      "stateMutability": "view",
      "type": "function"
    },
    {
      "inputs": [],
      "name": "stats",
      "outputs": [
        {
          "internalType": "contract ILiquidityProtectionStats",
          "name": "",
          "type": "address"
        }
      ],
      "stateMutability": "view",
      "type": "function"
    },
    {
      "inputs": [],
      "name": "store",
      "outputs": [
        {
          "internalType": "contract ILiquidityProtectionStore",
          "name": "",
          "type": "address"
        }
      ],
      "stateMutability": "view",
      "type": "function"
    },
    {
      "inputs": [],
      "name": "systemStore",
      "outputs": [
        {
          "internalType": "contract ILiquidityProtectionSystemStore",
          "name": "",
          "type": "address"
        }
      ],
      "stateMutability": "view",
      "type": "function"
    },
    {
      "inputs": [
        {
          "internalType": "address",
          "name": "newOwner",
          "type": "address"
        }
      ],
      "name": "transferOwnership",
      "outputs": [],
      "stateMutability": "nonpayable",
      "type": "function"
    },
    {
      "inputs": [
        {
          "internalType": "uint256",
          "name": "id",
          "type": "uint256"
        },
        {
          "internalType": "address",
          "name": "newProvider",
          "type": "address"
        }
      ],
      "name": "transferPosition",
      "outputs": [
        {
          "internalType": "uint256",
          "name": "",
          "type": "uint256"
        }
      ],
      "stateMutability": "nonpayable",
      "type": "function"
    },
    {
      "inputs": [
        {
          "internalType": "uint256",
          "name": "id",
          "type": "uint256"
        },
        {
          "internalType": "address",
          "name": "newProvider",
          "type": "address"
        },
        {
          "internalType": "contract ITransferPositionCallback",
          "name": "callback",
          "type": "address"
        },
        {
          "internalType": "bytes",
          "name": "data",
          "type": "bytes"
        }
      ],
      "name": "transferPositionAndNotify",
      "outputs": [
        {
          "internalType": "uint256",
          "name": "",
          "type": "uint256"
        }
      ],
      "stateMutability": "nonpayable",
      "type": "function"
    },
    {
      "inputs": [
        {
          "internalType": "address",
          "name": "newOwner",
          "type": "address"
        }
      ],
      "name": "transferStoreOwnership",
      "outputs": [],
      "stateMutability": "nonpayable",
      "type": "function"
    },
    {
      "inputs": [
        {
          "internalType": "address",
          "name": "newOwner",
          "type": "address"
        }
      ],
      "name": "transferWalletOwnership",
      "outputs": [],
      "stateMutability": "nonpayable",
      "type": "function"
    },
    {
      "inputs": [],
      "name": "wallet",
      "outputs": [
        {
          "internalType": "contract ITokenHolder",
          "name": "",
          "type": "address"
        }
      ],
      "stateMutability": "view",
      "type": "function"
    },
    {
      "stateMutability": "payable",
      "type": "receive"
    }
  ],
  "bytecode": "0x6101c060405260016003553480156200001757600080fd5b50604051620061733803806200617383398181016040526101008110156200003e57600080fd5b508051602082015160408301516060840151608085015160a086015160c087015160e090970151600080546001600160a01b0319163317905560016002559596949593949293919290918787878787878787876200009c816200025d565b87620000a8816200025d565b87620000b4816200025d565b87620000c0816200025d565b87620000cc816200025d565b85620000d8816200025d565b6001600160601b031960608f811b82166080528e811b821660a0528d811b821660c0528c811b821660e0528b811b8216610100528a811b82166101405289811b82166101805288901b166101a05260408051637e062a3560e11b815290516001600160a01b038b169163fc0c546a916004808301926020929190829003018186803b1580156200016757600080fd5b505afa1580156200017c573d6000803e3d6000fd5b505050506040513d60208110156200019357600080fd5b505160601b6001600160601b0319166101205260408051637e062a3560e11b815290516001600160a01b038a169163fc0c546a916004808301926020929190829003018186803b158015620001e757600080fd5b505afa158015620001fc573d6000803e3d6000fd5b505050506040513d60208110156200021357600080fd5b81019080805190602001909291905050506001600160a01b0316610160816001600160a01b031660601b8152505050505050505050505050505050505050505050505050620002bc565b6001600160a01b038116620002b9576040805162461bcd60e51b815260206004820152601360248201527f4552525f494e56414c49445f4144445245535300000000000000000000000000604482015290519081900360640190fd5b50565b60805160601c60a05160601c60c05160601c60e05160601c6101005160601c6101205160601c6101405160601c6101605160601c6101805160601c6101a05160601c615d00620004736000398061383252508061289f52806146f0525080612873525080612d6e5280613ee35280614482525080610dec5280611d575280611f8e52806125ec5280612c315280612ca55280612ddb5280612e3252806145b152806146bc52806147b452508061087b5280610a125280610dbd528061147e52806129c65280612b835280612dfd5280614bc152508061107a528061129c5280611ec45280611fe052806127b95280612a375280612af05280613e5452806143f352806146095280614a0e5280614bf052508061172952806137ce528061394952806139ad525080610b1d5280610d2252806112c852806113e75280611510528061226352806135e7528061371c5280613ab5528061400b5250806115b5528061174d5280611a365280611b795280611c5f5280611d9a5280611e3a5280612707528061301c5280613b515280613bf45280613f7c52806147f352806148e052806149805280614e8d528061508d5250615d006000f3fe6080604052600436106101c65760003560e01c806393e1c1d4116100f7578063d18e81b311610095578063e4a7672611610064578063e4a76726146106ed578063f2fde38b14610723578063fb0f25fc14610756578063fb1a8bd3146107a4576101cd565b8063d18e81b314610699578063d4ee1d90146106ae578063d80528ae146106c3578063e06174e4146106d8576101cd565b8063bf3b1101116100d1578063bf3b11011461059c578063c2250a99146105cf578063c83df66314610602578063caee4c8f1461065d576101cd565b806393e1c1d4146104c5578063975057e71461054b578063ae245a7214610560576101cd565b8063630d8c631161016457806379ba50971161013e57806379ba509714610471578063879015e81461048657806389d94b461461049b5780638da5cb5b146104b0576101cd565b8063630d8c63146103b15780636d533e9b146103e1578063782ed90c1461043b576101cd565b80633beb26c4116101a05780633beb26c414610270578063400834801461029a578063521eb2731461034757806355bd513f14610378576101cd565b8063210f7207146101d257806324afe2d91461022657806328790b5a14610259576101cd565b366101cd57005b600080fd5b3480156101de57600080fd5b5061020d600480360360408110156101f557600080fd5b506001600160a01b03813581169160200135166107ec565b6040805192835260208301919091528051918290030190f35b34801561023257600080fd5b5061020d6004803603602081101561024957600080fd5b50356001600160a01b031661083f565b34801561026557600080fd5b5061026e610871565b005b34801561027c57600080fd5b5061026e6004803603602081101561029357600080fd5b50356108ee565b3480156102a657600080fd5b50610335600480360360808110156102bd57600080fd5b8135916001600160a01b03602082013581169260408301359091169190810190608081016060820135600160201b8111156102f757600080fd5b82018360208201111561030957600080fd5b803590602001918460018302840111600160201b8311171561032a57600080fd5b5090925090506108f3565b60408051918252519081900360200190f35b34801561035357600080fd5b5061035c610a10565b604080516001600160a01b039092168252519081900360200190f35b34801561038457600080fd5b506103356004803603604081101561039b57600080fd5b50803590602001356001600160a01b0316610a34565b3480156103bd57600080fd5b5061026e600480360360408110156103d457600080fd5b5080359060200135610aa1565b3480156103ed57600080fd5b5061041d6004803603606081101561040457600080fd5b5080359063ffffffff6020820135169060400135610e89565b60408051938452602084019290925282820152519081900360600190f35b34801561044757600080fd5b5061026e6004803603604081101561045e57600080fd5b508035906020013563ffffffff1661117b565b34801561047d57600080fd5b5061026e6111e3565b34801561049257600080fd5b5061035c61129a565b3480156104a757600080fd5b5061026e6112be565b3480156104bc57600080fd5b5061035c611321565b3480156104d157600080fd5b5061033560048036036101808110156104e957600080fd5b508035906020810135906040810135906060810135906001600160801b03608082013581169160a081013582169160c082013581169160e081013582169161010082013581169161012081013590911690610140810135906101600135611330565b34801561055757600080fd5b5061035c6113e5565b34801561056c57600080fd5b5061020d6004803603608081101561058357600080fd5b5080359060208101359060408101359060600135611409565b3480156105a857600080fd5b5061026e600480360360208110156105bf57600080fd5b50356001600160a01b0316611474565b3480156105db57600080fd5b5061026e600480360360208110156105f257600080fd5b50356001600160a01b0316611506565b34801561060e57600080fd5b50610335600480360360e081101561062557600080fd5b506001600160a01b03813581169160208101359091169060408101359060608101359060808101359060a08101359060c0013561157d565b6103356004803603608081101561067357600080fd5b506001600160a01b03813581169160208101358216916040820135169060600135611675565b3480156106a557600080fd5b50610335611712565b3480156106ba57600080fd5b5061035c611718565b3480156106cf57600080fd5b5061035c611727565b3480156106e457600080fd5b5061035c61174b565b6103356004803603606081101561070357600080fd5b506001600160a01b0381358116916020810135909116906040013561176f565b34801561072f57600080fd5b5061026e6004803603602081101561074657600080fd5b50356001600160a01b0316611800565b34801561076257600080fd5b50610335600480360360e081101561077957600080fd5b5080359060208101359060408101359060608101359060808101359060a08101359060c0013561187e565b3480156107b057600080fd5b50610335600480360360c08110156107c757600080fd5b5080359060208101359060408101359060608101359060808101359060a001356118e9565b6000806107f7615b7d565b6107ff615b7d565b6108098686611942565b915091506108298260000151836020015183600001518460200151611a32565b80516020909101519093509150505b9250929050565b6000808261084c81611b77565b61085581611c5d565b61085e84611d47565b61086785611f89565b9250925050915091565b61087961208c565b7f00000000000000000000000000000000000000000000000000000000000000006001600160a01b03166379ba50976040518163ffffffff1660e01b8152600401600060405180830381600087803b1580156108d457600080fd5b505af11580156108e8573d6000803e3d6000fd5b50505050565b600355565b600060028054141561093a576040805162461bcd60e51b815260206004820152601f6024820152600080516020615c2d833981519152604482015290519081900360640190fd5b6002805584610948816120e1565b84610952816120e1565b600061095f338a8a612132565b604051635c2ba84560e01b8152600481018281523360248301819052606060448401908152606484018a90529394506001600160a01b038b1693635c2ba8459386938c928c92608401848480828437600081840152601f19601f82011690508083019250505095505050505050600060405180830381600087803b1580156109e657600080fd5b505af11580156109fa573d6000803e3d6000fd5b5050600160025550909998505050505050505050565b7f000000000000000000000000000000000000000000000000000000000000000090565b6000600280541415610a7b576040805162461bcd60e51b815260206004820152601f6024820152600080516020615c2d833981519152604482015290519081900360640190fd5b6002805581610a89816120e1565b610a94338585612132565b6001600255949350505050565b600280541415610ae6576040805162461bcd60e51b815260206004820152601f6024820152600080516020615c2d833981519152604482015290519081900360640190fd5b6002805560408051637a1036f560e11b81523360048201526024810184905260448101839052905160609182916001600160a01b037f0000000000000000000000000000000000000000000000000000000000000000169163f4206dea916064808301926000929190829003018186803b158015610b6357600080fd5b505afa158015610b77573d6000803e3d6000fd5b505050506040513d6000823e601f3d908101601f191682016040908152811015610ba057600080fd5b8101908080516040519392919084600160201b821115610bbf57600080fd5b908301906020820185811115610bd457600080fd5b82518660208202830111600160201b82111715610bf057600080fd5b82525081516020918201928201910280838360005b83811015610c1d578181015183820152602001610c05565b5050505090500160405260200180516040519392919084600160201b821115610c4557600080fd5b908301906020820185811115610c5a57600080fd5b82518660208202830111600160201b82111715610c7657600080fd5b82525081516020918201928201910280838360005b83811015610ca3578181015183820152602001610c8b565b50505050905001604052505050915091506000808351905082518114610cc557fe5b805b8015610db4576000198101610cda612179565b858281518110610ce657fe5b60200260200101511115610cfa5750610dab565b604080516390e0661b60e01b8152336004820152898301602482015290516001600160a01b037f000000000000000000000000000000000000000000000000000000000000000016916390e0661b91604480830192600092919082900301818387803b158015610d6957600080fd5b505af1158015610d7d573d6000803e3d6000fd5b50505050610da7868281518110610d9057fe5b60200260200101518561218890919063ffffffff16565b9350505b60001901610cc7565b508115610e7c577f00000000000000000000000000000000000000000000000000000000000000006001600160a01b0316635e35359e7f000000000000000000000000000000000000000000000000000000000000000033856040518463ffffffff1660e01b815260040180846001600160a01b03168152602001836001600160a01b031681526020018281526020019350505050600060405180830381600087803b158015610e6357600080fd5b505af1158015610e77573d6000803e3d6000fd5b505050505b5050600160025550505050565b600080600084610e98816121eb565b610ea0615b97565b610ea988612251565b80519091506001600160a01b0316610ef9576040805162461bcd60e51b815260206004820152600e60248201526d11549497d253959053125117d25160921b604482015290519081900360640190fd5b8060e00151861015610f4a576040805162461bcd60e51b815260206004820152601560248201527404552525f494e56414c49445f54494d455354414d5605c1b604482015290519081900360640190fd5b63ffffffff8716620f424014610faf576060810151620f424090610f779063ffffffff8a81169061235b16565b81610f7e57fe5b0460608201526080810151620f424090610fa19063ffffffff8a81169061235b16565b81610fa857fe5b0460808201525b610fb7615bf7565b610fd3826020015183604001518460a001518560c001516123b4565b90506000610ffa8360200151846040015185606001518660800151868860e001518e6124d4565b905061100983604001516125ea565b1561101f57955085945060009350611171915050565b611027615b7d565b6110398460200151856040015161261c565b9050600061106c600283600001518161104e57fe5b0461106684602001518661235b90919063ffffffff16565b90612656565b9050600061111b86606001517f00000000000000000000000000000000000000000000000000000000000000006001600160a01b0316635121220c89602001516040518263ffffffff1660e01b815260040180826001600160a01b0316815260200191505060206040518083038186803b1580156110e957600080fd5b505afa1580156110fd573d6000803e3d6000fd5b505050506040513d602081101561111357600080fd5b505190612188565b905080821161112a578161112c565b805b915060006111528460200151611066600287600001518161114957fe5b8791900461235b565b905060006111618683896126bd565b959b509099509397505050505050505b5093509350939050565b6002805414156111c0576040805162461bcd60e51b815260206004820152601f6024820152600080516020615c2d833981519152604482015290519081900360640190fd5b60028055806111ce816121eb565b6111d93384846127a2565b5050600160025550565b6001546001600160a01b03163314611236576040805162461bcd60e51b815260206004820152601160248201527011549497d050d0d154d4d7d11153925151607a1b604482015290519081900360640190fd5b600154600080546040516001600160a01b0393841693909116917f343765429aea5a34b3ff6a3785a98a5abb2597aca87bfbb58632c173d585373a91a360018054600080546001600160a01b03199081166001600160a01b03841617909155169055565b7f000000000000000000000000000000000000000000000000000000000000000090565b6112c661208c565b7f00000000000000000000000000000000000000000000000000000000000000006001600160a01b03166379ba50976040518163ffffffff1660e01b8152600401600060405180830381600087803b1580156108d457600080fd5b6000546001600160a01b031690565b6004805460ff1916600117905560058c905560068b90556000611351615bf7565b6040518060c001604052808b6001600160801b031681526020018a6001600160801b03168152602001896001600160801b03168152602001886001600160801b03168152602001876001600160801b03168152602001866001600160801b0316815250905060006113c86000808f8f868a8a6124d4565b6004805460ff191690559f9e505050505050505050505050505050565b7f000000000000000000000000000000000000000000000000000000000000000090565b600080611414615b7d565b6040518060400160405280888152602001878152509050611433615b7d565b6040518060400160405280878152602001868152509050611452615b7d565b61145c8383612eef565b8051602090910151909a909950975050505050505050565b61147c61208c565b7f00000000000000000000000000000000000000000000000000000000000000006001600160a01b031663f2fde38b826040518263ffffffff1660e01b815260040180826001600160a01b03168152602001915050600060405180830381600087803b1580156114eb57600080fd5b505af11580156114ff573d6000803e3d6000fd5b5050505050565b61150e61208c565b7f00000000000000000000000000000000000000000000000000000000000000006001600160a01b031663f2fde38b826040518263ffffffff1660e01b815260040180826001600160a01b03168152602001915050600060405180830381600087803b1580156114eb57600080fd5b60008061158e86611066898861235b565b9050611598615bf7565b6115a48a8a87876123b4565b905060006116538b8b858c866116467f00000000000000000000000000000000000000000000000000000000000000006001600160a01b031663ce3f3adb6040518163ffffffff1660e01b815260040160206040518083038186803b15801561160c57600080fd5b505afa158015611620573d6000803e3d6000fd5b505050506040513d602081101561163657600080fd5b5051611640612179565b90612fbd565b61164e612179565b6124d4565b90506116668961106683620f424061235b565b9b9a5050505050505050505050565b60006002805414156116bc576040805162461bcd60e51b815260206004820152601f6024820152600080516020615c2d833981519152604482015290519081900360640190fd5b60028055846116ca816120e1565b846116d481611b77565b6116dd81611c5d565b85856116e9828261301a565b856116f38161311a565b6116ff8a8a8a8a613160565b60016002559a9950505050505050505050565b60035490565b6001546001600160a01b031690565b7f000000000000000000000000000000000000000000000000000000000000000090565b7f000000000000000000000000000000000000000000000000000000000000000090565b60006002805414156117b6576040805162461bcd60e51b815260206004820152601f6024820152600080516020615c2d833981519152604482015290519081900360640190fd5b60028055836117c481611b77565b6117cd81611c5d565b84846117d9828261301a565b846117e38161311a565b6117ef33898989613160565b600160025598975050505050505050565b61180861208c565b6000546001600160a01b038281169116141561185c576040805162461bcd60e51b815260206004820152600e60248201526d22a9292fa9a0a6a2afa7aba722a960911b604482015290519081900360640190fd5b600180546001600160a01b0319166001600160a01b0392909216919091179055565b6000611888615b7d565b60405180604001604052808981526020018881525090506118a7615b7d565b60405180604001604052808881526020018781525090506118c6615b7d565b60405180604001604052808781526020018681525090506116668b8484846131bf565b60006118f3615b7d565b6040518060400160405280878152602001868152509050611912615b7d565b60405180604001604052808681526020018581525090506119358989848461322b565b9998505050505050505050565b61194a615b7d565b611952615b7d565b600061195d856132b3565b9050600061196b8286613320565b905060008061197b848489613423565b91509150600080856001600160a01b0316631f0181bc8a6040518263ffffffff1660e01b815260040180826001600160a01b03168152602001915050604080518083038186803b1580156119ce57600080fd5b505afa1580156119e2573d6000803e3d6000fd5b505050506040513d60408110156119f857600080fd5b5080516020918201516040805180820182529788528784019690965285518087019096529085529084015250919890975095505050505050565b60007f00000000000000000000000000000000000000000000000000000000000000006001600160a01b03166324a088686040518163ffffffff1660e01b815260040160206040518083038186803b158015611a8d57600080fd5b505afa158015611aa1573d6000803e3d6000fd5b505050506040513d6020811015611ab757600080fd5b5051620f42400363ffffffff9081169150600090611ae9908390611ae390829082908b90899061235b16565b9061235b565b90506000611b00620f4240611ae385818a8a61235b565b90506000611b17620f4240611ae381818c8a61235b565b9050818311158015611b295750808211155b611b6d576040805162461bcd60e51b815260206004820152601060248201526f4552525f494e56414c49445f5241544560801b604482015290519081900360640190fd5b5050505050505050565b7f00000000000000000000000000000000000000000000000000000000000000006001600160a01b031663d4f63148826040518263ffffffff1660e01b815260040180826001600160a01b0316815260200191505060206040518083038186803b158015611be457600080fd5b505afa158015611bf8573d6000803e3d6000fd5b505050506040513d6020811015611c0e57600080fd5b5051611c5a576040805162461bcd60e51b815260206004820152601660248201527511549497d413d3d317d393d517d4d5541413d495115160521b604482015290519081900360640190fd5b50565b7f00000000000000000000000000000000000000000000000000000000000000006001600160a01b0316632b26a982826040518263ffffffff1660e01b815260040180826001600160a01b0316815260200191505060206040518083038186803b158015611cca57600080fd5b505afa158015611cde573d6000803e3d6000fd5b505050506040513d6020811015611cf457600080fd5b5051611c5a576040805162461bcd60e51b815260206004820152601860248201527f4552525f504f4f4c5f4e4f545f57484954454c49535445440000000000000000604482015290519081900360640190fd5b600080611d53836132b3565b90507f00000000000000000000000000000000000000000000000000000000000000006000611d828383613320565b9050600080611d92858486613423565b9150915060007f00000000000000000000000000000000000000000000000000000000000000006001600160a01b031663943fd08a896040518263ffffffff1660e01b815260040180826001600160a01b0316815260200191505060206040518083038186803b158015611e0557600080fd5b505afa158015611e19573d6000803e3d6000fd5b505050506040513d6020811015611e2f57600080fd5b5051905080611ec0577f00000000000000000000000000000000000000000000000000000000000000006001600160a01b031663b97b55ce6040518163ffffffff1660e01b815260040160206040518083038186803b158015611e9157600080fd5b505afa158015611ea5573d6000803e3d6000fd5b505050506040513d6020811015611ebb57600080fd5b505190505b60007f00000000000000000000000000000000000000000000000000000000000000006001600160a01b031663350ed8e78a6040518263ffffffff1660e01b815260040180826001600160a01b0316815260200191505060206040518083038186803b158015611f2f57600080fd5b505afa158015611f43573d6000803e3d6000fd5b505050506040513d6020811015611f5957600080fd5b50519050600081611f6a8482613523565b039050611f7b84611066838861235b565b9a9950505050505050505050565b6000817f0000000000000000000000000000000000000000000000000000000000000000611fb5615b7d565b611fbf838361261c565b905061208381602001516110666001611640856000015161207d87600001517f00000000000000000000000000000000000000000000000000000000000000006001600160a01b0316635121220c8c6040518263ffffffff1660e01b815260040180826001600160a01b0316815260200191505060206040518083038186803b15801561204b57600080fd5b505afa15801561205f573d6000803e3d6000fd5b505050506040513d602081101561207557600080fd5b50519061235b565b90612188565b95945050505050565b6000546001600160a01b031633146120df576040805162461bcd60e51b815260206004820152601160248201527011549497d050d0d154d4d7d11153925151607a1b604482015290519081900360640190fd5b565b6001600160a01b038116611c5a576040805162461bcd60e51b81526020600482015260136024820152724552525f494e56414c49445f4144445245535360681b604482015290519081900360640190fd5b600061213c615b97565b61214a8585620f424061353a565b905061216e8382602001518360400151846060015185608001518660e001516138c0565b9150505b9392505050565b6000612183611712565b905090565b6000828201838110156121e2576040805162461bcd60e51b815260206004820152601b60248201527f536166654d6174683a206164646974696f6e206f766572666c6f770000000000604482015290519081900360640190fd5b90505b92915050565b60008163ffffffff1611801561220a5750620f424063ffffffff821611155b611c5a576040805162461bcd60e51b815260206004820152601360248201527222a9292fa4a72b20a624a22fa827a92a24a7a760691b604482015290519081900360640190fd5b612259615b97565b612261615b97565b7f00000000000000000000000000000000000000000000000000000000000000006001600160a01b0316635290ffbb846040518263ffffffff1660e01b8152600401808281526020019150506101006040518083038186803b1580156122c657600080fd5b505afa1580156122da573d6000803e3d6000fd5b505050506040513d6101008110156122f157600080fd5b50805160208083015160408085015160608087015160808089015160a0808b015160c0808d015160e09d8e01519d8f019d909d528d019b909b528b01999099528901979097528701959095526001600160a01b039485169086015283169084015216815292915050565b60008261236a575060006121e5565b8282028284828161237757fe5b04146121e25760405162461bcd60e51b8152600401808060200182810382526021815260200180615c736021913960400191505060405180910390fd5b6123bc615bf7565b6123c4615b7d565b6123cc615b7d565b6123d68787611942565b915091506001600160801b0385111580156123f857506001600160801b038411155b801561240c575081516001600160801b0310155b801561242357506001600160801b03826020015111155b8015612437575080516001600160801b0310155b801561244e57506001600160801b03816020015111155b61245457fe5b6040518060c00160405280866001600160801b03168152602001856001600160801b0316815260200183600001516001600160801b0316815260200183602001516001600160801b0316815260200182600001516001600160801b0316815260200182602001516001600160801b0316815250925050505b949350505050565b60006124de615b7d565b6124e8898961261c565b90506124f2615b7d565b604051806040016040528087600001516001600160801b0316815260200187602001516001600160801b0316815250905061252b615b7d565b50604080518082018252908701516001600160801b0390811682526060880151166020820152612559615b7d565b604051806040016040528089608001516001600160801b031681526020018960a001516001600160801b0316815250905060006125988b8686866131bf565b90506125a2615b7d565b6125ac8584612eef565b90506125b6615b7d565b6125c08a8a613b37565b90506125d78c6125d08e86613523565b848461322b565b9f9e505050505050505050505050505050565b7f00000000000000000000000000000000000000000000000000000000000000006001600160a01b0390811691161490565b612624615b7d565b60045460ff161561264c575060408051808201909152600554815260065460208201526121e5565b6121e28383613cd3565b60008082116126ac576040805162461bcd60e51b815260206004820152601a60248201527f536166654d6174683a206469766973696f6e206279207a65726f000000000000604482015290519081900360640190fd5b8183816126b557fe5b049392505050565b60008284116126ce57506000612172565b60006127038360a001516001600160801b031661106685608001516001600160801b031687890361235b90919063ffffffff16565b90507f00000000000000000000000000000000000000000000000000000000000000006001600160a01b031663a80c76ff6040518163ffffffff1660e01b815260040160206040518083038186803b15801561275e57600080fd5b505afa158015612772573d6000803e3d6000fd5b505050506040513d602081101561278857600080fd5b50518110612797579050612172565b506000949350505050565b6127aa615b97565b6127b584848461353a565b90507f00000000000000000000000000000000000000000000000000000000000000006001600160a01b031663332100fa826020015183606001516040518363ffffffff1660e01b815260040180836001600160a01b0316815260200182815260200192505050600060405180830381600087803b15801561283657600080fd5b505af115801561284a573d6000803e3d6000fd5b5050505061285b81604001516125ea565b1561292057608081015161289d906001600160a01b037f0000000000000000000000000000000000000000000000000000000000000000169086903090613df8565b7f00000000000000000000000000000000000000000000000000000000000000006001600160a01b03166342966c6882608001516040518263ffffffff1660e01b815260040180828152602001915050600060405180830381600087803b15801561290757600080fd5b505af115801561291b573d6000803e3d6000fd5b505050505b612928615bf7565b612944826020015183604001518460a001518560c001516123b4565b905061298681604001516001600160801b031682606001516001600160801b031683608001516001600160801b03168460a001516001600160801b0316611a32565b60006129ad8360200151846040015185606001518660800151868860e0015161164e612179565b90506129bc83604001516125ea565b15612a02576129f07f0000000000000000000000000000000000000000000000000000000000000000846020015183613e52565b6129fa8682613f75565b505050612eea565b612a0a615b7d565b612a1c8460200151856040015161261c565b90506000612a31600283600001518161104e57fe5b905060007f00000000000000000000000000000000000000000000000000000000000000006001600160a01b0316635121220c87602001516040518263ffffffff1660e01b815260040180826001600160a01b0316815260200191505060206040518083038186803b158015612aa657600080fd5b505afa158015612aba573d6000803e3d6000fd5b505050506040513d6020811015612ad057600080fd5b50519050808211612ae15781612ae3565b805b91506000866020015190507f00000000000000000000000000000000000000000000000000000000000000006001600160a01b03166319c6a5e48860200151856040518363ffffffff1660e01b815260040180836001600160a01b0316815260200182815260200192505050600060405180830381600087803b158015612b6957600080fd5b505af1158015612b7d573d6000803e3d6000fd5b505050507f00000000000000000000000000000000000000000000000000000000000000006001600160a01b0316635e35359e8230866040518463ffffffff1660e01b815260040180846001600160a01b03168152602001836001600160a01b031681526020018281526020019350505050600060405180830381600087803b158015612c0957600080fd5b505af1158015612c1d573d6000803e3d6000fd5b50505050612c5587602001518489604001517f00000000000000000000000000000000000000000000000000000000000000006140b2565b6040870151600090612c70906001600160a01b031630614288565b6040890151909150612c8c906001600160a01b03168c83614331565b6000612c9987838a6126bd565b90508015612e2e5760007f00000000000000000000000000000000000000000000000000000000000000006001600160a01b03166370a08231306040518263ffffffff1660e01b815260040180826001600160a01b0316815260200191505060206040518083038186803b158015612d1057600080fd5b505afa158015612d24573d6000803e3d6000fd5b505050506040513d6020811015612d3a57600080fd5b5051905081811015612dce57604080516340c10f1960e01b8152306004820152828403602482015290516001600160a01b037f000000000000000000000000000000000000000000000000000000000000000016916340c10f1991604480830192600092919082900301818387803b158015612db557600080fd5b505af1158015612dc9573d6000803e3d6000fd5b505050505b612e226001600160a01b037f0000000000000000000000000000000000000000000000000000000000000000167f00000000000000000000000000000000000000000000000000000000000000008461439f565b612e2c8d83613f75565b505b60007f00000000000000000000000000000000000000000000000000000000000000006001600160a01b03166370a08231306040518263ffffffff1660e01b815260040180826001600160a01b0316815260200191505060206040518083038186803b158015612e9d57600080fd5b505afa158015612eb1573d6000803e3d6000fd5b505050506040513d6020811015612ec757600080fd5b505190508015612edf57612edf8a60200151826143f1565b505050505050505050505b505050565b612ef7615b7d565b60208301518251600091612f0b919061235b565b84516020850151919250600091612f219161235b565b9050818102600082848381612f3257fe5b0414612f5057612f4183614502565b612f4a85614502565b02612f59565b612f5982614502565b90506000612f678585612188565b905060028106612f9a576002810490506040518060400160405280838303815260200182815250955050505050506121e5565b604080518082019091526002909202810382526020820152935050505092915050565b600082821115613014576040805162461bcd60e51b815260206004820152601e60248201527f536166654d6174683a207375627472616374696f6e206f766572666c6f770000604482015290519081900360640190fd5b50900390565b7f00000000000000000000000000000000000000000000000000000000000000006001600160a01b0316639e571a6a83836040518363ffffffff1660e01b815260040180836001600160a01b03168152602001826001600160a01b031681526020019250505060206040518083038186803b15801561309857600080fd5b505afa1580156130ac573d6000803e3d6000fd5b505050506040513d60208110156130c257600080fd5b505115613116576040805162461bcd60e51b815260206004820152601a60248201527f4552525f4144445f4c49515549444954595f44495341424c4544000000000000604482015290519081900360640190fd5b5050565b60008111611c5a576040805162461bcd60e51b815260206004820152600e60248201526d4552525f5a45524f5f56414c554560901b604482015290519081900360640190fd5b600061316b836125ea565b1561318c5761317a6000614558565b6131858585846145ac565b90506124cc565b6131b36131a1846001600160a01b031661478a565b6131ac5760006131ae565b825b614558565b612083858585856147af565b82518151602084015160009283926131e492611ae3916131df919061235b565b614ca6565b905060006132138660200151611ae361320e8760200151896000015161235b90919063ffffffff16565b614502565b9050613220878383614cc6565b979650505050505050565b8051600090819061323c908761235b565b602084015190915060006132596132538484613523565b88613523565b905060008061327c88600001518960200151856000198161327657fe5b04614dc8565b9092509050611f7b61329b613291838761235b565b611066858961235b565b61207d836110666132ac8288612fbd565b8e9061235b565b6000816001600160a01b0316638da5cb5b6040518163ffffffff1660e01b815260040160206040518083038186803b1580156132ee57600080fd5b505afa158015613302573d6000803e3d6000fd5b505050506040513d602081101561331857600080fd5b505192915050565b600080836001600160a01b03166319b6401560006040518263ffffffff1660e01b81526004018082815260200191505060206040518083038186803b15801561336857600080fd5b505afa15801561337c573d6000803e3d6000fd5b505050506040513d602081101561339257600080fd5b505190506001600160a01b0380821690841614156121e257836001600160a01b03166319b6401560016040518263ffffffff1660e01b81526004018082815260200191505060206040518083038186803b1580156133ef57600080fd5b505afa158015613403573d6000803e3d6000fd5b505050506040513d602081101561341957600080fd5b5051949350505050565b600080846001600160a01b031663d8959512856040518263ffffffff1660e01b815260040180826001600160a01b0316815260200191505060206040518083038186803b15801561347357600080fd5b505afa158015613487573d6000803e3d6000fd5b505050506040513d602081101561349d57600080fd5b505160408051636c4aca8960e11b81526001600160a01b03868116600483015291519188169163d895951291602480820192602092909190829003018186803b1580156134e957600080fd5b505afa1580156134fd573d6000803e3d6000fd5b505050506040513d602081101561351357600080fd5b505190925090505b935093915050565b60008183101561353357816121e2565b5090919050565b613542615b97565b61354a615b97565b6135548486614e10565b90506135638160200151611c5d565b61356b612179565b8160e00151106135b2576040805162461bcd60e51b815260206004820152600d60248201526c4552525f544f4f5f4541524c5960981b604482015290519081900360640190fd5b63ffffffff8316620f42401415613668576135e58482600001518360200151846040015185606001518660800151614e89565b7f00000000000000000000000000000000000000000000000000000000000000006001600160a01b0316636f366b71856040518263ffffffff1660e01b815260040180828152602001915050600060405180830381600087803b15801561364b57600080fd5b505af115801561365f573d6000803e3d6000fd5b5050505061377e565b60608101516080820151620f42406136898363ffffffff8881169061235b16565b8161369057fe5b0460608401526080830151620f4240906136b39063ffffffff8881169061235b16565b816136ba57fe5b046080840181905283516020850151604086015160608701516136e2948b9493929190614e89565b606083015160808401516040805163161139bd60e31b8152600481018a905292850360248401529083036044830152516001600160a01b037f0000000000000000000000000000000000000000000000000000000000000000169163b089cde891606480830192600092919082900301818387803b15801561376357600080fd5b505af1158015613777573d6000803e3d6000fd5b5050505050505b805160208201516040808401516060850151608086015183516327396b6d60e01b81526001600160a01b0396871660048201529486166024860152918516604485015260648401526084830152517f0000000000000000000000000000000000000000000000000000000000000000909216916327396b6d9160a48082019260009290919082900301818387803b15801561381857600080fd5b505af115801561382c573d6000803e3d6000fd5b505050507f00000000000000000000000000000000000000000000000000000000000000006001600160a01b0316631d092adf866040518263ffffffff1660e01b815260040180826001600160a01b03168152602001915050600060405180830381600087803b15801561389f57600080fd5b505af11580156138b3573d6000803e3d6000fd5b5092979650505050505050565b60006138ca615b7d565b6138d2615b7d565b6138dc8888611942565b915091506138fc8260000151836020015183600001518460200151611a32565b6139098989898989615089565b60408051630aa558ef60e41b81526001600160a01b038b811660048301528a811660248301528981166044830152606482018990526084820188905291517f00000000000000000000000000000000000000000000000000000000000000009092169163aa558ef09160a48082019260009290919082900301818387803b15801561399357600080fd5b505af11580156139a7573d6000803e3d6000fd5b505050507f00000000000000000000000000000000000000000000000000000000000000006001600160a01b031663fd4bc1e68a8a6040518363ffffffff1660e01b815260040180836001600160a01b03168152602001826001600160a01b0316815260200192505050602060405180830381600087803b158015613a2b57600080fd5b505af1158015613a3f573d6000803e3d6000fd5b505050506040513d6020811015613a5557600080fd5b50508151602080840151604080516361d5f08760e01b81526001600160a01b038e811660048301528d811660248301528c81166044830152606482018c9052608482018b905260a482019590955260c481019290925260e48201889052517f0000000000000000000000000000000000000000000000000000000000000000909316926361d5f08792610104808401939192918290030181600087803b158015613afe57600080fd5b505af1158015613b12573d6000803e3d6000fd5b505050506040513d6020811015613b2857600080fd5b50519998505050505050505050565b613b3f615b7d565b6000613b4b8385612fbd565b905060007f00000000000000000000000000000000000000000000000000000000000000006001600160a01b0316632c560f896040518163ffffffff1660e01b815260040160206040518083038186803b158015613ba857600080fd5b505afa158015613bbc573d6000803e3d6000fd5b505050506040513d6020811015613bd257600080fd5b50516040805163ce3f3adb60e01b815290519192506000916001600160a01b037f0000000000000000000000000000000000000000000000000000000000000000169163ce3f3adb916004808301926020929190829003018186803b158015613c3a57600080fd5b505afa158015613c4e573d6000803e3d6000fd5b505050506040513d6020811015613c6457600080fd5b5051905081831015613c9157604051806040016040528060008152602001600181525093505050506121e5565b808310613cb957604051806040016040528060018152602001600181525093505050506121e5565b604080518082019091529283526020830152509392505050565b613cdb615b7d565b6000836001600160a01b03166318160ddd6040518163ffffffff1660e01b815260040160206040518083038186803b158015613d1657600080fd5b505afa158015613d2a573d6000803e3d6000fd5b505050506040513d6020811015613d4057600080fd5b505190506000613d4f856132b3565b90506000816001600160a01b031663d8959512866040518263ffffffff1660e01b815260040180826001600160a01b0316815260200191505060206040518083038186803b158015613da057600080fd5b505afa158015613db4573d6000803e3d6000fd5b505050506040513d6020811015613dca57600080fd5b50516040805180820190915290915080613de583600261235b565b8152602001939093525090949350505050565b604080516001600160a01b0380861660248301528416604482015260648082018490528251808303909101815260849091019091526020810180516001600160e01b03166323b872dd60e01b1790526108e8908590615276565b7f00000000000000000000000000000000000000000000000000000000000000006001600160a01b031663deacd84e83836040518363ffffffff1660e01b815260040180836001600160a01b0316815260200182815260200192505050600060405180830381600087803b158015613ec957600080fd5b505af1158015613edd573d6000803e3d6000fd5b505050507f00000000000000000000000000000000000000000000000000000000000000006001600160a01b03166340c10f1984836040518363ffffffff1660e01b815260040180836001600160a01b0316815260200182815260200192505050600060405180830381600087803b158015613f5857600080fd5b505af1158015613f6c573d6000803e3d6000fd5b50505050505050565b60006140077f00000000000000000000000000000000000000000000000000000000000000006001600160a01b031663045544436040518163ffffffff1660e01b815260040160206040518083038186803b158015613fd357600080fd5b505afa158015613fe7573d6000803e3d6000fd5b505050506040513d6020811015613ffd57600080fd5b505161207d612179565b90507f00000000000000000000000000000000000000000000000000000000000000006001600160a01b031663dbae3a5d8484846040518463ffffffff1660e01b815260040180846001600160a01b031681526020018381526020018281526020019350505050602060405180830381600087803b15801561408857600080fd5b505af115801561409c573d6000803e3d6000fd5b505050506040513d60208110156114ff57600080fd5b60006140bd856132b3565b60408051600280825260608083018452939450909160208301908036833750506040805160028082526060808301845294955090925090602083019080368337019050509050848260008151811061411157fe5b60200260200101906001600160a01b031690816001600160a01b031681525050838260018151811061413f57fe5b60200260200101906001600160a01b031690816001600160a01b03168152505060018160008151811061416e57fe5b60200260200101818152505060018160018151811061418957fe5b602002602001018181525050826001600160a01b031663b127c0a58784846040518463ffffffff1660e01b8152600401808481526020018060200180602001838103835285818151815260200191508051906020019060200280838360005b838110156142005781810151838201526020016141e8565b50505050905001838103825284818151815260200191508051906020019060200280838360005b8381101561423f578181015183820152602001614227565b5050505090500195505050505050600060405180830381600087803b15801561426757600080fd5b505af115801561427b573d6000803e3d6000fd5b5050505050505050505050565b60006142938361478a565b156142a957506001600160a01b038116316121e5565b6142b283615327565b6001600160a01b03166370a08231836040518263ffffffff1660e01b815260040180826001600160a01b0316815260200191505060206040518083038186803b1580156142fe57600080fd5b505afa158015614312573d6000803e3d6000fd5b505050506040513d602081101561432857600080fd5b50519392505050565b8061433b57612eea565b6143448361478a565b15614385576040516001600160a01b0383169082156108fc029083906000818181858888f1935050505015801561437f573d6000803e3d6000fd5b50612eea565b612eea828261439386615327565b6001600160a01b031691905b604080516001600160a01b038416602482015260448082018490528251808303909101815260649091019091526020810180516001600160e01b031663a9059cbb60e01b179052612eea908490615276565b7f00000000000000000000000000000000000000000000000000000000000000006001600160a01b031663802fa3ba83836040518363ffffffff1660e01b815260040180836001600160a01b0316815260200182815260200192505050600060405180830381600087803b15801561446857600080fd5b505af115801561447c573d6000803e3d6000fd5b505050507f00000000000000000000000000000000000000000000000000000000000000006001600160a01b03166342966c68826040518263ffffffff1660e01b815260040180828152602001915050600060405180830381600087803b1580156144e657600080fd5b505af11580156144fa573d6000803e3d6000fd5b505050505050565b6000806002830460010190506000600282858161451b57fe5b0483018161452557fe5b0490505b8082111561455157809150600282858161453f57fe5b0483018161454957fe5b049050614529565b5092915050565b803414611c5a576040805162461bcd60e51b815260206004820152601760248201527f4552525f4554485f414d4f554e545f4d49534d41544348000000000000000000604482015290519081900360640190fd5b6000827f00000000000000000000000000000000000000000000000000000000000000006145d8615b7d565b6145e2838361261c565b90506000614605826000015161106684602001518961235b90919063ffffffff16565b90507f00000000000000000000000000000000000000000000000000000000000000006001600160a01b03166319c6a5e485836040518363ffffffff1660e01b815260040180836001600160a01b0316815260200182815260200192505050600060405180830381600087803b15801561467e57600080fd5b505af1158015614692573d6000803e3d6000fd5b5050505060006146ad898686858b6146a8612179565b6138c0565b90506146e46001600160a01b037f00000000000000000000000000000000000000000000000000000000000000001633308a613df8565b6146ee88886143f1565b7f00000000000000000000000000000000000000000000000000000000000000006001600160a01b03166340c10f198a896040518363ffffffff1660e01b815260040180836001600160a01b0316815260200182815260200192505050600060405180830381600087803b15801561476557600080fd5b505af1158015614779573d6000803e3d6000fd5b50929b9a5050505050505050505050565b6001600160a01b03811673eeeeeeeeeeeeeeeeeeeeeeeeeeeeeeeeeeeeeeee14919050565b6000837f0000000000000000000000000000000000000000000000000000000000000000826147dd836132b3565b90506000806147ed838986613423565b915091507f00000000000000000000000000000000000000000000000000000000000000006001600160a01b03166312588d0e6040518163ffffffff1660e01b815260040160206040518083038186803b15801561484a57600080fd5b505afa15801561485e573d6000803e3d6000fd5b505050506040513d602081101561487457600080fd5b50518110156148ca576040805162461bcd60e51b815260206004820152601860248201527f4552525f4e4f545f454e4f5547485f4c49515549444954590000000000000000604482015290519081900360640190fd5b60006148da836110668a8561235b565b905060007f00000000000000000000000000000000000000000000000000000000000000006001600160a01b031663943fd08a8c6040518263ffffffff1660e01b815260040180826001600160a01b0316815260200191505060206040518083038186803b15801561494b57600080fd5b505afa15801561495f573d6000803e3d6000fd5b505050506040513d602081101561497557600080fd5b5051905080614a06577f00000000000000000000000000000000000000000000000000000000000000006001600160a01b031663b97b55ce6040518163ffffffff1660e01b815260040160206040518083038186803b1580156149d757600080fd5b505afa1580156149eb573d6000803e3d6000fd5b505050506040513d6020811015614a0157600080fd5b505190505b6000614a79837f00000000000000000000000000000000000000000000000000000000000000006001600160a01b031663350ed8e78f6040518263ffffffff1660e01b815260040180826001600160a01b0316815260200191505060206040518083038186803b1580156110e957600080fd5b905081811115614ac9576040805162461bcd60e51b815260206004820152601660248201527511549497d3505617d05353d5539517d4915050d2115160521b604482015290519081900360640190fd5b614ad4308d85613e52565b614ae86001600160a01b038816878561532a565b614afa8b6001600160a01b031661478a565b614b2757614b136001600160a01b038c1633308d61535b565b614b276001600160a01b038c16878c61532a565b614b35868c898d8734615396565b6000886001600160a01b03166370a08231306040518263ffffffff1660e01b815260040180826001600160a01b0316815260200191505060206040518083038186803b158015614b8457600080fd5b505afa158015614b98573d6000803e3d6000fd5b505050506040513d6020811015614bae57600080fd5b50519050614be66001600160a01b038a167f00000000000000000000000000000000000000000000000000000000000000008361439f565b6001600160a01b037f00000000000000000000000000000000000000000000000000000000000000001663332100fa8a6002840484036040518363ffffffff1660e01b815260040180836001600160a01b0316815260200182815260200192505050600060405180830381600087803b158015614c6257600080fd5b505af1158015614c76573d6000803e3d6000fd5b50505050614c948e8a8e60028581614c8a57fe5b048f6146a8612179565b9e9d5050505050505050505050505050565b600080614cb283614502565b905082818202146121e55780600101612172565b6000806000614cd5868661554f565b915091508160001415614cf557838181614ceb57fe5b0492505050612172565b838210614d38576040805162461bcd60e51b815260206004820152600c60248201526b4552525f4f564552464c4f5760a01b604482015290519081900360640190fd5b6000614d4587878761559a565b9050600080614d558585856155af565b915091508160001415614d7857868181614d6b57fe5b0495505050505050612172565b600087614d8660008a6155df565b1690506000614d968484846155e4565b90506000614dac838b81614da657fe5b04615625565b9050614db8828261565b565b9c9b505050505050505050505050565b600080848484821180614dda57508481115b15614df057614dea82828761565f565b90925090505b808214614e0157909250905061351b565b50600196879650945050505050565b614e18615b97565b614e20615b97565b614e2984612251565b9050826001600160a01b031681600001516001600160a01b0316146121e2576040805162461bcd60e51b815260206004820152601160248201527011549497d050d0d154d4d7d11153925151607a1b604482015290519081900360640190fd5b60607f00000000000000000000000000000000000000000000000000000000000000006001600160a01b0316639e2ce9d26040518163ffffffff1660e01b815260040160006040518083038186803b158015614ee457600080fd5b505afa158015614ef8573d6000803e3d6000fd5b505050506040513d6000823e601f3d908101601f191682016040526020811015614f2157600080fd5b8101908080516040519392919084600160201b821115614f4057600080fd5b908301906020820185811115614f5557600080fd5b82518660208202830111600160201b82111715614f7157600080fd5b82525081516020918201928201910280838360005b83811015614f9e578181015183820152602001614f86565b50505050905001604052505050905060008151905060005b8181101561507e57828181518110614fca57fe5b60200260200101516001600160a01b031663b8128fe68a8a8a8a8a8a6040518763ffffffff1660e01b815260040180878152602001866001600160a01b03168152602001856001600160a01b03168152602001846001600160a01b031681526020018381526020018281526020019650505050505050600060405180830381600087803b15801561505a57600080fd5b505af115801561506e573d6000803e3d6000fd5b505060019092019150614fb69050565b505050505050505050565b60607f00000000000000000000000000000000000000000000000000000000000000006001600160a01b0316639e2ce9d26040518163ffffffff1660e01b815260040160006040518083038186803b1580156150e457600080fd5b505afa1580156150f8573d6000803e3d6000fd5b505050506040513d6000823e601f3d908101601f19168201604052602081101561512157600080fd5b8101908080516040519392919084600160201b82111561514057600080fd5b90830190602082018581111561515557600080fd5b82518660208202830111600160201b8211171561517157600080fd5b82525081516020918201928201910280838360005b8381101561519e578181015183820152602001615186565b50505050905001604052505050905060008151905060005b81811015611b6d578281815181106151ca57fe5b60200260200101516001600160a01b031663139c22ea89898989896040518663ffffffff1660e01b815260040180866001600160a01b03168152602001856001600160a01b03168152602001846001600160a01b0316815260200183815260200182815260200195505050505050600060405180830381600087803b15801561525257600080fd5b505af1158015615266573d6000803e3d6000fd5b5050600190920191506151b69050565b60606152cb826040518060400160405280602081526020017f5361666545524332303a206c6f772d6c6576656c2063616c6c206661696c6564815250856001600160a01b03166156989092919063ffffffff16565b805190915015612eea578080602001905160208110156152ea57600080fd5b5051612eea5760405162461bcd60e51b815260040180806020018281038252602a815260200180615c94602a913960400191505060405180910390fd5b90565b6153338361478a565b1561533d57612eea565b612eea828261534b86615327565b6001600160a01b031691906156a7565b80158061536c575061536c8461478a565b15615376576108e8565b6108e883838361538588615327565b6001600160a01b0316929190613df8565b60408051600280825260608083018452926020830190803683375050604080516002808252606080830184529495509092509060208301908036833701905050905086826000815181106153e657fe5b60200260200101906001600160a01b031690816001600160a01b031681525050858260018151811061541457fe5b60200260200101906001600160a01b031690816001600160a01b031681525050848160008151811061544257fe5b602002602001018181525050838160018151811061545c57fe5b602002602001018181525050876001600160a01b0316637d8916bd84848460016040518563ffffffff1660e01b8152600401808060200180602001848152602001838103835286818151815260200191508051906020019060200280838360005b838110156154d55781810151838201526020016154bd565b50505050905001838103825285818151815260200191508051906020019060200280838360005b838110156155145781810151838201526020016154fc565b50505050905001955050505050506000604051808303818588803b15801561553b57600080fd5b505af1158015612edf573d6000803e3d6000fd5b600080600061555e858561576c565b9050600061556c868661565b565b9050808210615582579081900392509050610838565b600161558e83836155df565b03969095509350505050565b600081806155a457fe5b838509949350505050565b6000808284106155c5575083905081830361351b565b600185036155d385856155df565b91509150935093915050565b900390565b600080615605836155f66000866155df565b816155fd57fe5b04600161577b565b905082848161561057fe5b0461561b868361565b565b1795945050505050565b60006001815b6008811015614551576156518261564c6002615647868961565b565b6155df565b61565b565b915060010161562b565b0290565b60008083851161567d5761567485858561577f565b9150915061351b565b60008061568b86888761577f565b9890975095505050505050565b60606124cc8484600085615843565b806156b157612eea565b60408051636eb1769f60e11b81523060048201526001600160a01b038481166024830152915160009286169163dd62ed3e916044808301926020929190829003018186803b15801561570257600080fd5b505afa158015615716573d6000803e3d6000fd5b505050506040513d602081101561572c57600080fd5b5051905081811061573d5750612eea565b8015615758576157586001600160a01b038516846000615994565b6108e86001600160a01b0385168484615994565b60006000198284099392505050565b0190565b6000806000836000198161578f57fe5b049050808611156157c85760008160010187816157a857fe5b0460010190508087816157b757fe5b0496508086816157c357fe5b049550505b8486146158335785840260006157de888861577b565b90508781106158045760006157f38383615aa7565b95505050838503925061351b915050565b6002888803048703821015615822576000869450945050505061351b565b60018087039450945050505061351b565b5050600290910493849350915050565b6060824710156158845760405162461bcd60e51b8152600401808060200182810382526026815260200180615c4d6026913960400191505060405180910390fd5b61588d85615ad3565b6158de576040805162461bcd60e51b815260206004820152601d60248201527f416464726573733a2063616c6c20746f206e6f6e2d636f6e7472616374000000604482015290519081900360640190fd5b60006060866001600160a01b031685876040518082805190602001908083835b6020831061591d5780518252601f1990920191602091820191016158fe565b6001836020036101000a03801982511681845116808217855250505050505090500191505060006040518083038185875af1925050503d806000811461597f576040519150601f19603f3d011682016040523d82523d6000602084013e615984565b606091505b5091509150613220828286615ad9565b801580615a1a575060408051636eb1769f60e11b81523060048201526001600160a01b03848116602483015291519185169163dd62ed3e91604480820192602092909190829003018186803b1580156159ec57600080fd5b505afa158015615a00573d6000803e3d6000fd5b505050506040513d6020811015615a1657600080fd5b5051155b615a555760405162461bcd60e51b8152600401808060200182810382526036815260200180615cbe6036913960400191505060405180910390fd5b604080516001600160a01b038416602482015260448082018490528251808303909101815260649091019091526020810180516001600160e01b031663095ea7b360e01b179052612eea908490615276565b6000600282048203828481615ab857fe5b0681615ac057fe5b04828481615aca57fe5b04019392505050565b3b151590565b60608315615ae8575081612172565b825115615af85782518084602001fd5b8160405162461bcd60e51b81526004018080602001828103825283818151815260200191508051906020019080838360005b83811015615b42578181015183820152602001615b2a565b50505050905090810190601f168015615b6f5780820380516001836020036101000a031916815260200191505b509250505060405180910390fd5b604051806040016040528060008152602001600081525090565b60405180610100016040528060006001600160a01b0316815260200160006001600160a01b0316815260200160006001600160a01b0316815260200160008152602001600081526020016000815260200160008152602001600081525090565b6040805160c081018252600080825260208201819052918101829052606081018290526080810182905260a08101919091529056fe5265656e7472616e637947756172643a207265656e7472616e742063616c6c00416464726573733a20696e73756666696369656e742062616c616e636520666f722063616c6c536166654d6174683a206d756c7469706c69636174696f6e206f766572666c6f775361666545524332303a204552433230206f7065726174696f6e20646964206e6f7420737563636565645361666545524332303a20617070726f76652066726f6d206e6f6e2d7a65726f20746f206e6f6e2d7a65726f20616c6c6f77616e6365a164736f6c634300060c000a",
  "linkReferences": {},
  "deployedLinkReferences": {}
}