{
  "_format": "hh-sol-artifact-1",
  "contractName": "TokenHolder",
  "sourceName": "contracts/utility/TokenHolder.sol",
  "abi": [
    {
      "anonymous": false,
      "inputs": [
        {
          "indexed": true,
          "internalType": "address",
          "name": "prevOwner",
          "type": "address"
        },
        {
          "indexed": true,
          "internalType": "address",
          "name": "newOwner",
          "type": "address"
        }
      ],
      "name": "OwnerUpdate",
      "type": "event"
    },
    {
      "inputs": [],
      "name": "acceptOwnership",
      "outputs": [],
      "stateMutability": "nonpayable",
      "type": "function"
    },
    {
      "inputs": [],
      "name": "newOwner",
      "outputs": [
        {
          "internalType": "address",
          "name": "",
          "type": "address"
        }
      ],
      "stateMutability": "view",
      "type": "function"
    },
    {
      "inputs": [],
      "name": "owner",
      "outputs": [
        {
          "internalType": "address",
          "name": "",
          "type": "address"
        }
      ],
      "stateMutability": "view",
      "type": "function"
    },
    {
      "inputs": [
        {
          "internalType": "address",
          "name": "newOwner",
          "type": "address"
        }
      ],
      "name": "transferOwnership",
      "outputs": [],
      "stateMutability": "nonpayable",
      "type": "function"
    },
    {
      "inputs": [
        {
          "internalType": "contract IReserveToken",
          "name": "reserveToken",
          "type": "address"
        },
        {
          "internalType": "address payable",
          "name": "to",
          "type": "address"
        },
        {
          "internalType": "uint256",
          "name": "amount",
          "type": "uint256"
        }
      ],
      "name": "withdrawTokens",
      "outputs": [],
      "stateMutability": "nonpayable",
      "type": "function"
    },
    {
      "inputs": [
        {
          "internalType": "contract IReserveToken[]",
          "name": "reserveTokens",
          "type": "address[]"
        },
        {
          "internalType": "address payable",
          "name": "to",
          "type": "address"
        },
        {
          "internalType": "uint256[]",
          "name": "amounts",
          "type": "uint256[]"
        }
      ],
      "name": "withdrawTokensMultiple",
      "outputs": [],
      "stateMutability": "nonpayable",
      "type": "function"
    },
    {
      "stateMutability": "payable",
      "type": "receive"
    }
  ],
  "bytecode": "0x608060405234801561001057600080fd5b50600080546001600160a01b03191633179055610919806100326000396000f3fe6080604052600436106100595760003560e01c806308506df7146100655780635e35359e1461014357806379ba5097146101865780638da5cb5b1461019b578063d4ee1d90146101cc578063f2fde38b146101e157610060565b3661006057005b600080fd5b34801561007157600080fd5b506101416004803603606081101561008857600080fd5b8101906020810181356401000000008111156100a357600080fd5b8201836020820111156100b557600080fd5b803590602001918460208302840111640100000000831117156100d757600080fd5b919390926001600160a01b038335169260408101906020013564010000000081111561010257600080fd5b82018360208201111561011457600080fd5b8035906020019184602083028401116401000000008311171561013657600080fd5b509092509050610214565b005b34801561014f57600080fd5b506101416004803603606081101561016657600080fd5b506001600160a01b038135811691602081013590911690604001356102d8565b34801561019257600080fd5b50610141610304565b3480156101a757600080fd5b506101b06103bb565b604080516001600160a01b039092168252519081900360200190f35b3480156101d857600080fd5b506101b06103ca565b3480156101ed57600080fd5b506101416004803603602081101561020457600080fd5b50356001600160a01b03166103d9565b61021c610457565b82610226816104ac565b84828114610270576040805162461bcd60e51b815260206004820152601260248201527108aa4a4be929cac82989288be988a9c8ea8960731b604482015290519081900360640190fd5b60005b818110156102ce576102c68686868481811061028b57fe5b905060200201358a8a8581811061029e57fe5b905060200201356001600160a01b03166001600160a01b03166105009092919063ffffffff16565b600101610273565b5050505050505050565b6102e0610457565b816102ea816104ac565b6102fe6001600160a01b0385168484610500565b50505050565b6001546001600160a01b03163314610357576040805162461bcd60e51b815260206004820152601160248201527011549497d050d0d154d4d7d11153925151607a1b604482015290519081900360640190fd5b600154600080546040516001600160a01b0393841693909116917f343765429aea5a34b3ff6a3785a98a5abb2597aca87bfbb58632c173d585373a91a360018054600080546001600160a01b03199081166001600160a01b03841617909155169055565b6000546001600160a01b031690565b6001546001600160a01b031690565b6103e1610457565b6000546001600160a01b0382811691161415610435576040805162461bcd60e51b815260206004820152600e60248201526d22a9292fa9a0a6a2afa7aba722a960911b604482015290519081900360640190fd5b600180546001600160a01b0319166001600160a01b0392909216919091179055565b6000546001600160a01b031633146104aa576040805162461bcd60e51b815260206004820152601160248201527011549497d050d0d154d4d7d11153925151607a1b604482015290519081900360640190fd5b565b6001600160a01b0381166104fd576040805162461bcd60e51b81526020600482015260136024820152724552525f494e56414c49445f4144445245535360681b604482015290519081900360640190fd5b50565b8061050a57610572565b61051383610577565b15610554576040516001600160a01b0383169082156108fc029083906000818181858888f1935050505015801561054e573d6000803e3d6000fd5b50610572565b61057282826105628661059c565b6001600160a01b0316919061059f565b505050565b6001600160a01b03811673eeeeeeeeeeeeeeeeeeeeeeeeeeeeeeeeeeeeeeee14919050565b90565b604080516001600160a01b038416602482015260448082018490528251808303909101815260649091019091526020810180516001600160e01b031663a9059cbb60e01b1790526105729084906060610641826040518060400160405280602081526020017f5361666545524332303a206c6f772d6c6576656c2063616c6c206661696c6564815250856001600160a01b031661069d9092919063ffffffff16565b8051909150156105725780806020019051602081101561066057600080fd5b50516105725760405162461bcd60e51b815260040180806020018281038252602a8152602001806108e3602a913960400191505060405180910390fd5b60606106ac84846000856106b6565b90505b9392505050565b6060824710156106f75760405162461bcd60e51b81526004018080602001828103825260268152602001806108bd6026913960400191505060405180910390fd5b61070085610812565b610751576040805162461bcd60e51b815260206004820152601d60248201527f416464726573733a2063616c6c20746f206e6f6e2d636f6e7472616374000000604482015290519081900360640190fd5b60006060866001600160a01b031685876040518082805190602001908083835b602083106107905780518252601f199092019160209182019101610771565b6001836020036101000a03801982511681845116808217855250505050505090500191505060006040518083038185875af1925050503d80600081146107f2576040519150601f19603f3d011682016040523d82523d6000602084013e6107f7565b606091505b5091509150610807828286610818565b979650505050505050565b3b151590565b606083156108275750816106af565b8251156108375782518084602001fd5b8160405162461bcd60e51b81526004018080602001828103825283818151815260200191508051906020019080838360005b83811015610881578181015183820152602001610869565b50505050905090810190601f1680156108ae5780820380516001836020036101000a031916815260200191505b509250505060405180910390fdfe416464726573733a20696e73756666696369656e742062616c616e636520666f722063616c6c5361666545524332303a204552433230206f7065726174696f6e20646964206e6f742073756363656564a164736f6c634300060c000a",
  "linkReferences": {},
  "deployedLinkReferences": {}
}