{
  "_format": "hh-sol-artifact-1",
  "contractName": "TestMathEx",
  "sourceName": "contracts/helpers/TestMathEx.sol",
  "abi": [
    {
      "inputs": [
        {
          "internalType": "uint256",
          "name": "a",
          "type": "uint256"
        },
        {
          "internalType": "uint256",
          "name": "b",
          "type": "uint256"
        },
        {
          "internalType": "uint256",
          "name": "scale",
          "type": "uint256"
        }
      ],
      "name": "accurateRatioTest",
      "outputs": [
        {
          "internalType": "uint256",
          "name": "",
          "type": "uint256"
        },
        {
          "internalType": "uint256",
          "name": "",
          "type": "uint256"
        }
      ],
      "stateMutability": "pure",
      "type": "function"
    },
    {
      "inputs": [
        {
          "internalType": "uint256",
          "name": "num",
          "type": "uint256"
        }
      ],
      "name": "ceilSqrtTest",
      "outputs": [
        {
          "internalType": "uint256",
          "name": "",
          "type": "uint256"
        }
      ],
      "stateMutability": "pure",
      "type": "function"
    },
    {
      "inputs": [
        {
          "internalType": "uint256",
          "name": "x",
          "type": "uint256"
        }
      ],
      "name": "decimalLengthTest",
      "outputs": [
        {
          "internalType": "uint256",
          "name": "",
          "type": "uint256"
        }
      ],
      "stateMutability": "pure",
      "type": "function"
    },
    {
      "inputs": [
        {
          "internalType": "uint256",
          "name": "num",
          "type": "uint256"
        }
      ],
      "name": "floorSqrtTest",
      "outputs": [
        {
          "internalType": "uint256",
          "name": "",
          "type": "uint256"
        }
      ],
      "stateMutability": "pure",
      "type": "function"
    },
    {
      "inputs": [
        {
          "internalType": "uint256[]",
          "name": "values",
          "type": "uint256[]"
        }
      ],
      "name": "geometricMeanTest",
      "outputs": [
        {
          "internalType": "uint256",
          "name": "",
          "type": "uint256"
        }
      ],
      "stateMutability": "pure",
      "type": "function"
    },
    {
      "inputs": [
        {
          "internalType": "uint256",
          "name": "x",
          "type": "uint256"
        },
        {
          "internalType": "uint256",
          "name": "y",
          "type": "uint256"
        },
        {
          "internalType": "uint256",
          "name": "z",
          "type": "uint256"
        }
      ],
      "name": "mulDivC",
      "outputs": [
        {
          "internalType": "uint256",
          "name": "",
          "type": "uint256"
        }
      ],
      "stateMutability": "pure",
      "type": "function"
    },
    {
      "inputs": [
        {
          "internalType": "uint256",
          "name": "x",
          "type": "uint256"
        },
        {
          "internalType": "uint256",
          "name": "y",
          "type": "uint256"
        },
        {
          "internalType": "uint256",
          "name": "z",
          "type": "uint256"
        }
      ],
      "name": "mulDivF",
      "outputs": [
        {
          "internalType": "uint256",
          "name": "",
          "type": "uint256"
        }
      ],
      "stateMutability": "pure",
      "type": "function"
    },
    {
      "inputs": [
        {
          "internalType": "uint256",
          "name": "a",
          "type": "uint256"
        },
        {
          "internalType": "uint256",
          "name": "b",
          "type": "uint256"
        },
        {
          "internalType": "uint256",
          "name": "scale",
          "type": "uint256"
        }
      ],
      "name": "normalizedRatioTest",
      "outputs": [
        {
          "internalType": "uint256",
          "name": "",
          "type": "uint256"
        },
        {
          "internalType": "uint256",
          "name": "",
          "type": "uint256"
        }
      ],
      "stateMutability": "pure",
      "type": "function"
    },
    {
      "inputs": [
        {
          "internalType": "uint256",
          "name": "xn",
          "type": "uint256"
        },
        {
          "internalType": "uint256",
          "name": "yn",
          "type": "uint256"
        },
        {
          "internalType": "uint256",
          "name": "xd",
          "type": "uint256"
        },
        {
          "internalType": "uint256",
          "name": "yd",
          "type": "uint256"
        }
      ],
      "name": "productRatioTest",
      "outputs": [
        {
          "internalType": "uint256",
          "name": "",
          "type": "uint256"
        },
        {
          "internalType": "uint256",
          "name": "",
          "type": "uint256"
        }
      ],
      "stateMutability": "pure",
      "type": "function"
    },
    {
      "inputs": [
        {
          "internalType": "uint256",
          "name": "n",
          "type": "uint256"
        },
        {
          "internalType": "uint256",
          "name": "d",
          "type": "uint256"
        },
        {
          "internalType": "uint256",
          "name": "max",
          "type": "uint256"
        }
      ],
      "name": "reducedRatioTest",
      "outputs": [
        {
          "internalType": "uint256",
          "name": "",
          "type": "uint256"
        },
        {
          "internalType": "uint256",
          "name": "",
          "type": "uint256"
        }
      ],
      "stateMutability": "pure",
      "type": "function"
    },
    {
      "inputs": [
        {
          "internalType": "uint256",
          "name": "n",
          "type": "uint256"
        },
        {
          "internalType": "uint256",
          "name": "d",
          "type": "uint256"
        }
      ],
      "name": "roundDivTest",
      "outputs": [
        {
          "internalType": "uint256",
          "name": "",
          "type": "uint256"
        }
      ],
      "stateMutability": "pure",
      "type": "function"
    },
    {
      "inputs": [
        {
          "internalType": "uint256",
          "name": "n",
          "type": "uint256"
        },
        {
          "internalType": "uint256",
          "name": "d",
          "type": "uint256"
        }
      ],
      "name": "roundDivUnsafeTest",
      "outputs": [
        {
          "internalType": "uint256",
          "name": "",
          "type": "uint256"
        }
      ],
      "stateMutability": "pure",
      "type": "function"
    }
  ],
  "bytecode": "0x608060405234801561001057600080fd5b50610956806100206000396000f3fe608060405234801561001057600080fd5b50600436106100b35760003560e01c806371763d411161007157806371763d411461020e578063904c43391461022b578063a0175ab314610254578063b5c4d5a01461027d578063ed2f0d25146102a0578063f799dd49146102bd576100b3565b80629593f3146100b85780631ad36d0a146100f35780631ae14c481461013557806347d0b6861461015257806355bc07b6146101755780635652faa51461019e575b600080fd5b6100e1600480360360608110156100ce57600080fd5b50803590602081013590604001356102ec565b60408051918252519081900360200190f35b61011c6004803603606081101561010957600080fd5b5080359060208101359060400135610303565b6040805192835260208301919091528051918290030190f35b6100e16004803603602081101561014b57600080fd5b503561031e565b6100e16004803603604081101561016857600080fd5b508035906020013561032f565b61011c6004803603606081101561018b57600080fd5b508035906020810135906040013561033b565b6100e1600480360360208110156101b457600080fd5b8101906020810181356401000000008111156101cf57600080fd5b8201836020820111156101e157600080fd5b8035906020019184602083028401116401000000008311171561020357600080fd5b509092509050610349565b6100e16004803603602081101561022457600080fd5b5035610387565b61011c6004803603606081101561024157600080fd5b5080359060208101359060400135610392565b6100e16004803603606081101561026a57600080fd5b50803590602081013590604001356103a0565b6100e16004803603604081101561029357600080fd5b50803590602001356103ad565b6100e1600480360360208110156102b657600080fd5b50356103b9565b61011c600480360360808110156102d357600080fd5b50803590602081013590604081013590606001356103c4565b60006102f98484846103e1565b90505b9392505050565b600080610311858585610453565b915091505b935093915050565b60006103298261049b565b92915050565b60006102fc83836104bd565b6000806103118585856104e9565b60006102fc83838080602002602001604051908101604052809392919081815260200183836020028082843760009201919091525061052292505050565b600061032982610574565b6000806103118585856105c3565b60006102f9848484610687565b60006102fc8383610789565b6000610329826107a1565b6000806103d3868686866107c1565b915091505b94509492505050565b6000806103ef858585610687565b905060006103fe868686610834565b11156102f9576000198110610449576040805162461bcd60e51b815260206004820152600c60248201526b4552525f4f564552464c4f5760a01b604482015290519081900360640190fd5b60010190506102fc565b60008084848482118061046557508481115b1561047b576104758282876104e9565b90925090505b80821461048c579092509050610316565b50600196879650945050505050565b600080825b80156104b65760019190910190600a90046104a0565b5092915050565b60006002820482038284816104ce57fe5b06816104d657fe5b048284816104e057fe5b04019392505050565b600080838511610507576104fe8585856105c3565b91509150610316565b6000806105158688876105c3565b9890975095505050505050565b80516000908190815b8181101561055b5761054f85828151811061054257fe5b602002602001015161049b565b9092019160010161052b565b5060016105688383610789565b03600a0a949350505050565b6000806002830460010190506000600282858161058d57fe5b0483018161059757fe5b0490505b808211156104b65780915060028285816105b157fe5b048301816105bb57fe5b04905061059b565b600080600083600019816105d357fe5b0490508086111561060c5760008160010187816105ec57fe5b0460010190508087816105fb57fe5b04965080868161060757fe5b049550505b8486146106775785840260006106228888610849565b905087811061064857600061063783836104bd565b955050508385039250610316915050565b60028888030487038210156106665760008694509450505050610316565b600180870394509450505050610316565b5050600290910493849350915050565b6000806000610696868661084d565b9150915081600014156106b6578381816106ac57fe5b04925050506102fc565b8382106106f9576040805162461bcd60e51b815260206004820152600c60248201526b4552525f4f564552464c4f5760a01b604482015290519081900360640190fd5b6000610706878787610834565b905060008061071685858561089a565b9150915081600014156107395786818161072c57fe5b04955050505050506102fc565b60008761074760008a6108ba565b16905060006107578484846108bf565b9050600061076d838b8161076757fe5b04610900565b90506107798282610936565b9c9b505050505050505050505050565b6000816002810484018161079957fe5b049392505050565b6000806107ad83610574565b9050828182021461032957806001016102fc565b60008060006107d387876000196103e1565b905060006107e486866000196103e1565b905060008183116107f557816107f7565b825b905060018111156108245761080d8989836103e1565b6108188888846103e1565b945094505050506103d8565b5050509390940294910292509050565b6000818061083e57fe5b838509949350505050565b0190565b600080600061085c858561093a565b9050600061086a8686610936565b9050808210610880579081900392509050610893565b600161088c83836108ba565b0393509150505b9250929050565b6000808284106108b05750839050818303610316565b6001850361031185855b900390565b6000806108e0836108d16000866108ba565b816108d857fe5b046001610849565b90508284816108eb57fe5b046108f68683610936565b1795945050505050565b60006001815b60088110156104b65761092c8261092760026109228689610936565b6108ba565b610936565b9150600101610906565b0290565b6000600019828409939250505056fea164736f6c634300060c000a",
  "linkReferences": {},
  "deployedLinkReferences": {}
}