{
  "_format": "hh-sol-artifact-1",
  "contractName": "TestStandardPoolConverterFactory",
  "sourceName": "contracts/helpers/TestStandardPoolConverterFactory.sol",
  "abi": [
    {
      "inputs": [],
      "name": "converterType",
      "outputs": [
        {
          "internalType": "uint16",
          "name": "",
          "type": "uint16"
        }
      ],
      "stateMutability": "pure",
      "type": "function"
    },
    {
      "inputs": [
        {
          "internalType": "contract IConverterAnchor",
          "name": "anchor",
          "type": "address"
        },
        {
          "internalType": "contract IContractRegistry",
          "name": "registry",
          "type": "address"
        },
        {
          "internalType": "uint32",
          "name": "maxConversionFee",
          "type": "uint32"
        }
      ],
      "name": "createConverter",
      "outputs": [
        {
          "internalType": "contract IConverter",
          "name": "",
          "type": "address"
        }
      ],
      "stateMutability": "nonpayable",
      "type": "function"
    }
  ],
  "bytecode": "0x608060405234801561001057600080fd5b50614dea806100206000396000f3fe608060405234801561001057600080fd5b50600436106100365760003560e01c8063114139581461003b5780633e8ff43f14610094575b600080fd5b6100786004803603606081101561005157600080fd5b5080356001600160a01b03908116916020810135909116906040013563ffffffff166100b3565b604080516001600160a01b039092168252519081900360200190f35b61009c610184565b6040805161ffff9092168252519081900360200190f35b6000808484846040516100c590610189565b80846001600160a01b03168152602001836001600160a01b031681526020018263ffffffff1681526020019350505050604051809103906000f080158015610111573d6000803e3d6000fd5b509050806001600160a01b031663f2fde38b336040518263ffffffff1660e01b815260040180826001600160a01b03168152602001915050600060405180830381600087803b15801561016357600080fd5b505af1158015610177573d6000803e3d6000fd5b5092979650505050505050565b600390565b614c47806101978339019056fe60806040526001600b553480156200001657600080fd5b5060405162004c4738038062004c47833981810160405260608110156200003c57600080fd5b5080516020820151604090920151600080546001600160a01b0319163317905590919082828281806200006f8162000102565b50600280546001600160a01b039092166001600160a01b0319928316811790915560038054909216179055600160045582620000ab8162000102565b81620000b78162000161565b50506009805463ffffffff909216600160a01b0263ffffffff60a01b196001600160a01b039095166001600160a01b031990931692909217939093161790915550620001c092505050565b6001600160a01b0381166200015e576040805162461bcd60e51b815260206004820152601360248201527f4552525f494e56414c49445f4144445245535300000000000000000000000000604482015290519081900360640190fd5b50565b620f424063ffffffff821611156200015e576040805162461bcd60e51b815260206004820152601a60248201527f4552525f494e56414c49445f434f4e56455253494f4e5f464545000000000000604482015290519081900360640190fd5b614a7780620001d06000396000f3fe6080604052600436106102e85760003560e01c80636a49d2c411610190578063cdc91c69116100dc578063d895951211610095578063ecbca55d1161006f578063ecbca55d14610ea0578063f0413a1f14610ed0578063f2fde38b14610ee5578063fc0c546a14610db55761030e565b8063d895951214610df4578063dc8de37914610e27578063e8dc12ff14610e5a5761030e565b8063cdc91c6914610d76578063d18e81b314610d8b578063d260529c14610da0578063d3fb73b414610db5578063d4ee1d9014610dca578063d55ec69714610ddf5761030e565b80638da5cb5b11610149578063af94b8d811610123578063af94b8d814610ba4578063b127c0a514610be7578063b4a176d314610d1e578063bbcdfdef14610d335761030e565b80638da5cb5b14610b6557806394c275ad14610b7a5780639b99a8e214610b8f5761030e565b80636a49d2c41461090f57806371f52bf31461094e57806379ba5097146109635780637b103999146109785780637d8916bd1461098d57806380d9416d14610ab25761030e565b80632e9abc7a1161024f57806349d10b6411610208578063579cd3ca116101e2578063579cd3ca1461089d578063613e53a7146108b257806361cd756e146108c757806367b6d57c146108dc5761030e565b806349d10b641461085e57806350dc78f91461087357806354fd4d50146108885761030e565b80632e9abc7a146106875780632fe8a6ad146107c957806338a5e016146107de5780633beb26c4146107f35780633cf98fa41461081d5780633e8ff43f146108325761030e565b80631cfab290116102a15780631cfab2901461053b5780631e1401f8146105875780631f0181bc146105e357806321e6b53d1461061657806322f3e2d41461064957806327ac36c4146106725761030e565b8063024c7ec714610313578063038d09e1146103415780630e53aae91461037457806312b6705f146103db57806315458837146103f057806319b64015146104f55761030e565b3661030e5773eeeeeeeeeeeeeeeeeeeeeeeeeeeeeeeeeeeeeeee61030b81610f18565b50005b600080fd5b34801561031f57600080fd5b5061033f6004803603602081101561033657600080fd5b50351515610f7b565b005b34801561034d57600080fd5b5061033f6004803603602081101561036457600080fd5b50356001600160a01b0316610fa1565b34801561038057600080fd5b506103a76004803603602081101561039757600080fd5b50356001600160a01b0316611088565b6040805195865263ffffffff9094166020860152911515848401521515606084015215156080830152519081900360a00190f35b3480156103e757600080fd5b5061033f6110ef565b3480156103fc57600080fd5b506104a56004803603604081101561041357600080fd5b81359190810190604081016020820135600160201b81111561043457600080fd5b82018360208201111561044657600080fd5b803590602001918460208302840111600160201b8311171561046757600080fd5b919080806020026020016040519081016040528093929190818152602001838360200280828437600092019190915250929550611153945050505050565b60408051602080825283518183015283519192839290830191858101910280838360005b838110156104e15781810151838201526020016104c9565b505050509050019250505060405180910390f35b34801561050157600080fd5b5061051f6004803603602081101561051857600080fd5b50356111fc565b604080516001600160a01b039092168252519081900360200190f35b34801561054757600080fd5b5061056e6004803603602081101561055e57600080fd5b50356001600160a01b0316611228565b6040805163ffffffff9092168252519081900360200190f35b34801561059357600080fd5b506105ca600480360360608110156105aa57600080fd5b506001600160a01b0381358116916020810135909116906040013561123f565b6040805192835260208301919091528051918290030190f35b3480156105ef57600080fd5b506105ca6004803603602081101561060657600080fd5b50356001600160a01b031661125a565b34801561062257600080fd5b5061033f6004803603602081101561063957600080fd5b50356001600160a01b03166112d5565b34801561065557600080fd5b5061065e6112e6565b604080519115158252519081900360200190f35b34801561067e57600080fd5b506104a561137b565b34801561069357600080fd5b506107b7600480360360408110156106aa57600080fd5b810190602081018135600160201b8111156106c457600080fd5b8201836020820111156106d657600080fd5b803590602001918460208302840111600160201b831117156106f757600080fd5b9190808060200260200160405190810160405280939291908181526020018383602002808284376000920191909152509295949360208101935035915050600160201b81111561074657600080fd5b82018360208201111561075857600080fd5b803590602001918460208302840111600160201b8311171561077957600080fd5b9190808060200260200160405190810160405280939291908181526020018383602002808284376000920191909152509295506113dd945050505050565b60408051918252519081900360200190f35b3480156107d557600080fd5b5061065e611488565b3480156107ea57600080fd5b5061033f611498565b3480156107ff57600080fd5b5061033f6004803603602081101561081657600080fd5b50356114aa565b34801561082957600080fd5b5061033f6114af565b34801561083e57600080fd5b506108476114b9565b6040805161ffff9092168252519081900360200190f35b34801561086a57600080fd5b5061033f6114be565b34801561087f57600080fd5b5061033f6116d4565b34801561089457600080fd5b50610847611768565b3480156108a957600080fd5b5061056e61176d565b3480156108be57600080fd5b506105ca611780565b3480156108d357600080fd5b5061051f611797565b3480156108e857600080fd5b5061033f600480360360208110156108ff57600080fd5b50356001600160a01b03166117a6565b34801561091b57600080fd5b5061033f6004803603604081101561093257600080fd5b5080356001600160a01b0316906020013563ffffffff1661183c565b34801561095a57600080fd5b50610847611999565b34801561096f57600080fd5b5061033f6119a8565b34801561098457600080fd5b5061051f611a5f565b6107b7600480360360608110156109a357600080fd5b810190602081018135600160201b8111156109bd57600080fd5b8201836020820111156109cf57600080fd5b803590602001918460208302840111600160201b831117156109f057600080fd5b9190808060200260200160405190810160405280939291908181526020018383602002808284376000920191909152509295949360208101935035915050600160201b811115610a3f57600080fd5b820183602082011115610a5157600080fd5b803590602001918460208302840111600160201b83111715610a7257600080fd5b9190808060200260200160405190810160405280939291908181526020018383602002808284376000920191909152509295505091359250611a6e915050565b348015610abe57600080fd5b506104a560048036036060811015610ad557600080fd5b810190602081018135600160201b811115610aef57600080fd5b820183602082011115610b0157600080fd5b803590602001918460208302840111600160201b83111715610b2257600080fd5b9190808060200260200160405190810160405280939291908181526020018383602002808284376000920191909152509295505082359350505060200135612037565b348015610b7157600080fd5b5061051f612167565b348015610b8657600080fd5b5061056e612176565b348015610b9b57600080fd5b50610847612189565b348015610bb057600080fd5b506105ca60048036036060811015610bc757600080fd5b506001600160a01b0381358116916020810135909116906040013561218f565b348015610bf357600080fd5b506104a560048036036060811015610c0a57600080fd5b81359190810190604081016020820135600160201b811115610c2b57600080fd5b820183602082011115610c3d57600080fd5b803590602001918460208302840111600160201b83111715610c5e57600080fd5b9190808060200260200160405190810160405280939291908181526020018383602002808284376000920191909152509295949360208101935035915050600160201b811115610cad57600080fd5b820183602082011115610cbf57600080fd5b803590602001918460208302840111600160201b83111715610ce057600080fd5b9190808060200260200160405190810160405280939291908181526020018383602002808284376000920191909152509295506121ea945050505050565b348015610d2a57600080fd5b5061033f6125b1565b348015610d3f57600080fd5b506105ca60048036036060811015610d5657600080fd5b506001600160a01b038135811691602081013590911690604001356125dd565b348015610d8257600080fd5b5061033f61264f565b348015610d9757600080fd5b506107b7612765565b348015610dac57600080fd5b5061065e61276b565b348015610dc157600080fd5b5061051f612770565b348015610dd657600080fd5b5061051f61277f565b348015610deb57600080fd5b5061033f61278e565b348015610e0057600080fd5b506107b760048036036020811015610e1757600080fd5b50356001600160a01b0316612876565b348015610e3357600080fd5b506107b760048036036020811015610e4a57600080fd5b50356001600160a01b031661287d565b6107b7600480360360a0811015610e7057600080fd5b506001600160a01b03813581169160208101358216916040820135916060810135821691608090910135166128e7565b348015610eac57600080fd5b5061033f60048036036020811015610ec357600080fd5b503563ffffffff166129cb565b348015610edc57600080fd5b506107b7612aad565b348015610ef157600080fd5b5061033f60048036036020811015610f0857600080fd5b50356001600160a01b0316612ab3565b6001600160a01b038116600090815260086020526040902054610f78576040805162461bcd60e51b81526020600482015260136024820152724552525f494e56414c49445f5245534552564560681b604482015290519081900360640190fd5b50565b610f83612b31565b60038054911515600160a01b0260ff60a01b19909216919091179055565b60026004541415610fe7576040805162461bcd60e51b815260206004820152601f602482015260008051602061499a833981519152604482015290519081900360640190fd5b6002600455610ff4612b31565b762130b731b7b921b7b73b32b93a32b92ab833b930b232b960491b61101881612b84565b60075460005b8181101561107d5760006007828154811061103557fe5b6000918252602090912001546001600160a01b0316905061106b8561105a8330612be6565b6001600160a01b0384169190612c8f565b61107481612d06565b5060010161101e565b505060016004555050565b6001600160a01b038116600090815260086020526040812054819081908190819080156110d2576110b881612d39565b95506207a120945060009350839250600191506110e69050565b600080600080600095509550955095509550505b91939590929450565b60026004541415611135576040805162461bcd60e51b815260206004820152601f602482015260008051602061499a833981519152604482015290519081900360640190fd5b600260045560008061114681612d47565b0260065550506001600455565b60606000600960009054906101000a90046001600160a01b03166001600160a01b03166318160ddd6040518163ffffffff1660e01b815260040160206040518083038186803b1580156111a557600080fd5b505afa1580156111b9573d6000803e3d6000fd5b505050506040513d60208110156111cf57600080fd5b505190506111db61497b565b6111e484612de3565b90506111f1858383612eaa565b925050505b92915050565b60006007828154811061120b57fe5b6000918252602090912001546001600160a01b031690505b919050565b60008161123481610f18565b506207a12092915050565b60008061124d85858561218f565b915091505b935093915050565b6000808261126781610f18565b6000611274600a54612f25565b905060006112818261305a565b9050600061128e83613069565b9050600760008154811061129e57fe5b6000918252602090912001546001600160a01b03888116911614156112c95790945092506112cf9050565b94509250505b50915091565b6112dd612b31565b610f78816117a6565b6000306001600160a01b0316600960009054906101000a90046001600160a01b03166001600160a01b0316638da5cb5b6040518163ffffffff1660e01b815260040160206040518083038186803b15801561134057600080fd5b505afa158015611354573d6000803e3d6000fd5b505050506040513d602081101561136a57600080fd5b50516001600160a01b031614905090565b606060078054806020026020016040519081016040528092919081815260200182805480156113d357602002820191906000526020600020905b81546001600160a01b031681526001909101906020018083116113b5575b5050505050905090565b600080600960009054906101000a90046001600160a01b03166001600160a01b03166318160ddd6040518163ffffffff1660e01b815260040160206040518083038186803b15801561142e57600080fd5b505afa158015611442573d6000803e3d6000fd5b505050506040513d602081101561145857600080fd5b5051905061146461497b565b61146d85612de3565b9050600061147d86868486613075565b509695505050505050565b600354600160a01b900460ff1690565b6114a0612b31565b6114a861264f565b565b600b55565b6114a86000613155565b600390565b6114c6612167565b6001600160a01b0316336001600160a01b031614806114ef5750600354600160a01b900460ff16155b611534576040805162461bcd60e51b815260206004820152601160248201527011549497d050d0d154d4d7d11153925151607a1b604482015290519081900360640190fd5b60006115526f436f6e7472616374526567697374727960801b61321f565b6002549091506001600160a01b0380831691161480159061157b57506001600160a01b03811615155b6115c3576040805162461bcd60e51b81526020600482015260146024820152734552525f494e56414c49445f524547495354525960601b604482015290519081900360640190fd5b60006001600160a01b0316816001600160a01b031663bb34534c6f436f6e7472616374526567697374727960801b6040518263ffffffff1660e01b81526004018082815260200191505060206040518083038186803b15801561162557600080fd5b505afa158015611639573d6000803e3d6000fd5b505050506040513d602081101561164f57600080fd5b50516001600160a01b031614156116a4576040805162461bcd60e51b81526020600482015260146024820152734552525f494e56414c49445f524547495354525960601b604482015290519081900360640190fd5b60028054600380546001600160a01b038084166001600160a01b0319928316179092559091169216919091179055565b6002600454141561171a576040805162461bcd60e51b815260206004820152601f602482015260008051602061499a833981519152604482015290519081900360640190fd5b6002600455611727612b31565b762130b731b7b921b7b73b32b93a32b92ab833b930b232b960491b61174b81612b84565b60008061175a6001600261329d565b026006555050600160045550565b602f81565b600954600160c01b900463ffffffff1690565b60008061178f6001600261329d565b915091509091565b6003546001600160a01b031690565b6117ae612b31565b762130b731b7b921b7b73b32b93a32b92ab833b930b232b960491b6117d281612b84565b6009546040805163f2fde38b60e01b81526001600160a01b0385811660048301529151919092169163f2fde38b91602480830192600092919082900301818387803b15801561182057600080fd5b505af1158015611834573d6000803e3d6000fd5b505050505050565b611844612b31565b61184c613326565b816118568161336d565b81611860816133df565b6009546001600160a01b0385811691161480159061189457506001600160a01b038416600090815260086020526040902054155b6118db576040805162461bcd60e51b81526020600482015260136024820152724552525f494e56414c49445f5245534552564560681b604482015290519081900360640190fd5b60026118e5612189565b61ffff1610611937576040805162461bcd60e51b815260206004820152601960248201527811549497d253959053125117d49154d154959157d0d3d55395603a1b604482015290519081900360640190fd5b5050600780546001810182557fa66cc928b5edb82af9bd49922954155ab7b0942694bea4ce44661d9a8736c6880180546001600160a01b039094166001600160a01b031990941684179055546000928352600860205260409092209190915550565b60006119a3612189565b905090565b6001546001600160a01b031633146119fb576040805162461bcd60e51b815260206004820152601160248201527011549497d050d0d154d4d7d11153925151607a1b604482015290519081900360640190fd5b600154600080546040516001600160a01b0393841693909116917f343765429aea5a34b3ff6a3785a98a5abb2597aca87bfbb58632c173d585373a91a360018054600080546001600160a01b03199081166001600160a01b03841617909155169055565b6002546001600160a01b031690565b600060026004541415611ab6576040805162461bcd60e51b815260206004820152601f602482015260008051602061499a833981519152604482015290519081900360640190fd5b6002600455611ac361343c565b611ace848484613484565b50611af584600081518110611adf57fe5b60200260200101516001600160a01b03166136c9565b1580611b1457503483600081518110611b0a57fe5b6020026020010151145b8015611b4a5750611b2b84600181518110611adf57fe5b1580611b4a57503483600181518110611b4057fe5b6020026020010151145b611b95576040805162461bcd60e51b815260206004820152601760248201527608aa4a4be8aa890be829a9eaa9ca8be9a92a69a82a8869604b1b604482015290519081900360640190fd5b3415611c205773eeeeeeeeeeeeeeeeeeeeeeeeeeeeeeeeeeeeeeee60005260086020527f353c2eb9e53a4a4a6d45d72082ff2e9dc829d1125618772a83eb0e7f86632c4254611c20576040805162461bcd60e51b81526020600482015260126024820152714552525f4e4f5f4554485f5245534552564560701b604482015290519081900360640190fd5b600954604080516318160ddd60e01b815290516001600160a01b039092169160009183916318160ddd91600480820192602092909190829003018186803b158015611c6a57600080fd5b505afa158015611c7e573d6000803e3d6000fd5b505050506040513d6020811015611c9457600080fd5b50519050611ca061497b565b611ca861497b565b611cb134612d47565b602084015282526000611cc261497b565b84611d2757611cd0896136ee565b915088600081518110611cdf57fe5b602002602001015181600060028110611cf457fe5b6020020152885189906001908110611d0857fe5b602002602001015181600160028110611d1d57fe5b6020020152611d39565b611d338a8a8688613075565b90925090505b6000611d458684613740565b905060005b6002811015611f4e5760008c8281518110611d6157fe5b602002602001015190506000848360028110611d7957fe5b6020020151905060008111611dce576040805162461bcd60e51b815260206004820152601660248201527511549497d6915493d7d5105491d15517d05353d5539560521b604482015290519081900360640190fd5b8c8381518110611dda57fe5b6020026020010151811115611deb57fe5b611dfd826001600160a01b03166136c9565b611e1b57611e166001600160a01b03831633308461379a565b611e69565b808d8481518110611e2857fe5b60200260200101511115611e6957611e6933828f8681518110611e4757fe5b602002602001015103846001600160a01b0316612c8f9092919063ffffffff16565b611e8481898560028110611e7957fe5b602002015190613740565b878460028110611e9057fe5b60200201526001600160a01b038216337f4a1a2a6176e9646d9e3157f7c2ab3c499f18337c0b0828cfb28e0a61de4a11f7838a8760028110611ece57fe5b602090810291909101516040805193845291830152818101899052519081900360600190a3816001600160a01b03168a6001600160a01b03166000805160206149e0833981519152898660028110611f2257fe5b602002015187604051808381526020018281526020019250505060405180910390a35050600101611d4a565b508351611f689060019060029087835b60200201516137db565b602084015184510260065588831015611fbd576040805162461bcd60e51b81526020600482015260126024820152714552525f52455455524e5f544f4f5f4c4f5760701b604482015290519081900360640190fd5b6040805163219e412d60e21b81523360048201526024810185905290516001600160a01b0389169163867904b491604480830192600092919082900301818387803b15801561200b57600080fd5b505af115801561201f573d6000803e3d6000fd5b5050600160045550929b9a5050505050505050505050565b60606000600960009054906101000a90046001600160a01b03166001600160a01b03166318160ddd6040518163ffffffff1660e01b815260040160206040518083038186803b15801561208957600080fd5b505afa15801561209d573d6000803e3d6000fd5b505050506040513d60208110156120b357600080fd5b505190506120bf61497b565b6120c886612de3565b905060006120e7838388600281106120dc57fe5b60200201518761385f565b60408051600280825260608083018452939450909160208301908036833701905050905061211e848460005b602002015184613915565b8160008151811061212b57fe5b602090810291909101015261214284846001612113565b8160018151811061214f57fe5b602090810291909101015293505050505b9392505050565b6000546001600160a01b031690565b600954600160a01b900463ffffffff1690565b60075490565b60008061219a61343c565b6001600160a01b0380861660009081526008602052604080822054928716825281205490806121c9848461329d565b915091506121da898984848b6139d2565b9550955050505050935093915050565b606060026004541415612232576040805162461bcd60e51b815260206004820152601f602482015260008051602061499a833981519152604482015290519081900360640190fd5b600260045561223f61343c565b600061224c848487613484565b90506000600960009054906101000a90046001600160a01b031690506000816001600160a01b03166318160ddd6040518163ffffffff1660e01b815260040160206040518083038186803b1580156122a357600080fd5b505afa1580156122b7573d6000803e3d6000fd5b505050506040513d60208110156122cd57600080fd5b50516040805163a24835d160e01b8152336004820152602481018a905290519192506001600160a01b0384169163a24835d19160448082019260009290919082900301818387803b15801561232157600080fd5b505af1158015612335573d6000803e3d6000fd5b50505050600061234e8883613a0290919063ffffffff16565b905061235861497b565b61236061497b565b61236a6000612d47565b60208401528252606061237e8b8685612eaa565b905060005b60028110156125165760008b828151811061239a57fe5b6020026020010151905060008383815181106123b257fe5b602002602001015190508b83815181106123c857fe5b602002602001015181101561241d576040805162461bcd60e51b815260206004820152601660248201527511549497d6915493d7d5105491d15517d05353d5539560521b604482015290519081900360640190fd5b6124388187856002811061242d57fe5b602002015190613a02565b85846002811061244457fe5b602002015261245d6001600160a01b0383163383612c8f565b6001600160a01b038216337fbc7d19d505c7ec4db83f3b51f19fb98c4c8a99922e7839d1ee608dfbee29501b8388876002811061249657fe5b6020908102919091015160408051938452918301528181018c9052519081900360600190a3816001600160a01b0316896001600160a01b03166000805160206149e08339815191528786600281106124ea57fe5b60200201518a604051808381526020018281526020019250505060405180910390a35050600101612383565b50815161252a906001906002908583611f5e565b6020820151825102600655861561259e5760008160008151811061254a57fe5b602002602001015190508160018151811061256157fe5b60200260200101518260008151811061257657fe5b602002602001018181525050808260018151811061259057fe5b602002602001018181525050505b60016004559a9950505050505050505050565b6125b9612b31565b600354600280546001600160a01b0319166001600160a01b03909216919091179055565b6000806125e861343c565b6001600160a01b038086166000908152600860205260408082205492871682528120549080612617848461329d565b91509150600061262688613a5f565b9050600061263e84846126398c86613740565b613a94565b9b919a509098505050505050505050565b612657612b31565b6007546002146126aa576040805162461bcd60e51b815260206004820152601960248201527811549497d253959053125117d49154d154959157d0d3d55395603a1b604482015290519081900360640190fd5b600960009054906101000a90046001600160a01b03166001600160a01b03166379ba50976040518163ffffffff1660e01b8152600401600060405180830381600087803b1580156126fa57600080fd5b505af115801561270e573d6000803e3d6000fd5b5050505061271c6000613155565b6009546001906001600160a01b03166127336114b9565b61ffff167f6b08c2e2c9969e55a647a764db9b554d64dc42f1a704da11a6d5b129ad163f2c60405160405180910390a4565b600b5490565b600190565b6009546001600160a01b031690565b6001546001600160a01b031690565b612796612b31565b60006127bb762130b731b7b921b7b73b32b93a32b92ab833b930b232b960491b61321f565b6009549091506000906001600160a01b03166127d56114b9565b61ffff167f6b08c2e2c9969e55a647a764db9b554d64dc42f1a704da11a6d5b129ad163f2c60405160405180910390a461280e81612ab3565b6040805163487ac64b60e11b8152602f600482015290516001600160a01b038316916390f58c9691602480830192600092919082900301818387803b15801561285657600080fd5b505af115801561286a573d6000803e3d6000fd5b50505050610f786119a8565b60006111f6825b6001600160a01b038116600090815260086020526040812054806128de576040805162461bcd60e51b81526020600482015260136024820152724552525f494e56414c49445f5245534552564560681b604482015290519081900360640190fd5b61216081612d39565b60006002600454141561292f576040805162461bcd60e51b815260206004820152601f602482015260008051602061499a833981519152604482015290519081900360640190fd5b60026004556c42616e636f724e6574776f726b60981b61294e81612b84565b856001600160a01b0316876001600160a01b031614156129ae576040805162461bcd60e51b815260206004820152601660248201527511549497d4d0535157d4d3d55490d157d5105491d15560521b604482015290519081900360640190fd5b6129bb8787878787613b3d565b6001600455979650505050505050565b6129d3612b31565b60095463ffffffff600160a01b90910481169082161115612a3b576040805162461bcd60e51b815260206004820152601a60248201527f4552525f494e56414c49445f434f4e56455253494f4e5f464545000000000000604482015290519081900360640190fd5b6009546040805163ffffffff600160c01b90930483168152918316602083015280517f81cd2ffb37dd237c0e4e2a3de5265fcf9deb43d3e7801e80db9f1ccfba7ee6009281900390910190a16009805463ffffffff909216600160c01b0263ffffffff60c01b19909216919091179055565b600a5490565b612abb612b31565b6000546001600160a01b0382811691161415612b0f576040805162461bcd60e51b815260206004820152600e60248201526d22a9292fa9a0a6a2afa7aba722a960911b604482015290519081900360640190fd5b600180546001600160a01b0319166001600160a01b0392909216919091179055565b6000546001600160a01b031633146114a8576040805162461bcd60e51b815260206004820152601160248201527011549497d050d0d154d4d7d11153925151607a1b604482015290519081900360640190fd5b612b8d8161321f565b6001600160a01b0316336001600160a01b031614610f78576040805162461bcd60e51b815260206004820152601160248201527011549497d050d0d154d4d7d11153925151607a1b604482015290519081900360640190fd5b6000612bf1836136c9565b15612c0757506001600160a01b038116316111f6565b612c1083613d13565b6001600160a01b03166370a08231836040518263ffffffff1660e01b815260040180826001600160a01b0316815260200191505060206040518083038186803b158015612c5c57600080fd5b505afa158015612c70573d6000803e3d6000fd5b505050506040513d6020811015612c8657600080fd5b50519392505050565b80612c9957612d01565b612ca2836136c9565b15612ce3576040516001600160a01b0383169082156108fc029083906000818181858888f19350505050158015612cdd573d6000803e3d6000fd5b50612d01565b612d018282612cf186613d13565b6001600160a01b03169190613d16565b505050565b6001600160a01b03811660008181526008602052604090205490612d35908290612d309030612be6565b613d68565b5050565b60006111f660055483613dee565b600080612d5383613155565b600080612d626001600261329d565b915091506000806000612d758585613e20565b92509250925081850394508084039350612d936001600287876137db565b612dc283836007600081548110612da657fe5b6000918252602090912001546001600160a01b03169190612c8f565b612dd583826007600181548110612da657fe5b509294509092505050915091565b612deb61497b565b60006008600084600081518110612dfe57fe5b60200260200101516001600160a01b03166001600160a01b0316815260200190815260200160002054905060006008600085600181518110612e3c57fe5b60200260200101516001600160a01b03166001600160a01b03168152602001908152602001600020549050600080612e74848461329d565b91509150600080612e858484613e20565b6040805180820190915291909603815294909303602085015250919695505050505050565b604080516002808252606080830184529283929190602083019080368337019050509050612ee1848460005b602002015187613f34565b81600081518110612eee57fe5b6020908102919091010152612f0584846001612ed6565b81600181518110612f1257fe5b6020908102919091010152949350505050565b600080612f3183614033565b90506000612f3e8461305a565b90506000612f4b85613069565b90506000612f57614039565b90506000612f658286613a02565b905080612f79578695505050505050611223565b600080612f84611780565b9150915061025883101580612f97575086155b15612fcb57612fae81836001600160701b03614043565b92509050612fbd84828461408b565b975050505050505050611223565b6000612fd786836140d6565b90506000612fe588856140d6565b9050600061300b612ff684886140d6565b613005846102588a90036140d6565b90613740565b9050600061302561025861301f8b896140d6565b906140d6565b905061303982826001600160701b03614043565b909250905061304988838361408b565b9d9c50505050505050505050505050565b60701c6001600160701b031690565b6001600160701b031690565b600061307f61497b565b60006130ae858260200201518760018151811061309857fe5b60200260200101516140d690919063ffffffff16565b6130c686600160200201518860008151811061309857fe5b106130d25760016130d5565b60005b60ff169050600061310a858784600281106130ec57fe5b60200201518985815181106130fd57fe5b602002602001015161385f565b905061311461497b565b6040805180820190915280613132888a60005b602002015186613915565b8152602001613143888a6001613127565b90529199919850909650505050505050565b6000600760008154811061316557fe5b6000918252602082200154600780546001600160a01b03909216935090600190811061318d57fe5b60009182526020822001546001600160a01b0390811692506131b09084166136c9565b6131bb5760006131bd565b835b6131d06001600160a01b03851630612be6565b03905060006131e7836001600160a01b03166136c9565b6131f25760006131f4565b845b6132076001600160a01b03851630612be6565b0390506132186001600284846137db565b5050505050565b60025460408051632ecd14d360e21b81526004810184905290516000926001600160a01b03169163bb34534c916024808301926020929190829003018186803b15801561326b57600080fd5b505afa15801561327f573d6000803e3d6000fd5b505050506040513d602081101561329557600080fd5b505192915050565b6000808360011480156132b05750826002145b806132c657508360021480156132c65750826001145b61330e576040805162461bcd60e51b81526020600482015260146024820152734552525f494e56414c49445f524553455256455360601b604482015290519081900360640190fd5b61331b600554858561412f565b915091509250929050565b61332e6112e6565b156114a8576040805162461bcd60e51b815260206004820152600a6024820152694552525f41435449564560b01b604482015290519081900360640190fd5b6001600160a01b0381161580159061338e57506001600160a01b0381163014155b610f78576040805162461bcd60e51b815260206004820152601c60248201527f4552525f494e56414c49445f45585445524e414c5f4144445245535300000000604482015290519081900360640190fd5b63ffffffff81166207a12014610f78576040805162461bcd60e51b815260206004820152601a60248201527f4552525f494e56414c49445f524553455256455f574549474854000000000000604482015290519081900360640190fd5b6134446112e6565b6114a8576040805162461bcd60e51b815260206004820152600c60248201526b4552525f494e41435449564560a01b604482015290519081900360640190fd5b600061348f83614146565b801561349b5750600082115b6134de576040805162461bcd60e51b815260206004820152600f60248201526e11549497d6915493d7d05353d55395608a1b604482015290519081900360640190fd5b600060086000866000815181106134f157fe5b60200260200101516001600160a01b03166001600160a01b031681526020019081526020016000205490506000600860008760018151811061352f57fe5b60200260200101516001600160a01b03166001600160a01b0316815260200190815260200160002054905081600214801561356a5750806001145b156136665760008660008151811061357e57fe5b602002602001015190508660018151811061359557fe5b6020026020010151876000815181106135aa57fe5b60200260200101906001600160a01b031690816001600160a01b03168152505080876001815181106135d857fe5b60200260200101906001600160a01b031690816001600160a01b03168152505060008660008151811061360757fe5b602002602001015190508660018151811061361e57fe5b60200260200101518760008151811061363357fe5b602002602001018181525050808760018151811061364d57fe5b6020026020010181815250506001945050505050612160565b8160011480156136765750806002145b6136bd576040805162461bcd60e51b81526020600482015260136024820152724552525f494e56414c49445f5245534552564560681b604482015290519081900360640190fd5b50600095945050505050565b6001600160a01b03811673eeeeeeeeeeeeeeeeeeeeeeeeeeeeeeeeeeeeeeee14919050565b80516000908190815b818110156137275761371b85828151811061370e57fe5b6020026020010151614185565b909201916001016136f7565b50600161373483836141a7565b03600a0a949350505050565b600082820183811015612160576040805162461bcd60e51b815260206004820152601b60248201527f536166654d6174683a206164646974696f6e206f766572666c6f770000000000604482015290519081900360640190fd5b8015806137ab57506137ab846136c9565b156137b5576137d5565b6137d58383836137c488613d13565b6001600160a01b03169291906141bf565b50505050565b6001600160801b0382111580156137f957506001600160801b038111155b61384a576040805162461bcd60e51b815260206004820152601c60248201527f4552525f524553455256455f42414c414e43455f4f564552464c4f5700000000604482015290519081900360640190fd5b61385682858386614219565b60055550505050565b60008084116138aa576040805162461bcd60e51b81526020600482015260126024820152714552525f494e56414c49445f535550504c5960701b604482015290519081900360640190fd5b600083116138ed576040805162461bcd60e51b815260206004820152601b6024820152600080516020614a4b833981519152604482015290519081900360640190fd5b816138fa57506000612160565b8261390583866140d6565b8161390c57fe5b04949350505050565b6000808411613960576040805162461bcd60e51b81526020600482015260126024820152714552525f494e56414c49445f535550504c5960701b604482015290519081900360640190fd5b600083116139a3576040805162461bcd60e51b815260206004820152601b6024820152600080516020614a4b833981519152604482015290519081900360640190fd5b816139b057506000612160565b8360016139bd84866140d6565b03816139c557fe5b0460010190509392505050565b60008060006139e2868686614239565b905060006139ef8261429d565b9182900399919850909650505050505050565b600082821115613a59576040805162461bcd60e51b815260206004820152601e60248201527f536166654d6174683a207375627472616374696f6e206f766572666c6f770000604482015290519081900360640190fd5b50900390565b6009546000906111f69063ffffffff600160c01b9091048116620f4240819003821691613a8e9186916140d616565b906142d2565b6000808411613ad8576040805162461bcd60e51b815260206004820152601b6024820152600080516020614a4b833981519152604482015290519081900360640190fd5b828210613b21576040805162461bcd60e51b815260206004820152601260248201527111549497d253959053125117d05353d5539560721b604482015290519081900360640190fd5b81613b2e57506000612160565b81830360016139bd86856140d6565b6000613b47614331565b6001600160a01b038087166000908152600860205260408082205492881682528120549080613b76848461329d565b91509150600080613b8a8c8c86868e6139d2565b915091508160001415613bdd576040805162461bcd60e51b815260206004820152601660248201527511549497d6915493d7d5105491d15517d05353d5539560521b604482015290519081900360640190fd5b828210613be657fe5b6000613bfb6001600160a01b038e1630612be6565b9050613c0f8d6001600160a01b03166136c9565b15613c67578a3414613c62576040805162461bcd60e51b815260206004820152601760248201527608aa4a4be8aa890be829a9eaa9ca8be9a92a69a82a8869604b1b604482015290519081900360640190fd5b613cc4565b34158015613c7e57508a613c7b8287613a02565b10155b613cc4576040805162461bcd60e51b815260206004820152601260248201527111549497d253959053125117d05353d5539560721b604482015290519081900360640190fd5b613cd28787838688036137db565b613ce66001600160a01b038d168a85612c8f565b613cf48d8d8c8e878761434e565b613d028d8d838688036143aa565b50909b9a5050505050505050505050565b90565b604080516001600160a01b038416602482015260448082018490528251808303909101815260649091019091526020810180516001600160e01b031663a9059cbb60e01b179052612d019084906144e3565b6001600160801b03811115613dc4576040805162461bcd60e51b815260206004820152601c60248201527f4552525f524553455256455f42414c414e43455f4f564552464c4f5700000000604482015290519081900360640190fd5b6000613dd560055484600303613dee565b9050613de682848386600303614219565b600555505050565b60008160011480613dff5750816002145b613e0557fe5b50608060001982010282901c6001600160801b031692915050565b600080600080613e31600654614594565b90506000613e40868802614594565b9050808210613e5b5760008060009450945094505050613f2d565b600080613e796e4e6574776f726b53657474696e677360881b61321f565b6001600160a01b031663e33b5f5f6040518163ffffffff1660e01b8152600401604080518083038186803b158015613eb057600080fd5b505afa158015613ec4573d6000803e3d6000fd5b505050506040513d6040811015613eda57600080fd5b508051602090910151909250905063ffffffff8082168585030290620f42408502908490613f12908390613a8e908f9087906140d616565b613f2083613a8e8e876140d6565b9850985098505050505050505b9250925092565b6000808411613f7f576040805162461bcd60e51b81526020600482015260126024820152714552525f494e56414c49445f535550504c5960701b604482015290519081900360640190fd5b60008311613fc2576040805162461bcd60e51b815260206004820152601b6024820152600080516020614a4b833981519152604482015290519081900360640190fd5b8382111561400c576040805162461bcd60e51b815260206004820152601260248201527111549497d253959053125117d05353d5539560721b604482015290519081900360640190fd5b8161401957506000612160565b83821415614028575081612160565b8361390583856140d6565b60e01c90565b60006119a3612765565b60008084848482118061405557508481115b1561406b576140658282876145ad565b90925090505b80821461407c579092509050611252565b50600196879650945050505050565b600063ffffffff84111580156140a857506001600160701b038311155b80156140bb57506001600160701b038211155b6140c157fe5b5060e083901b607083901b1781179392505050565b6000826140e5575060006111f6565b828202828482816140f257fe5b04146121605760405162461bcd60e51b8152600401808060200182810382526021815260200180614a006021913960400191505060405180910390fd5b60008061413c8585613dee565b61124d8685613dee565b6000808260008151811061415657fe5b60200260200101511180156111f6575060008260018151811061417557fe5b6020026020010151119050919050565b600080825b80156141a05760019190910190600a900461418a565b5092915050565b600081600281048401816141b757fe5b049392505050565b604080516001600160a01b0380861660248301528416604482015260648082018490528251808303909101815260849091019091526020810180516001600160e01b03166323b872dd60e01b1790526137d59085906144e3565b600061422583836145e6565b61422f86866145e6565b1795945050505050565b6000808411801561424a5750600083115b614289576040805162461bcd60e51b815260206004820152601b6024820152600080516020614a4b833981519152604482015290519081900360640190fd5b6142938483613740565b61390584846140d6565b600954600090620f4240906142c4908490600160c01b900463ffffffff908116906140d616565b816142cb57fe5b0492915050565b6000808211614328576040805162461bcd60e51b815260206004820152601a60248201527f536166654d6174683a206469766973696f6e206279207a65726f000000000000604482015290519081900360640190fd5b8183816141b757fe5b600a54600061433f82612f25565b9050808214612d3557600a5550565b604080518481526020810184905280820183905290516001600160a01b038087169288821692918a16917f276856b36cbc45526a0ba64f44611557a2a8b68662c5388e9fe6d72e86e1c8cb9181900360600190a4505050505050565b600954604080516318160ddd60e01b815290516001600160a01b039092169160009183916318160ddd91600480820192602092909190829003018186803b1580156143f457600080fd5b505afa158015614408573d6000803e3d6000fd5b505050506040513d602081101561441e57600080fd5b5051604080518581526020810187905281519293506001600160a01b0380891693908a16926000805160206149e0833981519152928290030190a3856001600160a01b0316826001600160a01b03166000805160206149e08339815191528684604051808381526020018281526020019250505060405180910390a3846001600160a01b0316826001600160a01b03166000805160206149e08339815191528584604051808381526020018281526020019250505060405180910390a3505050505050565b6060614538826040518060400160405280602081526020017f5361666545524332303a206c6f772d6c6576656c2063616c6c206661696c6564815250856001600160a01b031661461b9092919063ffffffff16565b805190915015612d015780806020019051602081101561455757600080fd5b5051612d015760405162461bcd60e51b815260040180806020018281038252602a815260200180614a21602a913960400191505060405180910390fd5b60008082116145a45760006111f6565b6111f682614632565b6000808385116145cb576145c2858585614681565b91509150611252565b6000806145d9868887614681565b9890975095505050505050565b60006001600160801b038311158015614609575081600114806146095750816002145b61460f57fe5b50600019016080021b90565b606061462a8484600085614745565b949350505050565b6000806002830460010190506000600282858161464b57fe5b0483018161465557fe5b0490505b808211156141a057809150600282858161466f57fe5b0483018161467957fe5b049050614659565b6000806000836000198161469157fe5b049050808611156146ca5760008160010187816146aa57fe5b0460010190508087816146b957fe5b0496508086816146c557fe5b049550505b8486146147355785840260006146e088886148a1565b90508781106147065760006146f583836148a5565b955050508385039250611252915050565b60028888030487038210156147245760008694509450505050611252565b600180870394509450505050611252565b5050600290910493849350915050565b6060824710156147865760405162461bcd60e51b81526004018080602001828103825260268152602001806149ba6026913960400191505060405180910390fd5b61478f856148d1565b6147e0576040805162461bcd60e51b815260206004820152601d60248201527f416464726573733a2063616c6c20746f206e6f6e2d636f6e7472616374000000604482015290519081900360640190fd5b60006060866001600160a01b031685876040518082805190602001908083835b6020831061481f5780518252601f199092019160209182019101614800565b6001836020036101000a03801982511681845116808217855250505050505090500191505060006040518083038185875af1925050503d8060008114614881576040519150601f19603f3d011682016040523d82523d6000602084013e614886565b606091505b50915091506148968282866148d7565b979650505050505050565b0190565b60006002820482038284816148b657fe5b06816148be57fe5b048284816148c857fe5b04019392505050565b3b151590565b606083156148e6575081612160565b8251156148f65782518084602001fd5b8160405162461bcd60e51b81526004018080602001828103825283818151815260200191508051906020019080838360005b83811015614940578181015183820152602001614928565b50505050905090810190601f16801561496d5780820380516001836020036101000a031916815260200191505b509250505060405180910390fd5b6040518060400160405280600290602082028036833750919291505056fe5265656e7472616e637947756172643a207265656e7472616e742063616c6c00416464726573733a20696e73756666696369656e742062616c616e636520666f722063616c6c77f29993cf2c084e726f7e802da0719d6a0ade3e204badc7a3ffd57ecb768c24536166654d6174683a206d756c7469706c69636174696f6e206f766572666c6f775361666545524332303a204552433230206f7065726174696f6e20646964206e6f7420737563636565644552525f494e56414c49445f524553455256455f42414c414e43450000000000a164736f6c634300060c000aa164736f6c634300060c000a",
  "linkReferences": {},
  "deployedLinkReferences": {}
}