{
  "_format": "hh-sol-artifact-1",
  "contractName": "BancorNetwork",
  "sourceName": "contracts/BancorNetwork.sol",
  "abi": [
    {
      "inputs": [
        {
          "internalType": "contract IContractRegistry",
          "name": "registry",
          "type": "address"
        }
      ],
      "stateMutability": "nonpayable",
      "type": "constructor"
    },
    {
      "anonymous": false,
      "inputs": [
        {
          "indexed": true,
          "internalType": "contract IConverterAnchor",
          "name": "anchor",
          "type": "address"
        },
        {
          "indexed": true,
          "internalType": "contract IReserveToken",
          "name": "sourceToken",
          "type": "address"
        },
        {
          "indexed": true,
          "internalType": "contract IReserveToken",
          "name": "targetToken",
          "type": "address"
        },
        {
          "indexed": false,
          "internalType": "uint256",
          "name": "sourceAmount",
          "type": "uint256"
        },
        {
          "indexed": false,
          "internalType": "uint256",
          "name": "targetAmount",
          "type": "uint256"
        },
        {
          "indexed": false,
          "internalType": "address",
          "name": "trader",
          "type": "address"
        }
      ],
      "name": "Conversion",
      "type": "event"
    },
    {
      "anonymous": false,
      "inputs": [
        {
          "indexed": true,
          "internalType": "address",
          "name": "prevOwner",
          "type": "address"
        },
        {
          "indexed": true,
          "internalType": "address",
          "name": "newOwner",
          "type": "address"
        }
      ],
      "name": "OwnerUpdate",
      "type": "event"
    },
    {
      "inputs": [],
      "name": "acceptOwnership",
      "outputs": [],
      "stateMutability": "nonpayable",
      "type": "function"
    },
    {
      "inputs": [
        {
          "internalType": "address[]",
          "name": "path",
          "type": "address[]"
        },
        {
          "internalType": "uint256",
          "name": "sourceAmount",
          "type": "uint256"
        },
        {
          "internalType": "uint256",
          "name": "minReturn",
          "type": "uint256"
        }
      ],
      "name": "claimAndConvert",
      "outputs": [
        {
          "internalType": "uint256",
          "name": "",
          "type": "uint256"
        }
      ],
      "stateMutability": "nonpayable",
      "type": "function"
    },
    {
      "inputs": [
        {
          "internalType": "address[]",
          "name": "path",
          "type": "address[]"
        },
        {
          "internalType": "uint256",
          "name": "sourceAmount",
          "type": "uint256"
        },
        {
          "internalType": "uint256",
          "name": "minReturn",
          "type": "uint256"
        },
        {
          "internalType": "address",
          "name": "",
          "type": "address"
        },
        {
          "internalType": "uint256",
          "name": "",
          "type": "uint256"
        }
      ],
      "name": "claimAndConvert2",
      "outputs": [
        {
          "internalType": "uint256",
          "name": "",
          "type": "uint256"
        }
      ],
      "stateMutability": "nonpayable",
      "type": "function"
    },
    {
      "inputs": [
        {
          "internalType": "address[]",
          "name": "path",
          "type": "address[]"
        },
        {
          "internalType": "uint256",
          "name": "sourceAmount",
          "type": "uint256"
        },
        {
          "internalType": "uint256",
          "name": "minReturn",
          "type": "uint256"
        },
        {
          "internalType": "address payable",
          "name": "beneficiary",
          "type": "address"
        }
      ],
      "name": "claimAndConvertFor",
      "outputs": [
        {
          "internalType": "uint256",
          "name": "",
          "type": "uint256"
        }
      ],
      "stateMutability": "nonpayable",
      "type": "function"
    },
    {
      "inputs": [
        {
          "internalType": "address[]",
          "name": "path",
          "type": "address[]"
        },
        {
          "internalType": "uint256",
          "name": "sourceAmount",
          "type": "uint256"
        },
        {
          "internalType": "uint256",
          "name": "minReturn",
          "type": "uint256"
        },
        {
          "internalType": "address payable",
          "name": "beneficiary",
          "type": "address"
        },
        {
          "internalType": "address",
          "name": "",
          "type": "address"
        },
        {
          "internalType": "uint256",
          "name": "",
          "type": "uint256"
        }
      ],
      "name": "claimAndConvertFor2",
      "outputs": [
        {
          "internalType": "uint256",
          "name": "",
          "type": "uint256"
        }
      ],
      "stateMutability": "nonpayable",
      "type": "function"
    },
    {
      "inputs": [
        {
          "internalType": "address[]",
          "name": "path",
          "type": "address[]"
        },
        {
          "internalType": "contract IBancorX",
          "name": "bancorX",
          "type": "address"
        },
        {
          "internalType": "uint256",
          "name": "conversionId",
          "type": "uint256"
        },
        {
          "internalType": "uint256",
          "name": "minReturn",
          "type": "uint256"
        },
        {
          "internalType": "address payable",
          "name": "beneficiary",
          "type": "address"
        }
      ],
      "name": "completeXConversion",
      "outputs": [
        {
          "internalType": "uint256",
          "name": "",
          "type": "uint256"
        }
      ],
      "stateMutability": "nonpayable",
      "type": "function"
    },
    {
      "inputs": [
        {
          "internalType": "contract IReserveToken",
          "name": "sourceToken",
          "type": "address"
        },
        {
          "internalType": "contract IReserveToken",
          "name": "targetToken",
          "type": "address"
        }
      ],
      "name": "conversionPath",
      "outputs": [
        {
          "internalType": "address[]",
          "name": "",
          "type": "address[]"
        }
      ],
      "stateMutability": "view",
      "type": "function"
    },
    {
      "inputs": [
        {
          "internalType": "address[]",
          "name": "path",
          "type": "address[]"
        },
        {
          "internalType": "uint256",
          "name": "sourceAmount",
          "type": "uint256"
        },
        {
          "internalType": "uint256",
          "name": "minReturn",
          "type": "uint256"
        }
      ],
      "name": "convert",
      "outputs": [
        {
          "internalType": "uint256",
          "name": "",
          "type": "uint256"
        }
      ],
      "stateMutability": "payable",
      "type": "function"
    },
    {
      "inputs": [
        {
          "internalType": "address[]",
          "name": "path",
          "type": "address[]"
        },
        {
          "internalType": "uint256",
          "name": "sourceAmount",
          "type": "uint256"
        },
        {
          "internalType": "uint256",
          "name": "minReturn",
          "type": "uint256"
        },
        {
          "internalType": "address",
          "name": "",
          "type": "address"
        },
        {
          "internalType": "uint256",
          "name": "",
          "type": "uint256"
        }
      ],
      "name": "convert2",
      "outputs": [
        {
          "internalType": "uint256",
          "name": "",
          "type": "uint256"
        }
      ],
      "stateMutability": "payable",
      "type": "function"
    },
    {
      "inputs": [
        {
          "internalType": "address[]",
          "name": "path",
          "type": "address[]"
        },
        {
          "internalType": "uint256",
          "name": "sourceAmount",
          "type": "uint256"
        },
        {
          "internalType": "uint256",
          "name": "minReturn",
          "type": "uint256"
        },
        {
          "internalType": "address payable",
          "name": "beneficiary",
          "type": "address"
        },
        {
          "internalType": "address",
          "name": "",
          "type": "address"
        },
        {
          "internalType": "uint256",
          "name": "",
          "type": "uint256"
        }
      ],
      "name": "convertByPath",
      "outputs": [
        {
          "internalType": "uint256",
          "name": "",
          "type": "uint256"
        }
      ],
      "stateMutability": "payable",
      "type": "function"
    },
    {
      "inputs": [
        {
          "internalType": "address[]",
          "name": "path",
          "type": "address[]"
        },
        {
          "internalType": "uint256",
          "name": "sourceAmount",
          "type": "uint256"
        },
        {
          "internalType": "uint256",
          "name": "minReturn",
          "type": "uint256"
        },
        {
          "internalType": "address payable",
          "name": "beneficiary",
          "type": "address"
        }
      ],
      "name": "convertByPath2",
      "outputs": [
        {
          "internalType": "uint256",
          "name": "",
          "type": "uint256"
        }
      ],
      "stateMutability": "payable",
      "type": "function"
    },
    {
      "inputs": [
        {
          "internalType": "address[]",
          "name": "path",
          "type": "address[]"
        },
        {
          "internalType": "uint256",
          "name": "sourceAmount",
          "type": "uint256"
        },
        {
          "internalType": "uint256",
          "name": "minReturn",
          "type": "uint256"
        },
        {
          "internalType": "address payable",
          "name": "beneficiary",
          "type": "address"
        }
      ],
      "name": "convertFor",
      "outputs": [
        {
          "internalType": "uint256",
          "name": "",
          "type": "uint256"
        }
      ],
      "stateMutability": "payable",
      "type": "function"
    },
    {
      "inputs": [
        {
          "internalType": "address[]",
          "name": "path",
          "type": "address[]"
        },
        {
          "internalType": "uint256",
          "name": "sourceAmount",
          "type": "uint256"
        },
        {
          "internalType": "uint256",
          "name": "minReturn",
          "type": "uint256"
        },
        {
          "internalType": "address payable",
          "name": "beneficiary",
          "type": "address"
        },
        {
          "internalType": "address",
          "name": "",
          "type": "address"
        },
        {
          "internalType": "uint256",
          "name": "",
          "type": "uint256"
        }
      ],
      "name": "convertFor2",
      "outputs": [
        {
          "internalType": "uint256",
          "name": "",
          "type": "uint256"
        }
      ],
      "stateMutability": "payable",
      "type": "function"
    },
    {
      "inputs": [
        {
          "internalType": "address[]",
          "name": "path",
          "type": "address[]"
        },
        {
          "internalType": "uint256",
          "name": "sourceAmount",
          "type": "uint256"
        }
      ],
      "name": "getReturnByPath",
      "outputs": [
        {
          "internalType": "uint256",
          "name": "",
          "type": "uint256"
        },
        {
          "internalType": "uint256",
          "name": "",
          "type": "uint256"
        }
      ],
      "stateMutability": "view",
      "type": "function"
    },
    {
      "inputs": [],
      "name": "newOwner",
      "outputs": [
        {
          "internalType": "address",
          "name": "",
          "type": "address"
        }
      ],
      "stateMutability": "view",
      "type": "function"
    },
    {
      "inputs": [],
      "name": "onlyOwnerCanUpdateRegistry",
      "outputs": [
        {
          "internalType": "bool",
          "name": "",
          "type": "bool"
        }
      ],
      "stateMutability": "view",
      "type": "function"
    },
    {
      "inputs": [],
      "name": "owner",
      "outputs": [
        {
          "internalType": "address",
          "name": "",
          "type": "address"
        }
      ],
      "stateMutability": "view",
      "type": "function"
    },
    {
      "inputs": [],
      "name": "prevRegistry",
      "outputs": [
        {
          "internalType": "contract IContractRegistry",
          "name": "",
          "type": "address"
        }
      ],
      "stateMutability": "view",
      "type": "function"
    },
    {
      "inputs": [
        {
          "internalType": "address[]",
          "name": "path",
          "type": "address[]"
        },
        {
          "internalType": "uint256",
          "name": "sourceAmount",
          "type": "uint256"
        }
      ],
      "name": "rateByPath",
      "outputs": [
        {
          "internalType": "uint256",
          "name": "",
          "type": "uint256"
        }
      ],
      "stateMutability": "view",
      "type": "function"
    },
    {
      "inputs": [],
      "name": "registry",
      "outputs": [
        {
          "internalType": "contract IContractRegistry",
          "name": "",
          "type": "address"
        }
      ],
      "stateMutability": "view",
      "type": "function"
    },
    {
      "inputs": [],
      "name": "restoreRegistry",
      "outputs": [],
      "stateMutability": "nonpayable",
      "type": "function"
    },
    {
      "inputs": [
        {
          "internalType": "bool",
          "name": "restrictOwnerOnly",
          "type": "bool"
        }
      ],
      "name": "restrictRegistryUpdate",
      "outputs": [],
      "stateMutability": "nonpayable",
      "type": "function"
    },
    {
      "inputs": [
        {
          "internalType": "address",
          "name": "newOwner",
          "type": "address"
        }
      ],
      "name": "transferOwnership",
      "outputs": [],
      "stateMutability": "nonpayable",
      "type": "function"
    },
    {
      "inputs": [],
      "name": "updateRegistry",
      "outputs": [],
      "stateMutability": "nonpayable",
      "type": "function"
    },
    {
      "inputs": [
        {
          "internalType": "contract IReserveToken",
          "name": "reserveToken",
          "type": "address"
        },
        {
          "internalType": "address payable",
          "name": "to",
          "type": "address"
        },
        {
          "internalType": "uint256",
          "name": "amount",
          "type": "uint256"
        }
      ],
      "name": "withdrawTokens",
      "outputs": [],
      "stateMutability": "nonpayable",
      "type": "function"
    },
    {
      "inputs": [
        {
          "internalType": "contract IReserveToken[]",
          "name": "reserveTokens",
          "type": "address[]"
        },
        {
          "internalType": "address payable",
          "name": "to",
          "type": "address"
        },
        {
          "internalType": "uint256[]",
          "name": "amounts",
          "type": "uint256[]"
        }
      ],
      "name": "withdrawTokensMultiple",
      "outputs": [],
      "stateMutability": "nonpayable",
      "type": "function"
    },
    {
      "inputs": [
        {
          "internalType": "address[]",
          "name": "path",
          "type": "address[]"
        },
        {
          "internalType": "uint256",
          "name": "sourceAmount",
          "type": "uint256"
        },
        {
          "internalType": "uint256",
          "name": "minReturn",
          "type": "uint256"
        },
        {
          "internalType": "bytes32",
          "name": "targetBlockchain",
          "type": "bytes32"
        },
        {
          "internalType": "bytes32",
          "name": "targetAccount",
          "type": "bytes32"
        },
        {
          "internalType": "uint256",
          "name": "conversionId",
          "type": "uint256"
        }
      ],
      "name": "xConvert",
      "outputs": [
        {
          "internalType": "uint256",
          "name": "",
          "type": "uint256"
        }
      ],
      "stateMutability": "payable",
      "type": "function"
    },
    {
      "stateMutability": "payable",
      "type": "receive"
    }
  ],
  "bytecode": "0x60806040523480156200001157600080fd5b5060405162002d1e38038062002d1e833981810160405260208110156200003757600080fd5b5051600080546001600160a01b03191633179055808062000058816200008f565b50600280546001600160a01b039092166001600160a01b0319928316811790915560038054909216179055506001600455620000ee565b6001600160a01b038116620000eb576040805162461bcd60e51b815260206004820152601360248201527f4552525f494e56414c49445f4144445245535300000000000000000000000000604482015290519081900360640190fd5b50565b612c2080620000fe6000396000f3fe6080604052600436106101a05760003560e01c80638da5cb5b116100ec578063c98fefed1161008a578063e57738e511610064578063e57738e514610b59578063f2fde38b14610b7c578063f3898a9714610baf578063f8394fb714610bc5576101a7565b8063c98fefed14610aa3578063d4ee1d9014610ab9578063d734fa1914610ace576101a7565b8063b4a176d3116100c6578063b4a176d31461090d578063b77d239b14610922578063c52173de14610938578063c7ba24bc146109f0576101a7565b80638da5cb5b14610771578063ab6214ce14610786578063b1e9932b1461084b576101a7565b8063569706eb1161015957806379ba50971161013357806379ba5097146105cc5780637b103999146105e15780637f9c0ecd146105f657806389f9cc61146106a6576101a7565b8063569706eb1461049d5780635e35359e1461055857806361cd756e1461059b576101a7565b8063024c7ec7146101ac57806308506df7146101da5780630c8496cc146102b25780632978c10e1461037b5780632fe8a6ad1461045f57806349d10b6414610488576101a7565b366101a757005b600080fd5b3480156101b857600080fd5b506101d8600480360360208110156101cf57600080fd5b50351515610c7a565b005b3480156101e657600080fd5b506101d8600480360360608110156101fd57600080fd5b810190602081018135600160201b81111561021757600080fd5b82018360208201111561022957600080fd5b803590602001918460208302840111600160201b8311171561024a57600080fd5b919390926001600160a01b0383351692604081019060200135600160201b81111561027457600080fd5b82018360208201111561028657600080fd5b803590602001918460208302840111600160201b831117156102a757600080fd5b509092509050610ca0565b3480156102be57600080fd5b50610362600480360360408110156102d557600080fd5b810190602081018135600160201b8111156102ef57600080fd5b82018360208201111561030157600080fd5b803590602001918460208302840111600160201b8311171561032257600080fd5b9190808060200260200160405190810160405280939291908181526020018383602002808284376000920191909152509295505091359250610d64915050565b6040805192835260208301919091528051918290030190f35b34801561038757600080fd5b5061044d600480360360c081101561039e57600080fd5b810190602081018135600160201b8111156103b857600080fd5b8201836020820111156103ca57600080fd5b803590602001918460208302840111600160201b831117156103eb57600080fd5b919080806020026020016040519081016040528093929190818152602001838360200280828437600092019190915250929550508235935050506020810135906001600160a01b03604082013581169160608101359091169060800135610d7c565b60408051918252519081900360200190f35b34801561046b57600080fd5b50610474610d95565b604080519115158252519081900360200190f35b34801561049457600080fd5b506101d8610da5565b61044d600480360360a08110156104b357600080fd5b810190602081018135600160201b8111156104cd57600080fd5b8201836020820111156104df57600080fd5b803590602001918460208302840111600160201b8311171561050057600080fd5b919080806020026020016040519081016040528093929190818152602001838360200280828437600092019190915250929550508235935050506020810135906001600160a01b036040820135169060600135610fbb565b34801561056457600080fd5b506101d86004803603606081101561057b57600080fd5b506001600160a01b03813581169160208101359091169060400135610fd4565b3480156105a757600080fd5b506105b0611000565b604080516001600160a01b039092168252519081900360200190f35b3480156105d857600080fd5b506101d861100f565b3480156105ed57600080fd5b506105b06110c6565b34801561060257600080fd5b5061044d6004803603604081101561061957600080fd5b810190602081018135600160201b81111561063357600080fd5b82018360208201111561064557600080fd5b803590602001918460208302840111600160201b8311171561066657600080fd5b91908080602002602001604051908101604052809392919081815260200183836020028082843760009201919091525092955050913592506110d5915050565b3480156106b257600080fd5b5061044d600480360360a08110156106c957600080fd5b810190602081018135600160201b8111156106e357600080fd5b8201836020820111156106f557600080fd5b803590602001918460208302840111600160201b8311171561071657600080fd5b919080806020026020016040519081016040528093929190818152602001838360200280828437600092019190915250929550506001600160a01b038335811694506020840135936040810135935060600135169050611223565b34801561077d57600080fd5b506105b0611392565b61044d600480360360c081101561079c57600080fd5b810190602081018135600160201b8111156107b657600080fd5b8201836020820111156107c857600080fd5b803590602001918460208302840111600160201b831117156107e957600080fd5b919080806020026020016040519081016040528093929190818152602001838360200280828437600092019190915250929550508235935050506020810135906001600160a01b036040820135811691606081013590911690608001356113a1565b34801561085757600080fd5b5061044d6004803603608081101561086e57600080fd5b810190602081018135600160201b81111561088857600080fd5b82018360208201111561089a57600080fd5b803590602001918460208302840111600160201b831117156108bb57600080fd5b91908080602002602001604051908101604052809392919081815260200183836020028082843760009201919091525092955050823593505050602081013590604001356001600160a01b03166113c5565b34801561091957600080fd5b506101d86113dc565b61044d600480360360c081101561039e57600080fd5b61044d600480360360c081101561094e57600080fd5b810190602081018135600160201b81111561096857600080fd5b82018360208201111561097a57600080fd5b803590602001918460208302840111600160201b8311171561099b57600080fd5b9190808060200260200160405190810160405280939291908181526020018383602002808284376000920191909152509295505082359350505060208101359060408101359060608101359060800135611408565b3480156109fc57600080fd5b5061044d60048036036060811015610a1357600080fd5b810190602081018135600160201b811115610a2d57600080fd5b820183602082011115610a3f57600080fd5b803590602001918460208302840111600160201b83111715610a6057600080fd5b9190808060200260200160405190810160405280939291908181526020018383602002808284376000920191909152509295505082359350505060200135611568565b61044d6004803603608081101561086e57600080fd5b348015610ac557600080fd5b506105b0611581565b348015610ada57600080fd5b50610b0960048036036040811015610af157600080fd5b506001600160a01b0381358116916020013516611590565b60408051602080825283518183015283519192839290830191858101910280838360005b83811015610b45578181015183820152602001610b2d565b505050509050019250505060405180910390f35b348015610b6557600080fd5b5061044d600480360360a08110156104b357600080fd5b348015610b8857600080fd5b506101d860048036036020811015610b9f57600080fd5b50356001600160a01b03166116e4565b61044d60048036036060811015610a1357600080fd5b61044d60048036036080811015610bdb57600080fd5b810190602081018135600160201b811115610bf557600080fd5b820183602082011115610c0757600080fd5b803590602001918460208302840111600160201b83111715610c2857600080fd5b91908080602002602001604051908101604052809392919081815260200183836020028082843760009201919091525092955050823593505050602081013590604001356001600160a01b0316611762565b610c826118a8565b60038054911515600160a01b0260ff60a01b19909216919091179055565b610ca86118a8565b82610cb2816118fd565b84828114610cfc576040805162461bcd60e51b815260206004820152601260248201527108aa4a4be929cac82989288be988a9c8ea8960731b604482015290519081900360640190fd5b60005b81811015610d5a57610d5286868684818110610d1757fe5b905060200201358a8a85818110610d2a57fe5b905060200201356001600160a01b03166001600160a01b03166119519092919063ffffffff16565b600101610cff565b5050505050505050565b600080610d7184846110d5565b946000945092505050565b6000610d8a87878787611762565b979650505050505050565b600354600160a01b900460ff1690565b610dad611392565b6001600160a01b0316336001600160a01b03161480610dd65750600354600160a01b900460ff16155b610e1b576040805162461bcd60e51b815260206004820152601160248201527011549497d050d0d154d4d7d11153925151607a1b604482015290519081900360640190fd5b6000610e396f436f6e7472616374526567697374727960801b6119c8565b6002549091506001600160a01b03808316911614801590610e6257506001600160a01b03811615155b610eaa576040805162461bcd60e51b81526020600482015260146024820152734552525f494e56414c49445f524547495354525960601b604482015290519081900360640190fd5b60006001600160a01b0316816001600160a01b031663bb34534c6f436f6e7472616374526567697374727960801b6040518263ffffffff1660e01b81526004018082815260200191505060206040518083038186803b158015610f0c57600080fd5b505afa158015610f20573d6000803e3d6000fd5b505050506040513d6020811015610f3657600080fd5b50516001600160a01b03161415610f8b576040805162461bcd60e51b81526020600482015260146024820152734552525f494e56414c49445f524547495354525960601b604482015290519081900360640190fd5b60028054600380546001600160a01b038084166001600160a01b0319928316179092559091169216919091179055565b6000610fca8686866000611762565b9695505050505050565b610fdc6118a8565b81610fe6816118fd565b610ffa6001600160a01b0385168484611951565b50505050565b6003546001600160a01b031690565b6001546001600160a01b03163314611062576040805162461bcd60e51b815260206004820152601160248201527011549497d050d0d154d4d7d11153925151607a1b604482015290519081900360640190fd5b600154600080546040516001600160a01b0393841693909116917f343765429aea5a34b3ff6a3785a98a5abb2597aca87bfbb58632c173d585373a91a360018054600080546001600160a01b03199081166001600160a01b03841617909155169055565b6002546001600160a01b031690565b6000600283511180156110f3575060028351816110ee57fe5b066001145b611137576040805162461bcd60e51b815260206004820152601060248201526f08aa4a4be929cac82989288bea082a8960831b604482015290519081900360640190fd5b8160025b845181101561121b57600085600283038151811061115557fe5b60200260200101519050600086600184038151811061117057fe5b60200260200101519050600087848151811061118857fe5b602002602001015190506000826001600160a01b0316638da5cb5b6040518163ffffffff1660e01b815260040160206040518083038186803b1580156111cd57600080fd5b505afa1580156111e1573d6000803e3d6000fd5b505050506040513d60208110156111f757600080fd5b5051905061120781858489611a48565b50809650505050505060028101905061113b565b509392505050565b6000846001600160a01b031663fc0c546a6040518163ffffffff1660e01b815260040160206040518083038186803b15801561125e57600080fd5b505afa158015611272573d6000803e3d6000fd5b505050506040513d602081101561128857600080fd5b505186516001600160a01b039091169087906000906112a357fe5b60200260200101516001600160a01b031614611301576040805162461bcd60e51b815260206004820152601860248201527722a9292fa4a72b20a624a22fa9a7aaa921a2afaa27a5a2a760411b604482015290519081900360640190fd5b6000856001600160a01b031663aafd6b7686336040518363ffffffff1660e01b815260040180838152602001826001600160a01b031681526020019250505060206040518083038186803b15801561135857600080fd5b505afa15801561136c573d6000803e3d6000fd5b505050506040513d602081101561138257600080fd5b50519050610d8a87828686611762565b6000546001600160a01b031690565b6000846113ad81611bbc565b6113b988888888611762565b98975050505050505050565b60006113d385858585611762565b95945050505050565b6113e46118a8565b600354600280546001600160a01b0319166001600160a01b03909216919091179055565b60008461141481611bbc565b60008860018a51038151811061142657fe5b60200260200101519050600061144566084c2dcc6dee4b60cb1b6119c8565b905061145b6721272a2a37b5b2b760c11b6119c8565b6001600160a01b0316826001600160a01b0316146114c0576040805162461bcd60e51b815260206004820152601860248201527f4552525f494e56414c49445f5441524745545f544f4b454e0000000000000000604482015290519081900360640190fd5b60006114ce8b8b8b30611762565b90506114e46001600160a01b0384168383611c02565b6040805163109f00dd60e21b8152600481018a905260248101899052604481018390526064810188905290516001600160a01b0384169163427c037491608480830192600092919082900301818387803b15801561154157600080fd5b505af1158015611555573d6000803e3d6000fd5b50929d9c50505050505050505050505050565b60006115778484846000611762565b90505b9392505050565b6001546001600160a01b031690565b606060006115b47321b7b73b32b939b4b7b72830ba342334b73232b960611b6119c8565b9050806001600160a01b031663a1c421cd85856040518363ffffffff1660e01b815260040180836001600160a01b03168152602001826001600160a01b031681526020019250505060006040518083038186803b15801561161457600080fd5b505afa158015611628573d6000803e3d6000fd5b505050506040513d6000823e601f3d908101601f19168201604052602081101561165157600080fd5b8101908080516040519392919084600160201b82111561167057600080fd5b90830190602082018581111561168557600080fd5b82518660208202830111600160201b821117156116a157600080fd5b82525081516020918201928201910280838360005b838110156116ce5781810151838201526020016116b6565b5050505090500160405250505091505092915050565b6116ec6118a8565b6000546001600160a01b0382811691161415611740576040805162461bcd60e51b815260206004820152600e60248201526d22a9292fa9a0a6a2afa7aba722a960911b604482015290519081900360640190fd5b600180546001600160a01b0319166001600160a01b0392909216919091179055565b6000600260045414156117bc576040805162461bcd60e51b815260206004820152601f60248201527f5265656e7472616e637947756172643a207265656e7472616e742063616c6c00604482015290519081900360640190fd5b6002600455826117cb81611bbc565b600286511180156117e7575060028651816117e257fe5b066001145b61182b576040805162461bcd60e51b815260206004820152601060248201526f08aa4a4be929cac82989288bea082a8960831b604482015290519081900360640190fd5b61185e8660008151811061183b57fe5b60200260200101518760018151811061185057fe5b602002602001015187611c33565b6001600160a01b038316611870573392505b606061187c8785611e4e565b9050600061188b8288886120bd565b9050611898828287612493565b6001600455979650505050505050565b6000546001600160a01b031633146118fb576040805162461bcd60e51b815260206004820152601160248201527011549497d050d0d154d4d7d11153925151607a1b604482015290519081900360640190fd5b565b6001600160a01b03811661194e576040805162461bcd60e51b81526020600482015260136024820152724552525f494e56414c49445f4144445245535360681b604482015290519081900360640190fd5b50565b8061195b576119c3565b6119648361250a565b156119a5576040516001600160a01b0383169082156108fc029083906000818181858888f1935050505015801561199f573d6000803e3d6000fd5b506119c3565b6119c382826119b38661252f565b6001600160a01b03169190612532565b505050565b60025460408051632ecd14d360e21b81526004810184905290516000926001600160a01b03169163bb34534c916024808301926020929190829003018186803b158015611a1457600080fd5b505afa158015611a28573d6000803e3d6000fd5b505050506040513d6020811015611a3e57600080fd5b505190505b919050565b604080516001600160a01b0380861660248301528085166044830152606480830185905283518084039091018152608490920183526020820180516001600160e01b03166303c2803f60e31b178152925182516000948594938593606093918c169286928291908083835b60208310611ad25780518252601f199092019160209182019101611ab3565b6001836020036101000a038019825116818451168082178552505050505050905001915050600060405180830381855afa9150503d8060008114611b32576040519150601f19603f3d011682016040523d82523d6000602084013e611b37565b606091505b50915091508115611ba857805160401415611b7857808060200190516040811015611b6157600080fd5b5080516020909101519095509350611bb392505050565b805160201415611ba857808060200190516020811015611b9757600080fd5b5051945060009350611bb392505050565b600080945094505050505b94509492505050565b6000811161194e576040805162461bcd60e51b815260206004820152600e60248201526d4552525f5a45524f5f56414c554560901b604482015290519081900360640190fd5b611c0b8361250a565b15611c15576119c3565b6119c38282611c238661252f565b6001600160a01b03169190612584565b6000826001600160a01b0316638da5cb5b6040518163ffffffff1660e01b815260040160206040518083038186803b158015611c6e57600080fd5b505afa158015611c82573d6000803e3d6000fd5b505050506040513d6020811015611c9857600080fd5b505190506000611ca782612649565b90503415611db857823414611d03576040805162461bcd60e51b815260206004820152601760248201527f4552525f4554485f414d4f554e545f4d49534d41544348000000000000000000604482015290519081900360640190fd5b611d15856001600160a01b031661250a565b611d61576040805162461bcd60e51b815260206004820152601860248201527722a9292fa4a72b20a624a22fa9a7aaa921a2afaa27a5a2a760411b604482015290519081900360640190fd5b80611db3576040805162461bcd60e51b815260206004820152601b60248201527f4552525f434f4e5645525445525f4e4f545f535550504f525445440000000000604482015290519081900360640190fd5b611e47565b611dca856001600160a01b031661250a565b15611e17576040805162461bcd60e51b815260206004820152601860248201527722a9292fa4a72b20a624a22fa9a7aaa921a2afaa27a5a2a760411b604482015290519081900360640190fd5b8015611e3257611db36001600160a01b038616338486612760565b611e476001600160a01b038616333086612760565b5050505050565b6060806002845181611e5c57fe5b0467ffffffffffffffff81118015611e7357600080fd5b50604051908082528060200260200182016040528015611ead57816020015b611e9a612b7e565b815260200190600190039081611e925790505b50905060005b6001855103811015611ffe576000858260010181518110611ed057fe5b602002602001015190506000816001600160a01b0316638da5cb5b6040518163ffffffff1660e01b815260040160206040518083038186803b158015611f1557600080fd5b505afa158015611f29573d6000803e3d6000fd5b505050506040513d6020811015611f3f57600080fd5b50518751909150600090889060028601908110611f5857fe5b602002602001015190506040518060c00160405280836001600160a01b03168152602001846001600160a01b03168152602001898681518110611f9757fe5b60200260200101516001600160a01b03168152602001826001600160a01b0316815260200160006001600160a01b03168152602001611fd584612649565b15159052856002860481518110611fe857fe5b6020908102919091010152505050600201611eb3565b5060005b815181101561121b57612013612b7e565b82828151811061201f57fe5b602002602001015190508060a00151156120ad576001835103821415612053576001600160a01b03851660808201526120a8565b82826001018151811061206257fe5b602002602001015160a00151156120a15782826001018151811061208257fe5b6020908102919091010151516001600160a01b031660808201526120a8565b3060808201525b6120b4565b3060808201525b50600101612002565b60008060005b8551811015612448576120d4612b7e565b8682815181106120e057fe5b602002602001015190508060a001511561217457811580159061212e5750306001600160a01b031687600184038151811061211757fe5b6020026020010151608001516001600160a01b0316145b801561214d575061214b81604001516001600160a01b031661250a565b155b1561216f578051604082015161216f916001600160a01b039091169088611951565b6121b5565b80602001516001600160a01b031681604001516001600160a01b0316141561219857fe5b805160408201516121b5916001600160a01b039091169088611c02565b8060a0015161225d57805160408083015160608401518251635e5144eb60e01b81526001600160a01b0392831660048201529082166024820152604481018a9052600160648201529151921691635e5144eb916084808201926020929091908290030181600087803b15801561222a57600080fd5b505af115801561223e573d6000803e3d6000fd5b505050506040513d602081101561225457600080fd5b505192506123c0565b61227381604001516001600160a01b031661250a565b1561231a57805160408083015160608401516080850151835163e8dc12ff60e01b81526001600160a01b0393841660048201529183166024830152604482018b905233606483015282166084820152915192169163e8dc12ff91349160a480830192602092919082900301818588803b1580156122ef57600080fd5b505af1158015612303573d6000803e3d6000fd5b50505050506040513d602081101561225457600080fd5b805160408083015160608401516080850151835163e8dc12ff60e01b81526001600160a01b0393841660048201529183166024830152604482018b905233606483015282166084820152915192169163e8dc12ff9160a4808201926020929091908290030181600087803b15801561239157600080fd5b505af11580156123a5573d6000803e3d6000fd5b505050506040513d60208110156123bb57600080fd5b505192505b80606001516001600160a01b031681604001516001600160a01b031682602001516001600160a01b03167f7154b38b5dd31bb3122436a96d4e09aba5b323ae1fd580025fab55074334c09589873360405180848152602001838152602001826001600160a01b03168152602001935050505060405180910390a45090935083906001016120c3565b5082811015611577576040805162461bcd60e51b81526020600482015260126024820152714552525f52455455524e5f544f4f5f4c4f5760701b604482015290519081900360640190fd5b61249b612b7e565b836001855103815181106124ab57fe5b60200260200101519050306001600160a01b031681608001516001600160a01b0316146124d857506119c3565b60608101516124ef6001600160a01b03821661250a565b156124f657fe5b611e476001600160a01b0382168486611951565b6001600160a01b03811673eeeeeeeeeeeeeeeeeeeeeeeeeeeeeeeeeeeeeeee14919050565b90565b604080516001600160a01b038416602482015260448082018490528251808303909101815260649091019091526020810180516001600160e01b031663a9059cbb60e01b1790526119c390849061279b565b8061258e576119c3565b60408051636eb1769f60e11b81523060048201526001600160a01b038481166024830152915160009286169163dd62ed3e916044808301926020929190829003018186803b1580156125df57600080fd5b505afa1580156125f3573d6000803e3d6000fd5b505050506040513d602081101561260957600080fd5b5051905081811061261a57506119c3565b8015612635576126356001600160a01b03851684600061284c565b610ffa6001600160a01b038516848461284c565b60408051600481526024810182526020810180516001600160e01b031663349814a760e21b1781529151815160009384926060926001600160a01b03881692610fa0928792909182918083835b602083106126b55780518252601f199092019160209182019101612696565b6001836020036101000a0380198251168184511680821785525050505050509050019150506000604051808303818686fa925050503d8060008114612716576040519150601f19603f3d011682016040523d82523d6000602084013e61271b565b606091505b509150915081801561272e575080516020145b156127555780806020019051602081101561274857600080fd5b50519350611a4392505050565b506000949350505050565b80158061277157506127718461250a565b1561277b57610ffa565b610ffa83838361278a8861252f565b6001600160a01b031692919061295f565b60606127f0826040518060400160405280602081526020017f5361666545524332303a206c6f772d6c6576656c2063616c6c206661696c6564815250856001600160a01b03166129b99092919063ffffffff16565b8051909150156119c35780806020019051602081101561280f57600080fd5b50516119c35760405162461bcd60e51b815260040180806020018281038252602a815260200180612bb4602a913960400191505060405180910390fd5b8015806128d2575060408051636eb1769f60e11b81523060048201526001600160a01b03848116602483015291519185169163dd62ed3e91604480820192602092909190829003018186803b1580156128a457600080fd5b505afa1580156128b8573d6000803e3d6000fd5b505050506040513d60208110156128ce57600080fd5b5051155b61290d5760405162461bcd60e51b8152600401808060200182810382526036815260200180612bde6036913960400191505060405180910390fd5b604080516001600160a01b038416602482015260448082018490528251808303909101815260649091019091526020810180516001600160e01b031663095ea7b360e01b1790526119c390849061279b565b604080516001600160a01b0380861660248301528416604482015260648082018490528251808303909101815260849091019091526020810180516001600160e01b03166323b872dd60e01b179052610ffa90859061279b565b60606115778484600085856129cd85612ad4565b612a1e576040805162461bcd60e51b815260206004820152601d60248201527f416464726573733a2063616c6c20746f206e6f6e2d636f6e7472616374000000604482015290519081900360640190fd5b60006060866001600160a01b031685876040518082805190602001908083835b60208310612a5d5780518252601f199092019160209182019101612a3e565b6001836020036101000a03801982511681845116808217855250505050505090500191505060006040518083038185875af1925050503d8060008114612abf576040519150601f19603f3d011682016040523d82523d6000602084013e612ac4565b606091505b5091509150610d8a828286612ada565b3b151590565b60608315612ae957508161157a565b825115612af95782518084602001fd5b8160405162461bcd60e51b81526004018080602001828103825283818151815260200191508051906020019080838360005b83811015612b43578181015183820152602001612b2b565b50505050905090810190601f168015612b705780820380516001836020036101000a031916815260200191505b509250505060405180910390fd5b6040805160c081018252600080825260208201819052918101829052606081018290526080810182905260a08101919091529056fe5361666545524332303a204552433230206f7065726174696f6e20646964206e6f7420737563636565645361666545524332303a20617070726f76652066726f6d206e6f6e2d7a65726f20746f206e6f6e2d7a65726f20616c6c6f77616e6365a164736f6c634300060c000a",
  "linkReferences": {},
  "deployedLinkReferences": {}
}