{
  "_format": "hh-sol-artifact-1",
  "contractName": "LiquidityProtectionStore",
  "sourceName": "contracts/liquidity-protection/LiquidityProtectionStore.sol",
  "abi": [
    {
      "anonymous": false,
      "inputs": [
        {
          "indexed": true,
          "internalType": "address",
          "name": "provider",
          "type": "address"
        },
        {
          "indexed": false,
          "internalType": "uint256",
          "name": "amount",
          "type": "uint256"
        },
        {
          "indexed": false,
          "internalType": "uint256",
          "name": "expirationTime",
          "type": "uint256"
        }
      ],
      "name": "BalanceLocked",
      "type": "event"
    },
    {
      "anonymous": false,
      "inputs": [
        {
          "indexed": true,
          "internalType": "address",
          "name": "provider",
          "type": "address"
        },
        {
          "indexed": false,
          "internalType": "uint256",
          "name": "amount",
          "type": "uint256"
        }
      ],
      "name": "BalanceUnlocked",
      "type": "event"
    },
    {
      "anonymous": false,
      "inputs": [
        {
          "indexed": true,
          "internalType": "address",
          "name": "prevOwner",
          "type": "address"
        },
        {
          "indexed": true,
          "internalType": "address",
          "name": "newOwner",
          "type": "address"
        }
      ],
      "name": "OwnerUpdate",
      "type": "event"
    },
    {
      "anonymous": false,
      "inputs": [
        {
          "indexed": true,
          "internalType": "address",
          "name": "provider",
          "type": "address"
        },
        {
          "indexed": true,
          "internalType": "contract IDSToken",
          "name": "poolToken",
          "type": "address"
        },
        {
          "indexed": true,
          "internalType": "contract IReserveToken",
          "name": "reserveToken",
          "type": "address"
        },
        {
          "indexed": false,
          "internalType": "uint256",
          "name": "poolAmount",
          "type": "uint256"
        },
        {
          "indexed": false,
          "internalType": "uint256",
          "name": "reserveAmount",
          "type": "uint256"
        }
      ],
      "name": "ProtectionAdded",
      "type": "event"
    },
    {
      "anonymous": false,
      "inputs": [
        {
          "indexed": true,
          "internalType": "address",
          "name": "provider",
          "type": "address"
        },
        {
          "indexed": true,
          "internalType": "contract IDSToken",
          "name": "poolToken",
          "type": "address"
        },
        {
          "indexed": true,
          "internalType": "contract IReserveToken",
          "name": "reserveToken",
          "type": "address"
        },
        {
          "indexed": false,
          "internalType": "uint256",
          "name": "poolAmount",
          "type": "uint256"
        },
        {
          "indexed": false,
          "internalType": "uint256",
          "name": "reserveAmount",
          "type": "uint256"
        }
      ],
      "name": "ProtectionRemoved",
      "type": "event"
    },
    {
      "anonymous": false,
      "inputs": [
        {
          "indexed": true,
          "internalType": "address",
          "name": "provider",
          "type": "address"
        },
        {
          "indexed": false,
          "internalType": "uint256",
          "name": "prevPoolAmount",
          "type": "uint256"
        },
        {
          "indexed": false,
          "internalType": "uint256",
          "name": "prevReserveAmount",
          "type": "uint256"
        },
        {
          "indexed": false,
          "internalType": "uint256",
          "name": "newPoolAmount",
          "type": "uint256"
        },
        {
          "indexed": false,
          "internalType": "uint256",
          "name": "newReserveAmount",
          "type": "uint256"
        }
      ],
      "name": "ProtectionUpdated",
      "type": "event"
    },
    {
      "anonymous": false,
      "inputs": [
        {
          "indexed": false,
          "internalType": "contract IReserveToken",
          "name": "token",
          "type": "address"
        },
        {
          "indexed": false,
          "internalType": "uint256",
          "name": "prevAmount",
          "type": "uint256"
        },
        {
          "indexed": false,
          "internalType": "uint256",
          "name": "newAmount",
          "type": "uint256"
        }
      ],
      "name": "SystemBalanceUpdated",
      "type": "event"
    },
    {
      "inputs": [],
      "name": "acceptOwnership",
      "outputs": [],
      "stateMutability": "nonpayable",
      "type": "function"
    },
    {
      "inputs": [
        {
          "internalType": "address",
          "name": "provider",
          "type": "address"
        },
        {
          "internalType": "uint256",
          "name": "amount",
          "type": "uint256"
        },
        {
          "internalType": "uint256",
          "name": "expirationTime",
          "type": "uint256"
        }
      ],
      "name": "addLockedBalance",
      "outputs": [
        {
          "internalType": "uint256",
          "name": "",
          "type": "uint256"
        }
      ],
      "stateMutability": "nonpayable",
      "type": "function"
    },
    {
      "inputs": [
        {
          "internalType": "address",
          "name": "provider",
          "type": "address"
        },
        {
          "internalType": "contract IDSToken",
          "name": "poolToken",
          "type": "address"
        },
        {
          "internalType": "contract IReserveToken",
          "name": "reserveToken",
          "type": "address"
        },
        {
          "internalType": "uint256",
          "name": "poolAmount",
          "type": "uint256"
        },
        {
          "internalType": "uint256",
          "name": "reserveAmount",
          "type": "uint256"
        },
        {
          "internalType": "uint256",
          "name": "reserveRateN",
          "type": "uint256"
        },
        {
          "internalType": "uint256",
          "name": "reserveRateD",
          "type": "uint256"
        },
        {
          "internalType": "uint256",
          "name": "timestamp",
          "type": "uint256"
        }
      ],
      "name": "addProtectedLiquidity",
      "outputs": [
        {
          "internalType": "uint256",
          "name": "",
          "type": "uint256"
        }
      ],
      "stateMutability": "nonpayable",
      "type": "function"
    },
    {
      "inputs": [
        {
          "internalType": "contract IReserveToken",
          "name": "token",
          "type": "address"
        },
        {
          "internalType": "uint256",
          "name": "amount",
          "type": "uint256"
        }
      ],
      "name": "decSystemBalance",
      "outputs": [],
      "stateMutability": "nonpayable",
      "type": "function"
    },
    {
      "inputs": [
        {
          "internalType": "contract IReserveToken",
          "name": "token",
          "type": "address"
        },
        {
          "internalType": "uint256",
          "name": "amount",
          "type": "uint256"
        }
      ],
      "name": "incSystemBalance",
      "outputs": [],
      "stateMutability": "nonpayable",
      "type": "function"
    },
    {
      "inputs": [
        {
          "internalType": "address",
          "name": "provider",
          "type": "address"
        },
        {
          "internalType": "uint256",
          "name": "index",
          "type": "uint256"
        }
      ],
      "name": "lockedBalance",
      "outputs": [
        {
          "internalType": "uint256",
          "name": "",
          "type": "uint256"
        },
        {
          "internalType": "uint256",
          "name": "",
          "type": "uint256"
        }
      ],
      "stateMutability": "view",
      "type": "function"
    },
    {
      "inputs": [
        {
          "internalType": "address",
          "name": "provider",
          "type": "address"
        }
      ],
      "name": "lockedBalanceCount",
      "outputs": [
        {
          "internalType": "uint256",
          "name": "",
          "type": "uint256"
        }
      ],
      "stateMutability": "view",
      "type": "function"
    },
    {
      "inputs": [
        {
          "internalType": "address",
          "name": "provider",
          "type": "address"
        },
        {
          "internalType": "uint256",
          "name": "startIndex",
          "type": "uint256"
        },
        {
          "internalType": "uint256",
          "name": "endIndex",
          "type": "uint256"
        }
      ],
      "name": "lockedBalanceRange",
      "outputs": [
        {
          "internalType": "uint256[]",
          "name": "",
          "type": "uint256[]"
        },
        {
          "internalType": "uint256[]",
          "name": "",
          "type": "uint256[]"
        }
      ],
      "stateMutability": "view",
      "type": "function"
    },
    {
      "inputs": [],
      "name": "newOwner",
      "outputs": [
        {
          "internalType": "address",
          "name": "",
          "type": "address"
        }
      ],
      "stateMutability": "view",
      "type": "function"
    },
    {
      "inputs": [],
      "name": "owner",
      "outputs": [
        {
          "internalType": "address",
          "name": "",
          "type": "address"
        }
      ],
      "stateMutability": "view",
      "type": "function"
    },
    {
      "inputs": [
        {
          "internalType": "uint256",
          "name": "id",
          "type": "uint256"
        }
      ],
      "name": "protectedLiquidity",
      "outputs": [
        {
          "internalType": "address",
          "name": "",
          "type": "address"
        },
        {
          "internalType": "contract IDSToken",
          "name": "",
          "type": "address"
        },
        {
          "internalType": "contract IReserveToken",
          "name": "",
          "type": "address"
        },
        {
          "internalType": "uint256",
          "name": "",
          "type": "uint256"
        },
        {
          "internalType": "uint256",
          "name": "",
          "type": "uint256"
        },
        {
          "internalType": "uint256",
          "name": "",
          "type": "uint256"
        },
        {
          "internalType": "uint256",
          "name": "",
          "type": "uint256"
        },
        {
          "internalType": "uint256",
          "name": "",
          "type": "uint256"
        }
      ],
      "stateMutability": "view",
      "type": "function"
    },
    {
      "inputs": [
        {
          "internalType": "address",
          "name": "provider",
          "type": "address"
        }
      ],
      "name": "protectedLiquidityCount",
      "outputs": [
        {
          "internalType": "uint256",
          "name": "",
          "type": "uint256"
        }
      ],
      "stateMutability": "view",
      "type": "function"
    },
    {
      "inputs": [
        {
          "internalType": "address",
          "name": "provider",
          "type": "address"
        },
        {
          "internalType": "uint256",
          "name": "index",
          "type": "uint256"
        }
      ],
      "name": "protectedLiquidityId",
      "outputs": [
        {
          "internalType": "uint256",
          "name": "",
          "type": "uint256"
        }
      ],
      "stateMutability": "view",
      "type": "function"
    },
    {
      "inputs": [
        {
          "internalType": "address",
          "name": "provider",
          "type": "address"
        }
      ],
      "name": "protectedLiquidityIds",
      "outputs": [
        {
          "internalType": "uint256[]",
          "name": "",
          "type": "uint256[]"
        }
      ],
      "stateMutability": "view",
      "type": "function"
    },
    {
      "inputs": [
        {
          "internalType": "address",
          "name": "provider",
          "type": "address"
        },
        {
          "internalType": "uint256",
          "name": "index",
          "type": "uint256"
        }
      ],
      "name": "removeLockedBalance",
      "outputs": [],
      "stateMutability": "nonpayable",
      "type": "function"
    },
    {
      "inputs": [
        {
          "internalType": "uint256",
          "name": "id",
          "type": "uint256"
        }
      ],
      "name": "removeProtectedLiquidity",
      "outputs": [],
      "stateMutability": "nonpayable",
      "type": "function"
    },
    {
      "inputs": [
        {
          "internalType": "contract IReserveToken",
          "name": "token",
          "type": "address"
        }
      ],
      "name": "systemBalance",
      "outputs": [
        {
          "internalType": "uint256",
          "name": "",
          "type": "uint256"
        }
      ],
      "stateMutability": "view",
      "type": "function"
    },
    {
      "inputs": [
        {
          "internalType": "contract IDSToken",
          "name": "poolToken",
          "type": "address"
        }
      ],
      "name": "totalProtectedPoolAmount",
      "outputs": [
        {
          "internalType": "uint256",
          "name": "",
          "type": "uint256"
        }
      ],
      "stateMutability": "view",
      "type": "function"
    },
    {
      "inputs": [
        {
          "internalType": "contract IDSToken",
          "name": "poolToken",
          "type": "address"
        },
        {
          "internalType": "contract IReserveToken",
          "name": "reserveToken",
          "type": "address"
        }
      ],
      "name": "totalProtectedReserveAmount",
      "outputs": [
        {
          "internalType": "uint256",
          "name": "",
          "type": "uint256"
        }
      ],
      "stateMutability": "view",
      "type": "function"
    },
    {
      "inputs": [
        {
          "internalType": "address",
          "name": "newOwner",
          "type": "address"
        }
      ],
      "name": "transferOwnership",
      "outputs": [],
      "stateMutability": "nonpayable",
      "type": "function"
    },
    {
      "inputs": [
        {
          "internalType": "uint256",
          "name": "id",
          "type": "uint256"
        },
        {
          "internalType": "uint256",
          "name": "newPoolAmount",
          "type": "uint256"
        },
        {
          "internalType": "uint256",
          "name": "newReserveAmount",
          "type": "uint256"
        }
      ],
      "name": "updateProtectedLiquidityAmounts",
      "outputs": [],
      "stateMutability": "nonpayable",
      "type": "function"
    },
    {
      "inputs": [
        {
          "internalType": "contract IReserveToken",
          "name": "token",
          "type": "address"
        },
        {
          "internalType": "address",
          "name": "recipient",
          "type": "address"
        },
        {
          "internalType": "uint256",
          "name": "amount",
          "type": "uint256"
        }
      ],
      "name": "withdrawTokens",
      "outputs": [],
      "stateMutability": "nonpayable",
      "type": "function"
    }
  ],
  "bytecode": "0x608060405234801561001057600080fd5b50600080546001600160a01b03191633179055611d15806100326000396000f3fe608060405234801561001057600080fd5b50600436106101425760003560e01c80638da5cb5b116100b8578063d4ee1d901161007c578063d4ee1d90146104a4578063dbae3a5d146104ac578063f2fde38b146104de578063f4206dea14610504578063fb6c03fa146105cf578063fd589e50146105fb57610142565b80638da5cb5b1461038757806390e0661b146103ab57806396ad435b146103d7578063b089cde814610405578063d3d1e7bd1461042e57610142565b80635290ffbb1161010a5780635290ffbb1461024457806357dac2ec146102b15780635e35359e146102d757806361d5f0871461030d5780636f366b711461036257806379ba50971461037f57610142565b806319c6a5e4146101475780632fb4f04a14610175578063332100fa146101ba57806337fc38df146101e65780635121220c1461021e575b600080fd5b6101736004803603604081101561015d57600080fd5b506001600160a01b038135169060200135610621565b005b6101a16004803603604081101561018b57600080fd5b506001600160a01b0381351690602001356106bc565b6040805192835260208301919091528051918290030190f35b610173600480360360408110156101d057600080fd5b506001600160a01b03813516906020013561070a565b61020c600480360360208110156101fc57600080fd5b50356001600160a01b0316610740565b60408051918252519081900360200190f35b61020c6004803603602081101561023457600080fd5b50356001600160a01b031661075b565b6102616004803603602081101561025a57600080fd5b5035610776565b604080516001600160a01b03998a168152978916602089015295909716868601526060860193909352608085019190915260a084015260c083015260e08201929092529051908190036101000190f35b61020c600480360360208110156102c757600080fd5b50356001600160a01b031661082e565b610173600480360360608110156102ed57600080fd5b506001600160a01b03813581169160208101359091169060400135610849565b61020c600480360361010081101561032457600080fd5b506001600160a01b03813581169160208101358216916040820135169060608101359060808101359060a08101359060c08101359060e00135610875565b6101736004803603602081101561037857600080fd5b5035610c7c565b610173610ed1565b61038f610f88565b604080516001600160a01b039092168252519081900360200190f35b610173600480360360408110156103c157600080fd5b506001600160a01b038135169060200135610f97565b61020c600480360360408110156103ed57600080fd5b506001600160a01b03813581169160200135166110ef565b6101736004803603606081101561041b57600080fd5b508035906020810135906040013561111a565b6104546004803603602081101561044457600080fd5b50356001600160a01b03166112aa565b60408051602080825283518183015283519192839290830191858101910280838360005b83811015610490578181015183820152602001610478565b505050509050019250505060405180910390f35b61038f611316565b61020c600480360360608110156104c257600080fd5b506001600160a01b038135169060208101359060400135611325565b610173600480360360208110156104f457600080fd5b50356001600160a01b03166113fd565b6105366004803603606081101561051a57600080fd5b506001600160a01b03813516906020810135906040013561147b565b604051808060200180602001838103835285818151815260200191508051906020019060200280838360005b8381101561057a578181015183820152602001610562565b50505050905001838103825284818151815260200191508051906020019060200280838360005b838110156105b95781810151838201526020016105a1565b5050505090500194505050505060405180910390f35b61020c600480360360408110156105e557600080fd5b506001600160a01b038135169060200135611626565b61020c6004803603602081101561061157600080fd5b50356001600160a01b031661165d565b610629611678565b81610633816116cd565b6001600160a01b038316600090815260066020526040812054906106578285611721565b6001600160a01b03861660008181526006602090815260409182902084905581519283528201859052818101839052519192507f407aa06211cf8eec4798e12787e05d8e5ba13eab80aac8df1b59ed5db8520197919081900360600190a15050505050565b6001600160a01b0382166000908152600560205260408120805482918291859081106106e457fe5b906000526020600020906002020190508060000154816001015492509250509250929050565b610712611678565b8161071c816116cd565b6001600160a01b03831660009081526006602052604081205490610657828561177e565b6001600160a01b031660009081526005602052604090205490565b6001600160a01b031660009081526006602052604090205490565b60008060008060008060008061078a611c51565b505050600096875250506004602081815260409687902087516101208101895281546001600160a01b03908116808352600184015494830194909452600283015481169982018a9052600383015416606082018190529382015460808201819052600583015460a08301819052600684015460c08401819052600785015460e08501819052600890950154610100909401849052949b959950909750955091935091565b6001600160a01b031660009081526003602052604090205490565b610851611678565b8161085b816117df565b61086f6001600160a01b0385168484611851565b50505050565b600061087f611678565b6001600160a01b038916158015906108a057506001600160a01b0389163014155b80156108b457506001600160a01b03881615155b80156108c957506001600160a01b0388163014155b80156108dd57506001600160a01b03871615155b80156108f257506001600160a01b0387163014155b610939576040805162461bcd60e51b81526020600482015260136024820152724552525f494e56414c49445f4144445245535360681b604482015290519081900360640190fd5b6000861180156109495750600085115b80156109555750600084115b80156109615750600083115b801561096d5750600082115b6109af576040805162461bcd60e51b815260206004820152600e60248201526d4552525f5a45524f5f56414c554560901b604482015290519081900360640190fd5b6000600360008b6001600160a01b03166001600160a01b0316815260200190815260200160002090506000600254905060016002600082825401925050819055506040518061012001604052808c6001600160a01b03168152602001838054905081526020018b6001600160a01b031681526020018a6001600160a01b03168152602001898152602001888152602001878152602001868152602001858152506004600083815260200190815260200160002060008201518160000160006101000a8154816001600160a01b0302191690836001600160a01b031602179055506020820151816001015560408201518160020160006101000a8154816001600160a01b0302191690836001600160a01b0316021790555060608201518160030160006101000a8154816001600160a01b0302191690836001600160a01b031602179055506080820151816004015560a0820151816005015560c0820151816006015560e08201518160070155610100820151816008015590505081819080600181540180825580915050600190039060005260206000200160009091909190915055610b8988600760008d6001600160a01b03166001600160a01b031681526020019081526020016000205461177e90919063ffffffff16565b6001600160a01b03808c1660009081526007602090815260408083209490945560088152838220928d168252919091522054610bc5908861177e565b600860008c6001600160a01b03166001600160a01b0316815260200190815260200160002060008b6001600160a01b03166001600160a01b0316815260200190815260200160002081905550886001600160a01b03168a6001600160a01b03168c6001600160a01b03167f3ad050950cfb9657a985fbfebb84c6e7c799d8c08e4fc412cb84e9bd2e68f8cd8b8b604051808381526020018281526020019250505060405180910390a49a9950505050505050505050565b610c84611678565b600081815260046020526040902080546001600160a01b031680610ce0576040805162461bcd60e51b815260206004820152600e60248201526d11549497d253959053125117d25160921b604482015290519081900360640190fd5b6001828101546002808501546003808701546004808901546005808b015460008d81526020858152604080832080546001600160a01b031990811682559d81018490559a8b0180548e1690558a89018054909d16909c55948901819055918801829055600688018290556007880182905560089097018190556001600160a01b038a8116825294909252969020805495969383169592909116939180610d8257fe5b600019810180881015610dda576000838281548110610d9d57fe5b9060005260206000200154905080848a81548110610db757fe5b600091825260208083209091019290925591825260049052604090206001018890555b82805480610de457fe5b6000828152602080822083016000199081018390559092019092556001600160a01b0389168252600790526040902054610e1e9086611721565b6001600160a01b0380891660009081526007602090815260408083209490945560088152838220928a168252919091522054610e5a9085611721565b6001600160a01b0380891660008181526008602090815260408083208c8616808552908352928190209590955584518a81529081018990528451919492938e16927feafbca2ddc06778be021087babbeda29033997e4e461abdc6d5bf30a0f14a02592918290030190a45050505050505050505050565b6001546001600160a01b03163314610f24576040805162461bcd60e51b815260206004820152601160248201527011549497d050d0d154d4d7d11153925151607a1b604482015290519081900360640190fd5b600154600080546040516001600160a01b0393841693909116917f343765429aea5a34b3ff6a3785a98a5abb2597aca87bfbb58632c173d585373a91a360018054600080546001600160a01b03199081166001600160a01b03841617909155169055565b6000546001600160a01b031690565b610f9f611678565b81610fa9816116cd565b6001600160a01b0383166000908152600560205260409020805480841061100b576040805162461bcd60e51b815260206004820152601160248201527008aa4a4be929cac82989288be929c888ab607b1b604482015290519081900360640190fd5b600082858154811061101957fe5b6000918252602090912060029091020154905060001982018086101561107e5783818154811061104557fe5b906000526020600020906002020184878154811061105f57fe5b6000918252602090912082546002909202019081556001918201549101555b8380548061108857fe5b600082815260208082206002600019909401938402018281556001019190915591556040805184815290516001600160a01b038a16927f43e8fb9d4f009c90c55a3fa108b177b794704d61af7af6f6512db7883f8ed843928290030190a250505050505050565b6001600160a01b03918216600090815260086020908152604080832093909416825291909152205490565b611122611678565b8161112c816118c8565b81611136816118c8565b600085815260046020526040902080546001600160a01b031680611192576040805162461bcd60e51b815260206004820152600e60248201526d11549497d253959053125117d25160921b604482015290519081900360640190fd5b60028201546003830154600484018054600586018054928b90558990556001600160a01b039384166000818152600760205260409020549094909316929091906111e89083906111e2908d61177e565b90611721565b6001600160a01b0380861660009081526007602090815260408083209490945560088152838220928716825291909152205461122a9082906111e2908c61177e565b6001600160a01b03808616600090815260086020908152604080832088851684528252918290209390935580518581529283018490528281018d9052606083018c905251908716917f4b40353ab8113f910f903abef8926205420b70265d2a3db18168b0dff00dff0d919081900360800190a25050505050505050505050565b6001600160a01b03811660009081526003602090815260409182902080548351818402810184019094528084526060939283018282801561130a57602002820191906000526020600020905b8154815260200190600101908083116112f6575b50505050509050919050565b6001546001600160a01b031690565b600061132f611678565b83611339816117df565b83611343816118c8565b8361134d816118c8565b6001600160a01b0387166000818152600560209081526040808320815180830183528b81528084018b8152825460018181018555938752958590209151600290960290910194855551930192909255815189815290810188905281517f931ca4971b116a87c466516714a76b130f47bd6627f93d3c351f672f95070365929181900390910190a26001600160a01b0387166000908152600560205260409020546000190193505050509392505050565b611405611678565b6000546001600160a01b0382811691161415611459576040805162461bcd60e51b815260206004820152600e60248201526d22a9292fa9a0a6a2afa7aba722a960911b604482015290519081900360640190fd5b600180546001600160a01b0319166001600160a01b0392909216919091179055565b6001600160a01b03831660009081526005602052604090205460609081908311156114bc576001600160a01b03851660009081526005602052604090205492505b838311611506576040805162461bcd60e51b81526020600482015260136024820152724552525f494e56414c49445f494e444943455360681b604482015290519081900360640190fd5b83830360608167ffffffffffffffff8111801561152257600080fd5b5060405190808252806020026020018201604052801561154c578160200160208202803683370190505b50905060608267ffffffffffffffff8111801561156857600080fd5b50604051908082528060200260200182016040528015611592578160200160208202803683370190505b50905060005b83811015611618576001600160a01b038916600090815260056020526040812080548a84019081106115c657fe5b9060005260206000209060020201905080600001548483815181106115e757fe5b602002602001018181525050806001015483838151811061160457fe5b602090810291909101015250600101611598565b509097909650945050505050565b6001600160a01b038216600090815260036020526040812080548390811061164a57fe5b9060005260206000200154905092915050565b6001600160a01b031660009081526007602052604090205490565b6000546001600160a01b031633146116cb576040805162461bcd60e51b815260206004820152601160248201527011549497d050d0d154d4d7d11153925151607a1b604482015290519081900360640190fd5b565b6001600160a01b03811661171e576040805162461bcd60e51b81526020600482015260136024820152724552525f494e56414c49445f4144445245535360681b604482015290519081900360640190fd5b50565b600082821115611778576040805162461bcd60e51b815260206004820152601e60248201527f536166654d6174683a207375627472616374696f6e206f766572666c6f770000604482015290519081900360640190fd5b50900390565b6000828201838110156117d8576040805162461bcd60e51b815260206004820152601b60248201527f536166654d6174683a206164646974696f6e206f766572666c6f770000000000604482015290519081900360640190fd5b9392505050565b6001600160a01b0381161580159061180057506001600160a01b0381163014155b61171e576040805162461bcd60e51b815260206004820152601c60248201527f4552525f494e56414c49445f45585445524e414c5f4144445245535300000000604482015290519081900360640190fd5b8061185b576118c3565b6118648361190e565b156118a5576040516001600160a01b0383169082156108fc029083906000818181858888f1935050505015801561189f573d6000803e3d6000fd5b506118c3565b6118c382826118b386611933565b6001600160a01b03169190611936565b505050565b6000811161171e576040805162461bcd60e51b815260206004820152600e60248201526d4552525f5a45524f5f56414c554560901b604482015290519081900360640190fd5b6001600160a01b03811673eeeeeeeeeeeeeeeeeeeeeeeeeeeeeeeeeeeeeeee14919050565b90565b604080516001600160a01b038416602482015260448082018490528251808303909101815260649091019091526020810180516001600160e01b031663a9059cbb60e01b1790526118c390849060606119d8826040518060400160405280602081526020017f5361666545524332303a206c6f772d6c6576656c2063616c6c206661696c6564815250856001600160a01b0316611a349092919063ffffffff16565b8051909150156118c3578080602001905160208110156119f757600080fd5b50516118c35760405162461bcd60e51b815260040180806020018281038252602a815260200180611cdf602a913960400191505060405180910390fd5b6060611a438484600085611a4b565b949350505050565b606082471015611a8c5760405162461bcd60e51b8152600401808060200182810382526026815260200180611cb96026913960400191505060405180910390fd5b611a9585611ba7565b611ae6576040805162461bcd60e51b815260206004820152601d60248201527f416464726573733a2063616c6c20746f206e6f6e2d636f6e7472616374000000604482015290519081900360640190fd5b60006060866001600160a01b031685876040518082805190602001908083835b60208310611b255780518252601f199092019160209182019101611b06565b6001836020036101000a03801982511681845116808217855250505050505090500191505060006040518083038185875af1925050503d8060008114611b87576040519150601f19603f3d011682016040523d82523d6000602084013e611b8c565b606091505b5091509150611b9c828286611bad565b979650505050505050565b3b151590565b60608315611bbc5750816117d8565b825115611bcc5782518084602001fd5b8160405162461bcd60e51b81526004018080602001828103825283818151815260200191508051906020019080838360005b83811015611c16578181015183820152602001611bfe565b50505050905090810190601f168015611c435780820380516001836020036101000a031916815260200191505b509250505060405180910390fd5b60405180610120016040528060006001600160a01b031681526020016000815260200160006001600160a01b0316815260200160006001600160a01b031681526020016000815260200160008152602001600081526020016000815260200160008152509056fe416464726573733a20696e73756666696369656e742062616c616e636520666f722063616c6c5361666545524332303a204552433230206f7065726174696f6e20646964206e6f742073756363656564a164736f6c634300060c000a",
  "linkReferences": {},
  "deployedLinkReferences": {}
}