{
  "_format": "hh-sol-artifact-1",
  "contractName": "TestStakingRewards",
  "sourceName": "contracts/helpers/TestStakingRewards.sol",
  "abi": [
    {
      "inputs": [
        {
          "internalType": "contract TestStakingRewardsStore",
          "name": "store",
          "type": "address"
        },
        {
          "internalType": "contract ITokenGovernance",
          "name": "networkTokenGovernance",
          "type": "address"
        },
        {
          "internalType": "contract ICheckpointStore",
          "name": "lastRemoveTimes",
          "type": "address"
        },
        {
          "internalType": "contract IContractRegistry",
          "name": "registry",
          "type": "address"
        }
      ],
      "stateMutability": "nonpayable",
      "type": "constructor"
    },
    {
      "anonymous": false,
      "inputs": [
        {
          "indexed": true,
          "internalType": "address",
          "name": "prevOwner",
          "type": "address"
        },
        {
          "indexed": true,
          "internalType": "address",
          "name": "newOwner",
          "type": "address"
        }
      ],
      "name": "OwnerUpdate",
      "type": "event"
    },
    {
      "anonymous": false,
      "inputs": [
        {
          "indexed": true,
          "internalType": "address",
          "name": "provider",
          "type": "address"
        },
        {
          "indexed": false,
          "internalType": "uint256",
          "name": "amount",
          "type": "uint256"
        }
      ],
      "name": "RewardsClaimed",
      "type": "event"
    },
    {
      "anonymous": false,
      "inputs": [
        {
          "indexed": true,
          "internalType": "address",
          "name": "provider",
          "type": "address"
        },
        {
          "indexed": true,
          "internalType": "contract IDSToken",
          "name": "poolToken",
          "type": "address"
        },
        {
          "indexed": false,
          "internalType": "uint256",
          "name": "amount",
          "type": "uint256"
        },
        {
          "indexed": true,
          "internalType": "uint256",
          "name": "newId",
          "type": "uint256"
        }
      ],
      "name": "RewardsStaked",
      "type": "event"
    },
    {
      "anonymous": false,
      "inputs": [
        {
          "indexed": true,
          "internalType": "bytes32",
          "name": "role",
          "type": "bytes32"
        },
        {
          "indexed": true,
          "internalType": "bytes32",
          "name": "previousAdminRole",
          "type": "bytes32"
        },
        {
          "indexed": true,
          "internalType": "bytes32",
          "name": "newAdminRole",
          "type": "bytes32"
        }
      ],
      "name": "RoleAdminChanged",
      "type": "event"
    },
    {
      "anonymous": false,
      "inputs": [
        {
          "indexed": true,
          "internalType": "bytes32",
          "name": "role",
          "type": "bytes32"
        },
        {
          "indexed": true,
          "internalType": "address",
          "name": "account",
          "type": "address"
        },
        {
          "indexed": true,
          "internalType": "address",
          "name": "sender",
          "type": "address"
        }
      ],
      "name": "RoleGranted",
      "type": "event"
    },
    {
      "anonymous": false,
      "inputs": [
        {
          "indexed": true,
          "internalType": "bytes32",
          "name": "role",
          "type": "bytes32"
        },
        {
          "indexed": true,
          "internalType": "address",
          "name": "account",
          "type": "address"
        },
        {
          "indexed": true,
          "internalType": "address",
          "name": "sender",
          "type": "address"
        }
      ],
      "name": "RoleRevoked",
      "type": "event"
    },
    {
      "inputs": [],
      "name": "DEFAULT_ADMIN_ROLE",
      "outputs": [
        {
          "internalType": "bytes32",
          "name": "",
          "type": "bytes32"
        }
      ],
      "stateMutability": "view",
      "type": "function"
    },
    {
      "inputs": [],
      "name": "ROLE_PUBLISHER",
      "outputs": [
        {
          "internalType": "bytes32",
          "name": "",
          "type": "bytes32"
        }
      ],
      "stateMutability": "view",
      "type": "function"
    },
    {
      "inputs": [],
      "name": "ROLE_SUPERVISOR",
      "outputs": [
        {
          "internalType": "bytes32",
          "name": "",
          "type": "bytes32"
        }
      ],
      "stateMutability": "view",
      "type": "function"
    },
    {
      "inputs": [],
      "name": "ROLE_UPDATER",
      "outputs": [
        {
          "internalType": "bytes32",
          "name": "",
          "type": "bytes32"
        }
      ],
      "stateMutability": "view",
      "type": "function"
    },
    {
      "inputs": [],
      "name": "acceptOwnership",
      "outputs": [],
      "stateMutability": "nonpayable",
      "type": "function"
    },
    {
      "inputs": [],
      "name": "claimRewards",
      "outputs": [
        {
          "internalType": "uint256",
          "name": "",
          "type": "uint256"
        }
      ],
      "stateMutability": "nonpayable",
      "type": "function"
    },
    {
      "inputs": [],
      "name": "currentTime",
      "outputs": [
        {
          "internalType": "uint256",
          "name": "",
          "type": "uint256"
        }
      ],
      "stateMutability": "view",
      "type": "function"
    },
    {
      "inputs": [
        {
          "internalType": "bytes32",
          "name": "role",
          "type": "bytes32"
        }
      ],
      "name": "getRoleAdmin",
      "outputs": [
        {
          "internalType": "bytes32",
          "name": "",
          "type": "bytes32"
        }
      ],
      "stateMutability": "view",
      "type": "function"
    },
    {
      "inputs": [
        {
          "internalType": "bytes32",
          "name": "role",
          "type": "bytes32"
        },
        {
          "internalType": "uint256",
          "name": "index",
          "type": "uint256"
        }
      ],
      "name": "getRoleMember",
      "outputs": [
        {
          "internalType": "address",
          "name": "",
          "type": "address"
        }
      ],
      "stateMutability": "view",
      "type": "function"
    },
    {
      "inputs": [
        {
          "internalType": "bytes32",
          "name": "role",
          "type": "bytes32"
        }
      ],
      "name": "getRoleMemberCount",
      "outputs": [
        {
          "internalType": "uint256",
          "name": "",
          "type": "uint256"
        }
      ],
      "stateMutability": "view",
      "type": "function"
    },
    {
      "inputs": [
        {
          "internalType": "bytes32",
          "name": "role",
          "type": "bytes32"
        },
        {
          "internalType": "address",
          "name": "account",
          "type": "address"
        }
      ],
      "name": "grantRole",
      "outputs": [],
      "stateMutability": "nonpayable",
      "type": "function"
    },
    {
      "inputs": [
        {
          "internalType": "bytes32",
          "name": "role",
          "type": "bytes32"
        },
        {
          "internalType": "address",
          "name": "account",
          "type": "address"
        }
      ],
      "name": "hasRole",
      "outputs": [
        {
          "internalType": "bool",
          "name": "",
          "type": "bool"
        }
      ],
      "stateMutability": "view",
      "type": "function"
    },
    {
      "inputs": [],
      "name": "newOwner",
      "outputs": [
        {
          "internalType": "address",
          "name": "",
          "type": "address"
        }
      ],
      "stateMutability": "view",
      "type": "function"
    },
    {
      "inputs": [
        {
          "internalType": "address",
          "name": "provider",
          "type": "address"
        },
        {
          "internalType": "contract IConverterAnchor",
          "name": "poolAnchor",
          "type": "address"
        },
        {
          "internalType": "contract IReserveToken",
          "name": "reserveToken",
          "type": "address"
        },
        {
          "internalType": "uint256",
          "name": "",
          "type": "uint256"
        },
        {
          "internalType": "uint256",
          "name": "",
          "type": "uint256"
        }
      ],
      "name": "onAddingLiquidity",
      "outputs": [],
      "stateMutability": "nonpayable",
      "type": "function"
    },
    {
      "inputs": [
        {
          "internalType": "uint256",
          "name": "",
          "type": "uint256"
        },
        {
          "internalType": "address",
          "name": "provider",
          "type": "address"
        },
        {
          "internalType": "contract IConverterAnchor",
          "name": "",
          "type": "address"
        },
        {
          "internalType": "contract IReserveToken",
          "name": "",
          "type": "address"
        },
        {
          "internalType": "uint256",
          "name": "",
          "type": "uint256"
        },
        {
          "internalType": "uint256",
          "name": "",
          "type": "uint256"
        }
      ],
      "name": "onRemovingLiquidity",
      "outputs": [],
      "stateMutability": "nonpayable",
      "type": "function"
    },
    {
      "inputs": [],
      "name": "onlyOwnerCanUpdateRegistry",
      "outputs": [
        {
          "internalType": "bool",
          "name": "",
          "type": "bool"
        }
      ],
      "stateMutability": "view",
      "type": "function"
    },
    {
      "inputs": [],
      "name": "owner",
      "outputs": [
        {
          "internalType": "address",
          "name": "",
          "type": "address"
        }
      ],
      "stateMutability": "view",
      "type": "function"
    },
    {
      "inputs": [
        {
          "internalType": "address",
          "name": "provider",
          "type": "address"
        },
        {
          "internalType": "contract IDSToken",
          "name": "poolToken",
          "type": "address"
        }
      ],
      "name": "pendingPoolRewards",
      "outputs": [
        {
          "internalType": "uint256",
          "name": "",
          "type": "uint256"
        }
      ],
      "stateMutability": "view",
      "type": "function"
    },
    {
      "inputs": [
        {
          "internalType": "address",
          "name": "provider",
          "type": "address"
        },
        {
          "internalType": "contract IDSToken",
          "name": "poolToken",
          "type": "address"
        },
        {
          "internalType": "contract IReserveToken",
          "name": "reserveToken",
          "type": "address"
        }
      ],
      "name": "pendingReserveRewards",
      "outputs": [
        {
          "internalType": "uint256",
          "name": "",
          "type": "uint256"
        }
      ],
      "stateMutability": "view",
      "type": "function"
    },
    {
      "inputs": [
        {
          "internalType": "address",
          "name": "provider",
          "type": "address"
        }
      ],
      "name": "pendingRewards",
      "outputs": [
        {
          "internalType": "uint256",
          "name": "",
          "type": "uint256"
        }
      ],
      "stateMutability": "view",
      "type": "function"
    },
    {
      "inputs": [],
      "name": "prevRegistry",
      "outputs": [
        {
          "internalType": "contract IContractRegistry",
          "name": "",
          "type": "address"
        }
      ],
      "stateMutability": "view",
      "type": "function"
    },
    {
      "inputs": [],
      "name": "registry",
      "outputs": [
        {
          "internalType": "contract IContractRegistry",
          "name": "",
          "type": "address"
        }
      ],
      "stateMutability": "view",
      "type": "function"
    },
    {
      "inputs": [
        {
          "internalType": "bytes32",
          "name": "role",
          "type": "bytes32"
        },
        {
          "internalType": "address",
          "name": "account",
          "type": "address"
        }
      ],
      "name": "renounceRole",
      "outputs": [],
      "stateMutability": "nonpayable",
      "type": "function"
    },
    {
      "inputs": [],
      "name": "restoreRegistry",
      "outputs": [],
      "stateMutability": "nonpayable",
      "type": "function"
    },
    {
      "inputs": [
        {
          "internalType": "bool",
          "name": "restrictOwnerOnly",
          "type": "bool"
        }
      ],
      "name": "restrictRegistryUpdate",
      "outputs": [],
      "stateMutability": "nonpayable",
      "type": "function"
    },
    {
      "inputs": [
        {
          "internalType": "bytes32",
          "name": "role",
          "type": "bytes32"
        },
        {
          "internalType": "address",
          "name": "account",
          "type": "address"
        }
      ],
      "name": "revokeRole",
      "outputs": [],
      "stateMutability": "nonpayable",
      "type": "function"
    },
    {
      "inputs": [
        {
          "internalType": "address",
          "name": "provider",
          "type": "address"
        },
        {
          "internalType": "contract IDSToken",
          "name": "poolToken",
          "type": "address"
        },
        {
          "internalType": "contract IReserveToken",
          "name": "reserveToken",
          "type": "address"
        }
      ],
      "name": "rewardsMultiplier",
      "outputs": [
        {
          "internalType": "uint32",
          "name": "",
          "type": "uint32"
        }
      ],
      "stateMutability": "view",
      "type": "function"
    },
    {
      "inputs": [
        {
          "internalType": "uint256",
          "name": "currentTime",
          "type": "uint256"
        }
      ],
      "name": "setStoreTime",
      "outputs": [],
      "stateMutability": "nonpayable",
      "type": "function"
    },
    {
      "inputs": [
        {
          "internalType": "uint256",
          "name": "newCurrentTime",
          "type": "uint256"
        }
      ],
      "name": "setTime",
      "outputs": [],
      "stateMutability": "nonpayable",
      "type": "function"
    },
    {
      "inputs": [
        {
          "internalType": "contract IDSToken",
          "name": "poolToken",
          "type": "address"
        },
        {
          "internalType": "contract IReserveToken",
          "name": "reserveToken",
          "type": "address"
        },
        {
          "internalType": "uint256",
          "name": "maxAmount",
          "type": "uint256"
        },
        {
          "internalType": "contract IDSToken",
          "name": "newPoolToken",
          "type": "address"
        }
      ],
      "name": "stakeReserveRewards",
      "outputs": [
        {
          "internalType": "uint256",
          "name": "",
          "type": "uint256"
        },
        {
          "internalType": "uint256",
          "name": "",
          "type": "uint256"
        }
      ],
      "stateMutability": "nonpayable",
      "type": "function"
    },
    {
      "inputs": [
        {
          "internalType": "uint256",
          "name": "maxAmount",
          "type": "uint256"
        },
        {
          "internalType": "contract IDSToken",
          "name": "newPoolToken",
          "type": "address"
        }
      ],
      "name": "stakeRewards",
      "outputs": [
        {
          "internalType": "uint256",
          "name": "",
          "type": "uint256"
        },
        {
          "internalType": "uint256",
          "name": "",
          "type": "uint256"
        }
      ],
      "stateMutability": "nonpayable",
      "type": "function"
    },
    {
      "inputs": [],
      "name": "store",
      "outputs": [
        {
          "internalType": "contract IStakingRewardsStore",
          "name": "",
          "type": "address"
        }
      ],
      "stateMutability": "view",
      "type": "function"
    },
    {
      "inputs": [
        {
          "internalType": "address[]",
          "name": "providers",
          "type": "address[]"
        },
        {
          "internalType": "contract IDSToken",
          "name": "poolToken",
          "type": "address"
        }
      ],
      "name": "storePoolRewards",
      "outputs": [],
      "stateMutability": "nonpayable",
      "type": "function"
    },
    {
      "inputs": [
        {
          "internalType": "address",
          "name": "provider",
          "type": "address"
        }
      ],
      "name": "totalClaimedRewards",
      "outputs": [
        {
          "internalType": "uint256",
          "name": "",
          "type": "uint256"
        }
      ],
      "stateMutability": "view",
      "type": "function"
    },
    {
      "inputs": [
        {
          "internalType": "address",
          "name": "newOwner",
          "type": "address"
        }
      ],
      "name": "transferOwnership",
      "outputs": [],
      "stateMutability": "nonpayable",
      "type": "function"
    },
    {
      "inputs": [],
      "name": "updateRegistry",
      "outputs": [],
      "stateMutability": "nonpayable",
      "type": "function"
    }
  ],
  "bytecode": "0x61010060405260016005553480156200001757600080fd5b506040516200417938038062004179833981810160405260808110156200003d57600080fd5b50805160208201516040830151606090930151600180546001600160a01b0319163317905591929091838383838080620000778162000230565b50600380546001600160a01b039092166001600160a01b031992831681179091556004805490921617905583620000ae8162000230565b83620000ba8162000230565b83620000c68162000230565b6001600160601b0319606088811b821660805287901b1660a05260408051637e062a3560e11b815290516001600160a01b0388169163fc0c546a916004808301926020929190829003018186803b1580156200012157600080fd5b505afa15801562000136573d6000803e3d6000fd5b505050506040513d60208110156200014d57600080fd5b50516001600160601b0319606091821b811660c0529086901b1660e0526200018560008051602062004159833981519152806200028f565b620001c07f318ca041382154243e5407309a15dc38a2622542637083fb3fe687f1e73186a2600080516020620041598339815191526200028f565b620001fb7f79045d768ae06769f774e3fcd5ccbe9767617628e47daa12800398064e3a16fd600080516020620041598339815191526200028f565b6200021f6000805160206200415983398151915262000219620002e1565b620002e5565b5050505050505050505050620003f5565b6001600160a01b0381166200028c576040805162461bcd60e51b815260206004820152601360248201527f4552525f494e56414c49445f4144445245535300000000000000000000000000604482015290519081900360640190fd5b50565b600082815260208190526040808220600201549051839285917fbd79b86ffe0ab8e8776151514217cd7cacd52c909f66475c3af44e129f0b00ff9190a460009182526020829052604090912060020155565b3390565b620002f18282620002f5565b5050565b6000828152602081815260409091206200031a918390620012c96200036e821b17901c565b15620002f1576200032a620002e1565b6001600160a01b0316816001600160a01b0316837f2f8788117e7eff1d82e926ec794901d17c78024a50270940304540a733656f0d60405160405180910390a45050565b600062000385836001600160a01b0384166200038e565b90505b92915050565b60006200039c8383620003dd565b620003d45750815460018181018455600084815260208082209093018490558454848252828601909352604090209190915562000388565b50600062000388565b60009081526001919091016020526040902054151590565b60805160601c60a05160601c60c05160601c60e05160601c613ce6620004736000398061207d52508061251252806125e55250806125605280612b29525080610d9e52806114e85280611a995280611d0a5280612136528061230352806123d1528061273852806129205280612aa25280612df45250613ce66000f3fe608060405234801561001057600080fd5b506004361061021c5760003560e01c80637b10399911610125578063b4a176d3116100ad578063ca15c8731161007c578063ca15c8731461066f578063d18e81b31461068c578063d4ee1d9014610694578063d547741f1461069c578063f2fde38b146106c85761021c565b8063b4a176d314610596578063b8128fe61461059e578063bae505a1146105e6578063c99177db1461061e5761021c565b8063975057e7116100f4578063975057e71461052c5780639b172b3514610534578063a110b93f14610560578063a217fddf14610586578063ab80e2b31461058e5761021c565b80637b103999146104cd5780638da5cb5b146104d55780639010d07c146104dd57806391d14854146105005761021c565b806334865f98116101a857806349d10b641161017757806349d10b641461041a57806350ad9fd11461042257806361cd756e1461042a57806379ba50971461044e5780637a59653c146104565761021c565b806334865f981461039b57806336568abe146103c9578063372500ab146103f55780633beb26c4146103fd5761021c565b80631e4afee0116101ef5780631e4afee0146102f3578063248a9ca3146103105780632f2ff15d1461032d5780632fe8a6ad1461035957806331d7a262146103755761021c565b8063024c7ec7146102215780630a5705b5146102425780630d80af9b14610297578063139c22ea146102b1575b600080fd5b6102406004803603602081101561023757600080fd5b503515156106ee565b005b61027e6004803603608081101561025857600080fd5b506001600160a01b03813581169160208101358216916040820135916060013516610714565b6040805192835260208301919091528051918290030190f35b61029f610739565b60408051918252519081900360200190f35b610240600480360360a08110156102c757600080fd5b506001600160a01b0381358116916020810135821691604082013516906060810135906080013561075d565b6102406004803603602081101561030957600080fd5b50356107b2565b61029f6004803603602081101561032657600080fd5b503561087c565b6102406004803603604081101561034357600080fd5b50803590602001356001600160a01b0316610891565b6103616108fd565b604080519115158252519081900360200190f35b61029f6004803603602081101561038b57600080fd5b50356001600160a01b031661090d565b61029f600480360360408110156103b157600080fd5b506001600160a01b0381358116916020013516610926565b610240600480360360408110156103df57600080fd5b50803590602001356001600160a01b0316610941565b61029f6109a2565b6102406004803603602081101561041357600080fd5b50356109ba565b6102406109bf565b61029f610bd5565b610432610bf9565b604080516001600160a01b039092168252519081900360200190f35b610240610c08565b6102406004803603604081101561046c57600080fd5b810190602081018135600160201b81111561048657600080fd5b82018360208201111561049857600080fd5b803590602001918460208302840111600160201b831117156104b957600080fd5b9193509150356001600160a01b0316610cc1565b610432610d4e565b610432610d5d565b610432600480360360408110156104f357600080fd5b5080359060200135610d6c565b6103616004803603604081101561051657600080fd5b50803590602001356001600160a01b0316610d84565b610432610d9c565b61027e6004803603604081101561054a57600080fd5b50803590602001356001600160a01b0316610dc0565b61029f6004803603602081101561057657600080fd5b50356001600160a01b0316610de1565b61029f610fb6565b61029f610fbb565b610240610fdf565b610240600480360360c08110156105b457600080fd5b508035906001600160a01b03602082013581169160408101358216916060820135169060808101359060a0013561100b565b61029f600480360360608110156105fc57600080fd5b506001600160a01b038135811691602081013582169160409091013516611151565b6106566004803603606081101561063457600080fd5b506001600160a01b038135811691602081013582169160409091013516611183565b6040805163ffffffff9092168252519081900360200190f35b61029f6004803603602081101561068557600080fd5b50356111c6565b61029f6111dd565b6104326111e3565b610240600480360360408110156106b257600080fd5b50803590602001356001600160a01b03166111f2565b610240600480360360208110156106de57600080fd5b50356001600160a01b031661124b565b6106f66112de565b60048054911515600160a01b0260ff60a01b19909216919091179055565b60008061072c3387878787610727611333565b6113a6565b9150915094509492505050565b7f0c7ade2c7c08453ea605b4a8f3fb0e03e3ffcffbfa41ca8ee543d0fd74cada3881565b6107656113f2565b8461076f81611461565b84610778613af3565b610781826114d6565b80519091506107915750506107aa565b6107a5888388846107a0611333565b6115c4565b505050505b505050505050565b306001600160a01b031663975057e76040518163ffffffff1660e01b815260040160206040518083038186803b1580156107eb57600080fd5b505afa1580156107ff573d6000803e3d6000fd5b505050506040513d602081101561081557600080fd5b505160408051630efac9b160e21b81526004810184905290516001600160a01b0390921691633beb26c49160248082019260009290919082900301818387803b15801561086157600080fd5b505af1158015610875573d6000803e3d6000fd5b5050505050565b60009081526020819052604090206002015490565b6000828152602081905260409020600201546108b4906108af611612565b610d84565b6108ef5760405162461bcd60e51b815260040180806020018281038252602f815260200180613bcb602f913960400191505060405180910390fd5b6108f98282611616565b5050565b600454600160a01b900460ff1690565b60006109208261091b611333565b61167f565b92915050565b600061093a8383610935611333565b61179f565b9392505050565b610949611612565b6001600160a01b0316816001600160a01b0316146109985760405162461bcd60e51b815260040180806020018281038252602f815260200180613cab602f913960400191505060405180910390fd5b6108f98282611806565b60006109b5336109b0611333565b61186f565b905090565b600555565b6109c7610d5d565b6001600160a01b0316336001600160a01b031614806109f05750600454600160a01b900460ff16155b610a35576040805162461bcd60e51b815260206004820152601160248201527011549497d050d0d154d4d7d11153925151607a1b604482015290519081900360640190fd5b6000610a536f436f6e7472616374526567697374727960801b611992565b6003549091506001600160a01b03808316911614801590610a7c57506001600160a01b03811615155b610ac4576040805162461bcd60e51b81526020600482015260146024820152734552525f494e56414c49445f524547495354525960601b604482015290519081900360640190fd5b60006001600160a01b0316816001600160a01b031663bb34534c6f436f6e7472616374526567697374727960801b6040518263ffffffff1660e01b81526004018082815260200191505060206040518083038186803b158015610b2657600080fd5b505afa158015610b3a573d6000803e3d6000fd5b505050506040513d6020811015610b5057600080fd5b50516001600160a01b03161415610ba5576040805162461bcd60e51b81526020600482015260146024820152734552525f494e56414c49445f524547495354525960601b604482015290519081900360640190fd5b60038054600480546001600160a01b038084166001600160a01b0319928316179092559091169216919091179055565b7f79045d768ae06769f774e3fcd5ccbe9767617628e47daa12800398064e3a16fd81565b6004546001600160a01b031690565b6002546001600160a01b03163314610c5b576040805162461bcd60e51b815260206004820152601160248201527011549497d050d0d154d4d7d11153925151607a1b604482015290519081900360640190fd5b6002546001546040516001600160a01b0392831692909116907f343765429aea5a34b3ff6a3785a98a5abb2597aca87bfbb58632c173d585373a90600090a360028054600180546001600160a01b03199081166001600160a01b03841617909155169055565b610cc9611a10565b6000610cd3611333565b9050610cdd613af3565b610ce6836114d6565b905060005b848110156107aa5760005b6002811015610d4557610d3d878784818110610d0e57fe5b905060200201356001600160a01b03168685606001518460028110610d2f57fe5b602002015186886000611a3a565b600101610cf6565b50600101610ceb565b6003546001600160a01b031690565b6001546001600160a01b031690565b600082815260208190526040812061093a9083611bb4565b600082815260208190526040812061093a9083611bc0565b7f000000000000000000000000000000000000000000000000000000000000000090565b600080610dd6338585610dd1611333565b611bd5565b915091509250929050565b60008080610ded611333565b90506060816001600160a01b0316635408b440866040518263ffffffff1660e01b815260040180826001600160a01b0316815260200191505060006040518083038186803b158015610e3e57600080fd5b505afa158015610e52573d6000803e3d6000fd5b505050506040513d6000823e601f3d908101601f191682016040526020811015610e7b57600080fd5b8101908080516040519392919084600160201b821115610e9a57600080fd5b908301906020820185811115610eaf57600080fd5b82518660208202830111600160201b82111715610ecb57600080fd5b82525081516020918201928201910280838360005b83811015610ef8578181015183820152602001610ee0565b50505050905001604052505050905060005b8151811015610fac576000828281518110610f2157fe5b60200260200101519050610f33613af3565b610f3c826114d6565b905060005b6002811015610f9e57600082606001518260028110610f5c57fe5b60200201519050610f6b613b2d565b610f768b8684611cf8565b9050610f8f81604001518a611e1190919063ffffffff16565b98505050806001019050610f41565b505050806001019050610f0a565b5091949350505050565b600081565b7f318ca041382154243e5407309a15dc38a2622542637083fb3fe687f1e73186a281565b610fe76112de565b600454600380546001600160a01b0319166001600160a01b03909216919091179055565b6110136113f2565b8461101d81611461565b6000611027611333565b905061114787826001600160a01b0316635408b4408a6040518263ffffffff1660e01b815260040180826001600160a01b0316815260200191505060006040518083038186803b15801561107a57600080fd5b505afa15801561108e573d6000803e3d6000fd5b505050506040513d6000823e601f3d908101601f1916820160405260208110156110b757600080fd5b8101908080516040519392919084600160201b8211156110d657600080fd5b9083019060208201858111156110eb57600080fd5b82518660208202830111600160201b8211171561110757600080fd5b82525081516020918201928201910280838360005b8381101561113457818101518382015260200161111c565b5050505090500160405250505083611e6b565b5050505050505050565b600061115b613af3565b611164846114d6565b905061117a85858584611175611333565b611eed565b95945050505050565b600061118d613b2d565b611198858585611cf8565b90506111a2613af3565b6111ab856114d6565b90506111bc8683606001518361204b565b9695505050505050565b600081815260208190526040812061092090612205565b60055490565b6002546001600160a01b031690565b600082815260208190526040902060020154611210906108af611612565b6109985760405162461bcd60e51b8152600401808060200182810382526030815260200180613bfa6030913960400191505060405180910390fd5b6112536112de565b6001546001600160a01b03828116911614156112a7576040805162461bcd60e51b815260206004820152600e60248201526d22a9292fa9a0a6a2afa7aba722a960911b604482015290519081900360640190fd5b600280546001600160a01b0319166001600160a01b0392909216919091179055565b600061093a836001600160a01b038416612210565b6001546001600160a01b03163314611331576040805162461bcd60e51b815260206004820152601160248201527011549497d050d0d154d4d7d11153925151607a1b604482015290519081900360640190fd5b565b600061133d61225a565b6001600160a01b031663d80528ae6040518163ffffffff1660e01b815260040160206040518083038186803b15801561137557600080fd5b505afa158015611389573d6000803e3d6000fd5b505050506040513d602081101561139f57600080fd5b5051905090565b60008060006113c38989896113ba8c6114d6565b8a89600061227b565b9050806113d5579150600090506113e7565b806113e1828b886124f7565b92509250505b965096945050505050565b61141c7f318ca041382154243e5407309a15dc38a2622542637083fb3fe687f1e73186a233610d84565b611331576040805162461bcd60e51b815260206004820152601160248201527011549497d050d0d154d4d7d11153925151607a1b604482015290519081900360640190fd5b6001600160a01b0381161580159061148257506001600160a01b0381163014155b6114d3576040805162461bcd60e51b815260206004820152601c60248201527f4552525f494e56414c49445f45585445524e414c5f4144445245535300000000604482015290519081900360640190fd5b50565b6114de613af3565b6114e6613af3565b7f00000000000000000000000000000000000000000000000000000000000000006001600160a01b0316634768399e846040518263ffffffff1660e01b815260040180826001600160a01b0316815260200191505060e06040518083038186803b15801561155357600080fd5b505afa158015611567573d6000803e3d6000fd5b505050506040513d601f19601f8201168201806040525060e081101561158c57600080fd5b50805160208083015160408085015160a086016080880152606095860195870195909552850193909352830191909152815292915050565b6115cc613b69565b6115d4613b2d565b6115dc613b69565b6115e8878787876126c1565b90506115f2613b2d565b611600898989858a8a612802565b919350909150505b9550959350505050565b3390565b600082815260208190526040902061162e90826112c9565b156108f95761163b611612565b6001600160a01b0316816001600160a01b0316837f2f8788117e7eff1d82e926ec794901d17c78024a50270940304540a733656f0d60405160405180910390a45050565b600061093a83836001600160a01b0316635408b440866040518263ffffffff1660e01b815260040180826001600160a01b0316815260200191505060006040518083038186803b1580156116d257600080fd5b505afa1580156116e6573d6000803e3d6000fd5b505050506040513d6000823e601f3d908101601f19168201604052602081101561170f57600080fd5b8101908080516040519392919084600160201b82111561172e57600080fd5b90830190602082018581111561174357600080fd5b82518660208202830111600160201b8211171561175f57600080fd5b82525081516020918201928201910280838360005b8381101561178c578181015183820152602001611774565b5050505090500160405250505084612a24565b6000806117aa613af3565b6117b3856114d6565b905060005b60028110156117fb5760006117e48888856060015185600281106117d857fe5b6020020151868a611eed565b90506117f08482611e11565b9350506001016117b8565b509095945050505050565b600082815260208190526040902061181e9082612a6c565b156108f95761182b611612565b6001600160a01b0316816001600160a01b0316837ff6391f5c32d9c69d2a47ea670b442974b53935d1edc7fd64eb21e047a839171b60405160405180910390a45050565b600061093a83836001600160a01b0316635408b440866040518263ffffffff1660e01b815260040180826001600160a01b0316815260200191505060006040518083038186803b1580156118c257600080fd5b505afa1580156118d6573d6000803e3d6000fd5b505050506040513d6000823e601f3d908101601f1916820160405260208110156118ff57600080fd5b8101908080516040519392919084600160201b82111561191e57600080fd5b90830190602082018581111561193357600080fd5b82518660208202830111600160201b8211171561194f57600080fd5b82525081516020918201928201910280838360005b8381101561197c578181015183820152602001611964565b5050505090500160405250505060001985612a81565b60035460408051632ecd14d360e21b81526004810184905290516000926001600160a01b03169163bb34534c916024808301926020929190829003018186803b1580156119de57600080fd5b505afa1580156119f2573d6000803e3d6000fd5b505050506040513d6020811015611a0857600080fd5b505192915050565b61141c7f79045d768ae06769f774e3fcd5ccbe9767617628e47daa12800398064e3a16fd33610d84565b611a448484612bfe565b611a4d576107aa565b611a55613b69565b611a5d613b2d565b611a6a88888888886115c4565b91509150600080611a808a8a8a87878c8c612c47565b91509150611a8e8282612cdf565b8360800181815250507f00000000000000000000000000000000000000000000000000000000000000006001600160a01b031663f615d5be8b8b8b8760000151600089604001518c611ae4578a60600151611aec565b611aec612d1c565b8b608001518e611aff57620f4240611b01565b8a5b6040518a63ffffffff1660e01b8152600401808a6001600160a01b03168152602001896001600160a01b03168152602001886001600160a01b031681526020018781526020018681526020018581526020018481526020018381526020018263ffffffff1681526020019950505050505050505050600060405180830381600087803b158015611b9057600080fd5b505af1158015611ba4573d6000803e3d6000fd5b5050505050505050505050505050565b600061093a8383612d26565b600061093a836001600160a01b038416612d8a565b60008061072c86846001600160a01b0316635408b440896040518263ffffffff1660e01b815260040180826001600160a01b0316815260200191505060006040518083038186803b158015611c2957600080fd5b505afa158015611c3d573d6000803e3d6000fd5b505050506040513d6000823e601f3d908101601f191682016040526020811015611c6657600080fd5b8101908080516040519392919084600160201b821115611c8557600080fd5b908301906020820185811115611c9a57600080fd5b82518660208202830111600160201b82111715611cb657600080fd5b82525081516020918201928201910280838360005b83811015611ce3578181015183820152602001611ccb565b50505050905001604052505050878787612da2565b611d00613b2d565b611d08613b2d565b7f00000000000000000000000000000000000000000000000000000000000000006001600160a01b03166371b942c28686866040518463ffffffff1660e01b815260040180846001600160a01b03168152602001836001600160a01b03168152602001826001600160a01b03168152602001935050505060c06040518083038186803b158015611d9757600080fd5b505afa158015611dab573d6000803e3d6000fd5b505050506040513d60c0811015611dc157600080fd5b50805160208083015160408085015160608087015160808089015160a0998a015163ffffffff16998b01999099528901979097528701959095528501939093528301919091528152949350505050565b60008282018381101561093a576040805162461bcd60e51b815260206004820152601b60248201527f536166654d6174683a206164646974696f6e206f766572666c6f770000000000604482015290519081900360640190fd5b60005b8251811015611ee7576000838281518110611e8557fe5b60200260200101519050611e97613af3565b611ea0826114d6565b905060005b6002811015611ed957611ed1878484606001518460028110611ec357fe5b602002015185896001611a3a565b600101611ea5565b505050806001019050611e6e565b50505050565b6000611ef98484612bfe565b611f055750600061117a565b611f0d613b69565b611f178686612de2565b9050611f268686838787612ebf565b6020820152611f40611f36612d1c565b856020015161302c565b8152611f4a613b2d565b611f55888888611cf8565b905080606001516000148015611fee5750604080516342d16abf60e01b81526001600160a01b038a81166004830152898116602483015288811660448301529151918616916342d16abf91606480820192602092909190829003018186803b158015611fc057600080fd5b505afa158015611fd4573d6000803e3d6000fd5b505050506040513d6020811015611fea57600080fd5b5051155b1561200157611ffb612d1c565b60608201525b61201e61201389898986868b8b613042565b602083015190611e11565b6020808301919091528201518152600061203d89898986868b8b612c47565b509998505050505050505050565b600080612063612059612d1c565b846020015161302c565b905060006121b5612078868660000151613120565b6121b07f00000000000000000000000000000000000000000000000000000000000000006001600160a01b031663a972985e8a6040518263ffffffff1660e01b815260040180826001600160a01b0316815260200191505060206040518083038186803b1580156120e857600080fd5b505afa1580156120fc573d6000803e3d6000fd5b505050506040513d602081101561211257600080fd5b50516040805163822a03bd60e01b81526001600160a01b038c8116600483015291517f00000000000000000000000000000000000000000000000000000000000000009092169163822a03bd91602480820192602092909190829003018186803b15801561217f57600080fd5b505afa158015612193573d6000803e3d6000fd5b505050506040513d60208110156121a957600080fd5b5051613120565b613120565b90508181106121cb57620f42409250505061093a565b60006121d78383613130565b90506121f06121e98262093a8061318d565b600461302c565b6203d09002620f424001979650505050505050565b6000610920826131f4565b600061221c8383612d8a565b61225257508154600181810184556000848152602080822090930184905584548482528286019093526040902091909155610920565b506000610920565b60006109b5722634b8bab4b234ba3ca83937ba32b1ba34b7b760691b611992565b6000612285613b69565b61228d613b2d565b61229a8a8a8a8a896115c4565b915091506000806122b08c8c8c87878e8d612c47565b60006080860181905260a0860152909250905060001988148015906122d457508782115b15612301576122ec6122e6838a613130565b82612cdf565b608084015263ffffffff811660a08401528791505b7f00000000000000000000000000000000000000000000000000000000000000006001600160a01b031663f0d0f9aa8c8c87600001518860200151612353888b60400151611e1190919063ffffffff16565b6040518663ffffffff1660e01b815260040180866001600160a01b03168152602001856001600160a01b0316815260200184815260200183815260200182815260200195505050505050600060405180830381600087803b1580156123b757600080fd5b505af11580156123cb573d6000803e3d6000fd5b505050507f00000000000000000000000000000000000000000000000000000000000000006001600160a01b031663f615d5be8d8d8d8760000151600061241f898b60400151611e1190919063ffffffff16565b8d61242e578a60600151612436565b612436612d1c565b8b608001518c60a001516040518a63ffffffff1660e01b8152600401808a6001600160a01b03168152602001896001600160a01b03168152602001886001600160a01b031681526020018781526020018681526020018581526020018481526020018381526020018263ffffffff1681526020019950505050505050505050600060405180830381600087803b1580156124cf57600080fd5b505af11580156124e3573d6000803e3d6000fd5b50939e9d5050505050505050505050505050565b60008061250261225a565b9050806125396001600160a01b037f00000000000000000000000000000000000000000000000000000000000000001682886131f8565b604080516340c10f1960e01b81523060048201526024810188905290516001600160a01b037f000000000000000000000000000000000000000000000000000000000000000016916340c10f1991604480830192600092919082900301818387803b1580156125a757600080fd5b505af11580156125bb573d6000803e3d6000fd5b50506040805163caee4c8f60e01b81526001600160a01b03898116600483015288811660248301527f000000000000000000000000000000000000000000000000000000000000000081166044830152606482018b9052915160009450918616925063caee4c8f91608480830192602092919082900301818787803b15801561264357600080fd5b505af1158015612657573d6000803e3d6000fd5b505050506040513d602081101561266d57600080fd5b505160408051898152905191925082916001600160a01b0380891692908a16917f7a4e13b7a1a2229d019b6d8240a50afe51b81d2ee409171431a25b31111eeaaf9181900360200190a49695505050505050565b6126c9613b69565b6126d1613b69565b6126db8686612de2565b90506000806126ed8888858989612ebf565b9050808360200151146127065760208301819052600191505b600061271d612713612d1c565b886020015161302c565b8451909150811461273057808452600192505b82156127f3577f00000000000000000000000000000000000000000000000000000000000000006001600160a01b031663f0d0f9aa8a8a8760000151886020015189604001516040518663ffffffff1660e01b815260040180866001600160a01b03168152602001856001600160a01b0316815260200184815260200183815260200182815260200195505050505050600060405180830381600087803b1580156127da57600080fd5b505af11580156127ee573d6000803e3d6000fd5b505050505b5091925050505b949350505050565b61280a613b2d565b612812613b2d565b61281d888888611cf8565b90506000816060015160001480156128b85750604080516342d16abf60e01b81526001600160a01b038b811660048301528a8116602483015289811660448301529151918616916342d16abf91606480820192602092909190829003018186803b15801561288a57600080fd5b505afa15801561289e573d6000803e3d6000fd5b505050506040513d60208110156128b457600080fd5b5051155b156128ce576128c5612d1c565b60608301525060015b60006128df8a8a8a8a878b8b613042565b905080156129005760208301516128f69082611e11565b6020840152600191505b60208701518351146129185760208701518352600191505b8115612a16577f00000000000000000000000000000000000000000000000000000000000000006001600160a01b031663f615d5be8b8b8b8760000151886020015189604001518a606001518b608001518c60a001516040518a63ffffffff1660e01b8152600401808a6001600160a01b03168152602001896001600160a01b03168152602001886001600160a01b031681526020018781526020018681526020018581526020018481526020018381526020018263ffffffff1681526020019950505050505050505050600060405180830381600087803b1580156129fd57600080fd5b505af1158015612a11573d6000803e3d6000fd5b505050505b509098975050505050505050565b81516000908190815b818110156117fb576000612a5588888481518110612a4757fe5b60200260200101518861179f565b9050612a618482611e11565b935050600101612a2d565b600061093a836001600160a01b0384166132c2565b600080612a92868686866001613388565b905080612aa05790506127fa565b7f00000000000000000000000000000000000000000000000000000000000000006001600160a01b0316630a5a96f9876040518263ffffffff1660e01b815260040180826001600160a01b03168152602001915050600060405180830381600087803b158015612b0f57600080fd5b505af1158015612b23573d6000803e3d6000fd5b505050507f00000000000000000000000000000000000000000000000000000000000000006001600160a01b03166340c10f1987836040518363ffffffff1660e01b815260040180836001600160a01b0316815260200182815260200192505050600060405180830381600087803b158015612b9e57600080fd5b505af1158015612bb2573d6000803e3d6000fd5b50506040805184815290516001600160a01b038a1693507ffc30cddea38e2bf4d6ea7d3f9ed3b6ad7f176419f4963bd81318067a4aee73fe92509081900360200190a295945050505050565b60006001600160a01b0383161580159061093a57506060820151516001600160a01b038481169116148061093a57505060600151602001516001600160a01b0390811691161490565b6000806000612c5b8a8a8a8a8a8a8a613042565b9050612c6d8187606001518a88613401565b6000612c7e8b88606001518861204b565b90506000612ca2612c9c848a60200151611e1190919063ffffffff16565b8361353e565b9050612cc1612cba8960800151848b60a00151613572565b8290611e11565b9050612ccf818b8b8a613598565b9b909a5098505050505050505050565b600063ffffffff8216620f42401415612cf9575081610920565b61093a63ffffffff80841690612d16908690620f42409061365016565b9061318d565b60006109b56111dd565b81546000908210612d685760405162461bcd60e51b8152600401808060200182810382526022815260200180613ba96022913960400191505060405180910390fd5b826000018281548110612d7757fe5b9060005260206000200154905092915050565b60009081526001919091016020526040902054151590565b6000806000612db5888888876000613388565b905080612dc757915060009050611608565b80612dd3828a886124f7565b92509250509550959350505050565b612dea613b69565b612df2613b69565b7f00000000000000000000000000000000000000000000000000000000000000006001600160a01b031663c55b65ce85856040518363ffffffff1660e01b815260040180836001600160a01b03168152602001826001600160a01b031681526020019250505060606040518083038186803b158015612e7057600080fd5b505afa158015612e84573d6000803e3d6000fd5b505050506040513d6060811015612e9a57600080fd5b5080516020808301516040938401519385019390935283019190915281529392505050565b600080826001600160a01b03166322677c5288886040518363ffffffff1660e01b815260040180836001600160a01b03168152602001826001600160a01b031681526020019250505060206040518083038186803b158015612f2057600080fd5b505afa158015612f34573d6000803e3d6000fd5b505050506040513d6020811015612f4a57600080fd5b5051905080612f5f575050602083015161117a565b6000612f69612d1c565b8551909150811015612f805760009250505061117a565b6000612f9082876020015161302c565b90506000612fa687600001518960000151613120565b905081811415612fc057876020015194505050505061117a565b61301e613013612fd386620f4240613650565b612d16612fe08d8c6136a9565b63ffffffff1661300d670de0b6b3a764000061300d8e6040015161300d8a8c61313090919063ffffffff16565b90613650565b60208a015190611e11565b9a9950505050505050505050565b600081831061303b578161093a565b5090919050565b600080826001600160a01b03166342d16abf8a8a8a6040518463ffffffff1660e01b815260040180846001600160a01b03168152602001836001600160a01b03168152602001826001600160a01b03168152602001935050505060206040518083038186803b1580156130b457600080fd5b505afa1580156130c8573d6000803e3d6000fd5b505050506040513d60208110156130de57600080fd5b5051905060006130f18989898888612ebf565b905061301e670de0b6b3a7640000612d1661311989600001518561313090919063ffffffff16565b8590613650565b60008183101561303b578161093a565b600082821115613187576040805162461bcd60e51b815260206004820152601e60248201527f536166654d6174683a207375627472616374696f6e206f766572666c6f770000604482015290519081900360640190fd5b50900390565b60008082116131e3576040805162461bcd60e51b815260206004820152601a60248201527f536166654d6174683a206469766973696f6e206279207a65726f000000000000604482015290519081900360640190fd5b8183816131ec57fe5b049392505050565b5490565b80613202576132bd565b60408051636eb1769f60e11b81523060048201526001600160a01b038481166024830152915160009286169163dd62ed3e916044808301926020929190829003018186803b15801561325357600080fd5b505afa158015613267573d6000803e3d6000fd5b505050506040513d602081101561327d57600080fd5b5051905081811061328e57506132bd565b80156132a9576132a96001600160a01b0385168460006136df565b611ee76001600160a01b03851684846136df565b505050565b6000818152600183016020526040812054801561337e57835460001980830191908101906000908790839081106132f557fe5b906000526020600020015490508087600001848154811061331257fe5b60009182526020808320909101929092558281526001898101909252604090209084019055865487908061334257fe5b60019003818190600052602060002001600090559055866001016000878152602001908152602001600020600090556001945050505050610920565b6000915050610920565b83516000908190815b81811080156133a05750600087115b156133f45760006133c78a8a84815181106133b757fe5b60200260200101518a8a8a6137f2565b90506133d38482611e11565b935060001988146133eb576133e88882613130565b97505b50600101613391565b5090979650505050505050565b600061340b612d1c565b8251909150811080613421575081602001518410155b1561347f578415613479576040805162461bcd60e51b815260206004820152601860248201527f4552525f424153455f5245574152445f544f4f5f484947480000000000000000604482015290519081900360640190fd5b50611ee7565b600061348f858460000151613120565b905060006134a183856020015161302c565b90506134e1620f4240612d166134b788886136a9565b63ffffffff1661300d6134d3878761313090919063ffffffff16565b60408a015160040290613650565b871115613535576040805162461bcd60e51b815260206004820152601d60248201527f4552525f424153455f5245574152445f524154455f544f4f5f48494748000000604482015290519081900360640190fd5b50505050505050565b600063ffffffff8216620f42401415613558575081610920565b61093a620f4240612d168563ffffffff8681169061365016565b60006127fa848363ffffffff168563ffffffff16116135915783613593565b845b61353e565b60408201516000906135f9906135f3620f4240612d168181621e848061300d6135c18d8c6136a9565b63ffffffff1661300d6135e58d600001518e6020015161313090919063ffffffff16565b60408e015160040290613650565b90613130565b905080851115610875576040805162461bcd60e51b815260206004820152601860248201527f4552525f5245574152445f524154455f544f4f5f484947480000000000000000604482015290519081900360640190fd5b60008261365f57506000610920565b8282028284828161366c57fe5b041461093a5760405162461bcd60e51b8152600401808060200182810382526021815260200180613c2a6021913960400191505060405180910390fd5b6060810151516000906001600160a01b03848116911614156136d15750608081015151610920565b506080015160200151919050565b801580613765575060408051636eb1769f60e11b81523060048201526001600160a01b03848116602483015291519185169163dd62ed3e91604480820192602092909190829003018186803b15801561373757600080fd5b505afa15801561374b573d6000803e3d6000fd5b505050506040513d602081101561376157600080fd5b5051155b6137a05760405162461bcd60e51b8152600401808060200182810382526036815260200180613c756036913960400191505060405180910390fd5b604080516001600160a01b038416602482015260448082018490528251808303909101815260649091019091526020810180516001600160e01b031663095ea7b360e01b1790526132bd908490613872565b6000806137fd613af3565b613806876114d6565b905060005b60028110801561381b5750600087115b156133f45760006138458a8a8560600151856002811061383757fe5b6020020151868c8c8c61227b565b90506138518482611e11565b93506000198814613869576138668882613130565b97505b5060010161380b565b60606138c7826040518060400160405280602081526020017f5361666545524332303a206c6f772d6c6576656c2063616c6c206661696c6564815250856001600160a01b03166139239092919063ffffffff16565b8051909150156132bd578080602001905160208110156138e657600080fd5b50516132bd5760405162461bcd60e51b815260040180806020018281038252602a815260200180613c4b602a913960400191505060405180910390fd5b60606127fa84846000858561393785613a49565b613988576040805162461bcd60e51b815260206004820152601d60248201527f416464726573733a2063616c6c20746f206e6f6e2d636f6e7472616374000000604482015290519081900360640190fd5b60006060866001600160a01b031685876040518082805190602001908083835b602083106139c75780518252601f1990920191602091820191016139a8565b6001836020036101000a03801982511681845116808217855250505050505090500191505060006040518083038185875af1925050503d8060008114613a29576040519150601f19603f3d011682016040523d82523d6000602084013e613a2e565b606091505b5091509150613a3e828286613a4f565b979650505050505050565b3b151590565b60608315613a5e57508161093a565b825115613a6e5782518084602001fd5b8160405162461bcd60e51b81526004018080602001828103825283818151815260200191508051906020019080838360005b83811015613ab8578181015183820152602001613aa0565b50505050905090810190601f168015613ae55780820380516001836020036101000a031916815260200191505b509250505060405180910390fd5b6040518060a00160405280600081526020016000815260200160008152602001613b1b613b8a565b8152602001613b28613b8a565b905290565b6040518060c001604052806000815260200160008152602001600081526020016000815260200160008152602001600063ffffffff1681525090565b60405180606001604052806000815260200160008152602001600081525090565b6040518060400160405280600290602082028036833750919291505056fe456e756d657261626c655365743a20696e646578206f7574206f6620626f756e6473416363657373436f6e74726f6c3a2073656e646572206d75737420626520616e2061646d696e20746f206772616e74416363657373436f6e74726f6c3a2073656e646572206d75737420626520616e2061646d696e20746f207265766f6b65536166654d6174683a206d756c7469706c69636174696f6e206f766572666c6f775361666545524332303a204552433230206f7065726174696f6e20646964206e6f7420737563636565645361666545524332303a20617070726f76652066726f6d206e6f6e2d7a65726f20746f206e6f6e2d7a65726f20616c6c6f77616e6365416363657373436f6e74726f6c3a2063616e206f6e6c792072656e6f756e636520726f6c657320666f722073656c66a164736f6c634300060c000a0c7ade2c7c08453ea605b4a8f3fb0e03e3ffcffbfa41ca8ee543d0fd74cada38",
  "linkReferences": {},
  "deployedLinkReferences": {}
}