{
  "_format": "hh-sol-artifact-1",
  "contractName": "StandardPoolConverter",
  "sourceName": "contracts/converter/types/standard-pool/StandardPoolConverter.sol",
  "abi": [
    {
      "inputs": [
        {
          "internalType": "contract IConverterAnchor",
          "name": "anchor",
          "type": "address"
        },
        {
          "internalType": "contract IContractRegistry",
          "name": "registry",
          "type": "address"
        },
        {
          "internalType": "uint32",
          "name": "maxConversionFee",
          "type": "uint32"
        }
      ],
      "stateMutability": "nonpayable",
      "type": "constructor"
    },
    {
      "anonymous": false,
      "inputs": [
        {
          "indexed": true,
          "internalType": "uint16",
          "name": "converterType",
          "type": "uint16"
        },
        {
          "indexed": true,
          "internalType": "contract IConverterAnchor",
          "name": "anchor",
          "type": "address"
        },
        {
          "indexed": true,
          "internalType": "bool",
          "name": "activated",
          "type": "bool"
        }
      ],
      "name": "Activation",
      "type": "event"
    },
    {
      "anonymous": false,
      "inputs": [
        {
          "indexed": true,
          "internalType": "contract IReserveToken",
          "name": "sourceToken",
          "type": "address"
        },
        {
          "indexed": true,
          "internalType": "contract IReserveToken",
          "name": "targetToken",
          "type": "address"
        },
        {
          "indexed": true,
          "internalType": "address",
          "name": "trader",
          "type": "address"
        },
        {
          "indexed": false,
          "internalType": "uint256",
          "name": "sourceAmount",
          "type": "uint256"
        },
        {
          "indexed": false,
          "internalType": "uint256",
          "name": "targetAmount",
          "type": "uint256"
        },
        {
          "indexed": false,
          "internalType": "int256",
          "name": "conversionFee",
          "type": "int256"
        }
      ],
      "name": "Conversion",
      "type": "event"
    },
    {
      "anonymous": false,
      "inputs": [
        {
          "indexed": false,
          "internalType": "uint32",
          "name": "prevFee",
          "type": "uint32"
        },
        {
          "indexed": false,
          "internalType": "uint32",
          "name": "newFee",
          "type": "uint32"
        }
      ],
      "name": "ConversionFeeUpdate",
      "type": "event"
    },
    {
      "anonymous": false,
      "inputs": [
        {
          "indexed": true,
          "internalType": "address",
          "name": "provider",
          "type": "address"
        },
        {
          "indexed": true,
          "internalType": "contract IReserveToken",
          "name": "reserveToken",
          "type": "address"
        },
        {
          "indexed": false,
          "internalType": "uint256",
          "name": "amount",
          "type": "uint256"
        },
        {
          "indexed": false,
          "internalType": "uint256",
          "name": "newBalance",
          "type": "uint256"
        },
        {
          "indexed": false,
          "internalType": "uint256",
          "name": "newSupply",
          "type": "uint256"
        }
      ],
      "name": "LiquidityAdded",
      "type": "event"
    },
    {
      "anonymous": false,
      "inputs": [
        {
          "indexed": true,
          "internalType": "address",
          "name": "provider",
          "type": "address"
        },
        {
          "indexed": true,
          "internalType": "contract IReserveToken",
          "name": "reserveToken",
          "type": "address"
        },
        {
          "indexed": false,
          "internalType": "uint256",
          "name": "amount",
          "type": "uint256"
        },
        {
          "indexed": false,
          "internalType": "uint256",
          "name": "newBalance",
          "type": "uint256"
        },
        {
          "indexed": false,
          "internalType": "uint256",
          "name": "newSupply",
          "type": "uint256"
        }
      ],
      "name": "LiquidityRemoved",
      "type": "event"
    },
    {
      "anonymous": false,
      "inputs": [
        {
          "indexed": true,
          "internalType": "address",
          "name": "prevOwner",
          "type": "address"
        },
        {
          "indexed": true,
          "internalType": "address",
          "name": "newOwner",
          "type": "address"
        }
      ],
      "name": "OwnerUpdate",
      "type": "event"
    },
    {
      "anonymous": false,
      "inputs": [
        {
          "indexed": true,
          "internalType": "address",
          "name": "token1",
          "type": "address"
        },
        {
          "indexed": true,
          "internalType": "address",
          "name": "token2",
          "type": "address"
        },
        {
          "indexed": false,
          "internalType": "uint256",
          "name": "rateN",
          "type": "uint256"
        },
        {
          "indexed": false,
          "internalType": "uint256",
          "name": "rateD",
          "type": "uint256"
        }
      ],
      "name": "TokenRateUpdate",
      "type": "event"
    },
    {
      "inputs": [],
      "name": "acceptAnchorOwnership",
      "outputs": [],
      "stateMutability": "nonpayable",
      "type": "function"
    },
    {
      "inputs": [],
      "name": "acceptOwnership",
      "outputs": [],
      "stateMutability": "nonpayable",
      "type": "function"
    },
    {
      "inputs": [],
      "name": "acceptTokenOwnership",
      "outputs": [],
      "stateMutability": "nonpayable",
      "type": "function"
    },
    {
      "inputs": [
        {
          "internalType": "contract IReserveToken[]",
          "name": "reserves",
          "type": "address[]"
        },
        {
          "internalType": "uint256[]",
          "name": "reserveAmounts",
          "type": "uint256[]"
        },
        {
          "internalType": "uint256",
          "name": "minReturn",
          "type": "uint256"
        }
      ],
      "name": "addLiquidity",
      "outputs": [
        {
          "internalType": "uint256",
          "name": "",
          "type": "uint256"
        }
      ],
      "stateMutability": "payable",
      "type": "function"
    },
    {
      "inputs": [
        {
          "internalType": "contract IReserveToken[]",
          "name": "reserves",
          "type": "address[]"
        },
        {
          "internalType": "uint256",
          "name": "index",
          "type": "uint256"
        },
        {
          "internalType": "uint256",
          "name": "amount",
          "type": "uint256"
        }
      ],
      "name": "addLiquidityCost",
      "outputs": [
        {
          "internalType": "uint256[]",
          "name": "",
          "type": "uint256[]"
        }
      ],
      "stateMutability": "view",
      "type": "function"
    },
    {
      "inputs": [
        {
          "internalType": "contract IReserveToken[]",
          "name": "reserves",
          "type": "address[]"
        },
        {
          "internalType": "uint256[]",
          "name": "amounts",
          "type": "uint256[]"
        }
      ],
      "name": "addLiquidityReturn",
      "outputs": [
        {
          "internalType": "uint256",
          "name": "",
          "type": "uint256"
        }
      ],
      "stateMutability": "view",
      "type": "function"
    },
    {
      "inputs": [
        {
          "internalType": "contract IReserveToken",
          "name": "token",
          "type": "address"
        },
        {
          "internalType": "uint32",
          "name": "weight",
          "type": "uint32"
        }
      ],
      "name": "addReserve",
      "outputs": [],
      "stateMutability": "nonpayable",
      "type": "function"
    },
    {
      "inputs": [],
      "name": "anchor",
      "outputs": [
        {
          "internalType": "contract IConverterAnchor",
          "name": "",
          "type": "address"
        }
      ],
      "stateMutability": "view",
      "type": "function"
    },
    {
      "inputs": [],
      "name": "averageRateInfo",
      "outputs": [
        {
          "internalType": "uint256",
          "name": "",
          "type": "uint256"
        }
      ],
      "stateMutability": "view",
      "type": "function"
    },
    {
      "inputs": [],
      "name": "connectorTokenCount",
      "outputs": [
        {
          "internalType": "uint16",
          "name": "",
          "type": "uint16"
        }
      ],
      "stateMutability": "view",
      "type": "function"
    },
    {
      "inputs": [
        {
          "internalType": "uint256",
          "name": "index",
          "type": "uint256"
        }
      ],
      "name": "connectorTokens",
      "outputs": [
        {
          "internalType": "contract IReserveToken",
          "name": "",
          "type": "address"
        }
      ],
      "stateMutability": "view",
      "type": "function"
    },
    {
      "inputs": [
        {
          "internalType": "contract IReserveToken",
          "name": "reserveToken",
          "type": "address"
        }
      ],
      "name": "connectors",
      "outputs": [
        {
          "internalType": "uint256",
          "name": "",
          "type": "uint256"
        },
        {
          "internalType": "uint32",
          "name": "",
          "type": "uint32"
        },
        {
          "internalType": "bool",
          "name": "",
          "type": "bool"
        },
        {
          "internalType": "bool",
          "name": "",
          "type": "bool"
        },
        {
          "internalType": "bool",
          "name": "",
          "type": "bool"
        }
      ],
      "stateMutability": "view",
      "type": "function"
    },
    {
      "inputs": [],
      "name": "conversionFee",
      "outputs": [
        {
          "internalType": "uint32",
          "name": "",
          "type": "uint32"
        }
      ],
      "stateMutability": "view",
      "type": "function"
    },
    {
      "inputs": [
        {
          "internalType": "contract IReserveToken",
          "name": "sourceToken",
          "type": "address"
        },
        {
          "internalType": "contract IReserveToken",
          "name": "targetToken",
          "type": "address"
        },
        {
          "internalType": "uint256",
          "name": "sourceAmount",
          "type": "uint256"
        },
        {
          "internalType": "address",
          "name": "trader",
          "type": "address"
        },
        {
          "internalType": "address payable",
          "name": "beneficiary",
          "type": "address"
        }
      ],
      "name": "convert",
      "outputs": [
        {
          "internalType": "uint256",
          "name": "",
          "type": "uint256"
        }
      ],
      "stateMutability": "payable",
      "type": "function"
    },
    {
      "inputs": [],
      "name": "converterType",
      "outputs": [
        {
          "internalType": "uint16",
          "name": "",
          "type": "uint16"
        }
      ],
      "stateMutability": "pure",
      "type": "function"
    },
    {
      "inputs": [
        {
          "internalType": "contract IReserveToken",
          "name": "reserveToken",
          "type": "address"
        }
      ],
      "name": "getConnectorBalance",
      "outputs": [
        {
          "internalType": "uint256",
          "name": "",
          "type": "uint256"
        }
      ],
      "stateMutability": "view",
      "type": "function"
    },
    {
      "inputs": [
        {
          "internalType": "contract IReserveToken",
          "name": "sourceToken",
          "type": "address"
        },
        {
          "internalType": "contract IReserveToken",
          "name": "targetToken",
          "type": "address"
        },
        {
          "internalType": "uint256",
          "name": "sourceAmount",
          "type": "uint256"
        }
      ],
      "name": "getReturn",
      "outputs": [
        {
          "internalType": "uint256",
          "name": "",
          "type": "uint256"
        },
        {
          "internalType": "uint256",
          "name": "",
          "type": "uint256"
        }
      ],
      "stateMutability": "view",
      "type": "function"
    },
    {
      "inputs": [],
      "name": "isActive",
      "outputs": [
        {
          "internalType": "bool",
          "name": "",
          "type": "bool"
        }
      ],
      "stateMutability": "view",
      "type": "function"
    },
    {
      "inputs": [],
      "name": "isV28OrHigher",
      "outputs": [
        {
          "internalType": "bool",
          "name": "",
          "type": "bool"
        }
      ],
      "stateMutability": "pure",
      "type": "function"
    },
    {
      "inputs": [],
      "name": "maxConversionFee",
      "outputs": [
        {
          "internalType": "uint32",
          "name": "",
          "type": "uint32"
        }
      ],
      "stateMutability": "view",
      "type": "function"
    },
    {
      "inputs": [],
      "name": "newOwner",
      "outputs": [
        {
          "internalType": "address",
          "name": "",
          "type": "address"
        }
      ],
      "stateMutability": "view",
      "type": "function"
    },
    {
      "inputs": [],
      "name": "onUpgradeComplete",
      "outputs": [],
      "stateMutability": "nonpayable",
      "type": "function"
    },
    {
      "inputs": [],
      "name": "onlyOwnerCanUpdateRegistry",
      "outputs": [
        {
          "internalType": "bool",
          "name": "",
          "type": "bool"
        }
      ],
      "stateMutability": "view",
      "type": "function"
    },
    {
      "inputs": [],
      "name": "owner",
      "outputs": [
        {
          "internalType": "address",
          "name": "",
          "type": "address"
        }
      ],
      "stateMutability": "view",
      "type": "function"
    },
    {
      "inputs": [],
      "name": "prevRegistry",
      "outputs": [
        {
          "internalType": "contract IContractRegistry",
          "name": "",
          "type": "address"
        }
      ],
      "stateMutability": "view",
      "type": "function"
    },
    {
      "inputs": [],
      "name": "processNetworkFees",
      "outputs": [],
      "stateMutability": "nonpayable",
      "type": "function"
    },
    {
      "inputs": [
        {
          "internalType": "contract IReserveToken",
          "name": "token",
          "type": "address"
        }
      ],
      "name": "recentAverageRate",
      "outputs": [
        {
          "internalType": "uint256",
          "name": "",
          "type": "uint256"
        },
        {
          "internalType": "uint256",
          "name": "",
          "type": "uint256"
        }
      ],
      "stateMutability": "view",
      "type": "function"
    },
    {
      "inputs": [],
      "name": "registry",
      "outputs": [
        {
          "internalType": "contract IContractRegistry",
          "name": "",
          "type": "address"
        }
      ],
      "stateMutability": "view",
      "type": "function"
    },
    {
      "inputs": [
        {
          "internalType": "uint256",
          "name": "amount",
          "type": "uint256"
        },
        {
          "internalType": "contract IReserveToken[]",
          "name": "reserves",
          "type": "address[]"
        },
        {
          "internalType": "uint256[]",
          "name": "minReturnAmounts",
          "type": "uint256[]"
        }
      ],
      "name": "removeLiquidity",
      "outputs": [
        {
          "internalType": "uint256[]",
          "name": "",
          "type": "uint256[]"
        }
      ],
      "stateMutability": "nonpayable",
      "type": "function"
    },
    {
      "inputs": [
        {
          "internalType": "uint256",
          "name": "amount",
          "type": "uint256"
        },
        {
          "internalType": "contract IReserveToken[]",
          "name": "reserves",
          "type": "address[]"
        }
      ],
      "name": "removeLiquidityReturn",
      "outputs": [
        {
          "internalType": "uint256[]",
          "name": "",
          "type": "uint256[]"
        }
      ],
      "stateMutability": "view",
      "type": "function"
    },
    {
      "inputs": [
        {
          "internalType": "contract IReserveToken",
          "name": "reserveToken",
          "type": "address"
        }
      ],
      "name": "reserveBalance",
      "outputs": [
        {
          "internalType": "uint256",
          "name": "",
          "type": "uint256"
        }
      ],
      "stateMutability": "view",
      "type": "function"
    },
    {
      "inputs": [],
      "name": "reserveBalances",
      "outputs": [
        {
          "internalType": "uint256",
          "name": "",
          "type": "uint256"
        },
        {
          "internalType": "uint256",
          "name": "",
          "type": "uint256"
        }
      ],
      "stateMutability": "view",
      "type": "function"
    },
    {
      "inputs": [],
      "name": "reserveTokenCount",
      "outputs": [
        {
          "internalType": "uint16",
          "name": "",
          "type": "uint16"
        }
      ],
      "stateMutability": "view",
      "type": "function"
    },
    {
      "inputs": [],
      "name": "reserveTokens",
      "outputs": [
        {
          "internalType": "contract IReserveToken[]",
          "name": "",
          "type": "address[]"
        }
      ],
      "stateMutability": "view",
      "type": "function"
    },
    {
      "inputs": [
        {
          "internalType": "contract IReserveToken",
          "name": "reserveToken",
          "type": "address"
        }
      ],
      "name": "reserveWeight",
      "outputs": [
        {
          "internalType": "uint32",
          "name": "",
          "type": "uint32"
        }
      ],
      "stateMutability": "view",
      "type": "function"
    },
    {
      "inputs": [],
      "name": "restoreRegistry",
      "outputs": [],
      "stateMutability": "nonpayable",
      "type": "function"
    },
    {
      "inputs": [
        {
          "internalType": "bool",
          "name": "restrictOwnerOnly",
          "type": "bool"
        }
      ],
      "name": "restrictRegistryUpdate",
      "outputs": [],
      "stateMutability": "nonpayable",
      "type": "function"
    },
    {
      "inputs": [
        {
          "internalType": "uint32",
          "name": "fee",
          "type": "uint32"
        }
      ],
      "name": "setConversionFee",
      "outputs": [],
      "stateMutability": "nonpayable",
      "type": "function"
    },
    {
      "inputs": [
        {
          "internalType": "contract IReserveToken",
          "name": "sourceToken",
          "type": "address"
        },
        {
          "internalType": "contract IReserveToken",
          "name": "targetToken",
          "type": "address"
        },
        {
          "internalType": "uint256",
          "name": "targetAmount",
          "type": "uint256"
        }
      ],
      "name": "sourceAmountAndFee",
      "outputs": [
        {
          "internalType": "uint256",
          "name": "",
          "type": "uint256"
        },
        {
          "internalType": "uint256",
          "name": "",
          "type": "uint256"
        }
      ],
      "stateMutability": "view",
      "type": "function"
    },
    {
      "inputs": [],
      "name": "syncReserveBalances",
      "outputs": [],
      "stateMutability": "nonpayable",
      "type": "function"
    },
    {
      "inputs": [
        {
          "internalType": "contract IReserveToken",
          "name": "sourceToken",
          "type": "address"
        },
        {
          "internalType": "contract IReserveToken",
          "name": "targetToken",
          "type": "address"
        },
        {
          "internalType": "uint256",
          "name": "sourceAmount",
          "type": "uint256"
        }
      ],
      "name": "targetAmountAndFee",
      "outputs": [
        {
          "internalType": "uint256",
          "name": "",
          "type": "uint256"
        },
        {
          "internalType": "uint256",
          "name": "",
          "type": "uint256"
        }
      ],
      "stateMutability": "view",
      "type": "function"
    },
    {
      "inputs": [],
      "name": "token",
      "outputs": [
        {
          "internalType": "contract IConverterAnchor",
          "name": "",
          "type": "address"
        }
      ],
      "stateMutability": "view",
      "type": "function"
    },
    {
      "inputs": [
        {
          "internalType": "address",
          "name": "newOwner",
          "type": "address"
        }
      ],
      "name": "transferAnchorOwnership",
      "outputs": [],
      "stateMutability": "nonpayable",
      "type": "function"
    },
    {
      "inputs": [
        {
          "internalType": "address",
          "name": "newOwner",
          "type": "address"
        }
      ],
      "name": "transferOwnership",
      "outputs": [],
      "stateMutability": "nonpayable",
      "type": "function"
    },
    {
      "inputs": [
        {
          "internalType": "address",
          "name": "newConverter",
          "type": "address"
        }
      ],
      "name": "transferReservesOnUpgrade",
      "outputs": [],
      "stateMutability": "nonpayable",
      "type": "function"
    },
    {
      "inputs": [
        {
          "internalType": "address",
          "name": "newOwner",
          "type": "address"
        }
      ],
      "name": "transferTokenOwnership",
      "outputs": [],
      "stateMutability": "nonpayable",
      "type": "function"
    },
    {
      "inputs": [],
      "name": "updateRegistry",
      "outputs": [],
      "stateMutability": "nonpayable",
      "type": "function"
    },
    {
      "inputs": [],
      "name": "upgrade",
      "outputs": [],
      "stateMutability": "nonpayable",
      "type": "function"
    },
    {
      "inputs": [],
      "name": "version",
      "outputs": [
        {
          "internalType": "uint16",
          "name": "",
          "type": "uint16"
        }
      ],
      "stateMutability": "view",
      "type": "function"
    },
    {
      "stateMutability": "payable",
      "type": "receive"
    }
  ],
  "bytecode": "0x60806040523480156200001157600080fd5b5060405162004bb538038062004bb5833981810160405260608110156200003757600080fd5b5080516020820151604090920151600080546001600160a01b0319163317905590919081806200006781620000f6565b50600280546001600160a01b039092166001600160a01b0319928316811790915560038054909216179055600160045582620000a381620000f6565b81620000af8162000155565b50506009805463ffffffff909216600160a01b0263ffffffff60a01b196001600160a01b039095166001600160a01b031990931692909217939093161790915550620001b4565b6001600160a01b03811662000152576040805162461bcd60e51b815260206004820152601360248201527f4552525f494e56414c49445f4144445245535300000000000000000000000000604482015290519081900360640190fd5b50565b620f424063ffffffff8216111562000152576040805162461bcd60e51b815260206004820152601a60248201527f4552525f494e56414c49445f434f4e56455253494f4e5f464545000000000000604482015290519081900360640190fd5b6149f180620001c46000396000f3fe6080604052600436106102b25760003560e01c80636a49d2c411610175578063bbcdfdef116100dc578063d895951211610095578063ecbca55d1161006f578063ecbca55d14610e2b578063f0413a1f14610e5b578063f2fde38b14610e70578063fc0c546a14610d40576102d8565b8063d895951214610d7f578063dc8de37914610db2578063e8dc12ff14610de5576102d8565b8063bbcdfdef14610cd3578063cdc91c6914610d16578063d260529c14610d2b578063d3fb73b414610d40578063d4ee1d9014610d55578063d55ec69714610d6a576102d8565b80638da5cb5b1161012e5780638da5cb5b14610b0557806394c275ad14610b1a5780639b99a8e214610b2f578063af94b8d814610b44578063b127c0a514610b87578063b4a176d314610cbe576102d8565b80636a49d2c4146108af57806371f52bf3146108ee57806379ba5097146109035780637b103999146109185780637d8916bd1461092d57806380d9416d14610a52576102d8565b80632e9abc7a1161021957806350dc78f9116101d257806350dc78f91461081357806354fd4d5014610828578063579cd3ca1461083d578063613e53a71461085257806361cd756e1461086757806367b6d57c1461087c576102d8565b80632e9abc7a146106515780632fe8a6ad1461079357806338a5e016146107a85780633cf98fa4146107bd5780633e8ff43f146107d257806349d10b64146107fe576102d8565b80631cfab2901161026b5780631cfab290146105055780631e1401f8146105515780631f0181bc146105ad57806321e6b53d146105e057806322f3e2d41461061357806327ac36c41461063c576102d8565b8063024c7ec7146102dd578063038d09e11461030b5780630e53aae91461033e57806312b6705f146103a557806315458837146103ba57806319b64015146104bf576102d8565b366102d85773eeeeeeeeeeeeeeeeeeeeeeeeeeeeeeeeeeeeeeee6102d581610ea3565b50005b600080fd5b3480156102e957600080fd5b506103096004803603602081101561030057600080fd5b50351515610f06565b005b34801561031757600080fd5b506103096004803603602081101561032e57600080fd5b50356001600160a01b0316610f2c565b34801561034a57600080fd5b506103716004803603602081101561036157600080fd5b50356001600160a01b0316611013565b6040805195865263ffffffff9094166020860152911515848401521515606084015215156080830152519081900360a00190f35b3480156103b157600080fd5b5061030961107a565b3480156103c657600080fd5b5061046f600480360360408110156103dd57600080fd5b81359190810190604081016020820135600160201b8111156103fe57600080fd5b82018360208201111561041057600080fd5b803590602001918460208302840111600160201b8311171561043157600080fd5b9190808060200260200160405190810160405280939291908181526020018383602002808284376000920191909152509295506110de945050505050565b60408051602080825283518183015283519192839290830191858101910280838360005b838110156104ab578181015183820152602001610493565b505050509050019250505060405180910390f35b3480156104cb57600080fd5b506104e9600480360360208110156104e257600080fd5b5035611187565b604080516001600160a01b039092168252519081900360200190f35b34801561051157600080fd5b506105386004803603602081101561052857600080fd5b50356001600160a01b03166111b3565b6040805163ffffffff9092168252519081900360200190f35b34801561055d57600080fd5b506105946004803603606081101561057457600080fd5b506001600160a01b038135811691602081013590911690604001356111ca565b6040805192835260208301919091528051918290030190f35b3480156105b957600080fd5b50610594600480360360208110156105d057600080fd5b50356001600160a01b03166111e5565b3480156105ec57600080fd5b506103096004803603602081101561060357600080fd5b50356001600160a01b0316611260565b34801561061f57600080fd5b50610628611271565b604080519115158252519081900360200190f35b34801561064857600080fd5b5061046f611306565b34801561065d57600080fd5b506107816004803603604081101561067457600080fd5b810190602081018135600160201b81111561068e57600080fd5b8201836020820111156106a057600080fd5b803590602001918460208302840111600160201b831117156106c157600080fd5b9190808060200260200160405190810160405280939291908181526020018383602002808284376000920191909152509295949360208101935035915050600160201b81111561071057600080fd5b82018360208201111561072257600080fd5b803590602001918460208302840111600160201b8311171561074357600080fd5b919080806020026020016040519081016040528093929190818152602001838360200280828437600092019190915250929550611368945050505050565b60408051918252519081900360200190f35b34801561079f57600080fd5b50610628611413565b3480156107b457600080fd5b50610309611423565b3480156107c957600080fd5b50610309611435565b3480156107de57600080fd5b506107e761143f565b6040805161ffff9092168252519081900360200190f35b34801561080a57600080fd5b50610309611444565b34801561081f57600080fd5b5061030961165a565b34801561083457600080fd5b506107e76116ee565b34801561084957600080fd5b506105386116f3565b34801561085e57600080fd5b50610594611706565b34801561087357600080fd5b506104e961171d565b34801561088857600080fd5b506103096004803603602081101561089f57600080fd5b50356001600160a01b031661172c565b3480156108bb57600080fd5b50610309600480360360408110156108d257600080fd5b5080356001600160a01b0316906020013563ffffffff166117c2565b3480156108fa57600080fd5b506107e761191f565b34801561090f57600080fd5b5061030961192e565b34801561092457600080fd5b506104e96119e5565b6107816004803603606081101561094357600080fd5b810190602081018135600160201b81111561095d57600080fd5b82018360208201111561096f57600080fd5b803590602001918460208302840111600160201b8311171561099057600080fd5b9190808060200260200160405190810160405280939291908181526020018383602002808284376000920191909152509295949360208101935035915050600160201b8111156109df57600080fd5b8201836020820111156109f157600080fd5b803590602001918460208302840111600160201b83111715610a1257600080fd5b91908080602002602001604051908101604052809392919081815260200183836020028082843760009201919091525092955050913592506119f4915050565b348015610a5e57600080fd5b5061046f60048036036060811015610a7557600080fd5b810190602081018135600160201b811115610a8f57600080fd5b820183602082011115610aa157600080fd5b803590602001918460208302840111600160201b83111715610ac257600080fd5b9190808060200260200160405190810160405280939291908181526020018383602002808284376000920191909152509295505082359350505060200135611fbd565b348015610b1157600080fd5b506104e96120ed565b348015610b2657600080fd5b506105386120fc565b348015610b3b57600080fd5b506107e761210f565b348015610b5057600080fd5b5061059460048036036060811015610b6757600080fd5b506001600160a01b03813581169160208101359091169060400135612115565b348015610b9357600080fd5b5061046f60048036036060811015610baa57600080fd5b81359190810190604081016020820135600160201b811115610bcb57600080fd5b820183602082011115610bdd57600080fd5b803590602001918460208302840111600160201b83111715610bfe57600080fd5b9190808060200260200160405190810160405280939291908181526020018383602002808284376000920191909152509295949360208101935035915050600160201b811115610c4d57600080fd5b820183602082011115610c5f57600080fd5b803590602001918460208302840111600160201b83111715610c8057600080fd5b919080806020026020016040519081016040528093929190818152602001838360200280828437600092019190915250929550612170945050505050565b348015610cca57600080fd5b50610309612537565b348015610cdf57600080fd5b5061059460048036036060811015610cf657600080fd5b506001600160a01b03813581169160208101359091169060400135612563565b348015610d2257600080fd5b506103096125d5565b348015610d3757600080fd5b506106286126eb565b348015610d4c57600080fd5b506104e96126f0565b348015610d6157600080fd5b506104e96126ff565b348015610d7657600080fd5b5061030961270e565b348015610d8b57600080fd5b5061078160048036036020811015610da257600080fd5b50356001600160a01b03166127f6565b348015610dbe57600080fd5b5061078160048036036020811015610dd557600080fd5b50356001600160a01b03166127fd565b610781600480360360a0811015610dfb57600080fd5b506001600160a01b0381358116916020810135821691604082013591606081013582169160809091013516612867565b348015610e3757600080fd5b5061030960048036036020811015610e4e57600080fd5b503563ffffffff1661294b565b348015610e6757600080fd5b50610781612a2d565b348015610e7c57600080fd5b5061030960048036036020811015610e9357600080fd5b50356001600160a01b0316612a33565b6001600160a01b038116600090815260086020526040902054610f03576040805162461bcd60e51b81526020600482015260136024820152724552525f494e56414c49445f5245534552564560681b604482015290519081900360640190fd5b50565b610f0e612ab1565b60038054911515600160a01b0260ff60a01b19909216919091179055565b60026004541415610f72576040805162461bcd60e51b815260206004820152601f6024820152600080516020614914833981519152604482015290519081900360640190fd5b6002600455610f7f612ab1565b762130b731b7b921b7b73b32b93a32b92ab833b930b232b960491b610fa381612b04565b60075460005b8181101561100857600060078281548110610fc057fe5b6000918252602090912001546001600160a01b03169050610ff685610fe58330612b66565b6001600160a01b0384169190612c0f565b610fff81612c86565b50600101610fa9565b505060016004555050565b6001600160a01b0381166000908152600860205260408120548190819081908190801561105d5761104381612cb9565b95506207a120945060009350839250600191506110719050565b600080600080600095509550955095509550505b91939590929450565b600260045414156110c0576040805162461bcd60e51b815260206004820152601f6024820152600080516020614914833981519152604482015290519081900360640190fd5b60026004556000806110d181612cc7565b0260065550506001600455565b60606000600960009054906101000a90046001600160a01b03166001600160a01b03166318160ddd6040518163ffffffff1660e01b815260040160206040518083038186803b15801561113057600080fd5b505afa158015611144573d6000803e3d6000fd5b505050506040513d602081101561115a57600080fd5b505190506111666148f5565b61116f84612d63565b905061117c858383612e2a565b925050505b92915050565b60006007828154811061119657fe5b6000918252602090912001546001600160a01b031690505b919050565b6000816111bf81610ea3565b506207a12092915050565b6000806111d8858585612115565b915091505b935093915050565b600080826111f281610ea3565b60006111ff600a54612ea5565b9050600061120c82612fda565b9050600061121983612fe9565b9050600760008154811061122957fe5b6000918252602090912001546001600160a01b038881169116141561125457909450925061125a9050565b94509250505b50915091565b611268612ab1565b610f038161172c565b6000306001600160a01b0316600960009054906101000a90046001600160a01b03166001600160a01b0316638da5cb5b6040518163ffffffff1660e01b815260040160206040518083038186803b1580156112cb57600080fd5b505afa1580156112df573d6000803e3d6000fd5b505050506040513d60208110156112f557600080fd5b50516001600160a01b031614905090565b6060600780548060200260200160405190810160405280929190818152602001828054801561135e57602002820191906000526020600020905b81546001600160a01b03168152600190910190602001808311611340575b5050505050905090565b600080600960009054906101000a90046001600160a01b03166001600160a01b03166318160ddd6040518163ffffffff1660e01b815260040160206040518083038186803b1580156113b957600080fd5b505afa1580156113cd573d6000803e3d6000fd5b505050506040513d60208110156113e357600080fd5b505190506113ef6148f5565b6113f885612d63565b9050600061140886868486612ff5565b509695505050505050565b600354600160a01b900460ff1690565b61142b612ab1565b6114336125d5565b565b61143360006130d5565b600390565b61144c6120ed565b6001600160a01b0316336001600160a01b031614806114755750600354600160a01b900460ff16155b6114ba576040805162461bcd60e51b815260206004820152601160248201527011549497d050d0d154d4d7d11153925151607a1b604482015290519081900360640190fd5b60006114d86f436f6e7472616374526567697374727960801b61319f565b6002549091506001600160a01b0380831691161480159061150157506001600160a01b03811615155b611549576040805162461bcd60e51b81526020600482015260146024820152734552525f494e56414c49445f524547495354525960601b604482015290519081900360640190fd5b60006001600160a01b0316816001600160a01b031663bb34534c6f436f6e7472616374526567697374727960801b6040518263ffffffff1660e01b81526004018082815260200191505060206040518083038186803b1580156115ab57600080fd5b505afa1580156115bf573d6000803e3d6000fd5b505050506040513d60208110156115d557600080fd5b50516001600160a01b0316141561162a576040805162461bcd60e51b81526020600482015260146024820152734552525f494e56414c49445f524547495354525960601b604482015290519081900360640190fd5b60028054600380546001600160a01b038084166001600160a01b0319928316179092559091169216919091179055565b600260045414156116a0576040805162461bcd60e51b815260206004820152601f6024820152600080516020614914833981519152604482015290519081900360640190fd5b60026004556116ad612ab1565b762130b731b7b921b7b73b32b93a32b92ab833b930b232b960491b6116d181612b04565b6000806116e06001600261321d565b026006555050600160045550565b602f81565b600954600160c01b900463ffffffff1690565b6000806117156001600261321d565b915091509091565b6003546001600160a01b031690565b611734612ab1565b762130b731b7b921b7b73b32b93a32b92ab833b930b232b960491b61175881612b04565b6009546040805163f2fde38b60e01b81526001600160a01b0385811660048301529151919092169163f2fde38b91602480830192600092919082900301818387803b1580156117a657600080fd5b505af11580156117ba573d6000803e3d6000fd5b505050505050565b6117ca612ab1565b6117d26132a6565b816117dc816132ed565b816117e68161335f565b6009546001600160a01b0385811691161480159061181a57506001600160a01b038416600090815260086020526040902054155b611861576040805162461bcd60e51b81526020600482015260136024820152724552525f494e56414c49445f5245534552564560681b604482015290519081900360640190fd5b600261186b61210f565b61ffff16106118bd576040805162461bcd60e51b815260206004820152601960248201527811549497d253959053125117d49154d154959157d0d3d55395603a1b604482015290519081900360640190fd5b5050600780546001810182557fa66cc928b5edb82af9bd49922954155ab7b0942694bea4ce44661d9a8736c6880180546001600160a01b039094166001600160a01b031990941684179055546000928352600860205260409092209190915550565b600061192961210f565b905090565b6001546001600160a01b03163314611981576040805162461bcd60e51b815260206004820152601160248201527011549497d050d0d154d4d7d11153925151607a1b604482015290519081900360640190fd5b600154600080546040516001600160a01b0393841693909116917f343765429aea5a34b3ff6a3785a98a5abb2597aca87bfbb58632c173d585373a91a360018054600080546001600160a01b03199081166001600160a01b03841617909155169055565b6002546001600160a01b031690565b600060026004541415611a3c576040805162461bcd60e51b815260206004820152601f6024820152600080516020614914833981519152604482015290519081900360640190fd5b6002600455611a496133bc565b611a54848484613404565b50611a7b84600081518110611a6557fe5b60200260200101516001600160a01b0316613649565b1580611a9a57503483600081518110611a9057fe5b6020026020010151145b8015611ad05750611ab184600181518110611a6557fe5b1580611ad057503483600181518110611ac657fe5b6020026020010151145b611b1b576040805162461bcd60e51b815260206004820152601760248201527608aa4a4be8aa890be829a9eaa9ca8be9a92a69a82a8869604b1b604482015290519081900360640190fd5b3415611ba65773eeeeeeeeeeeeeeeeeeeeeeeeeeeeeeeeeeeeeeee60005260086020527f353c2eb9e53a4a4a6d45d72082ff2e9dc829d1125618772a83eb0e7f86632c4254611ba6576040805162461bcd60e51b81526020600482015260126024820152714552525f4e4f5f4554485f5245534552564560701b604482015290519081900360640190fd5b600954604080516318160ddd60e01b815290516001600160a01b039092169160009183916318160ddd91600480820192602092909190829003018186803b158015611bf057600080fd5b505afa158015611c04573d6000803e3d6000fd5b505050506040513d6020811015611c1a57600080fd5b50519050611c266148f5565b611c2e6148f5565b611c3734612cc7565b602084015282526000611c486148f5565b84611cad57611c568961366e565b915088600081518110611c6557fe5b602002602001015181600060028110611c7a57fe5b6020020152885189906001908110611c8e57fe5b602002602001015181600160028110611ca357fe5b6020020152611cbf565b611cb98a8a8688612ff5565b90925090505b6000611ccb86846136c0565b905060005b6002811015611ed45760008c8281518110611ce757fe5b602002602001015190506000848360028110611cff57fe5b6020020151905060008111611d54576040805162461bcd60e51b815260206004820152601660248201527511549497d6915493d7d5105491d15517d05353d5539560521b604482015290519081900360640190fd5b8c8381518110611d6057fe5b6020026020010151811115611d7157fe5b611d83826001600160a01b0316613649565b611da157611d9c6001600160a01b03831633308461371a565b611def565b808d8481518110611dae57fe5b60200260200101511115611def57611def33828f8681518110611dcd57fe5b602002602001015103846001600160a01b0316612c0f9092919063ffffffff16565b611e0a81898560028110611dff57fe5b6020020151906136c0565b878460028110611e1657fe5b60200201526001600160a01b038216337f4a1a2a6176e9646d9e3157f7c2ab3c499f18337c0b0828cfb28e0a61de4a11f7838a8760028110611e5457fe5b602090810291909101516040805193845291830152818101899052519081900360600190a3816001600160a01b03168a6001600160a01b031660008051602061495a833981519152898660028110611ea857fe5b602002015187604051808381526020018281526020019250505060405180910390a35050600101611cd0565b508351611eee9060019060029087835b602002015161375b565b602084015184510260065588831015611f43576040805162461bcd60e51b81526020600482015260126024820152714552525f52455455524e5f544f4f5f4c4f5760701b604482015290519081900360640190fd5b6040805163219e412d60e21b81523360048201526024810185905290516001600160a01b0389169163867904b491604480830192600092919082900301818387803b158015611f9157600080fd5b505af1158015611fa5573d6000803e3d6000fd5b5050600160045550929b9a5050505050505050505050565b60606000600960009054906101000a90046001600160a01b03166001600160a01b03166318160ddd6040518163ffffffff1660e01b815260040160206040518083038186803b15801561200f57600080fd5b505afa158015612023573d6000803e3d6000fd5b505050506040513d602081101561203957600080fd5b505190506120456148f5565b61204e86612d63565b9050600061206d8383886002811061206257fe5b6020020151876137df565b6040805160028082526060808301845293945090916020830190803683370190505090506120a4848460005b602002015184613895565b816000815181106120b157fe5b60209081029190910101526120c884846001612099565b816001815181106120d557fe5b602090810291909101015293505050505b9392505050565b6000546001600160a01b031690565b600954600160a01b900463ffffffff1690565b60075490565b6000806121206133bc565b6001600160a01b03808616600090815260086020526040808220549287168252812054908061214f848461321d565b91509150612160898984848b613952565b9550955050505050935093915050565b6060600260045414156121b8576040805162461bcd60e51b815260206004820152601f6024820152600080516020614914833981519152604482015290519081900360640190fd5b60026004556121c56133bc565b60006121d2848487613404565b90506000600960009054906101000a90046001600160a01b031690506000816001600160a01b03166318160ddd6040518163ffffffff1660e01b815260040160206040518083038186803b15801561222957600080fd5b505afa15801561223d573d6000803e3d6000fd5b505050506040513d602081101561225357600080fd5b50516040805163a24835d160e01b8152336004820152602481018a905290519192506001600160a01b0384169163a24835d19160448082019260009290919082900301818387803b1580156122a757600080fd5b505af11580156122bb573d6000803e3d6000fd5b5050505060006122d4888361398290919063ffffffff16565b90506122de6148f5565b6122e66148f5565b6122f06000612cc7565b6020840152825260606123048b8685612e2a565b905060005b600281101561249c5760008b828151811061232057fe5b60200260200101519050600083838151811061233857fe5b602002602001015190508b838151811061234e57fe5b60200260200101518110156123a3576040805162461bcd60e51b815260206004820152601660248201527511549497d6915493d7d5105491d15517d05353d5539560521b604482015290519081900360640190fd5b6123be818785600281106123b357fe5b602002015190613982565b8584600281106123ca57fe5b60200201526123e36001600160a01b0383163383612c0f565b6001600160a01b038216337fbc7d19d505c7ec4db83f3b51f19fb98c4c8a99922e7839d1ee608dfbee29501b8388876002811061241c57fe5b6020908102919091015160408051938452918301528181018c9052519081900360600190a3816001600160a01b0316896001600160a01b031660008051602061495a83398151915287866002811061247057fe5b60200201518a604051808381526020018281526020019250505060405180910390a35050600101612309565b5081516124b0906001906002908583611ee4565b60208201518251026006558615612524576000816000815181106124d057fe5b60200260200101519050816001815181106124e757fe5b6020026020010151826000815181106124fc57fe5b602002602001018181525050808260018151811061251657fe5b602002602001018181525050505b60016004559a9950505050505050505050565b61253f612ab1565b600354600280546001600160a01b0319166001600160a01b03909216919091179055565b60008061256e6133bc565b6001600160a01b03808616600090815260086020526040808220549287168252812054908061259d848461321d565b9150915060006125ac886139df565b905060006125c484846125bf8c866136c0565b613a14565b9b919a509098505050505050505050565b6125dd612ab1565b600754600214612630576040805162461bcd60e51b815260206004820152601960248201527811549497d253959053125117d49154d154959157d0d3d55395603a1b604482015290519081900360640190fd5b600960009054906101000a90046001600160a01b03166001600160a01b03166379ba50976040518163ffffffff1660e01b8152600401600060405180830381600087803b15801561268057600080fd5b505af1158015612694573d6000803e3d6000fd5b505050506126a260006130d5565b6009546001906001600160a01b03166126b961143f565b61ffff167f6b08c2e2c9969e55a647a764db9b554d64dc42f1a704da11a6d5b129ad163f2c60405160405180910390a4565b600190565b6009546001600160a01b031690565b6001546001600160a01b031690565b612716612ab1565b600061273b762130b731b7b921b7b73b32b93a32b92ab833b930b232b960491b61319f565b6009549091506000906001600160a01b031661275561143f565b61ffff167f6b08c2e2c9969e55a647a764db9b554d64dc42f1a704da11a6d5b129ad163f2c60405160405180910390a461278e81612a33565b6040805163487ac64b60e11b8152602f600482015290516001600160a01b038316916390f58c9691602480830192600092919082900301818387803b1580156127d657600080fd5b505af11580156127ea573d6000803e3d6000fd5b50505050610f0361192e565b6000611181825b6001600160a01b0381166000908152600860205260408120548061285e576040805162461bcd60e51b81526020600482015260136024820152724552525f494e56414c49445f5245534552564560681b604482015290519081900360640190fd5b6120e681612cb9565b6000600260045414156128af576040805162461bcd60e51b815260206004820152601f6024820152600080516020614914833981519152604482015290519081900360640190fd5b60026004556c42616e636f724e6574776f726b60981b6128ce81612b04565b856001600160a01b0316876001600160a01b0316141561292e576040805162461bcd60e51b815260206004820152601660248201527511549497d4d0535157d4d3d55490d157d5105491d15560521b604482015290519081900360640190fd5b61293b8787878787613abd565b6001600455979650505050505050565b612953612ab1565b60095463ffffffff600160a01b909104811690821611156129bb576040805162461bcd60e51b815260206004820152601a60248201527f4552525f494e56414c49445f434f4e56455253494f4e5f464545000000000000604482015290519081900360640190fd5b6009546040805163ffffffff600160c01b90930483168152918316602083015280517f81cd2ffb37dd237c0e4e2a3de5265fcf9deb43d3e7801e80db9f1ccfba7ee6009281900390910190a16009805463ffffffff909216600160c01b0263ffffffff60c01b19909216919091179055565b600a5490565b612a3b612ab1565b6000546001600160a01b0382811691161415612a8f576040805162461bcd60e51b815260206004820152600e60248201526d22a9292fa9a0a6a2afa7aba722a960911b604482015290519081900360640190fd5b600180546001600160a01b0319166001600160a01b0392909216919091179055565b6000546001600160a01b03163314611433576040805162461bcd60e51b815260206004820152601160248201527011549497d050d0d154d4d7d11153925151607a1b604482015290519081900360640190fd5b612b0d8161319f565b6001600160a01b0316336001600160a01b031614610f03576040805162461bcd60e51b815260206004820152601160248201527011549497d050d0d154d4d7d11153925151607a1b604482015290519081900360640190fd5b6000612b7183613649565b15612b8757506001600160a01b03811631611181565b612b9083613c93565b6001600160a01b03166370a08231836040518263ffffffff1660e01b815260040180826001600160a01b0316815260200191505060206040518083038186803b158015612bdc57600080fd5b505afa158015612bf0573d6000803e3d6000fd5b505050506040513d6020811015612c0657600080fd5b50519392505050565b80612c1957612c81565b612c2283613649565b15612c63576040516001600160a01b0383169082156108fc029083906000818181858888f19350505050158015612c5d573d6000803e3d6000fd5b50612c81565b612c818282612c7186613c93565b6001600160a01b03169190613c96565b505050565b6001600160a01b03811660008181526008602052604090205490612cb5908290612cb09030612b66565b613ce8565b5050565b600061118160055483613d6e565b600080612cd3836130d5565b600080612ce26001600261321d565b915091506000806000612cf58585613da0565b92509250925081850394508084039350612d1360016002878761375b565b612d4283836007600081548110612d2657fe5b6000918252602090912001546001600160a01b03169190612c0f565b612d5583826007600181548110612d2657fe5b509294509092505050915091565b612d6b6148f5565b60006008600084600081518110612d7e57fe5b60200260200101516001600160a01b03166001600160a01b0316815260200190815260200160002054905060006008600085600181518110612dbc57fe5b60200260200101516001600160a01b03166001600160a01b03168152602001908152602001600020549050600080612df4848461321d565b91509150600080612e058484613da0565b6040805180820190915291909603815294909303602085015250919695505050505050565b604080516002808252606080830184529283929190602083019080368337019050509050612e61848460005b602002015187613eb4565b81600081518110612e6e57fe5b6020908102919091010152612e8584846001612e56565b81600181518110612e9257fe5b6020908102919091010152949350505050565b600080612eb183613fb3565b90506000612ebe84612fda565b90506000612ecb85612fe9565b90506000612ed7613fb9565b90506000612ee58286613982565b905080612ef95786955050505050506111ae565b600080612f04611706565b9150915061025883101580612f17575086155b15612f4b57612f2e81836001600160701b03613fbd565b92509050612f3d848284614005565b9750505050505050506111ae565b6000612f578683614050565b90506000612f658885614050565b90506000612f8b612f768488614050565b612f85846102588a9003614050565b906136c0565b90506000612fa5610258612f9f8b89614050565b90614050565b9050612fb982826001600160701b03613fbd565b9092509050612fc9888383614005565b9d9c50505050505050505050505050565b60701c6001600160701b031690565b6001600160701b031690565b6000612fff6148f5565b600061302e858260200201518760018151811061301857fe5b602002602001015161405090919063ffffffff16565b61304686600160200201518860008151811061301857fe5b10613052576001613055565b60005b60ff169050600061308a8587846002811061306c57fe5b602002015189858151811061307d57fe5b60200260200101516137df565b90506130946148f5565b60408051808201909152806130b2888a60005b602002015186613895565b81526020016130c3888a60016130a7565b90529199919850909650505050505050565b600060076000815481106130e557fe5b6000918252602082200154600780546001600160a01b03909216935090600190811061310d57fe5b60009182526020822001546001600160a01b039081169250613130908416613649565b61313b57600061313d565b835b6131506001600160a01b03851630612b66565b0390506000613167836001600160a01b0316613649565b613172576000613174565b845b6131876001600160a01b03851630612b66565b03905061319860016002848461375b565b5050505050565b60025460408051632ecd14d360e21b81526004810184905290516000926001600160a01b03169163bb34534c916024808301926020929190829003018186803b1580156131eb57600080fd5b505afa1580156131ff573d6000803e3d6000fd5b505050506040513d602081101561321557600080fd5b505192915050565b6000808360011480156132305750826002145b8061324657508360021480156132465750826001145b61328e576040805162461bcd60e51b81526020600482015260146024820152734552525f494e56414c49445f524553455256455360601b604482015290519081900360640190fd5b61329b60055485856140a9565b915091509250929050565b6132ae611271565b15611433576040805162461bcd60e51b815260206004820152600a6024820152694552525f41435449564560b01b604482015290519081900360640190fd5b6001600160a01b0381161580159061330e57506001600160a01b0381163014155b610f03576040805162461bcd60e51b815260206004820152601c60248201527f4552525f494e56414c49445f45585445524e414c5f4144445245535300000000604482015290519081900360640190fd5b63ffffffff81166207a12014610f03576040805162461bcd60e51b815260206004820152601a60248201527f4552525f494e56414c49445f524553455256455f574549474854000000000000604482015290519081900360640190fd5b6133c4611271565b611433576040805162461bcd60e51b815260206004820152600c60248201526b4552525f494e41435449564560a01b604482015290519081900360640190fd5b600061340f836140c0565b801561341b5750600082115b61345e576040805162461bcd60e51b815260206004820152600f60248201526e11549497d6915493d7d05353d55395608a1b604482015290519081900360640190fd5b6000600860008660008151811061347157fe5b60200260200101516001600160a01b03166001600160a01b03168152602001908152602001600020549050600060086000876001815181106134af57fe5b60200260200101516001600160a01b03166001600160a01b031681526020019081526020016000205490508160021480156134ea5750806001145b156135e6576000866000815181106134fe57fe5b602002602001015190508660018151811061351557fe5b60200260200101518760008151811061352a57fe5b60200260200101906001600160a01b031690816001600160a01b031681525050808760018151811061355857fe5b60200260200101906001600160a01b031690816001600160a01b03168152505060008660008151811061358757fe5b602002602001015190508660018151811061359e57fe5b6020026020010151876000815181106135b357fe5b60200260200101818152505080876001815181106135cd57fe5b60200260200101818152505060019450505050506120e6565b8160011480156135f65750806002145b61363d576040805162461bcd60e51b81526020600482015260136024820152724552525f494e56414c49445f5245534552564560681b604482015290519081900360640190fd5b50600095945050505050565b6001600160a01b03811673eeeeeeeeeeeeeeeeeeeeeeeeeeeeeeeeeeeeeeee14919050565b80516000908190815b818110156136a75761369b85828151811061368e57fe5b60200260200101516140ff565b90920191600101613677565b5060016136b48383614121565b03600a0a949350505050565b6000828201838110156120e6576040805162461bcd60e51b815260206004820152601b60248201527f536166654d6174683a206164646974696f6e206f766572666c6f770000000000604482015290519081900360640190fd5b80158061372b575061372b84613649565b1561373557613755565b61375583838361374488613c93565b6001600160a01b0316929190614139565b50505050565b6001600160801b03821115801561377957506001600160801b038111155b6137ca576040805162461bcd60e51b815260206004820152601c60248201527f4552525f524553455256455f42414c414e43455f4f564552464c4f5700000000604482015290519081900360640190fd5b6137d682858386614193565b60055550505050565b600080841161382a576040805162461bcd60e51b81526020600482015260126024820152714552525f494e56414c49445f535550504c5960701b604482015290519081900360640190fd5b6000831161386d576040805162461bcd60e51b815260206004820152601b60248201526000805160206149c5833981519152604482015290519081900360640190fd5b8161387a575060006120e6565b826138858386614050565b8161388c57fe5b04949350505050565b60008084116138e0576040805162461bcd60e51b81526020600482015260126024820152714552525f494e56414c49445f535550504c5960701b604482015290519081900360640190fd5b60008311613923576040805162461bcd60e51b815260206004820152601b60248201526000805160206149c5833981519152604482015290519081900360640190fd5b81613930575060006120e6565b83600161393d8486614050565b038161394557fe5b0460010190509392505050565b60008060006139628686866141b3565b9050600061396f82614217565b9182900399919850909650505050505050565b6000828211156139d9576040805162461bcd60e51b815260206004820152601e60248201527f536166654d6174683a207375627472616374696f6e206f766572666c6f770000604482015290519081900360640190fd5b50900390565b6009546000906111819063ffffffff600160c01b9091048116620f4240819003821691613a0e91869161405016565b9061424c565b6000808411613a58576040805162461bcd60e51b815260206004820152601b60248201526000805160206149c5833981519152604482015290519081900360640190fd5b828210613aa1576040805162461bcd60e51b815260206004820152601260248201527111549497d253959053125117d05353d5539560721b604482015290519081900360640190fd5b81613aae575060006120e6565b818303600161393d8685614050565b6000613ac76142ab565b6001600160a01b038087166000908152600860205260408082205492881682528120549080613af6848461321d565b91509150600080613b0a8c8c86868e613952565b915091508160001415613b5d576040805162461bcd60e51b815260206004820152601660248201527511549497d6915493d7d5105491d15517d05353d5539560521b604482015290519081900360640190fd5b828210613b6657fe5b6000613b7b6001600160a01b038e1630612b66565b9050613b8f8d6001600160a01b0316613649565b15613be7578a3414613be2576040805162461bcd60e51b815260206004820152601760248201527608aa4a4be8aa890be829a9eaa9ca8be9a92a69a82a8869604b1b604482015290519081900360640190fd5b613c44565b34158015613bfe57508a613bfb8287613982565b10155b613c44576040805162461bcd60e51b815260206004820152601260248201527111549497d253959053125117d05353d5539560721b604482015290519081900360640190fd5b613c5287878386880361375b565b613c666001600160a01b038d168a85612c0f565b613c748d8d8c8e87876142c8565b613c828d8d83868803614324565b50909b9a5050505050505050505050565b90565b604080516001600160a01b038416602482015260448082018490528251808303909101815260649091019091526020810180516001600160e01b031663a9059cbb60e01b179052612c8190849061445d565b6001600160801b03811115613d44576040805162461bcd60e51b815260206004820152601c60248201527f4552525f524553455256455f42414c414e43455f4f564552464c4f5700000000604482015290519081900360640190fd5b6000613d5560055484600303613d6e565b9050613d6682848386600303614193565b600555505050565b60008160011480613d7f5750816002145b613d8557fe5b50608060001982010282901c6001600160801b031692915050565b600080600080613db160065461450e565b90506000613dc086880261450e565b9050808210613ddb5760008060009450945094505050613ead565b600080613df96e4e6574776f726b53657474696e677360881b61319f565b6001600160a01b031663e33b5f5f6040518163ffffffff1660e01b8152600401604080518083038186803b158015613e3057600080fd5b505afa158015613e44573d6000803e3d6000fd5b505050506040513d6040811015613e5a57600080fd5b508051602090910151909250905063ffffffff8082168585030290620f42408502908490613e92908390613a0e908f90879061405016565b613ea083613a0e8e87614050565b9850985098505050505050505b9250925092565b6000808411613eff576040805162461bcd60e51b81526020600482015260126024820152714552525f494e56414c49445f535550504c5960701b604482015290519081900360640190fd5b60008311613f42576040805162461bcd60e51b815260206004820152601b60248201526000805160206149c5833981519152604482015290519081900360640190fd5b83821115613f8c576040805162461bcd60e51b815260206004820152601260248201527111549497d253959053125117d05353d5539560721b604482015290519081900360640190fd5b81613f99575060006120e6565b83821415613fa85750816120e6565b836138858385614050565b60e01c90565b4290565b600080848484821180613fcf57508481115b15613fe557613fdf828287614527565b90925090505b808214613ff65790925090506111dd565b50600196879650945050505050565b600063ffffffff841115801561402257506001600160701b038311155b801561403557506001600160701b038211155b61403b57fe5b5060e083901b607083901b1781179392505050565b60008261405f57506000611181565b8282028284828161406c57fe5b04146120e65760405162461bcd60e51b815260040180806020018281038252602181526020018061497a6021913960400191505060405180910390fd5b6000806140b68585613d6e565b6111d88685613d6e565b600080826000815181106140d057fe5b602002602001015111801561118157506000826001815181106140ef57fe5b6020026020010151119050919050565b600080825b801561411a5760019190910190600a9004614104565b5092915050565b6000816002810484018161413157fe5b049392505050565b604080516001600160a01b0380861660248301528416604482015260648082018490528251808303909101815260849091019091526020810180516001600160e01b03166323b872dd60e01b17905261375590859061445d565b600061419f8383614560565b6141a98686614560565b1795945050505050565b600080841180156141c45750600083115b614203576040805162461bcd60e51b815260206004820152601b60248201526000805160206149c5833981519152604482015290519081900360640190fd5b61420d84836136c0565b6138858484614050565b600954600090620f42409061423e908490600160c01b900463ffffffff9081169061405016565b8161424557fe5b0492915050565b60008082116142a2576040805162461bcd60e51b815260206004820152601a60248201527f536166654d6174683a206469766973696f6e206279207a65726f000000000000604482015290519081900360640190fd5b81838161413157fe5b600a5460006142b982612ea5565b9050808214612cb557600a5550565b604080518481526020810184905280820183905290516001600160a01b038087169288821692918a16917f276856b36cbc45526a0ba64f44611557a2a8b68662c5388e9fe6d72e86e1c8cb9181900360600190a4505050505050565b600954604080516318160ddd60e01b815290516001600160a01b039092169160009183916318160ddd91600480820192602092909190829003018186803b15801561436e57600080fd5b505afa158015614382573d6000803e3d6000fd5b505050506040513d602081101561439857600080fd5b5051604080518581526020810187905281519293506001600160a01b0380891693908a169260008051602061495a833981519152928290030190a3856001600160a01b0316826001600160a01b031660008051602061495a8339815191528684604051808381526020018281526020019250505060405180910390a3846001600160a01b0316826001600160a01b031660008051602061495a8339815191528584604051808381526020018281526020019250505060405180910390a3505050505050565b60606144b2826040518060400160405280602081526020017f5361666545524332303a206c6f772d6c6576656c2063616c6c206661696c6564815250856001600160a01b03166145959092919063ffffffff16565b805190915015612c81578080602001905160208110156144d157600080fd5b5051612c815760405162461bcd60e51b815260040180806020018281038252602a81526020018061499b602a913960400191505060405180910390fd5b600080821161451e576000611181565b611181826145ac565b6000808385116145455761453c8585856145fb565b915091506111dd565b6000806145538688876145fb565b9890975095505050505050565b60006001600160801b038311158015614583575081600114806145835750816002145b61458957fe5b50600019016080021b90565b60606145a484846000856146bf565b949350505050565b600080600283046001019050600060028285816145c557fe5b048301816145cf57fe5b0490505b8082111561411a5780915060028285816145e957fe5b048301816145f357fe5b0490506145d3565b6000806000836000198161460b57fe5b0490508086111561464457600081600101878161462457fe5b04600101905080878161463357fe5b04965080868161463f57fe5b049550505b8486146146af57858402600061465a888861481b565b905087811061468057600061466f838361481f565b9550505083850392506111dd915050565b600288880304870382101561469e57600086945094505050506111dd565b6001808703945094505050506111dd565b5050600290910493849350915050565b6060824710156147005760405162461bcd60e51b81526004018080602001828103825260268152602001806149346026913960400191505060405180910390fd5b6147098561484b565b61475a576040805162461bcd60e51b815260206004820152601d60248201527f416464726573733a2063616c6c20746f206e6f6e2d636f6e7472616374000000604482015290519081900360640190fd5b60006060866001600160a01b031685876040518082805190602001908083835b602083106147995780518252601f19909201916020918201910161477a565b6001836020036101000a03801982511681845116808217855250505050505090500191505060006040518083038185875af1925050503d80600081146147fb576040519150601f19603f3d011682016040523d82523d6000602084013e614800565b606091505b5091509150614810828286614851565b979650505050505050565b0190565b600060028204820382848161483057fe5b068161483857fe5b0482848161484257fe5b04019392505050565b3b151590565b606083156148605750816120e6565b8251156148705782518084602001fd5b8160405162461bcd60e51b81526004018080602001828103825283818151815260200191508051906020019080838360005b838110156148ba5781810151838201526020016148a2565b50505050905090810190601f1680156148e75780820380516001836020036101000a031916815260200191505b509250505060405180910390fd5b6040518060400160405280600290602082028036833750919291505056fe5265656e7472616e637947756172643a207265656e7472616e742063616c6c00416464726573733a20696e73756666696369656e742062616c616e636520666f722063616c6c77f29993cf2c084e726f7e802da0719d6a0ade3e204badc7a3ffd57ecb768c24536166654d6174683a206d756c7469706c69636174696f6e206f766572666c6f775361666545524332303a204552433230206f7065726174696f6e20646964206e6f7420737563636565644552525f494e56414c49445f524553455256455f42414c414e43450000000000a164736f6c634300060c000a",
  "linkReferences": {},
  "deployedLinkReferences": {}
}