{
  "_format": "hh-sol-artifact-1",
  "contractName": "TestContractRegistryClient",
  "sourceName": "contracts/helpers/TestContractRegistryClient.sol",
  "abi": [
    {
      "inputs": [
        {
          "internalType": "contract IContractRegistry",
          "name": "registry",
          "type": "address"
        }
      ],
      "stateMutability": "nonpayable",
      "type": "constructor"
    },
    {
      "anonymous": false,
      "inputs": [
        {
          "indexed": true,
          "internalType": "address",
          "name": "prevOwner",
          "type": "address"
        },
        {
          "indexed": true,
          "internalType": "address",
          "name": "newOwner",
          "type": "address"
        }
      ],
      "name": "OwnerUpdate",
      "type": "event"
    },
    {
      "inputs": [],
      "name": "acceptOwnership",
      "outputs": [],
      "stateMutability": "nonpayable",
      "type": "function"
    },
    {
      "inputs": [],
      "name": "newOwner",
      "outputs": [
        {
          "internalType": "address",
          "name": "",
          "type": "address"
        }
      ],
      "stateMutability": "view",
      "type": "function"
    },
    {
      "inputs": [],
      "name": "onlyOwnerCanUpdateRegistry",
      "outputs": [
        {
          "internalType": "bool",
          "name": "",
          "type": "bool"
        }
      ],
      "stateMutability": "view",
      "type": "function"
    },
    {
      "inputs": [],
      "name": "owner",
      "outputs": [
        {
          "internalType": "address",
          "name": "",
          "type": "address"
        }
      ],
      "stateMutability": "view",
      "type": "function"
    },
    {
      "inputs": [],
      "name": "prevRegistry",
      "outputs": [
        {
          "internalType": "contract IContractRegistry",
          "name": "",
          "type": "address"
        }
      ],
      "stateMutability": "view",
      "type": "function"
    },
    {
      "inputs": [],
      "name": "registry",
      "outputs": [
        {
          "internalType": "contract IContractRegistry",
          "name": "",
          "type": "address"
        }
      ],
      "stateMutability": "view",
      "type": "function"
    },
    {
      "inputs": [],
      "name": "restoreRegistry",
      "outputs": [],
      "stateMutability": "nonpayable",
      "type": "function"
    },
    {
      "inputs": [
        {
          "internalType": "bool",
          "name": "restrictOwnerOnly",
          "type": "bool"
        }
      ],
      "name": "restrictRegistryUpdate",
      "outputs": [],
      "stateMutability": "nonpayable",
      "type": "function"
    },
    {
      "inputs": [
        {
          "internalType": "address",
          "name": "newOwner",
          "type": "address"
        }
      ],
      "name": "transferOwnership",
      "outputs": [],
      "stateMutability": "nonpayable",
      "type": "function"
    },
    {
      "inputs": [],
      "name": "updateRegistry",
      "outputs": [],
      "stateMutability": "nonpayable",
      "type": "function"
    }
  ],
  "bytecode": "0x608060405234801561001057600080fd5b506040516107133803806107138339818101604052602081101561003357600080fd5b5051600080546001600160a01b03191633179055808061005281610083565b50600280546001600160a01b039092166001600160a01b0319928316811790915560038054909216179055506100e1565b6001600160a01b0381166100de576040805162461bcd60e51b815260206004820152601360248201527f4552525f494e56414c49445f4144445245535300000000000000000000000000604482015290519081900360640190fd5b50565b610623806100f06000396000f3fe608060405234801561001057600080fd5b506004361061009e5760003560e01c80637b103999116100665780637b103999146101145780638da5cb5b1461011c578063b4a176d314610124578063d4ee1d901461012c578063f2fde38b146101345761009e565b8063024c7ec7146100a35780632fe8a6ad146100c457806349d10b64146100e057806361cd756e146100e857806379ba50971461010c575b600080fd5b6100c2600480360360208110156100b957600080fd5b5035151561015a565b005b6100cc610180565b604080519115158252519081900360200190f35b6100c2610190565b6100f06103a6565b604080516001600160a01b039092168252519081900360200190f35b6100c26103b5565b6100f061046c565b6100f061047b565b6100c261048a565b6100f06104b6565b6100c26004803603602081101561014a57600080fd5b50356001600160a01b03166104c5565b610162610543565b60038054911515600160a01b0260ff60a01b19909216919091179055565b600354600160a01b900460ff1690565b61019861047b565b6001600160a01b0316336001600160a01b031614806101c15750600354600160a01b900460ff16155b610206576040805162461bcd60e51b815260206004820152601160248201527011549497d050d0d154d4d7d11153925151607a1b604482015290519081900360640190fd5b60006102246f436f6e7472616374526567697374727960801b610598565b6002549091506001600160a01b0380831691161480159061024d57506001600160a01b03811615155b610295576040805162461bcd60e51b81526020600482015260146024820152734552525f494e56414c49445f524547495354525960601b604482015290519081900360640190fd5b60006001600160a01b0316816001600160a01b031663bb34534c6f436f6e7472616374526567697374727960801b6040518263ffffffff1660e01b81526004018082815260200191505060206040518083038186803b1580156102f757600080fd5b505afa15801561030b573d6000803e3d6000fd5b505050506040513d602081101561032157600080fd5b50516001600160a01b03161415610376576040805162461bcd60e51b81526020600482015260146024820152734552525f494e56414c49445f524547495354525960601b604482015290519081900360640190fd5b60028054600380546001600160a01b038084166001600160a01b0319928316179092559091169216919091179055565b6003546001600160a01b031690565b6001546001600160a01b03163314610408576040805162461bcd60e51b815260206004820152601160248201527011549497d050d0d154d4d7d11153925151607a1b604482015290519081900360640190fd5b600154600080546040516001600160a01b0393841693909116917f343765429aea5a34b3ff6a3785a98a5abb2597aca87bfbb58632c173d585373a91a360018054600080546001600160a01b03199081166001600160a01b03841617909155169055565b6002546001600160a01b031690565b6000546001600160a01b031690565b610492610543565b600354600280546001600160a01b0319166001600160a01b03909216919091179055565b6001546001600160a01b031690565b6104cd610543565b6000546001600160a01b0382811691161415610521576040805162461bcd60e51b815260206004820152600e60248201526d22a9292fa9a0a6a2afa7aba722a960911b604482015290519081900360640190fd5b600180546001600160a01b0319166001600160a01b0392909216919091179055565b6000546001600160a01b03163314610596576040805162461bcd60e51b815260206004820152601160248201527011549497d050d0d154d4d7d11153925151607a1b604482015290519081900360640190fd5b565b60025460408051632ecd14d360e21b81526004810184905290516000926001600160a01b03169163bb34534c916024808301926020929190829003018186803b1580156105e457600080fd5b505afa1580156105f8573d6000803e3d6000fd5b505050506040513d602081101561060e57600080fd5b50519291505056fea164736f6c634300060c000a",
  "linkReferences": {},
  "deployedLinkReferences": {}
}