{
  "_format": "hh-sol-artifact-1",
  "contractName": "TestLiquidityProvisionEventsSubscriber",
  "sourceName": "contracts/helpers/TestLiquidityProvisionEventsSubscriber.sol",
  "abi": [
    {
      "inputs": [],
      "name": "eventCount",
      "outputs": [
        {
          "internalType": "uint256",
          "name": "",
          "type": "uint256"
        }
      ],
      "stateMutability": "view",
      "type": "function"
    },
    {
      "inputs": [
        {
          "internalType": "uint256",
          "name": "id",
          "type": "uint256"
        }
      ],
      "name": "events",
      "outputs": [
        {
          "internalType": "uint256",
          "name": "",
          "type": "uint256"
        },
        {
          "internalType": "address",
          "name": "",
          "type": "address"
        },
        {
          "internalType": "contract IConverterAnchor",
          "name": "",
          "type": "address"
        },
        {
          "internalType": "contract IReserveToken",
          "name": "",
          "type": "address"
        },
        {
          "internalType": "uint256",
          "name": "",
          "type": "uint256"
        },
        {
          "internalType": "uint256",
          "name": "",
          "type": "uint256"
        },
        {
          "internalType": "bool",
          "name": "",
          "type": "bool"
        }
      ],
      "stateMutability": "view",
      "type": "function"
    },
    {
      "inputs": [
        {
          "internalType": "address",
          "name": "provider",
          "type": "address"
        },
        {
          "internalType": "contract IConverterAnchor",
          "name": "poolAnchor",
          "type": "address"
        },
        {
          "internalType": "contract IReserveToken",
          "name": "reserveToken",
          "type": "address"
        },
        {
          "internalType": "uint256",
          "name": "poolAmount",
          "type": "uint256"
        },
        {
          "internalType": "uint256",
          "name": "reserveAmount",
          "type": "uint256"
        }
      ],
      "name": "onAddingLiquidity",
      "outputs": [],
      "stateMutability": "nonpayable",
      "type": "function"
    },
    {
      "inputs": [
        {
          "internalType": "uint256",
          "name": "id",
          "type": "uint256"
        },
        {
          "internalType": "address",
          "name": "provider",
          "type": "address"
        },
        {
          "internalType": "contract IConverterAnchor",
          "name": "poolAnchor",
          "type": "address"
        },
        {
          "internalType": "contract IReserveToken",
          "name": "reserveToken",
          "type": "address"
        },
        {
          "internalType": "uint256",
          "name": "poolAmount",
          "type": "uint256"
        },
        {
          "internalType": "uint256",
          "name": "reserveAmount",
          "type": "uint256"
        }
      ],
      "name": "onRemovingLiquidity",
      "outputs": [],
      "stateMutability": "nonpayable",
      "type": "function"
    },
    {
      "inputs": [],
      "name": "reset",
      "outputs": [],
      "stateMutability": "nonpayable",
      "type": "function"
    }
  ],
  "bytecode": "0x608060405234801561001057600080fd5b50610646806100206000396000f3fe608060405234801561001057600080fd5b50600436106100575760003560e01c80630b7914301461005c578063139c22ea146100c057806371be2e4a14610104578063b8128fe61461011e578063d826f88f14610166575b600080fd5b6100796004803603602081101561007257600080fd5b503561016e565b604080519788526001600160a01b03968716602089015294861687860152929094166060860152608085015260a084019290925290151560c0830152519081900360e00190f35b610102600480360360a08110156100d657600080fd5b506001600160a01b03813581169160208101358216916040820135169060608101359060800135610224565b005b61010c6103c8565b60408051918252519081900360200190f35b610102600480360360c081101561013457600080fd5b508035906001600160a01b03602082013581169160408101358216916060820135169060808101359060a001356103ce565b610102610570565b600080600080600080600061018161057d565b6000898154811061018e57fe5b60009182526020918290206040805160e081018252600793909302909101805480845260018201546001600160a01b039081169585018690526002830154811693850184905260038301541660608501819052600483015460808601819052600584015460a0870181905260069094015460ff16151560c0909601869052919f959e50929c50919a509098509650945092505050565b6040805160e08101825260008082526001600160a01b0397881660208301908152968816928201928352948716606082019081526080820194855260a08201938452600160c0830181815287549182018855968052915160079092027f290decd9548b62a8d60345a988386fc84ba6bc95484008f6362f93160ef3e56381019290925595517f290decd9548b62a8d60345a988386fc84ba6bc95484008f6362f93160ef3e564820180549189166001600160a01b031992831617905591517f290decd9548b62a8d60345a988386fc84ba6bc95484008f6362f93160ef3e5658201805491891691841691909117905594517f290decd9548b62a8d60345a988386fc84ba6bc95484008f6362f93160ef3e5668601805491909716911617909455517f290decd9548b62a8d60345a988386fc84ba6bc95484008f6362f93160ef3e56783015591517f290decd9548b62a8d60345a988386fc84ba6bc95484008f6362f93160ef3e56882015590517f290decd9548b62a8d60345a988386fc84ba6bc95484008f6362f93160ef3e569909101805491151560ff19909216919091179055565b60005490565b6040805160e0810182529687526001600160a01b0395861660208801908152948616908701908152928516606087019081526080870192835260a08701918252600060c08801818152815460018101835591805297517f290decd9548b62a8d60345a988386fc84ba6bc95484008f6362f93160ef3e56360079092029182015594517f290decd9548b62a8d60345a988386fc84ba6bc95484008f6362f93160ef3e564860180546001600160a01b031990811692891692909217905593517f290decd9548b62a8d60345a988386fc84ba6bc95484008f6362f93160ef3e565860180548616918816919091179055517f290decd9548b62a8d60345a988386fc84ba6bc95484008f6362f93160ef3e56685018054909416951694909417909155517f290decd9548b62a8d60345a988386fc84ba6bc95484008f6362f93160ef3e56782015590517f290decd9548b62a8d60345a988386fc84ba6bc95484008f6362f93160ef3e56882015590517f290decd9548b62a8d60345a988386fc84ba6bc95484008f6362f93160ef3e569909101805460ff1916911515919091179055565b61057b6000806105b9565b565b6040805160e081018252600080825260208201819052918101829052606081018290526080810182905260a0810182905260c081019190915290565b50805460008255600702906000526020600020908101906105da91906105dd565b50565b5b808211156106355760008082556001820180546001600160a01b031990811690915560028301805482169055600383018054909116905560048201819055600582015560068101805460ff191690556007016105de565b509056fea164736f6c634300060c000a",
  "linkReferences": {},
  "deployedLinkReferences": {}
}