{
  "_format": "hh-sol-artifact-1",
  "contractName": "BancorX",
  "sourceName": "contracts/bancorx/BancorX.sol",
  "abi": [
    {
      "inputs": [
        {
          "internalType": "uint256",
          "name": "initialMaxLockLimit",
          "type": "uint256"
        },
        {
          "internalType": "uint256",
          "name": "initialMaxReleaseLimit",
          "type": "uint256"
        },
        {
          "internalType": "uint256",
          "name": "initialMinLimit",
          "type": "uint256"
        },
        {
          "internalType": "uint256",
          "name": "initialLimitIncPerBlock",
          "type": "uint256"
        },
        {
          "internalType": "uint8",
          "name": "initialMinRequiredReports",
          "type": "uint8"
        },
        {
          "internalType": "contract IContractRegistry",
          "name": "registry",
          "type": "address"
        },
        {
          "internalType": "contract IERC20",
          "name": "initialToken",
          "type": "address"
        }
      ],
      "stateMutability": "nonpayable",
      "type": "constructor"
    },
    {
      "anonymous": false,
      "inputs": [
        {
          "indexed": true,
          "internalType": "address",
          "name": "prevOwner",
          "type": "address"
        },
        {
          "indexed": true,
          "internalType": "address",
          "name": "newOwner",
          "type": "address"
        }
      ],
      "name": "OwnerUpdate",
      "type": "event"
    },
    {
      "anonymous": false,
      "inputs": [
        {
          "indexed": true,
          "internalType": "address",
          "name": "source",
          "type": "address"
        },
        {
          "indexed": false,
          "internalType": "uint256",
          "name": "amount",
          "type": "uint256"
        }
      ],
      "name": "TokensLock",
      "type": "event"
    },
    {
      "anonymous": false,
      "inputs": [
        {
          "indexed": true,
          "internalType": "address",
          "name": "target",
          "type": "address"
        },
        {
          "indexed": false,
          "internalType": "uint256",
          "name": "amount",
          "type": "uint256"
        }
      ],
      "name": "TokensRelease",
      "type": "event"
    },
    {
      "anonymous": false,
      "inputs": [
        {
          "indexed": true,
          "internalType": "address",
          "name": "reporter",
          "type": "address"
        },
        {
          "indexed": false,
          "internalType": "bytes32",
          "name": "fromBlockchain",
          "type": "bytes32"
        },
        {
          "indexed": false,
          "internalType": "uint256",
          "name": "txId",
          "type": "uint256"
        },
        {
          "indexed": false,
          "internalType": "address",
          "name": "to",
          "type": "address"
        },
        {
          "indexed": false,
          "internalType": "uint256",
          "name": "amount",
          "type": "uint256"
        },
        {
          "indexed": false,
          "internalType": "uint256",
          "name": "xTransferId",
          "type": "uint256"
        }
      ],
      "name": "TxReport",
      "type": "event"
    },
    {
      "anonymous": false,
      "inputs": [
        {
          "indexed": true,
          "internalType": "address",
          "name": "from",
          "type": "address"
        },
        {
          "indexed": false,
          "internalType": "bytes32",
          "name": "toBlockchain",
          "type": "bytes32"
        },
        {
          "indexed": true,
          "internalType": "bytes32",
          "name": "to",
          "type": "bytes32"
        },
        {
          "indexed": false,
          "internalType": "uint256",
          "name": "amount",
          "type": "uint256"
        },
        {
          "indexed": false,
          "internalType": "uint256",
          "name": "id",
          "type": "uint256"
        }
      ],
      "name": "XTransfer",
      "type": "event"
    },
    {
      "anonymous": false,
      "inputs": [
        {
          "indexed": false,
          "internalType": "address",
          "name": "to",
          "type": "address"
        },
        {
          "indexed": false,
          "internalType": "uint256",
          "name": "id",
          "type": "uint256"
        }
      ],
      "name": "XTransferComplete",
      "type": "event"
    },
    {
      "inputs": [],
      "name": "VERSION",
      "outputs": [
        {
          "internalType": "uint16",
          "name": "",
          "type": "uint16"
        }
      ],
      "stateMutability": "view",
      "type": "function"
    },
    {
      "inputs": [],
      "name": "acceptOwnership",
      "outputs": [],
      "stateMutability": "nonpayable",
      "type": "function"
    },
    {
      "inputs": [
        {
          "internalType": "bool",
          "name": "enable",
          "type": "bool"
        }
      ],
      "name": "enableReporting",
      "outputs": [],
      "stateMutability": "nonpayable",
      "type": "function"
    },
    {
      "inputs": [
        {
          "internalType": "bool",
          "name": "enable",
          "type": "bool"
        }
      ],
      "name": "enableXTransfers",
      "outputs": [],
      "stateMutability": "nonpayable",
      "type": "function"
    },
    {
      "inputs": [],
      "name": "getCurrentLockLimit",
      "outputs": [
        {
          "internalType": "uint256",
          "name": "",
          "type": "uint256"
        }
      ],
      "stateMutability": "view",
      "type": "function"
    },
    {
      "inputs": [],
      "name": "getCurrentReleaseLimit",
      "outputs": [
        {
          "internalType": "uint256",
          "name": "",
          "type": "uint256"
        }
      ],
      "stateMutability": "view",
      "type": "function"
    },
    {
      "inputs": [
        {
          "internalType": "uint256",
          "name": "xTransferId",
          "type": "uint256"
        },
        {
          "internalType": "address",
          "name": "receiver",
          "type": "address"
        }
      ],
      "name": "getXTransferAmount",
      "outputs": [
        {
          "internalType": "uint256",
          "name": "",
          "type": "uint256"
        }
      ],
      "stateMutability": "view",
      "type": "function"
    },
    {
      "inputs": [],
      "name": "limitIncPerBlock",
      "outputs": [
        {
          "internalType": "uint256",
          "name": "",
          "type": "uint256"
        }
      ],
      "stateMutability": "view",
      "type": "function"
    },
    {
      "inputs": [],
      "name": "maxLockLimit",
      "outputs": [
        {
          "internalType": "uint256",
          "name": "",
          "type": "uint256"
        }
      ],
      "stateMutability": "view",
      "type": "function"
    },
    {
      "inputs": [],
      "name": "maxReleaseLimit",
      "outputs": [
        {
          "internalType": "uint256",
          "name": "",
          "type": "uint256"
        }
      ],
      "stateMutability": "view",
      "type": "function"
    },
    {
      "inputs": [],
      "name": "minLimit",
      "outputs": [
        {
          "internalType": "uint256",
          "name": "",
          "type": "uint256"
        }
      ],
      "stateMutability": "view",
      "type": "function"
    },
    {
      "inputs": [],
      "name": "minRequiredReports",
      "outputs": [
        {
          "internalType": "uint256",
          "name": "",
          "type": "uint256"
        }
      ],
      "stateMutability": "view",
      "type": "function"
    },
    {
      "inputs": [],
      "name": "newOwner",
      "outputs": [
        {
          "internalType": "address",
          "name": "",
          "type": "address"
        }
      ],
      "stateMutability": "view",
      "type": "function"
    },
    {
      "inputs": [],
      "name": "onlyOwnerCanUpdateRegistry",
      "outputs": [
        {
          "internalType": "bool",
          "name": "",
          "type": "bool"
        }
      ],
      "stateMutability": "view",
      "type": "function"
    },
    {
      "inputs": [],
      "name": "owner",
      "outputs": [
        {
          "internalType": "address",
          "name": "",
          "type": "address"
        }
      ],
      "stateMutability": "view",
      "type": "function"
    },
    {
      "inputs": [],
      "name": "prevLockBlockNumber",
      "outputs": [
        {
          "internalType": "uint256",
          "name": "",
          "type": "uint256"
        }
      ],
      "stateMutability": "view",
      "type": "function"
    },
    {
      "inputs": [],
      "name": "prevLockLimit",
      "outputs": [
        {
          "internalType": "uint256",
          "name": "",
          "type": "uint256"
        }
      ],
      "stateMutability": "view",
      "type": "function"
    },
    {
      "inputs": [],
      "name": "prevRegistry",
      "outputs": [
        {
          "internalType": "contract IContractRegistry",
          "name": "",
          "type": "address"
        }
      ],
      "stateMutability": "view",
      "type": "function"
    },
    {
      "inputs": [],
      "name": "prevReleaseBlockNumber",
      "outputs": [
        {
          "internalType": "uint256",
          "name": "",
          "type": "uint256"
        }
      ],
      "stateMutability": "view",
      "type": "function"
    },
    {
      "inputs": [],
      "name": "prevReleaseLimit",
      "outputs": [
        {
          "internalType": "uint256",
          "name": "",
          "type": "uint256"
        }
      ],
      "stateMutability": "view",
      "type": "function"
    },
    {
      "inputs": [],
      "name": "registry",
      "outputs": [
        {
          "internalType": "contract IContractRegistry",
          "name": "",
          "type": "address"
        }
      ],
      "stateMutability": "view",
      "type": "function"
    },
    {
      "inputs": [
        {
          "internalType": "bytes32",
          "name": "fromBlockchain",
          "type": "bytes32"
        },
        {
          "internalType": "uint256",
          "name": "txId",
          "type": "uint256"
        },
        {
          "internalType": "address",
          "name": "to",
          "type": "address"
        },
        {
          "internalType": "uint256",
          "name": "amount",
          "type": "uint256"
        },
        {
          "internalType": "uint256",
          "name": "xTransferId",
          "type": "uint256"
        }
      ],
      "name": "reportTx",
      "outputs": [],
      "stateMutability": "nonpayable",
      "type": "function"
    },
    {
      "inputs": [
        {
          "internalType": "address",
          "name": "reporter",
          "type": "address"
        }
      ],
      "name": "reporters",
      "outputs": [
        {
          "internalType": "bool",
          "name": "",
          "type": "bool"
        }
      ],
      "stateMutability": "view",
      "type": "function"
    },
    {
      "inputs": [],
      "name": "reportingEnabled",
      "outputs": [
        {
          "internalType": "bool",
          "name": "",
          "type": "bool"
        }
      ],
      "stateMutability": "view",
      "type": "function"
    },
    {
      "inputs": [],
      "name": "restoreRegistry",
      "outputs": [],
      "stateMutability": "nonpayable",
      "type": "function"
    },
    {
      "inputs": [
        {
          "internalType": "bool",
          "name": "restrictOwnerOnly",
          "type": "bool"
        }
      ],
      "name": "restrictRegistryUpdate",
      "outputs": [],
      "stateMutability": "nonpayable",
      "type": "function"
    },
    {
      "inputs": [
        {
          "internalType": "uint256",
          "name": "newLimitIncPerBlock",
          "type": "uint256"
        }
      ],
      "name": "setLimitIncPerBlock",
      "outputs": [],
      "stateMutability": "nonpayable",
      "type": "function"
    },
    {
      "inputs": [
        {
          "internalType": "uint256",
          "name": "newMaxLockLimit",
          "type": "uint256"
        }
      ],
      "name": "setMaxLockLimit",
      "outputs": [],
      "stateMutability": "nonpayable",
      "type": "function"
    },
    {
      "inputs": [
        {
          "internalType": "uint256",
          "name": "newMaxReleaseLimit",
          "type": "uint256"
        }
      ],
      "name": "setMaxReleaseLimit",
      "outputs": [],
      "stateMutability": "nonpayable",
      "type": "function"
    },
    {
      "inputs": [
        {
          "internalType": "uint256",
          "name": "newMinLimit",
          "type": "uint256"
        }
      ],
      "name": "setMinLimit",
      "outputs": [],
      "stateMutability": "nonpayable",
      "type": "function"
    },
    {
      "inputs": [
        {
          "internalType": "uint8",
          "name": "newMinRequiredReports",
          "type": "uint8"
        }
      ],
      "name": "setMinRequiredReports",
      "outputs": [],
      "stateMutability": "nonpayable",
      "type": "function"
    },
    {
      "inputs": [
        {
          "internalType": "address",
          "name": "reporter",
          "type": "address"
        },
        {
          "internalType": "bool",
          "name": "active",
          "type": "bool"
        }
      ],
      "name": "setReporter",
      "outputs": [],
      "stateMutability": "nonpayable",
      "type": "function"
    },
    {
      "inputs": [],
      "name": "token",
      "outputs": [
        {
          "internalType": "contract IERC20",
          "name": "",
          "type": "address"
        }
      ],
      "stateMutability": "view",
      "type": "function"
    },
    {
      "inputs": [
        {
          "internalType": "uint256",
          "name": "txId",
          "type": "uint256"
        },
        {
          "internalType": "address",
          "name": "reporter",
          "type": "address"
        }
      ],
      "name": "transactionIds",
      "outputs": [
        {
          "internalType": "bool",
          "name": "",
          "type": "bool"
        }
      ],
      "stateMutability": "view",
      "type": "function"
    },
    {
      "inputs": [
        {
          "internalType": "uint256",
          "name": "xTransferID",
          "type": "uint256"
        }
      ],
      "name": "transactionIds",
      "outputs": [
        {
          "internalType": "uint256",
          "name": "",
          "type": "uint256"
        }
      ],
      "stateMutability": "view",
      "type": "function"
    },
    {
      "inputs": [
        {
          "internalType": "uint256",
          "name": "txId",
          "type": "uint256"
        }
      ],
      "name": "transactions",
      "outputs": [
        {
          "internalType": "uint256",
          "name": "",
          "type": "uint256"
        },
        {
          "internalType": "bytes32",
          "name": "",
          "type": "bytes32"
        },
        {
          "internalType": "address",
          "name": "",
          "type": "address"
        },
        {
          "internalType": "uint8",
          "name": "",
          "type": "uint8"
        },
        {
          "internalType": "bool",
          "name": "",
          "type": "bool"
        }
      ],
      "stateMutability": "view",
      "type": "function"
    },
    {
      "inputs": [
        {
          "internalType": "address",
          "name": "newOwner",
          "type": "address"
        }
      ],
      "name": "transferOwnership",
      "outputs": [],
      "stateMutability": "nonpayable",
      "type": "function"
    },
    {
      "inputs": [],
      "name": "updateRegistry",
      "outputs": [],
      "stateMutability": "nonpayable",
      "type": "function"
    },
    {
      "inputs": [
        {
          "internalType": "address[]",
          "name": "newReporters",
          "type": "address[]"
        }
      ],
      "name": "upgrade",
      "outputs": [],
      "stateMutability": "nonpayable",
      "type": "function"
    },
    {
      "inputs": [
        {
          "internalType": "contract IReserveToken",
          "name": "reserveToken",
          "type": "address"
        },
        {
          "internalType": "address payable",
          "name": "to",
          "type": "address"
        },
        {
          "internalType": "uint256",
          "name": "amount",
          "type": "uint256"
        }
      ],
      "name": "withdrawTokens",
      "outputs": [],
      "stateMutability": "nonpayable",
      "type": "function"
    },
    {
      "inputs": [
        {
          "internalType": "contract IReserveToken[]",
          "name": "reserveTokens",
          "type": "address[]"
        },
        {
          "internalType": "address payable",
          "name": "to",
          "type": "address"
        },
        {
          "internalType": "uint256[]",
          "name": "amounts",
          "type": "uint256[]"
        }
      ],
      "name": "withdrawTokensMultiple",
      "outputs": [],
      "stateMutability": "nonpayable",
      "type": "function"
    },
    {
      "inputs": [
        {
          "internalType": "bytes32",
          "name": "toBlockchain",
          "type": "bytes32"
        },
        {
          "internalType": "bytes32",
          "name": "to",
          "type": "bytes32"
        },
        {
          "internalType": "uint256",
          "name": "amount",
          "type": "uint256"
        },
        {
          "internalType": "uint256",
          "name": "id",
          "type": "uint256"
        }
      ],
      "name": "xTransfer",
      "outputs": [],
      "stateMutability": "nonpayable",
      "type": "function"
    },
    {
      "inputs": [
        {
          "internalType": "bytes32",
          "name": "toBlockchain",
          "type": "bytes32"
        },
        {
          "internalType": "bytes32",
          "name": "to",
          "type": "bytes32"
        },
        {
          "internalType": "uint256",
          "name": "amount",
          "type": "uint256"
        }
      ],
      "name": "xTransfer",
      "outputs": [],
      "stateMutability": "nonpayable",
      "type": "function"
    },
    {
      "inputs": [],
      "name": "xTransfersEnabled",
      "outputs": [
        {
          "internalType": "bool",
          "name": "",
          "type": "bool"
        }
      ],
      "stateMutability": "view",
      "type": "function"
    },
    {
      "stateMutability": "payable",
      "type": "receive"
    }
  ],
  "bytecode": "0x6080604052600c805460ff60b01b1960ff60a81b19909116600160a81b1716600160b01b1790553480156200003357600080fd5b50604051620025c9380380620025c9833981810160405260e08110156200005957600080fd5b508051602082015160408301516060840151608085015160a086015160c090960151600080546001600160a01b0319163317905594959394929391929091908180620000a581620001e9565b50600280546001600160a01b039092166001600160a01b031992831681179091556003805490921617905586620000dc8162000248565b86620000e88162000248565b86620000f48162000248565b86620001008162000248565b60ff87166200010f8162000248565b856200011b816200028f565b8c8b111580156200012c57508b8b11155b6200017e576040805162461bcd60e51b815260206004820152601560248201527f4552525f494e56414c49445f4d494e5f4c494d49540000000000000000000000604482015290519081900360640190fd5b50505060048a9055505050600586905560069490945550600991909155600c805460079590955560089390935543600a819055600b556001600160a01b0390911661010002610100600160a81b031960ff90921660ff19909416939093171691909117905562000303565b6001600160a01b03811662000245576040805162461bcd60e51b815260206004820152601360248201527f4552525f494e56414c49445f4144445245535300000000000000000000000000604482015290519081900360640190fd5b50565b6000811162000245576040805162461bcd60e51b815260206004820152600e60248201526d4552525f5a45524f5f56414c554560901b604482015290519081900360640190fd5b6001600160a01b03811615801590620002b157506001600160a01b0381163014155b62000245576040805162461bcd60e51b815260206004820152601c60248201527f4552525f494e56414c49445f45585445524e414c5f4144445245535300000000604482015290519081900360640190fd5b6122b680620003136000396000f3fe60806040526004361061026b5760003560e01c80637b10399911610144578063bf28ece4116100b6578063ed1d73a61161007a578063ed1d73a61461096f578063f2fde38b1461099b578063f7385f76146109ce578063fbb24692146109e3578063fc0c546a146109f8578063ffa1ad7414610a0d57610272565b8063bf28ece4146108b6578063ca27e011146108e0578063d4ee1d90146108f5578063e1bb51331461090a578063e36f8dc51461094557610272565b8063a50c326c11610108578063a50c326c146107d3578063a5c670ca146107fd578063a8c36a9014610829578063aafd6b761461083e578063af2b961814610877578063b4a176d3146108a157610272565b80637b103999146107055780637b15879c1461071a5780638da5cb5b146107475780639390701c1461075c5780639ace38c21461077157610272565b806349282538116101dd5780635e35359e116101a15780635e35359e146105f257806361cd756e146106355780636dc6a01b146106665780636ec6d4a6146106b157806372f43d19146106db57806379ba5097146106f057610272565b8063492825381461054457806349d10b641461057a5780634b3e475c1461058f5780634cb4cd9c146105a457806352e94ce3146105dd57610272565b80631aff29eb1161022f5780631aff29eb1461046d5780631e04a593146104825780631fd8088d146104975780632cc1cd9e146104ac5780632fe8a6ad146104f3578063427c03741461050857610272565b80630183592b14610277578063024c7ec71461032957806308506df71461035557806316c76c2714610431578063199674391461045857610272565b3661027257005b600080fd5b34801561028357600080fd5b506103276004803603602081101561029a57600080fd5b8101906020810181356401000000008111156102b557600080fd5b8201836020820111156102c757600080fd5b803590602001918460208302840111640100000000831117156102e957600080fd5b919080806020026020016040519081016040528093929190818152602001838360200280828437600092019190915250929550610a39945050505050565b005b34801561033557600080fd5b506103276004803603602081101561034c57600080fd5b50351515610b18565b34801561036157600080fd5b506103276004803603606081101561037857600080fd5b81019060208101813564010000000081111561039357600080fd5b8201836020820111156103a557600080fd5b803590602001918460208302840111640100000000831117156103c757600080fd5b919390926001600160a01b03833516926040810190602001356401000000008111156103f257600080fd5b82018360208201111561040457600080fd5b8035906020019184602083028401116401000000008311171561042657600080fd5b509092509050610b3e565b34801561043d57600080fd5b50610446610c02565b60408051918252519081900360200190f35b34801561046457600080fd5b50610446610c09565b34801561047957600080fd5b50610446610c54565b34801561048e57600080fd5b50610446610c5a565b3480156104a357600080fd5b50610446610c9a565b3480156104b857600080fd5b506104df600480360360208110156104cf57600080fd5b50356001600160a01b0316610ca0565b604080519115158252519081900360200190f35b3480156104ff57600080fd5b506104df610cbe565b34801561051457600080fd5b506103276004803603608081101561052b57600080fd5b5080359060208101359060408101359060600135610cce565b34801561055057600080fd5b506103276004803603606081101561056757600080fd5b5080359060208101359060400135610da0565b34801561058657600080fd5b50610327610e71565b34801561059b57600080fd5b50610446611087565b3480156105b057600080fd5b506104df600480360360408110156105c757600080fd5b50803590602001356001600160a01b031661108d565b3480156105e957600080fd5b506104466110ba565b3480156105fe57600080fd5b506103276004803603606081101561061557600080fd5b506001600160a01b038135811691602081013590911690604001356110c0565b34801561064157600080fd5b5061064a6110ec565b604080516001600160a01b039092168252519081900360200190f35b34801561067257600080fd5b50610327600480360360a081101561068957600080fd5b508035906020810135906001600160a01b0360408201351690606081013590608001356110fb565b3480156106bd57600080fd5b50610327600480360360208110156106d457600080fd5b50356114af565b3480156106e757600080fd5b50610446611524565b3480156106fc57600080fd5b5061032761152a565b34801561071157600080fd5b5061064a6115e1565b34801561072657600080fd5b506103276004803603602081101561073d57600080fd5b503560ff166115f0565b34801561075357600080fd5b5061064a61161c565b34801561076857600080fd5b506104df61162b565b34801561077d57600080fd5b5061079b6004803603602081101561079457600080fd5b503561163b565b6040805195865260208601949094526001600160a01b039092168484015260ff16606084015215156080830152519081900360a00190f35b3480156107df57600080fd5b50610327600480360360208110156107f657600080fd5b50356116bf565b34801561080957600080fd5b506103276004803603602081101561082057600080fd5b503515156116d7565b34801561083557600080fd5b506104466116fd565b34801561084a57600080fd5b506104466004803603604081101561086157600080fd5b50803590602001356001600160a01b0316611703565b34801561088357600080fd5b506103276004803603602081101561089a57600080fd5b50356117ca565b3480156108ad57600080fd5b506103276117e2565b3480156108c257600080fd5b50610327600480360360208110156108d957600080fd5b503561180e565b3480156108ec57600080fd5b50610446611826565b34801561090157600080fd5b5061064a61182f565b34801561091657600080fd5b506103276004803603604081101561092d57600080fd5b506001600160a01b038135169060200135151561183e565b34801561095157600080fd5b506104466004803603602081101561096857600080fd5b5035611871565b34801561097b57600080fd5b506103276004803603602081101561099257600080fd5b50351515611883565b3480156109a757600080fd5b50610327600480360360208110156109be57600080fd5b50356001600160a01b03166118a9565b3480156109da57600080fd5b50610446611927565b3480156109ef57600080fd5b506104df61192d565b348015610a0457600080fd5b5061064a61193d565b348015610a1957600080fd5b50610a22611951565b6040805161ffff9092168252519081900360200190f35b610a41611956565b6000610a5e6e2130b731b7b92c2ab833b930b232b960891b6119ab565b9050610a69816118a9565b6040805163151a1cb360e21b81526004818101818152602483019384528551604484015285516001600160a01b0386169463546872cc948893926064909101906020808601910280838360005b83811015610ace578181015183820152602001610ab6565b505050509050019350505050600060405180830381600087803b158015610af457600080fd5b505af1158015610b08573d6000803e3d6000fd5b50505050610b1461152a565b5050565b610b20611956565b60038054911515600160a01b0260ff60a01b19909216919091179055565b610b46611956565b82610b5081611a29565b84828114610b9a576040805162461bcd60e51b815260206004820152601260248201527108aa4a4be929cac82989288be988a9c8ea8960731b604482015290519081900360640190fd5b60005b81811015610bf857610bf086868684818110610bb557fe5b905060200201358a8a85818110610bc857fe5b905060200201356001600160a01b03166001600160a01b0316611a7d9092919063ffffffff16565b600101610b9d565b5050505050505050565b6007545b90565b600080610c39610c30600954610c2a600a5443611af490919063ffffffff16565b90611b51565b60075490611bb1565b9050600454811115610c4f575050600454610c06565b905090565b600a5490565b600080610c84610c7b600954610c2a600b5443611af490919063ffffffff16565b60085490611bb1565b9050600554811115610c4f575050600554610c06565b60065490565b6001600160a01b031660009081526010602052604090205460ff1690565b600354600160a01b900460ff1690565b610cd6611c0b565b6000610ce0610c09565b90506006548310158015610cf45750808311155b610d3b576040805162461bcd60e51b815260206004820152601360248201527208aa4a4be829a9eaa9ca8bea89e9ebe90928e9606b1b604482015290519081900360640190fd5b610d4483611c58565b610d4e8184611af4565b60075543600a5560408051868152602081018590528082018490529051859133917f4780f3edc9124597ede658e04ed3d8887b58c86943b2a805dc961cf512570b629181900360600190a35050505050565b610da8611c0b565b6000610db2610c09565b90508160065411158015610dc65750808211155b610e0d576040805162461bcd60e51b815260206004820152601360248201527208aa4a4be829a9eaa9ca8bea89e9ebe90928e9606b1b604482015290519081900360640190fd5b610e1682611c58565b610e208183611af4565b60075543600a5560408051858152602081018490526000818301529051849133917f4780f3edc9124597ede658e04ed3d8887b58c86943b2a805dc961cf512570b629181900360600190a350505050565b610e7961161c565b6001600160a01b0316336001600160a01b03161480610ea25750600354600160a01b900460ff16155b610ee7576040805162461bcd60e51b815260206004820152601160248201527011549497d050d0d154d4d7d11153925151607a1b604482015290519081900360640190fd5b6000610f056f436f6e7472616374526567697374727960801b6119ab565b6002549091506001600160a01b03808316911614801590610f2e57506001600160a01b03811615155b610f76576040805162461bcd60e51b81526020600482015260146024820152734552525f494e56414c49445f524547495354525960601b604482015290519081900360640190fd5b60006001600160a01b0316816001600160a01b031663bb34534c6f436f6e7472616374526567697374727960801b6040518263ffffffff1660e01b81526004018082815260200191505060206040518083038186803b158015610fd857600080fd5b505afa158015610fec573d6000803e3d6000fd5b505050506040513d602081101561100257600080fd5b50516001600160a01b03161415611057576040805162461bcd60e51b81526020600482015260146024820152734552525f494e56414c49445f524547495354525960601b604482015290519081900360640190fd5b60028054600380546001600160a01b038084166001600160a01b0319928316179092559091169216919091179055565b600b5490565b6000828152600f602090815260408083206001600160a01b038516845290915290205460ff165b92915050565b60055490565b6110c8611956565b816110d281611a29565b6110e66001600160a01b0385168484611a7d565b50505050565b6003546001600160a01b031690565b611103611cae565b61110b611d06565b8261111581611a29565b8261111f81611d53565b6000868152600f6020908152604080832033845290915290205460ff1615611185576040805162461bcd60e51b815260206004820152601460248201527311549497d053149150511657d4915413d495115160621b604482015290519081900360640190fd5b6000868152600f602090815260408083203384528252808320805460ff19166001179055888352600d90915290206002810154600160a01b900460ff16611263576002810180546001600160a01b0319166001600160a01b03881617905584815560018101889055831561125e576000848152600e60205260409020541561124c576040805162461bcd60e51b81526020600482015260156024820152744552525f54585f414c52454144595f45584953545360581b604482015290519081900360640190fd5b6000848152600e602052604090208790555b611334565b60028101546001600160a01b0387811691161480156112825750805485145b80156112915750878160010154145b6112d4576040805162461bcd60e51b815260206004820152600f60248201526e08aa4a4bea8b0be9a92a69a82a8869608b1b604482015290519081900360640190fd5b8315611334576000848152600e60205260409020548714611334576040805162461bcd60e51b81526020600482015260156024820152744552525f54585f414c52454144595f45584953545360581b604482015290519081900360640190fd5b600281018054600160ff600160a01b808404821692909201160260ff60a01b1990911617905560408051898152602081018990526001600160a01b038816818301526060810187905260808101869052905133917f5e77831e701760f7f4a1e61a8e9834d773b52c45d91ba9006b7d2afb7a144739919081900360a00190a2600c54600282015460ff918216600160a01b90910490911610610bf8576000878152600d6020526040902060020154600160a81b900460ff161561143e576040805162461bcd60e51b815260206004820152601860248201527f4552525f54585f414c52454144595f434f4d504c455445440000000000000000604482015290519081900360640190fd5b6000878152600d6020908152604091829020600201805460ff60a81b1916600160a81b17905581516001600160a01b038916815290810186905281517fd87906b7fce534fc5e6dde30064e777d92d0aaf3a28c72315de8ef2e4134dfef929181900390910190a1610bf88686611d99565b6114b7611956565b806114c181611d53565b60045482111580156114d557506005548211155b61151e576040805162461bcd60e51b815260206004820152601560248201527411549497d253959053125117d3525397d312535255605a1b604482015290519081900360640190fd5b50600655565b60095490565b6001546001600160a01b0316331461157d576040805162461bcd60e51b815260206004820152601160248201527011549497d050d0d154d4d7d11153925151607a1b604482015290519081900360640190fd5b600154600080546040516001600160a01b0393841693909116917f343765429aea5a34b3ff6a3785a98a5abb2597aca87bfbb58632c173d585373a91a360018054600080546001600160a01b03199081166001600160a01b03841617909155169055565b6002546001600160a01b031690565b6115f8611956565b8060ff1661160581611d53565b50600c805460ff191660ff92909216919091179055565b6000546001600160a01b031690565b600c54600160b01b900460ff1690565b600080600080600061164b61220a565b50505060009384525050600d6020908152604092839020835160a081018552815480825260018301549382018490526002909201546001600160a01b03811695820186905260ff600160a01b8204811660608401819052600160a81b90920416151560809092018290529195929493509091565b6116c7611956565b806116d181611d53565b50600955565b6116df611956565b600c8054911515600160a81b0260ff60a81b19909216919091179055565b60045490565b600061170d61220a565b506000838152600e60209081526040808320548352600d825291829020825160a08101845281548152600182015492810192909252600201546001600160a01b0380821693830184905260ff600160a01b830481166060850152600160a81b909204909116151560808301529091908416146117c2576040805162461bcd60e51b815260206004820152600f60248201526e08aa4a4bea8b0be9a92a69a82a8869608b1b604482015290519081900360640190fd5b519392505050565b6117d2611956565b806117dc81611d53565b50600455565b6117ea611956565b600354600280546001600160a01b0319166001600160a01b03909216919091179055565b611816611956565b8061182081611d53565b50600555565b600c5460ff1690565b6001546001600160a01b031690565b611846611956565b6001600160a01b03919091166000908152601060205260409020805460ff1916911515919091179055565b6000908152600e602052604090205490565b61188b611956565b600c8054911515600160b01b0260ff60b01b19909216919091179055565b6118b1611956565b6000546001600160a01b0382811691161415611905576040805162461bcd60e51b815260206004820152600e60248201526d22a9292fa9a0a6a2afa7aba722a960911b604482015290519081900360640190fd5b600180546001600160a01b0319166001600160a01b0392909216919091179055565b60085490565b600c54600160a81b900460ff1690565b600c5461010090046001600160a01b031690565b600481565b6000546001600160a01b031633146119a9576040805162461bcd60e51b815260206004820152601160248201527011549497d050d0d154d4d7d11153925151607a1b604482015290519081900360640190fd5b565b60025460408051632ecd14d360e21b81526004810184905290516000926001600160a01b03169163bb34534c916024808301926020929190829003018186803b1580156119f757600080fd5b505afa158015611a0b573d6000803e3d6000fd5b505050506040513d6020811015611a2157600080fd5b505192915050565b6001600160a01b038116611a7a576040805162461bcd60e51b81526020600482015260136024820152724552525f494e56414c49445f4144445245535360681b604482015290519081900360640190fd5b50565b80611a8757611aef565b611a9083611e6f565b15611ad1576040516001600160a01b0383169082156108fc029083906000818181858888f19350505050158015611acb573d6000803e3d6000fd5b50611aef565b611aef8282611adf86610c06565b6001600160a01b03169190611e94565b505050565b600082821115611b4b576040805162461bcd60e51b815260206004820152601e60248201527f536166654d6174683a207375627472616374696f6e206f766572666c6f770000604482015290519081900360640190fd5b50900390565b600082611b60575060006110b4565b82820282848281611b6d57fe5b0414611baa5760405162461bcd60e51b815260040180806020018281038252602181526020018061225f6021913960400191505060405180910390fd5b9392505050565b600082820183811015611baa576040805162461bcd60e51b815260206004820152601b60248201527f536166654d6174683a206164646974696f6e206f766572666c6f770000000000604482015290519081900360640190fd5b600c54600160a81b900460ff166119a9576040805162461bcd60e51b815260206004820152600c60248201526b11549497d11254d05093115160a21b604482015290519081900360640190fd5b600c54611c759061010090046001600160a01b0316333084611ee6565b60408051828152905133917ff5d7535a395393675f56d066384113754ca9cf4abd37298469934e2e9c2ec902919081900360200190a250565b3360009081526010602052604090205460ff166119a9576040805162461bcd60e51b815260206004820152601160248201527011549497d050d0d154d4d7d11153925151607a1b604482015290519081900360640190fd5b600c54600160b01b900460ff166119a9576040805162461bcd60e51b815260206004820152600c60248201526b11549497d11254d05093115160a21b604482015290519081900360640190fd5b60008111611a7a576040805162461bcd60e51b815260206004820152600e60248201526d4552525f5a45524f5f56414c554560901b604482015290519081900360640190fd5b6000611da3610c5a565b90506006548210158015611db75750808211155b611dfe576040805162461bcd60e51b815260206004820152601360248201527208aa4a4be829a9eaa9ca8bea89e9ebe90928e9606b1b604482015290519081900360640190fd5b611e088183611af4565b60085543600b55600c54611e2b9061010090046001600160a01b03168484611e94565b6040805183815290516001600160a01b038516917fbfdc1f3c02b4715077e0be4a262f967d53d4d0fcd76c6987fa2ad6e2257d7c8f919081900360200190a2505050565b6001600160a01b03811673eeeeeeeeeeeeeeeeeeeeeeeeeeeeeeeeeeeeeeee14919050565b604080516001600160a01b038416602482015260448082018490528251808303909101815260649091019091526020810180516001600160e01b031663a9059cbb60e01b179052611aef908490611f3c565b604080516001600160a01b0380861660248301528416604482015260648082018490528251808303909101815260849091019091526020810180516001600160e01b03166323b872dd60e01b1790526110e69085905b6060611f91826040518060400160405280602081526020017f5361666545524332303a206c6f772d6c6576656c2063616c6c206661696c6564815250856001600160a01b0316611fed9092919063ffffffff16565b805190915015611aef57808060200190516020811015611fb057600080fd5b5051611aef5760405162461bcd60e51b815260040180806020018281038252602a815260200180612280602a913960400191505060405180910390fd5b6060611ffc8484600085612004565b949350505050565b6060824710156120455760405162461bcd60e51b81526004018080602001828103825260268152602001806122396026913960400191505060405180910390fd5b61204e85612160565b61209f576040805162461bcd60e51b815260206004820152601d60248201527f416464726573733a2063616c6c20746f206e6f6e2d636f6e7472616374000000604482015290519081900360640190fd5b60006060866001600160a01b031685876040518082805190602001908083835b602083106120de5780518252601f1990920191602091820191016120bf565b6001836020036101000a03801982511681845116808217855250505050505090500191505060006040518083038185875af1925050503d8060008114612140576040519150601f19603f3d011682016040523d82523d6000602084013e612145565b606091505b5091509150612155828286612166565b979650505050505050565b3b151590565b60608315612175575081611baa565b8251156121855782518084602001fd5b8160405162461bcd60e51b81526004018080602001828103825283818151815260200191508051906020019080838360005b838110156121cf5781810151838201526020016121b7565b50505050905090810190601f1680156121fc5780820380516001836020036101000a031916815260200191505b509250505060405180910390fd5b6040805160a0810182526000808252602082018190529181018290526060810182905260808101919091529056fe416464726573733a20696e73756666696369656e742062616c616e636520666f722063616c6c536166654d6174683a206d756c7469706c69636174696f6e206f766572666c6f775361666545524332303a204552433230206f7065726174696f6e20646964206e6f742073756363656564a164736f6c634300060c000a",
  "linkReferences": {},
  "deployedLinkReferences": {}
}