{
  "_format": "hh-sol-artifact-1",
  "contractName": "TestSafeERC20Ex",
  "sourceName": "contracts/helpers/TestSafeERC20Ex.sol",
  "abi": [
    {
      "inputs": [
        {
          "internalType": "contract IERC20",
          "name": "token",
          "type": "address"
        },
        {
          "internalType": "address",
          "name": "spender",
          "type": "address"
        },
        {
          "internalType": "uint256",
          "name": "amount",
          "type": "uint256"
        }
      ],
      "name": "ensureApprove",
      "outputs": [],
      "stateMutability": "nonpayable",
      "type": "function"
    }
  ],
  "bytecode": "0x608060405234801561001057600080fd5b506105bd806100206000396000f3fe608060405234801561001057600080fd5b506004361061002b5760003560e01c806349422df014610030575b600080fd5b6100666004803603606081101561004657600080fd5b506001600160a01b03813581169160208101359091169060400135610068565b005b61007c6001600160a01b0384168383610081565b505050565b8061008b5761007c565b60408051636eb1769f60e11b81523060048201526001600160a01b038481166024830152915160009286169163dd62ed3e916044808301926020929190829003018186803b1580156100dc57600080fd5b505afa1580156100f0573d6000803e3d6000fd5b505050506040513d602081101561010657600080fd5b50519050818110610117575061007c565b8015610132576101326001600160a01b03851684600061014c565b6101466001600160a01b038516848461014c565b50505050565b8015806101d2575060408051636eb1769f60e11b81523060048201526001600160a01b03848116602483015291519185169163dd62ed3e91604480820192602092909190829003018186803b1580156101a457600080fd5b505afa1580156101b8573d6000803e3d6000fd5b505050506040513d60208110156101ce57600080fd5b5051155b61020d5760405162461bcd60e51b815260040180806020018281038252603681526020018061057b6036913960400191505060405180910390fd5b604080516001600160a01b038416602482015260448082018490528251808303909101815260649091019091526020810180516001600160e01b031663095ea7b360e01b17905261007c90849060606102af826040518060400160405280602081526020017f5361666545524332303a206c6f772d6c6576656c2063616c6c206661696c6564815250856001600160a01b031661030b9092919063ffffffff16565b80519091501561007c578080602001905160208110156102ce57600080fd5b505161007c5760405162461bcd60e51b815260040180806020018281038252602a815260200180610551602a913960400191505060405180910390fd5b606061031a8484600085610324565b90505b9392505050565b6060824710156103655760405162461bcd60e51b815260040180806020018281038252602681526020018061052b6026913960400191505060405180910390fd5b61036e85610480565b6103bf576040805162461bcd60e51b815260206004820152601d60248201527f416464726573733a2063616c6c20746f206e6f6e2d636f6e7472616374000000604482015290519081900360640190fd5b60006060866001600160a01b031685876040518082805190602001908083835b602083106103fe5780518252601f1990920191602091820191016103df565b6001836020036101000a03801982511681845116808217855250505050505090500191505060006040518083038185875af1925050503d8060008114610460576040519150601f19603f3d011682016040523d82523d6000602084013e610465565b606091505b5091509150610475828286610486565b979650505050505050565b3b151590565b6060831561049557508161031d565b8251156104a55782518084602001fd5b8160405162461bcd60e51b81526004018080602001828103825283818151815260200191508051906020019080838360005b838110156104ef5781810151838201526020016104d7565b50505050905090810190601f16801561051c5780820380516001836020036101000a031916815260200191505b509250505060405180910390fdfe416464726573733a20696e73756666696369656e742062616c616e636520666f722063616c6c5361666545524332303a204552433230206f7065726174696f6e20646964206e6f7420737563636565645361666545524332303a20617070726f76652066726f6d206e6f6e2d7a65726f20746f206e6f6e2d7a65726f20616c6c6f77616e6365a164736f6c634300060c000a",
  "linkReferences": {},
  "deployedLinkReferences": {}
}