{
  "_format": "hh-sol-artifact-1",
  "contractName": "LiquidityProtection",
  "sourceName": "contracts/liquidity-protection/LiquidityProtection.sol",
  "abi": [
    {
      "inputs": [
        {
          "internalType": "contract ILiquidityProtectionSettings",
          "name": "settings",
          "type": "address"
        },
        {
          "internalType": "contract ILiquidityProtectionStore",
          "name": "store",
          "type": "address"
        },
        {
          "internalType": "contract ILiquidityProtectionStats",
          "name": "stats",
          "type": "address"
        },
        {
          "internalType": "contract ILiquidityProtectionSystemStore",
          "name": "systemStore",
          "type": "address"
        },
        {
          "internalType": "contract ITokenHolder",
          "name": "wallet",
          "type": "address"
        },
        {
          "internalType": "contract ITokenGovernance",
          "name": "networkTokenGovernance",
          "type": "address"
        },
        {
          "internalType": "contract ITokenGovernance",
          "name": "govTokenGovernance",
          "type": "address"
        },
        {
          "internalType": "contract ICheckpointStore",
          "name": "lastRemoveCheckpointStore",
          "type": "address"
        }
      ],
      "stateMutability": "nonpayable",
      "type": "constructor"
    },
    {
      "anonymous": false,
      "inputs": [
        {
          "indexed": true,
          "internalType": "address",
          "name": "prevOwner",
          "type": "address"
        },
        {
          "indexed": true,
          "internalType": "address",
          "name": "newOwner",
          "type": "address"
        }
      ],
      "name": "OwnerUpdate",
      "type": "event"
    },
    {
      "inputs": [],
      "name": "acceptOwnership",
      "outputs": [],
      "stateMutability": "nonpayable",
      "type": "function"
    },
    {
      "inputs": [],
      "name": "acceptStoreOwnership",
      "outputs": [],
      "stateMutability": "nonpayable",
      "type": "function"
    },
    {
      "inputs": [],
      "name": "acceptWalletOwnership",
      "outputs": [],
      "stateMutability": "nonpayable",
      "type": "function"
    },
    {
      "inputs": [
        {
          "internalType": "contract IConverterAnchor",
          "name": "poolAnchor",
          "type": "address"
        },
        {
          "internalType": "contract IReserveToken",
          "name": "reserveToken",
          "type": "address"
        },
        {
          "internalType": "uint256",
          "name": "amount",
          "type": "uint256"
        }
      ],
      "name": "addLiquidity",
      "outputs": [
        {
          "internalType": "uint256",
          "name": "",
          "type": "uint256"
        }
      ],
      "stateMutability": "payable",
      "type": "function"
    },
    {
      "inputs": [
        {
          "internalType": "address",
          "name": "owner",
          "type": "address"
        },
        {
          "internalType": "contract IConverterAnchor",
          "name": "poolAnchor",
          "type": "address"
        },
        {
          "internalType": "contract IReserveToken",
          "name": "reserveToken",
          "type": "address"
        },
        {
          "internalType": "uint256",
          "name": "amount",
          "type": "uint256"
        }
      ],
      "name": "addLiquidityFor",
      "outputs": [
        {
          "internalType": "uint256",
          "name": "",
          "type": "uint256"
        }
      ],
      "stateMutability": "payable",
      "type": "function"
    },
    {
      "inputs": [
        {
          "internalType": "uint256",
          "name": "startIndex",
          "type": "uint256"
        },
        {
          "internalType": "uint256",
          "name": "endIndex",
          "type": "uint256"
        }
      ],
      "name": "claimBalance",
      "outputs": [],
      "stateMutability": "nonpayable",
      "type": "function"
    },
    {
      "inputs": [],
      "name": "newOwner",
      "outputs": [
        {
          "internalType": "address",
          "name": "",
          "type": "address"
        }
      ],
      "stateMutability": "view",
      "type": "function"
    },
    {
      "inputs": [],
      "name": "owner",
      "outputs": [
        {
          "internalType": "address",
          "name": "",
          "type": "address"
        }
      ],
      "stateMutability": "view",
      "type": "function"
    },
    {
      "inputs": [
        {
          "internalType": "contract IConverterAnchor",
          "name": "poolAnchor",
          "type": "address"
        }
      ],
      "name": "poolAvailableSpace",
      "outputs": [
        {
          "internalType": "uint256",
          "name": "",
          "type": "uint256"
        },
        {
          "internalType": "uint256",
          "name": "",
          "type": "uint256"
        }
      ],
      "stateMutability": "view",
      "type": "function"
    },
    {
      "inputs": [
        {
          "internalType": "contract IDSToken",
          "name": "poolToken",
          "type": "address"
        },
        {
          "internalType": "contract IReserveToken",
          "name": "reserveToken",
          "type": "address"
        },
        {
          "internalType": "uint256",
          "name": "reserveAmount",
          "type": "uint256"
        },
        {
          "internalType": "uint256",
          "name": "poolRateN",
          "type": "uint256"
        },
        {
          "internalType": "uint256",
          "name": "poolRateD",
          "type": "uint256"
        },
        {
          "internalType": "uint256",
          "name": "reserveRateN",
          "type": "uint256"
        },
        {
          "internalType": "uint256",
          "name": "reserveRateD",
          "type": "uint256"
        }
      ],
      "name": "poolROI",
      "outputs": [
        {
          "internalType": "uint256",
          "name": "",
          "type": "uint256"
        }
      ],
      "stateMutability": "view",
      "type": "function"
    },
    {
      "inputs": [
        {
          "internalType": "uint256",
          "name": "id",
          "type": "uint256"
        },
        {
          "internalType": "uint32",
          "name": "portion",
          "type": "uint32"
        }
      ],
      "name": "removeLiquidity",
      "outputs": [],
      "stateMutability": "nonpayable",
      "type": "function"
    },
    {
      "inputs": [
        {
          "internalType": "uint256",
          "name": "id",
          "type": "uint256"
        },
        {
          "internalType": "uint32",
          "name": "portion",
          "type": "uint32"
        },
        {
          "internalType": "uint256",
          "name": "removeTimestamp",
          "type": "uint256"
        }
      ],
      "name": "removeLiquidityReturn",
      "outputs": [
        {
          "internalType": "uint256",
          "name": "",
          "type": "uint256"
        },
        {
          "internalType": "uint256",
          "name": "",
          "type": "uint256"
        },
        {
          "internalType": "uint256",
          "name": "",
          "type": "uint256"
        }
      ],
      "stateMutability": "view",
      "type": "function"
    },
    {
      "inputs": [],
      "name": "settings",
      "outputs": [
        {
          "internalType": "contract ILiquidityProtectionSettings",
          "name": "",
          "type": "address"
        }
      ],
      "stateMutability": "view",
      "type": "function"
    },
    {
      "inputs": [],
      "name": "stats",
      "outputs": [
        {
          "internalType": "contract ILiquidityProtectionStats",
          "name": "",
          "type": "address"
        }
      ],
      "stateMutability": "view",
      "type": "function"
    },
    {
      "inputs": [],
      "name": "store",
      "outputs": [
        {
          "internalType": "contract ILiquidityProtectionStore",
          "name": "",
          "type": "address"
        }
      ],
      "stateMutability": "view",
      "type": "function"
    },
    {
      "inputs": [],
      "name": "systemStore",
      "outputs": [
        {
          "internalType": "contract ILiquidityProtectionSystemStore",
          "name": "",
          "type": "address"
        }
      ],
      "stateMutability": "view",
      "type": "function"
    },
    {
      "inputs": [
        {
          "internalType": "address",
          "name": "newOwner",
          "type": "address"
        }
      ],
      "name": "transferOwnership",
      "outputs": [],
      "stateMutability": "nonpayable",
      "type": "function"
    },
    {
      "inputs": [
        {
          "internalType": "uint256",
          "name": "id",
          "type": "uint256"
        },
        {
          "internalType": "address",
          "name": "newProvider",
          "type": "address"
        }
      ],
      "name": "transferPosition",
      "outputs": [
        {
          "internalType": "uint256",
          "name": "",
          "type": "uint256"
        }
      ],
      "stateMutability": "nonpayable",
      "type": "function"
    },
    {
      "inputs": [
        {
          "internalType": "uint256",
          "name": "id",
          "type": "uint256"
        },
        {
          "internalType": "address",
          "name": "newProvider",
          "type": "address"
        },
        {
          "internalType": "contract ITransferPositionCallback",
          "name": "callback",
          "type": "address"
        },
        {
          "internalType": "bytes",
          "name": "data",
          "type": "bytes"
        }
      ],
      "name": "transferPositionAndNotify",
      "outputs": [
        {
          "internalType": "uint256",
          "name": "",
          "type": "uint256"
        }
      ],
      "stateMutability": "nonpayable",
      "type": "function"
    },
    {
      "inputs": [
        {
          "internalType": "address",
          "name": "newOwner",
          "type": "address"
        }
      ],
      "name": "transferStoreOwnership",
      "outputs": [],
      "stateMutability": "nonpayable",
      "type": "function"
    },
    {
      "inputs": [
        {
          "internalType": "address",
          "name": "newOwner",
          "type": "address"
        }
      ],
      "name": "transferWalletOwnership",
      "outputs": [],
      "stateMutability": "nonpayable",
      "type": "function"
    },
    {
      "inputs": [],
      "name": "wallet",
      "outputs": [
        {
          "internalType": "contract ITokenHolder",
          "name": "",
          "type": "address"
        }
      ],
      "stateMutability": "view",
      "type": "function"
    },
    {
      "stateMutability": "payable",
      "type": "receive"
    }
  ],
  "bytecode": "0x6101c06040523480156200001257600080fd5b5060405162005c6038038062005c6083398181016040526101008110156200003957600080fd5b508051602082015160408301516060840151608085015160a086015160c087015160e090970151600080546001600160a01b031916331790556001600255959694959394929391929091876200008f816200022e565b876200009b816200022e565b87620000a7816200022e565b87620000b3816200022e565b87620000bf816200022e565b85620000cb816200022e565b6001600160601b031960608f811b82166080528e811b821660a0528d811b821660c0528c811b821660e0528b811b8216610100528a811b82166101405289811b82166101805288901b166101a05260408051637e062a3560e11b815290516001600160a01b038b169163fc0c546a916004808301926020929190829003018186803b1580156200015a57600080fd5b505afa1580156200016f573d6000803e3d6000fd5b505050506040513d60208110156200018657600080fd5b505160601b6001600160601b0319166101205260408051637e062a3560e11b815290516001600160a01b038a169163fc0c546a916004808301926020929190829003018186803b158015620001da57600080fd5b505afa158015620001ef573d6000803e3d6000fd5b505050506040513d60208110156200020657600080fd5b505160601b6001600160601b03191661016052506200028d9c50505050505050505050505050565b6001600160a01b0381166200028a576040805162461bcd60e51b815260206004820152601360248201527f4552525f494e56414c49445f4144445245535300000000000000000000000000604482015290519081900360640190fd5b50565b60805160601c60a05160601c60c05160601c60e05160601c6101005160601c6101205160601c6101405160601c6101605160601c6101805160601c6101a05160601c61581c620004446000398061307a5250806122a952806141b652508061227d52508061277852806139ff5280613f9e525080610b35528061168152806118b85280611f0b528061263b52806126af52806127e5528061283c52806140775280614182528061427a5250806105c9528061075b5280610b0652806110a752806123d0528061258d52806128075280614687525080610dc35280610fe552806117ee528061190a52806121c3528061244152806124fa52806139705280613f0f52806140cf52806144d452806146b652508061134c5280613016528061319152806131f55250806108665280610a6b5280611011528061107b52806111395280611b825280612e2f5280612f6452806132fd5280613b275250806111de528061137052806114a3528061158952806116c452806117645280612111528061295852806135cb528061366e52806138335280613a9852806142b952806143a6528061444652806147e952806149e9525061581c6000f3fe6080604052600436106101395760003560e01c80638da5cb5b116100ab578063caee4c8f1161006f578063caee4c8f146104a9578063d4ee1d90146104e5578063d80528ae146104fa578063e06174e41461050f578063e4a7672614610524578063f2fde38b1461055a57610140565b80638da5cb5b146103be578063975057e7146103d3578063bf3b1101146103e8578063c2250a991461041b578063c83df6631461044e57610140565b8063630d8c63116100fd578063630d8c63146102bf5780636d533e9b146102ef578063782ed90c1461034957806379ba50971461037f578063879015e81461039457806389d94b46146103a957610140565b806324afe2d91461014557806328790b5a1461019157806340083480146101a8578063521eb2731461025557806355bd513f1461028657610140565b3661014057005b600080fd5b34801561015157600080fd5b506101786004803603602081101561016857600080fd5b50356001600160a01b031661058d565b6040805192835260208301919091528051918290030190f35b34801561019d57600080fd5b506101a66105bf565b005b3480156101b457600080fd5b50610243600480360360808110156101cb57600080fd5b8135916001600160a01b03602082013581169260408301359091169190810190608081016060820135600160201b81111561020557600080fd5b82018360208201111561021757600080fd5b803590602001918460018302840111600160201b8311171561023857600080fd5b50909250905061063c565b60408051918252519081900360200190f35b34801561026157600080fd5b5061026a610759565b604080516001600160a01b039092168252519081900360200190f35b34801561029257600080fd5b50610243600480360360408110156102a957600080fd5b50803590602001356001600160a01b031661077d565b3480156102cb57600080fd5b506101a6600480360360408110156102e257600080fd5b50803590602001356107ea565b3480156102fb57600080fd5b5061032b6004803603606081101561031257600080fd5b5080359063ffffffff6020820135169060400135610bd2565b60408051938452602084019290925282820152519081900360600190f35b34801561035557600080fd5b506101a66004803603604081101561036c57600080fd5b508035906020013563ffffffff16610ec4565b34801561038b57600080fd5b506101a6610f2c565b3480156103a057600080fd5b5061026a610fe3565b3480156103b557600080fd5b506101a6611007565b3480156103ca57600080fd5b5061026a61106a565b3480156103df57600080fd5b5061026a611079565b3480156103f457600080fd5b506101a66004803603602081101561040b57600080fd5b50356001600160a01b031661109d565b34801561042757600080fd5b506101a66004803603602081101561043e57600080fd5b50356001600160a01b031661112f565b34801561045a57600080fd5b50610243600480360360e081101561047157600080fd5b506001600160a01b03813581169160208101359091169060408101359060608101359060808101359060a08101359060c001356111a6565b610243600480360360808110156104bf57600080fd5b506001600160a01b0381358116916020810135821691604082013516906060013561129e565b3480156104f157600080fd5b5061026a61133b565b34801561050657600080fd5b5061026a61134a565b34801561051b57600080fd5b5061026a61136e565b6102436004803603606081101561053a57600080fd5b506001600160a01b03813581169160208101359091169060400135611392565b34801561056657600080fd5b506101a66004803603602081101561057d57600080fd5b50356001600160a01b0316611423565b6000808261059a816114a1565b6105a381611587565b6105ac84611671565b6105b5856118b3565b9250925050915091565b6105c76119b6565b7f00000000000000000000000000000000000000000000000000000000000000006001600160a01b03166379ba50976040518163ffffffff1660e01b8152600401600060405180830381600087803b15801561062257600080fd5b505af1158015610636573d6000803e3d6000fd5b50505050565b6000600280541415610683576040805162461bcd60e51b815260206004820152601f6024820152600080516020615749833981519152604482015290519081900360640190fd5b600280558461069181611a0b565b8461069b81611a0b565b60006106a8338a8a611a5c565b604051635c2ba84560e01b8152600481018281523360248301819052606060448401908152606484018a90529394506001600160a01b038b1693635c2ba8459386938c928c92608401848480828437600081840152601f19601f82011690508083019250505095505050505050600060405180830381600087803b15801561072f57600080fd5b505af1158015610743573d6000803e3d6000fd5b5050600160025550909998505050505050505050565b7f000000000000000000000000000000000000000000000000000000000000000090565b60006002805414156107c4576040805162461bcd60e51b815260206004820152601f6024820152600080516020615749833981519152604482015290519081900360640190fd5b60028055816107d281611a0b565b6107dd338585611a5c565b6001600255949350505050565b60028054141561082f576040805162461bcd60e51b815260206004820152601f6024820152600080516020615749833981519152604482015290519081900360640190fd5b6002805560408051637a1036f560e11b81523360048201526024810184905260448101839052905160609182916001600160a01b037f0000000000000000000000000000000000000000000000000000000000000000169163f4206dea916064808301926000929190829003018186803b1580156108ac57600080fd5b505afa1580156108c0573d6000803e3d6000fd5b505050506040513d6000823e601f3d908101601f1916820160409081528110156108e957600080fd5b8101908080516040519392919084600160201b82111561090857600080fd5b90830190602082018581111561091d57600080fd5b82518660208202830111600160201b8211171561093957600080fd5b82525081516020918201928201910280838360005b8381101561096657818101518382015260200161094e565b5050505090500160405260200180516040519392919084600160201b82111561098e57600080fd5b9083019060208201858111156109a357600080fd5b82518660208202830111600160201b821117156109bf57600080fd5b82525081516020918201928201910280838360005b838110156109ec5781810151838201526020016109d4565b50505050905001604052505050915091506000808351905082518114610a0e57fe5b805b8015610afd576000198101610a23611aa3565b858281518110610a2f57fe5b60200260200101511115610a435750610af4565b604080516390e0661b60e01b8152336004820152898301602482015290516001600160a01b037f000000000000000000000000000000000000000000000000000000000000000016916390e0661b91604480830192600092919082900301818387803b158015610ab257600080fd5b505af1158015610ac6573d6000803e3d6000fd5b50505050610af0868281518110610ad957fe5b602002602001015185611aa790919063ffffffff16565b9350505b60001901610a10565b508115610bc5577f00000000000000000000000000000000000000000000000000000000000000006001600160a01b0316635e35359e7f000000000000000000000000000000000000000000000000000000000000000033856040518463ffffffff1660e01b815260040180846001600160a01b03168152602001836001600160a01b031681526020018281526020019350505050600060405180830381600087803b158015610bac57600080fd5b505af1158015610bc0573d6000803e3d6000fd5b505050505b5050600160025550505050565b600080600084610be181611b0a565b610be9615699565b610bf288611b70565b80519091506001600160a01b0316610c42576040805162461bcd60e51b815260206004820152600e60248201526d11549497d253959053125117d25160921b604482015290519081900360640190fd5b8060e00151861015610c93576040805162461bcd60e51b815260206004820152601560248201527404552525f494e56414c49445f54494d455354414d5605c1b604482015290519081900360640190fd5b63ffffffff8716620f424014610cf8576060810151620f424090610cc09063ffffffff8a811690611c7a16565b81610cc757fe5b0460608201526080810151620f424090610cea9063ffffffff8a811690611c7a16565b81610cf157fe5b0460808201525b610d006156f9565b610d1c826020015183604001518460a001518560c00151611cd3565b90506000610d438360200151846040015185606001518660800151868860e001518e611df3565b9050610d528360400151611f09565b15610d6857955085945060009350610eba915050565b610d7061572e565b610d8284602001518560400151611f3b565b90506000610db56002836000015181610d9757fe5b04610daf846020015186611c7a90919063ffffffff16565b90612060565b90506000610e6486606001517f00000000000000000000000000000000000000000000000000000000000000006001600160a01b0316635121220c89602001516040518263ffffffff1660e01b815260040180826001600160a01b0316815260200191505060206040518083038186803b158015610e3257600080fd5b505afa158015610e46573d6000803e3d6000fd5b505050506040513d6020811015610e5c57600080fd5b505190611aa7565b9050808211610e735781610e75565b805b91506000610e9b8460200151610daf6002876000015181610e9257fe5b87919004611c7a565b90506000610eaa8683896120c7565b959b509099509397505050505050505b5093509350939050565b600280541415610f09576040805162461bcd60e51b815260206004820152601f6024820152600080516020615749833981519152604482015290519081900360640190fd5b6002805580610f1781611b0a565b610f223384846121ac565b5050600160025550565b6001546001600160a01b03163314610f7f576040805162461bcd60e51b815260206004820152601160248201527011549497d050d0d154d4d7d11153925151607a1b604482015290519081900360640190fd5b600154600080546040516001600160a01b0393841693909116917f343765429aea5a34b3ff6a3785a98a5abb2597aca87bfbb58632c173d585373a91a360018054600080546001600160a01b03199081166001600160a01b03841617909155169055565b7f000000000000000000000000000000000000000000000000000000000000000090565b61100f6119b6565b7f00000000000000000000000000000000000000000000000000000000000000006001600160a01b03166379ba50976040518163ffffffff1660e01b8152600401600060405180830381600087803b15801561062257600080fd5b6000546001600160a01b031690565b7f000000000000000000000000000000000000000000000000000000000000000090565b6110a56119b6565b7f00000000000000000000000000000000000000000000000000000000000000006001600160a01b031663f2fde38b826040518263ffffffff1660e01b815260040180826001600160a01b03168152602001915050600060405180830381600087803b15801561111457600080fd5b505af1158015611128573d6000803e3d6000fd5b5050505050565b6111376119b6565b7f00000000000000000000000000000000000000000000000000000000000000006001600160a01b031663f2fde38b826040518263ffffffff1660e01b815260040180826001600160a01b03168152602001915050600060405180830381600087803b15801561111457600080fd5b6000806111b786610daf8988611c7a565b90506111c16156f9565b6111cd8a8a8787611cd3565b9050600061127c8b8b858c8661126f7f00000000000000000000000000000000000000000000000000000000000000006001600160a01b031663ce3f3adb6040518163ffffffff1660e01b815260040160206040518083038186803b15801561123557600080fd5b505afa158015611249573d6000803e3d6000fd5b505050506040513d602081101561125f57600080fd5b5051611269611aa3565b906128f9565b611277611aa3565b611df3565b905061128f89610daf83620f4240611c7a565b9b9a5050505050505050505050565b60006002805414156112e5576040805162461bcd60e51b815260206004820152601f6024820152600080516020615749833981519152604482015290519081900360640190fd5b60028055846112f381611a0b565b846112fd816114a1565b61130681611587565b85856113128282612956565b8561131c81612a56565b6113288a8a8a8a612a9c565b60016002559a9950505050505050505050565b6001546001600160a01b031690565b7f000000000000000000000000000000000000000000000000000000000000000090565b7f000000000000000000000000000000000000000000000000000000000000000090565b60006002805414156113d9576040805162461bcd60e51b815260206004820152601f6024820152600080516020615749833981519152604482015290519081900360640190fd5b60028055836113e7816114a1565b6113f081611587565b84846113fc8282612956565b8461140681612a56565b61141233898989612a9c565b600160025598975050505050505050565b61142b6119b6565b6000546001600160a01b038281169116141561147f576040805162461bcd60e51b815260206004820152600e60248201526d22a9292fa9a0a6a2afa7aba722a960911b604482015290519081900360640190fd5b600180546001600160a01b0319166001600160a01b0392909216919091179055565b7f00000000000000000000000000000000000000000000000000000000000000006001600160a01b031663d4f63148826040518263ffffffff1660e01b815260040180826001600160a01b0316815260200191505060206040518083038186803b15801561150e57600080fd5b505afa158015611522573d6000803e3d6000fd5b505050506040513d602081101561153857600080fd5b5051611584576040805162461bcd60e51b815260206004820152601660248201527511549497d413d3d317d393d517d4d5541413d495115160521b604482015290519081900360640190fd5b50565b7f00000000000000000000000000000000000000000000000000000000000000006001600160a01b0316632b26a982826040518263ffffffff1660e01b815260040180826001600160a01b0316815260200191505060206040518083038186803b1580156115f457600080fd5b505afa158015611608573d6000803e3d6000fd5b505050506040513d602081101561161e57600080fd5b5051611584576040805162461bcd60e51b815260206004820152601860248201527f4552525f504f4f4c5f4e4f545f57484954454c49535445440000000000000000604482015290519081900360640190fd5b60008061167d83612afb565b90507f000000000000000000000000000000000000000000000000000000000000000060006116ac8383612b68565b90506000806116bc858486612c6b565b9150915060007f00000000000000000000000000000000000000000000000000000000000000006001600160a01b031663943fd08a896040518263ffffffff1660e01b815260040180826001600160a01b0316815260200191505060206040518083038186803b15801561172f57600080fd5b505afa158015611743573d6000803e3d6000fd5b505050506040513d602081101561175957600080fd5b50519050806117ea577f00000000000000000000000000000000000000000000000000000000000000006001600160a01b031663b97b55ce6040518163ffffffff1660e01b815260040160206040518083038186803b1580156117bb57600080fd5b505afa1580156117cf573d6000803e3d6000fd5b505050506040513d60208110156117e557600080fd5b505190505b60007f00000000000000000000000000000000000000000000000000000000000000006001600160a01b031663350ed8e78a6040518263ffffffff1660e01b815260040180826001600160a01b0316815260200191505060206040518083038186803b15801561185957600080fd5b505afa15801561186d573d6000803e3d6000fd5b505050506040513d602081101561188357600080fd5b505190506000816118948482612d6b565b0390506118a584610daf8388611c7a565b9a9950505050505050505050565b6000817f00000000000000000000000000000000000000000000000000000000000000006118df61572e565b6118e98383611f3b565b90506119ad8160200151610daf600161126985600001516119a787600001517f00000000000000000000000000000000000000000000000000000000000000006001600160a01b0316635121220c8c6040518263ffffffff1660e01b815260040180826001600160a01b0316815260200191505060206040518083038186803b15801561197557600080fd5b505afa158015611989573d6000803e3d6000fd5b505050506040513d602081101561199f57600080fd5b505190611c7a565b90611aa7565b95945050505050565b6000546001600160a01b03163314611a09576040805162461bcd60e51b815260206004820152601160248201527011549497d050d0d154d4d7d11153925151607a1b604482015290519081900360640190fd5b565b6001600160a01b038116611584576040805162461bcd60e51b81526020600482015260136024820152724552525f494e56414c49445f4144445245535360681b604482015290519081900360640190fd5b6000611a66615699565b611a748585620f4240612d82565b9050611a988382602001518360400151846060015185608001518660e00151613108565b9150505b9392505050565b4290565b600082820183811015611b01576040805162461bcd60e51b815260206004820152601b60248201527f536166654d6174683a206164646974696f6e206f766572666c6f770000000000604482015290519081900360640190fd5b90505b92915050565b60008163ffffffff16118015611b295750620f424063ffffffff821611155b611584576040805162461bcd60e51b815260206004820152601360248201527222a9292fa4a72b20a624a22fa827a92a24a7a760691b604482015290519081900360640190fd5b611b78615699565b611b80615699565b7f00000000000000000000000000000000000000000000000000000000000000006001600160a01b0316635290ffbb846040518263ffffffff1660e01b8152600401808281526020019150506101006040518083038186803b158015611be557600080fd5b505afa158015611bf9573d6000803e3d6000fd5b505050506040513d610100811015611c1057600080fd5b50805160208083015160408085015160608087015160808089015160a0808b015160c0808d015160e09d8e01519d8f019d909d528d019b909b528b01999099528901979097528701959095526001600160a01b039485169086015283169084015216815292915050565b600082611c8957506000611b04565b82820282848281611c9657fe5b0414611b015760405162461bcd60e51b815260040180806020018281038252602181526020018061578f6021913960400191505060405180910390fd5b611cdb6156f9565b611ce361572e565b611ceb61572e565b611cf5878761337f565b915091506001600160801b038511158015611d1757506001600160801b038411155b8015611d2b575081516001600160801b0310155b8015611d4257506001600160801b03826020015111155b8015611d56575080516001600160801b0310155b8015611d6d57506001600160801b03816020015111155b611d7357fe5b6040518060c00160405280866001600160801b03168152602001856001600160801b0316815260200183600001516001600160801b0316815260200183602001516001600160801b0316815260200182600001516001600160801b0316815260200182602001516001600160801b0316815250925050505b949350505050565b6000611dfd61572e565b611e078989611f3b565b9050611e1161572e565b604051806040016040528087600001516001600160801b0316815260200187602001516001600160801b03168152509050611e4a61572e565b50604080518082018252908701516001600160801b0390811682526060880151166020820152611e7861572e565b604051806040016040528089608001516001600160801b031681526020018960a001516001600160801b031681525090506000611eb78b868686613471565b9050611ec161572e565b611ecb85846134e3565b9050611ed561572e565b611edf8a8a6135b1565b9050611ef68c611eef8e86612d6b565b848461374d565b9f9e505050505050505050505050505050565b7f00000000000000000000000000000000000000000000000000000000000000006001600160a01b0390811691161490565b611f4361572e565b6000836001600160a01b03166318160ddd6040518163ffffffff1660e01b815260040160206040518083038186803b158015611f7e57600080fd5b505afa158015611f92573d6000803e3d6000fd5b505050506040513d6020811015611fa857600080fd5b505190506000611fb785612afb565b90506000816001600160a01b031663d8959512866040518263ffffffff1660e01b815260040180826001600160a01b0316815260200191505060206040518083038186803b15801561200857600080fd5b505afa15801561201c573d6000803e3d6000fd5b505050506040513d602081101561203257600080fd5b5051604080518082019091529091508061204d836002611c7a565b8152602001939093525090949350505050565b60008082116120b6576040805162461bcd60e51b815260206004820152601a60248201527f536166654d6174683a206469766973696f6e206279207a65726f000000000000604482015290519081900360640190fd5b8183816120bf57fe5b049392505050565b60008284116120d857506000611a9c565b600061210d8360a001516001600160801b0316610daf85608001516001600160801b0316878903611c7a90919063ffffffff16565b90507f00000000000000000000000000000000000000000000000000000000000000006001600160a01b031663a80c76ff6040518163ffffffff1660e01b815260040160206040518083038186803b15801561216857600080fd5b505afa15801561217c573d6000803e3d6000fd5b505050506040513d602081101561219257600080fd5b505181106121a1579050611a9c565b506000949350505050565b6121b4615699565b6121bf848484612d82565b90507f00000000000000000000000000000000000000000000000000000000000000006001600160a01b031663332100fa826020015183606001516040518363ffffffff1660e01b815260040180836001600160a01b0316815260200182815260200192505050600060405180830381600087803b15801561224057600080fd5b505af1158015612254573d6000803e3d6000fd5b505050506122658160400151611f09565b1561232a5760808101516122a7906001600160a01b037f00000000000000000000000000000000000000000000000000000000000000001690869030906137d5565b7f00000000000000000000000000000000000000000000000000000000000000006001600160a01b03166342966c6882608001516040518263ffffffff1660e01b815260040180828152602001915050600060405180830381600087803b15801561231157600080fd5b505af1158015612325573d6000803e3d6000fd5b505050505b6123326156f9565b61234e826020015183604001518460a001518560c00151611cd3565b905061239081604001516001600160801b031682606001516001600160801b031683608001516001600160801b03168460a001516001600160801b031661382f565b60006123b78360200151846040015185606001518660800151868860e00151611277611aa3565b90506123c68360400151611f09565b1561240c576123fa7f000000000000000000000000000000000000000000000000000000000000000084602001518361396e565b6124048682613a91565b5050506128f4565b61241461572e565b61242684602001518560400151611f3b565b9050600061243b6002836000015181610d9757fe5b905060007f00000000000000000000000000000000000000000000000000000000000000006001600160a01b0316635121220c87602001516040518263ffffffff1660e01b815260040180826001600160a01b0316815260200191505060206040518083038186803b1580156124b057600080fd5b505afa1580156124c4573d6000803e3d6000fd5b505050506040513d60208110156124da57600080fd5b505190508082116124eb57816124ed565b805b91506000866020015190507f00000000000000000000000000000000000000000000000000000000000000006001600160a01b03166319c6a5e48860200151856040518363ffffffff1660e01b815260040180836001600160a01b0316815260200182815260200192505050600060405180830381600087803b15801561257357600080fd5b505af1158015612587573d6000803e3d6000fd5b505050507f00000000000000000000000000000000000000000000000000000000000000006001600160a01b0316635e35359e8230866040518463ffffffff1660e01b815260040180846001600160a01b03168152602001836001600160a01b031681526020018281526020019350505050600060405180830381600087803b15801561261357600080fd5b505af1158015612627573d6000803e3d6000fd5b5050505061265f87602001518489604001517f0000000000000000000000000000000000000000000000000000000000000000613bce565b604087015160009061267a906001600160a01b031630613da4565b6040890151909150612696906001600160a01b03168c83613e4d565b60006126a387838a6120c7565b905080156128385760007f00000000000000000000000000000000000000000000000000000000000000006001600160a01b03166370a08231306040518263ffffffff1660e01b815260040180826001600160a01b0316815260200191505060206040518083038186803b15801561271a57600080fd5b505afa15801561272e573d6000803e3d6000fd5b505050506040513d602081101561274457600080fd5b50519050818110156127d857604080516340c10f1960e01b8152306004820152828403602482015290516001600160a01b037f000000000000000000000000000000000000000000000000000000000000000016916340c10f1991604480830192600092919082900301818387803b1580156127bf57600080fd5b505af11580156127d3573d6000803e3d6000fd5b505050505b61282c6001600160a01b037f0000000000000000000000000000000000000000000000000000000000000000167f000000000000000000000000000000000000000000000000000000000000000084613ebb565b6128368d83613a91565b505b60007f00000000000000000000000000000000000000000000000000000000000000006001600160a01b03166370a08231306040518263ffffffff1660e01b815260040180826001600160a01b0316815260200191505060206040518083038186803b1580156128a757600080fd5b505afa1580156128bb573d6000803e3d6000fd5b505050506040513d60208110156128d157600080fd5b5051905080156128e9576128e98a6020015182613f0d565b505050505050505050505b505050565b600082821115612950576040805162461bcd60e51b815260206004820152601e60248201527f536166654d6174683a207375627472616374696f6e206f766572666c6f770000604482015290519081900360640190fd5b50900390565b7f00000000000000000000000000000000000000000000000000000000000000006001600160a01b0316639e571a6a83836040518363ffffffff1660e01b815260040180836001600160a01b03168152602001826001600160a01b031681526020019250505060206040518083038186803b1580156129d457600080fd5b505afa1580156129e8573d6000803e3d6000fd5b505050506040513d60208110156129fe57600080fd5b505115612a52576040805162461bcd60e51b815260206004820152601a60248201527f4552525f4144445f4c49515549444954595f44495341424c4544000000000000604482015290519081900360640190fd5b5050565b60008111611584576040805162461bcd60e51b815260206004820152600e60248201526d4552525f5a45524f5f56414c554560901b604482015290519081900360640190fd5b6000612aa783611f09565b15612ac857612ab6600061401e565b612ac1858584614072565b9050611deb565b612aef612add846001600160a01b0316614250565b612ae8576000612aea565b825b61401e565b6119ad85858585614275565b6000816001600160a01b0316638da5cb5b6040518163ffffffff1660e01b815260040160206040518083038186803b158015612b3657600080fd5b505afa158015612b4a573d6000803e3d6000fd5b505050506040513d6020811015612b6057600080fd5b505192915050565b600080836001600160a01b03166319b6401560006040518263ffffffff1660e01b81526004018082815260200191505060206040518083038186803b158015612bb057600080fd5b505afa158015612bc4573d6000803e3d6000fd5b505050506040513d6020811015612bda57600080fd5b505190506001600160a01b038082169084161415611b0157836001600160a01b03166319b6401560016040518263ffffffff1660e01b81526004018082815260200191505060206040518083038186803b158015612c3757600080fd5b505afa158015612c4b573d6000803e3d6000fd5b505050506040513d6020811015612c6157600080fd5b5051949350505050565b600080846001600160a01b031663d8959512856040518263ffffffff1660e01b815260040180826001600160a01b0316815260200191505060206040518083038186803b158015612cbb57600080fd5b505afa158015612ccf573d6000803e3d6000fd5b505050506040513d6020811015612ce557600080fd5b505160408051636c4aca8960e11b81526001600160a01b03868116600483015291519188169163d895951291602480820192602092909190829003018186803b158015612d3157600080fd5b505afa158015612d45573d6000803e3d6000fd5b505050506040513d6020811015612d5b57600080fd5b505190925090505b935093915050565b600081831015612d7b5781611b01565b5090919050565b612d8a615699565b612d92615699565b612d9c848661476c565b9050612dab8160200151611587565b612db3611aa3565b8160e0015110612dfa576040805162461bcd60e51b815260206004820152600d60248201526c4552525f544f4f5f4541524c5960981b604482015290519081900360640190fd5b63ffffffff8316620f42401415612eb057612e2d84826000015183602001518460400151856060015186608001516147e5565b7f00000000000000000000000000000000000000000000000000000000000000006001600160a01b0316636f366b71856040518263ffffffff1660e01b815260040180828152602001915050600060405180830381600087803b158015612e9357600080fd5b505af1158015612ea7573d6000803e3d6000fd5b50505050612fc6565b60608101516080820151620f4240612ed18363ffffffff88811690611c7a16565b81612ed857fe5b0460608401526080830151620f424090612efb9063ffffffff88811690611c7a16565b81612f0257fe5b04608084018190528351602085015160408601516060870151612f2a948b94939291906147e5565b606083015160808401516040805163161139bd60e31b8152600481018a905292850360248401529083036044830152516001600160a01b037f0000000000000000000000000000000000000000000000000000000000000000169163b089cde891606480830192600092919082900301818387803b158015612fab57600080fd5b505af1158015612fbf573d6000803e3d6000fd5b5050505050505b805160208201516040808401516060850151608086015183516327396b6d60e01b81526001600160a01b0396871660048201529486166024860152918516604485015260648401526084830152517f0000000000000000000000000000000000000000000000000000000000000000909216916327396b6d9160a48082019260009290919082900301818387803b15801561306057600080fd5b505af1158015613074573d6000803e3d6000fd5b505050507f00000000000000000000000000000000000000000000000000000000000000006001600160a01b0316631d092adf866040518263ffffffff1660e01b815260040180826001600160a01b03168152602001915050600060405180830381600087803b1580156130e757600080fd5b505af11580156130fb573d6000803e3d6000fd5b5092979650505050505050565b600061311261572e565b61311a61572e565b613124888861337f565b91509150613144826000015183602001518360000151846020015161382f565b61315189898989896149e5565b60408051630aa558ef60e41b81526001600160a01b038b811660048301528a811660248301528981166044830152606482018990526084820188905291517f00000000000000000000000000000000000000000000000000000000000000009092169163aa558ef09160a48082019260009290919082900301818387803b1580156131db57600080fd5b505af11580156131ef573d6000803e3d6000fd5b505050507f00000000000000000000000000000000000000000000000000000000000000006001600160a01b031663fd4bc1e68a8a6040518363ffffffff1660e01b815260040180836001600160a01b03168152602001826001600160a01b0316815260200192505050602060405180830381600087803b15801561327357600080fd5b505af1158015613287573d6000803e3d6000fd5b505050506040513d602081101561329d57600080fd5b50508151602080840151604080516361d5f08760e01b81526001600160a01b038e811660048301528d811660248301528c81166044830152606482018c9052608482018b905260a482019590955260c481019290925260e48201889052517f0000000000000000000000000000000000000000000000000000000000000000909316926361d5f08792610104808401939192918290030181600087803b15801561334657600080fd5b505af115801561335a573d6000803e3d6000fd5b505050506040513d602081101561337057600080fd5b50519998505050505050505050565b61338761572e565b61338f61572e565b600061339a85612afb565b905060006133a88286612b68565b90506000806133b8848489612c6b565b91509150600080856001600160a01b0316631f0181bc8a6040518263ffffffff1660e01b815260040180826001600160a01b03168152602001915050604080518083038186803b15801561340b57600080fd5b505afa15801561341f573d6000803e3d6000fd5b505050506040513d604081101561343557600080fd5b508051602091820151604080518082018252978852878401969096528551808701909652908552908401525091955093505050505b9250929050565b825181516020840151600092839261349c92613496916134919190611c7a565b614bd2565b90611c7a565b905060006134cb86602001516134966134c687602001518960000151611c7a90919063ffffffff16565b614bf2565b90506134d8878383614c48565b979650505050505050565b6134eb61572e565b602083015182516000916134ff9190611c7a565b8451602085015191925060009161351591611c7a565b905081810260008284838161352657fe5b04146135445761353583614bf2565b61353e85614bf2565b0261354d565b61354d82614bf2565b9050600061355b8585611aa7565b90506002810661358e57600281049050604051806040016040528083830381526020018281525095505050505050611b04565b604080518082019091526002909202810382526020820152935050505092915050565b6135b961572e565b60006135c583856128f9565b905060007f00000000000000000000000000000000000000000000000000000000000000006001600160a01b0316632c560f896040518163ffffffff1660e01b815260040160206040518083038186803b15801561362257600080fd5b505afa158015613636573d6000803e3d6000fd5b505050506040513d602081101561364c57600080fd5b50516040805163ce3f3adb60e01b815290519192506000916001600160a01b037f0000000000000000000000000000000000000000000000000000000000000000169163ce3f3adb916004808301926020929190829003018186803b1580156136b457600080fd5b505afa1580156136c8573d6000803e3d6000fd5b505050506040513d60208110156136de57600080fd5b505190508183101561370b5760405180604001604052806000815260200160018152509350505050611b04565b8083106137335760405180604001604052806001815260200160018152509350505050611b04565b604080518082019091529283526020830152509392505050565b8051600090819061375e9087611c7a565b6020840151909150600061377b6137758484612d6b565b88612d6b565b905060008061379e88600001518960200151856000198161379857fe5b04614d4a565b90925090506118a56137bd6137b38387611c7a565b610daf8589611c7a565b6119a783610daf6137ce82886128f9565b8e90611c7a565b604080516001600160a01b0380861660248301528416604482015260648082018490528251808303909101815260849091019091526020810180516001600160e01b03166323b872dd60e01b179052610636908590614d92565b60007f00000000000000000000000000000000000000000000000000000000000000006001600160a01b03166324a088686040518163ffffffff1660e01b815260040160206040518083038186803b15801561388a57600080fd5b505afa15801561389e573d6000803e3d6000fd5b505050506040513d60208110156138b457600080fd5b5051620f42400363ffffffff90811691506000906138e090839061349690829082908b908990611c7a16565b905060006138f7620f424061349685818a8a611c7a565b9050600061390e620f424061349681818c8a611c7a565b90508183111580156139205750808211155b613964576040805162461bcd60e51b815260206004820152601060248201526f4552525f494e56414c49445f5241544560801b604482015290519081900360640190fd5b5050505050505050565b7f00000000000000000000000000000000000000000000000000000000000000006001600160a01b031663deacd84e83836040518363ffffffff1660e01b815260040180836001600160a01b0316815260200182815260200192505050600060405180830381600087803b1580156139e557600080fd5b505af11580156139f9573d6000803e3d6000fd5b505050507f00000000000000000000000000000000000000000000000000000000000000006001600160a01b03166340c10f1984836040518363ffffffff1660e01b815260040180836001600160a01b0316815260200182815260200192505050600060405180830381600087803b158015613a7457600080fd5b505af1158015613a88573d6000803e3d6000fd5b50505050505050565b6000613b237f00000000000000000000000000000000000000000000000000000000000000006001600160a01b031663045544436040518163ffffffff1660e01b815260040160206040518083038186803b158015613aef57600080fd5b505afa158015613b03573d6000803e3d6000fd5b505050506040513d6020811015613b1957600080fd5b50516119a7611aa3565b90507f00000000000000000000000000000000000000000000000000000000000000006001600160a01b031663dbae3a5d8484846040518463ffffffff1660e01b815260040180846001600160a01b031681526020018381526020018281526020019350505050602060405180830381600087803b158015613ba457600080fd5b505af1158015613bb8573d6000803e3d6000fd5b505050506040513d602081101561112857600080fd5b6000613bd985612afb565b604080516002808252606080830184529394509091602083019080368337505060408051600280825260608083018452949550909250906020830190803683370190505090508482600081518110613c2d57fe5b60200260200101906001600160a01b031690816001600160a01b0316815250508382600181518110613c5b57fe5b60200260200101906001600160a01b031690816001600160a01b031681525050600181600081518110613c8a57fe5b602002602001018181525050600181600181518110613ca557fe5b602002602001018181525050826001600160a01b031663b127c0a58784846040518463ffffffff1660e01b8152600401808481526020018060200180602001838103835285818151815260200191508051906020019060200280838360005b83811015613d1c578181015183820152602001613d04565b50505050905001838103825284818151815260200191508051906020019060200280838360005b83811015613d5b578181015183820152602001613d43565b5050505090500195505050505050600060405180830381600087803b158015613d8357600080fd5b505af1158015613d97573d6000803e3d6000fd5b5050505050505050505050565b6000613daf83614250565b15613dc557506001600160a01b03811631611b04565b613dce83614e43565b6001600160a01b03166370a08231836040518263ffffffff1660e01b815260040180826001600160a01b0316815260200191505060206040518083038186803b158015613e1a57600080fd5b505afa158015613e2e573d6000803e3d6000fd5b505050506040513d6020811015613e4457600080fd5b50519392505050565b80613e57576128f4565b613e6083614250565b15613ea1576040516001600160a01b0383169082156108fc029083906000818181858888f19350505050158015613e9b573d6000803e3d6000fd5b506128f4565b6128f48282613eaf86614e43565b6001600160a01b031691905b604080516001600160a01b038416602482015260448082018490528251808303909101815260649091019091526020810180516001600160e01b031663a9059cbb60e01b1790526128f4908490614d92565b7f00000000000000000000000000000000000000000000000000000000000000006001600160a01b031663802fa3ba83836040518363ffffffff1660e01b815260040180836001600160a01b0316815260200182815260200192505050600060405180830381600087803b158015613f8457600080fd5b505af1158015613f98573d6000803e3d6000fd5b505050507f00000000000000000000000000000000000000000000000000000000000000006001600160a01b03166342966c68826040518263ffffffff1660e01b815260040180828152602001915050600060405180830381600087803b15801561400257600080fd5b505af1158015614016573d6000803e3d6000fd5b505050505050565b803414611584576040805162461bcd60e51b815260206004820152601760248201527f4552525f4554485f414d4f554e545f4d49534d41544348000000000000000000604482015290519081900360640190fd5b6000827f000000000000000000000000000000000000000000000000000000000000000061409e61572e565b6140a88383611f3b565b905060006140cb8260000151610daf846020015189611c7a90919063ffffffff16565b90507f00000000000000000000000000000000000000000000000000000000000000006001600160a01b03166319c6a5e485836040518363ffffffff1660e01b815260040180836001600160a01b0316815260200182815260200192505050600060405180830381600087803b15801561414457600080fd5b505af1158015614158573d6000803e3d6000fd5b505050506000614173898686858b61416e611aa3565b613108565b90506141aa6001600160a01b037f00000000000000000000000000000000000000000000000000000000000000001633308a6137d5565b6141b48888613f0d565b7f00000000000000000000000000000000000000000000000000000000000000006001600160a01b03166340c10f198a896040518363ffffffff1660e01b815260040180836001600160a01b0316815260200182815260200192505050600060405180830381600087803b15801561422b57600080fd5b505af115801561423f573d6000803e3d6000fd5b50929b9a5050505050505050505050565b6001600160a01b03811673eeeeeeeeeeeeeeeeeeeeeeeeeeeeeeeeeeeeeeee14919050565b6000837f0000000000000000000000000000000000000000000000000000000000000000826142a383612afb565b90506000806142b3838986612c6b565b915091507f00000000000000000000000000000000000000000000000000000000000000006001600160a01b03166312588d0e6040518163ffffffff1660e01b815260040160206040518083038186803b15801561431057600080fd5b505afa158015614324573d6000803e3d6000fd5b505050506040513d602081101561433a57600080fd5b5051811015614390576040805162461bcd60e51b815260206004820152601860248201527f4552525f4e4f545f454e4f5547485f4c49515549444954590000000000000000604482015290519081900360640190fd5b60006143a083610daf8a85611c7a565b905060007f00000000000000000000000000000000000000000000000000000000000000006001600160a01b031663943fd08a8c6040518263ffffffff1660e01b815260040180826001600160a01b0316815260200191505060206040518083038186803b15801561441157600080fd5b505afa158015614425573d6000803e3d6000fd5b505050506040513d602081101561443b57600080fd5b50519050806144cc577f00000000000000000000000000000000000000000000000000000000000000006001600160a01b031663b97b55ce6040518163ffffffff1660e01b815260040160206040518083038186803b15801561449d57600080fd5b505afa1580156144b1573d6000803e3d6000fd5b505050506040513d60208110156144c757600080fd5b505190505b600061453f837f00000000000000000000000000000000000000000000000000000000000000006001600160a01b031663350ed8e78f6040518263ffffffff1660e01b815260040180826001600160a01b0316815260200191505060206040518083038186803b158015610e3257600080fd5b90508181111561458f576040805162461bcd60e51b815260206004820152601660248201527511549497d3505617d05353d5539517d4915050d2115160521b604482015290519081900360640190fd5b61459a308d8561396e565b6145ae6001600160a01b0388168785614e46565b6145c08b6001600160a01b0316614250565b6145ed576145d96001600160a01b038c1633308d614e77565b6145ed6001600160a01b038c16878c614e46565b6145fb868c898d8734614eb2565b6000886001600160a01b03166370a08231306040518263ffffffff1660e01b815260040180826001600160a01b0316815260200191505060206040518083038186803b15801561464a57600080fd5b505afa15801561465e573d6000803e3d6000fd5b505050506040513d602081101561467457600080fd5b505190506146ac6001600160a01b038a167f000000000000000000000000000000000000000000000000000000000000000083613ebb565b6001600160a01b037f00000000000000000000000000000000000000000000000000000000000000001663332100fa8a6002840484036040518363ffffffff1660e01b815260040180836001600160a01b0316815260200182815260200192505050600060405180830381600087803b15801561472857600080fd5b505af115801561473c573d6000803e3d6000fd5b5050505061475a8e8a8e6002858161475057fe5b048f61416e611aa3565b9e9d5050505050505050505050505050565b614774615699565b61477c615699565b61478584611b70565b9050826001600160a01b031681600001516001600160a01b031614611b01576040805162461bcd60e51b815260206004820152601160248201527011549497d050d0d154d4d7d11153925151607a1b604482015290519081900360640190fd5b60607f00000000000000000000000000000000000000000000000000000000000000006001600160a01b0316639e2ce9d26040518163ffffffff1660e01b815260040160006040518083038186803b15801561484057600080fd5b505afa158015614854573d6000803e3d6000fd5b505050506040513d6000823e601f3d908101601f19168201604052602081101561487d57600080fd5b8101908080516040519392919084600160201b82111561489c57600080fd5b9083019060208201858111156148b157600080fd5b82518660208202830111600160201b821117156148cd57600080fd5b82525081516020918201928201910280838360005b838110156148fa5781810151838201526020016148e2565b50505050905001604052505050905060008151905060005b818110156149da5782818151811061492657fe5b60200260200101516001600160a01b031663b8128fe68a8a8a8a8a8a6040518763ffffffff1660e01b815260040180878152602001866001600160a01b03168152602001856001600160a01b03168152602001846001600160a01b031681526020018381526020018281526020019650505050505050600060405180830381600087803b1580156149b657600080fd5b505af11580156149ca573d6000803e3d6000fd5b5050600190920191506149129050565b505050505050505050565b60607f00000000000000000000000000000000000000000000000000000000000000006001600160a01b0316639e2ce9d26040518163ffffffff1660e01b815260040160006040518083038186803b158015614a4057600080fd5b505afa158015614a54573d6000803e3d6000fd5b505050506040513d6000823e601f3d908101601f191682016040526020811015614a7d57600080fd5b8101908080516040519392919084600160201b821115614a9c57600080fd5b908301906020820185811115614ab157600080fd5b82518660208202830111600160201b82111715614acd57600080fd5b82525081516020918201928201910280838360005b83811015614afa578181015183820152602001614ae2565b50505050905001604052505050905060008151905060005b8181101561396457828181518110614b2657fe5b60200260200101516001600160a01b031663139c22ea89898989896040518663ffffffff1660e01b815260040180866001600160a01b03168152602001856001600160a01b03168152602001846001600160a01b0316815260200183815260200182815260200195505050505050600060405180830381600087803b158015614bae57600080fd5b505af1158015614bc2573d6000803e3d6000fd5b505060019092019150614b129050565b600080614bde83614bf2565b90508281820214611b045780600101611a9c565b60008060028304600101905060006002828581614c0b57fe5b04830181614c1557fe5b0490505b80821115614c41578091506002828581614c2f57fe5b04830181614c3957fe5b049050614c19565b5092915050565b6000806000614c57868661506b565b915091508160001415614c7757838181614c6d57fe5b0492505050611a9c565b838210614cba576040805162461bcd60e51b815260206004820152600c60248201526b4552525f4f564552464c4f5760a01b604482015290519081900360640190fd5b6000614cc78787876150b6565b9050600080614cd78585856150cb565b915091508160001415614cfa57868181614ced57fe5b0495505050505050611a9c565b600087614d0860008a6150fb565b1690506000614d18848484615100565b90506000614d2e838b81614d2857fe5b04615141565b9050614d3a8282615177565b9c9b505050505050505050505050565b600080848484821180614d5c57508481115b15614d7257614d6c82828761517b565b90925090505b808214614d83579092509050612d63565b50600196879650945050505050565b6060614de7826040518060400160405280602081526020017f5361666545524332303a206c6f772d6c6576656c2063616c6c206661696c6564815250856001600160a01b03166151b49092919063ffffffff16565b8051909150156128f457808060200190516020811015614e0657600080fd5b50516128f45760405162461bcd60e51b815260040180806020018281038252602a8152602001806157b0602a913960400191505060405180910390fd5b90565b614e4f83614250565b15614e59576128f4565b6128f48282614e6786614e43565b6001600160a01b031691906151c3565b801580614e885750614e8884614250565b15614e9257610636565b610636838383614ea188614e43565b6001600160a01b03169291906137d5565b6040805160028082526060808301845292602083019080368337505060408051600280825260608083018452949550909250906020830190803683370190505090508682600081518110614f0257fe5b60200260200101906001600160a01b031690816001600160a01b0316815250508582600181518110614f3057fe5b60200260200101906001600160a01b031690816001600160a01b0316815250508481600081518110614f5e57fe5b6020026020010181815250508381600181518110614f7857fe5b602002602001018181525050876001600160a01b0316637d8916bd84848460016040518563ffffffff1660e01b8152600401808060200180602001848152602001838103835286818151815260200191508051906020019060200280838360005b83811015614ff1578181015183820152602001614fd9565b50505050905001838103825285818151815260200191508051906020019060200280838360005b83811015615030578181015183820152602001615018565b50505050905001955050505050506000604051808303818588803b15801561505757600080fd5b505af11580156128e9573d6000803e3d6000fd5b600080600061507a8585615288565b905060006150888686615177565b905080821061509e57908190039250905061346a565b60016150aa83836150fb565b03969095509350505050565b600081806150c057fe5b838509949350505050565b6000808284106150e15750839050818303612d63565b600185036150ef85856150fb565b91509150935093915050565b900390565b600080615121836151126000866150fb565b8161511957fe5b046001615297565b905082848161512c57fe5b046151378683615177565b1795945050505050565b60006001815b6008811015614c415761516d8261516860026151638689615177565b6150fb565b615177565b9150600101615147565b0290565b6000808385116151995761519085858561529b565b91509150612d63565b6000806151a786888761529b565b9890975095505050505050565b6060611deb848460008561535f565b806151cd576128f4565b60408051636eb1769f60e11b81523060048201526001600160a01b038481166024830152915160009286169163dd62ed3e916044808301926020929190829003018186803b15801561521e57600080fd5b505afa158015615232573d6000803e3d6000fd5b505050506040513d602081101561524857600080fd5b5051905081811061525957506128f4565b8015615274576152746001600160a01b0385168460006154b0565b6106366001600160a01b03851684846154b0565b60006000198284099392505050565b0190565b600080600083600019816152ab57fe5b049050808611156152e45760008160010187816152c457fe5b0460010190508087816152d357fe5b0496508086816152df57fe5b049550505b84861461534f5785840260006152fa8888615297565b905087811061532057600061530f83836155c3565b955050508385039250612d63915050565b600288880304870382101561533e5760008694509450505050612d63565b600180870394509450505050612d63565b5050600290910493849350915050565b6060824710156153a05760405162461bcd60e51b81526004018080602001828103825260268152602001806157696026913960400191505060405180910390fd5b6153a9856155ef565b6153fa576040805162461bcd60e51b815260206004820152601d60248201527f416464726573733a2063616c6c20746f206e6f6e2d636f6e7472616374000000604482015290519081900360640190fd5b60006060866001600160a01b031685876040518082805190602001908083835b602083106154395780518252601f19909201916020918201910161541a565b6001836020036101000a03801982511681845116808217855250505050505090500191505060006040518083038185875af1925050503d806000811461549b576040519150601f19603f3d011682016040523d82523d6000602084013e6154a0565b606091505b50915091506134d88282866155f5565b801580615536575060408051636eb1769f60e11b81523060048201526001600160a01b03848116602483015291519185169163dd62ed3e91604480820192602092909190829003018186803b15801561550857600080fd5b505afa15801561551c573d6000803e3d6000fd5b505050506040513d602081101561553257600080fd5b5051155b6155715760405162461bcd60e51b81526004018080602001828103825260368152602001806157da6036913960400191505060405180910390fd5b604080516001600160a01b038416602482015260448082018490528251808303909101815260649091019091526020810180516001600160e01b031663095ea7b360e01b1790526128f4908490614d92565b60006002820482038284816155d457fe5b06816155dc57fe5b048284816155e657fe5b04019392505050565b3b151590565b60608315615604575081611a9c565b8251156156145782518084602001fd5b8160405162461bcd60e51b81526004018080602001828103825283818151815260200191508051906020019080838360005b8381101561565e578181015183820152602001615646565b50505050905090810190601f16801561568b5780820380516001836020036101000a031916815260200191505b509250505060405180910390fd5b60405180610100016040528060006001600160a01b0316815260200160006001600160a01b0316815260200160006001600160a01b0316815260200160008152602001600081526020016000815260200160008152602001600081525090565b6040805160c081018252600080825260208201819052918101829052606081018290526080810182905260a081019190915290565b60405180604001604052806000815260200160008152509056fe5265656e7472616e637947756172643a207265656e7472616e742063616c6c00416464726573733a20696e73756666696369656e742062616c616e636520666f722063616c6c536166654d6174683a206d756c7469706c69636174696f6e206f766572666c6f775361666545524332303a204552433230206f7065726174696f6e20646964206e6f7420737563636565645361666545524332303a20617070726f76652066726f6d206e6f6e2d7a65726f20746f206e6f6e2d7a65726f20616c6c6f77616e6365a164736f6c634300060c000a",
  "linkReferences": {},
  "deployedLinkReferences": {}
}