{
  "_format": "hh-sol-artifact-1",
  "contractName": "TestReserveToken",
  "sourceName": "contracts/helpers/TestReserveToken.sol",
  "abi": [
    {
      "inputs": [
        {
          "internalType": "contract IReserveToken",
          "name": "reserveToken",
          "type": "address"
        },
        {
          "internalType": "address",
          "name": "account",
          "type": "address"
        }
      ],
      "name": "balanceOf",
      "outputs": [
        {
          "internalType": "uint256",
          "name": "",
          "type": "uint256"
        }
      ],
      "stateMutability": "view",
      "type": "function"
    },
    {
      "inputs": [
        {
          "internalType": "contract IReserveToken",
          "name": "reserveToken",
          "type": "address"
        },
        {
          "internalType": "address",
          "name": "spender",
          "type": "address"
        },
        {
          "internalType": "uint256",
          "name": "amount",
          "type": "uint256"
        }
      ],
      "name": "ensureApprove",
      "outputs": [],
      "stateMutability": "nonpayable",
      "type": "function"
    },
    {
      "inputs": [
        {
          "internalType": "contract IReserveToken",
          "name": "reserveToken",
          "type": "address"
        }
      ],
      "name": "isNativeToken",
      "outputs": [
        {
          "internalType": "bool",
          "name": "",
          "type": "bool"
        }
      ],
      "stateMutability": "pure",
      "type": "function"
    },
    {
      "inputs": [
        {
          "internalType": "contract IReserveToken",
          "name": "reserveToken",
          "type": "address"
        },
        {
          "internalType": "address",
          "name": "to",
          "type": "address"
        },
        {
          "internalType": "uint256",
          "name": "amount",
          "type": "uint256"
        }
      ],
      "name": "safeTransfer",
      "outputs": [],
      "stateMutability": "nonpayable",
      "type": "function"
    },
    {
      "inputs": [
        {
          "internalType": "contract IReserveToken",
          "name": "reserveToken",
          "type": "address"
        },
        {
          "internalType": "address",
          "name": "from",
          "type": "address"
        },
        {
          "internalType": "address",
          "name": "to",
          "type": "address"
        },
        {
          "internalType": "uint256",
          "name": "amount",
          "type": "uint256"
        }
      ],
      "name": "safeTransferFrom",
      "outputs": [],
      "stateMutability": "nonpayable",
      "type": "function"
    },
    {
      "stateMutability": "payable",
      "type": "receive"
    }
  ],
  "bytecode": "0x608060405234801561001057600080fd5b506109cd806100206000396000f3fe60806040526004361061004e5760003560e01c80632db8cef31461005a57806349422df0146100a1578063d1660f99146100e6578063d9fc4b6114610129578063f7888aec1461017257610055565b3661005557005b600080fd5b34801561006657600080fd5b5061008d6004803603602081101561007d57600080fd5b50356001600160a01b03166101bf565b604080519115158252519081900360200190f35b3480156100ad57600080fd5b506100e4600480360360608110156100c457600080fd5b506001600160a01b038135811691602081013590911690604001356101d9565b005b3480156100f257600080fd5b506100e46004803603606081101561010957600080fd5b506001600160a01b038135811691602081013590911690604001356101f2565b34801561013557600080fd5b506100e46004803603608081101561014c57600080fd5b506001600160a01b03813581169160208101358216916040820135169060600135610206565b34801561017e57600080fd5b506101ad6004803603604081101561019557600080fd5b506001600160a01b0381358116916020013516610221565b60408051918252519081900360200190f35b60006101d3826001600160a01b031661023d565b92915050565b6101ed6001600160a01b0384168383610262565b505050565b6101ed6001600160a01b0384168383610293565b61021b6001600160a01b038516848484610305565b50505050565b60006102366001600160a01b03841683610340565b9392505050565b6001600160a01b03811673eeeeeeeeeeeeeeeeeeeeeeeeeeeeeeeeeeeeeeee14919050565b61026b8361023d565b15610275576101ed565b6101ed8282610283866103e9565b6001600160a01b031691906103ec565b8061029d576101ed565b6102a68361023d565b156102e7576040516001600160a01b0383169082156108fc029083906000818181858888f193505050501580156102e1573d6000803e3d6000fd5b506101ed565b6101ed82826102f5866103e9565b6001600160a01b031691906104b1565b80158061031657506103168461023d565b156103205761021b565b61021b83838361032f886103e9565b6001600160a01b0316929190610503565b600061034b8361023d565b1561036157506001600160a01b038116316101d3565b61036a836103e9565b6001600160a01b03166370a08231836040518263ffffffff1660e01b815260040180826001600160a01b0316815260200191505060206040518083038186803b1580156103b657600080fd5b505afa1580156103ca573d6000803e3d6000fd5b505050506040513d60208110156103e057600080fd5b50519392505050565b90565b806103f6576101ed565b60408051636eb1769f60e11b81523060048201526001600160a01b038481166024830152915160009286169163dd62ed3e916044808301926020929190829003018186803b15801561044757600080fd5b505afa15801561045b573d6000803e3d6000fd5b505050506040513d602081101561047157600080fd5b5051905081811061048257506101ed565b801561049d5761049d6001600160a01b03851684600061055d565b61021b6001600160a01b038516848461055d565b604080516001600160a01b038416602482015260448082018490528251808303909101815260649091019091526020810180516001600160e01b031663a9059cbb60e01b1790526101ed90849061066c565b604080516001600160a01b0380861660248301528416604482015260648082018490528251808303909101815260849091019091526020810180516001600160e01b03166323b872dd60e01b17905261021b90859061066c565b8015806105e3575060408051636eb1769f60e11b81523060048201526001600160a01b03848116602483015291519185169163dd62ed3e91604480820192602092909190829003018186803b1580156105b557600080fd5b505afa1580156105c9573d6000803e3d6000fd5b505050506040513d60208110156105df57600080fd5b5051155b61061e5760405162461bcd60e51b815260040180806020018281038252603681526020018061098b6036913960400191505060405180910390fd5b604080516001600160a01b038416602482015260448082018490528251808303909101815260649091019091526020810180516001600160e01b031663095ea7b360e01b1790526101ed9084905b60606106c1826040518060400160405280602081526020017f5361666545524332303a206c6f772d6c6576656c2063616c6c206661696c6564815250856001600160a01b031661071d9092919063ffffffff16565b8051909150156101ed578080602001905160208110156106e057600080fd5b50516101ed5760405162461bcd60e51b815260040180806020018281038252602a815260200180610961602a913960400191505060405180910390fd5b606061072c8484600085610734565b949350505050565b6060824710156107755760405162461bcd60e51b815260040180806020018281038252602681526020018061093b6026913960400191505060405180910390fd5b61077e85610890565b6107cf576040805162461bcd60e51b815260206004820152601d60248201527f416464726573733a2063616c6c20746f206e6f6e2d636f6e7472616374000000604482015290519081900360640190fd5b60006060866001600160a01b031685876040518082805190602001908083835b6020831061080e5780518252601f1990920191602091820191016107ef565b6001836020036101000a03801982511681845116808217855250505050505090500191505060006040518083038185875af1925050503d8060008114610870576040519150601f19603f3d011682016040523d82523d6000602084013e610875565b606091505b5091509150610885828286610896565b979650505050505050565b3b151590565b606083156108a5575081610236565b8251156108b55782518084602001fd5b8160405162461bcd60e51b81526004018080602001828103825283818151815260200191508051906020019080838360005b838110156108ff5781810151838201526020016108e7565b50505050905090810190601f16801561092c5780820380516001836020036101000a031916815260200191505b509250505060405180910390fdfe416464726573733a20696e73756666696369656e742062616c616e636520666f722063616c6c5361666545524332303a204552433230206f7065726174696f6e20646964206e6f7420737563636565645361666545524332303a20617070726f76652066726f6d206e6f6e2d7a65726f20746f206e6f6e2d7a65726f20616c6c6f77616e6365a164736f6c634300060c000a",
  "linkReferences": {},
  "deployedLinkReferences": {}
}