{
  "_format": "hh-sol-artifact-1",
  "contractName": "ConverterV28OrHigherWithoutFallback",
  "sourceName": "contracts/helpers/TestBancorNetwork.sol",
  "abi": [
    {
      "inputs": [],
      "name": "isV28OrHigher",
      "outputs": [
        {
          "internalType": "bool",
          "name": "",
          "type": "bool"
        }
      ],
      "stateMutability": "pure",
      "type": "function"
    }
  ],
  "bytecode": "0x6080604052348015600f57600080fd5b5060598061001e6000396000f3fe6080604052348015600f57600080fd5b506004361060285760003560e01c8063d260529c14602d575b600080fd5b60336047565b604080519115158252519081900360200190f35b60019056fea164736f6c634300060c000a",
  "deployedBytecode": "0x6080604052348015600f57600080fd5b506004361060285760003560e01c8063d260529c14602d575b600080fd5b60336047565b604080519115158252519081900360200190f35b60019056fea164736f6c634300060c000a",
  "linkReferences": {},
  "deployedLinkReferences": {}
}