{
  "_format": "hh-sol-artifact-1",
  "contractName": "ConverterV28OrHigherWithFallback",
  "sourceName": "contracts/helpers/TestBancorNetwork.sol",
  "abi": [
    {
      "inputs": [],
      "name": "isV28OrHigher",
      "outputs": [
        {
          "internalType": "bool",
          "name": "",
          "type": "bool"
        }
      ],
      "stateMutability": "pure",
      "type": "function"
    },
    {
      "stateMutability": "payable",
      "type": "receive"
    }
  ],
  "bytecode": "0x608060405234801561001057600080fd5b50609a8061001f6000396000f3fe608060405260043610601f5760003560e01c8063d260529c14606257605d565b36605d576040805162461bcd60e51b815260206004820152600a60248201526911549497d4915591549560b21b604482015290519081900360640190fd5b600080fd5b348015606d57600080fd5b5060746088565b604080519115158252519081900360200190f35b60019056fea164736f6c634300060c000a",
  "linkReferences": {},
  "deployedLinkReferences": {}
}