{
  "_format": "hh-sol-artifact-1",
  "contractName": "NewConverter",
  "sourceName": "contracts/helpers/TestBancorNetwork.sol",
  "abi": [
    {
      "inputs": [
        {
          "internalType": "uint256",
          "name": "amount",
          "type": "uint256"
        },
        {
          "internalType": "uint256",
          "name": "fee",
          "type": "uint256"
        }
      ],
      "stateMutability": "nonpayable",
      "type": "constructor"
    },
    {
      "inputs": [
        {
          "internalType": "contract IReserveToken",
          "name": "",
          "type": "address"
        },
        {
          "internalType": "contract IReserveToken",
          "name": "",
          "type": "address"
        },
        {
          "internalType": "uint256",
          "name": "",
          "type": "uint256"
        }
      ],
      "name": "getReturn",
      "outputs": [
        {
          "internalType": "uint256",
          "name": "",
          "type": "uint256"
        },
        {
          "internalType": "uint256",
          "name": "",
          "type": "uint256"
        }
      ],
      "stateMutability": "view",
      "type": "function"
    }
  ],
  "bytecode": "0x608060405234801561001057600080fd5b506040516100e73803806100e78339818101604052604081101561003357600080fd5b5080516020909101516000919091556001556094806100536000396000f3fe6080604052348015600f57600080fd5b506004361060285760003560e01c80631e1401f814602d575b600080fd5b606060048036036060811015604157600080fd5b506001600160a01b038135811691602081013590911690604001356079565b6040805192835260208301919091528051918290030190f35b60005460015493509391505056fea164736f6c634300060c000a",
  "linkReferences": {},
  "deployedLinkReferences": {}
}