{
  "_format": "hh-sol-artifact-1",
  "contractName": "TestBancorNetwork",
  "sourceName": "contracts/helpers/TestBancorNetwork.sol",
  "abi": [
    {
      "inputs": [
        {
          "internalType": "uint256",
          "name": "amount",
          "type": "uint256"
        },
        {
          "internalType": "uint256",
          "name": "fee",
          "type": "uint256"
        }
      ],
      "stateMutability": "nonpayable",
      "type": "constructor"
    },
    {
      "anonymous": false,
      "inputs": [
        {
          "indexed": true,
          "internalType": "contract IConverterAnchor",
          "name": "anchor",
          "type": "address"
        },
        {
          "indexed": true,
          "internalType": "contract IReserveToken",
          "name": "sourceToken",
          "type": "address"
        },
        {
          "indexed": true,
          "internalType": "contract IReserveToken",
          "name": "targetToken",
          "type": "address"
        },
        {
          "indexed": false,
          "internalType": "uint256",
          "name": "sourceAmount",
          "type": "uint256"
        },
        {
          "indexed": false,
          "internalType": "uint256",
          "name": "targetAmount",
          "type": "uint256"
        },
        {
          "indexed": false,
          "internalType": "address",
          "name": "trader",
          "type": "address"
        }
      ],
      "name": "Conversion",
      "type": "event"
    },
    {
      "anonymous": false,
      "inputs": [
        {
          "indexed": true,
          "internalType": "address",
          "name": "prevOwner",
          "type": "address"
        },
        {
          "indexed": true,
          "internalType": "address",
          "name": "newOwner",
          "type": "address"
        }
      ],
      "name": "OwnerUpdate",
      "type": "event"
    },
    {
      "inputs": [],
      "name": "acceptOwnership",
      "outputs": [],
      "stateMutability": "nonpayable",
      "type": "function"
    },
    {
      "inputs": [
        {
          "internalType": "address[]",
          "name": "path",
          "type": "address[]"
        },
        {
          "internalType": "uint256",
          "name": "sourceAmount",
          "type": "uint256"
        },
        {
          "internalType": "uint256",
          "name": "minReturn",
          "type": "uint256"
        }
      ],
      "name": "claimAndConvert",
      "outputs": [
        {
          "internalType": "uint256",
          "name": "",
          "type": "uint256"
        }
      ],
      "stateMutability": "nonpayable",
      "type": "function"
    },
    {
      "inputs": [
        {
          "internalType": "address[]",
          "name": "path",
          "type": "address[]"
        },
        {
          "internalType": "uint256",
          "name": "sourceAmount",
          "type": "uint256"
        },
        {
          "internalType": "uint256",
          "name": "minReturn",
          "type": "uint256"
        },
        {
          "internalType": "address",
          "name": "",
          "type": "address"
        },
        {
          "internalType": "uint256",
          "name": "",
          "type": "uint256"
        }
      ],
      "name": "claimAndConvert2",
      "outputs": [
        {
          "internalType": "uint256",
          "name": "",
          "type": "uint256"
        }
      ],
      "stateMutability": "nonpayable",
      "type": "function"
    },
    {
      "inputs": [
        {
          "internalType": "address[]",
          "name": "path",
          "type": "address[]"
        },
        {
          "internalType": "uint256",
          "name": "sourceAmount",
          "type": "uint256"
        },
        {
          "internalType": "uint256",
          "name": "minReturn",
          "type": "uint256"
        },
        {
          "internalType": "address payable",
          "name": "beneficiary",
          "type": "address"
        }
      ],
      "name": "claimAndConvertFor",
      "outputs": [
        {
          "internalType": "uint256",
          "name": "",
          "type": "uint256"
        }
      ],
      "stateMutability": "nonpayable",
      "type": "function"
    },
    {
      "inputs": [
        {
          "internalType": "address[]",
          "name": "path",
          "type": "address[]"
        },
        {
          "internalType": "uint256",
          "name": "sourceAmount",
          "type": "uint256"
        },
        {
          "internalType": "uint256",
          "name": "minReturn",
          "type": "uint256"
        },
        {
          "internalType": "address payable",
          "name": "beneficiary",
          "type": "address"
        },
        {
          "internalType": "address",
          "name": "",
          "type": "address"
        },
        {
          "internalType": "uint256",
          "name": "",
          "type": "uint256"
        }
      ],
      "name": "claimAndConvertFor2",
      "outputs": [
        {
          "internalType": "uint256",
          "name": "",
          "type": "uint256"
        }
      ],
      "stateMutability": "nonpayable",
      "type": "function"
    },
    {
      "inputs": [
        {
          "internalType": "address[]",
          "name": "path",
          "type": "address[]"
        },
        {
          "internalType": "contract IBancorX",
          "name": "bancorX",
          "type": "address"
        },
        {
          "internalType": "uint256",
          "name": "conversionId",
          "type": "uint256"
        },
        {
          "internalType": "uint256",
          "name": "minReturn",
          "type": "uint256"
        },
        {
          "internalType": "address payable",
          "name": "beneficiary",
          "type": "address"
        }
      ],
      "name": "completeXConversion",
      "outputs": [
        {
          "internalType": "uint256",
          "name": "",
          "type": "uint256"
        }
      ],
      "stateMutability": "nonpayable",
      "type": "function"
    },
    {
      "inputs": [
        {
          "internalType": "contract IReserveToken",
          "name": "sourceToken",
          "type": "address"
        },
        {
          "internalType": "contract IReserveToken",
          "name": "targetToken",
          "type": "address"
        }
      ],
      "name": "conversionPath",
      "outputs": [
        {
          "internalType": "address[]",
          "name": "",
          "type": "address[]"
        }
      ],
      "stateMutability": "view",
      "type": "function"
    },
    {
      "inputs": [
        {
          "internalType": "address[]",
          "name": "path",
          "type": "address[]"
        },
        {
          "internalType": "uint256",
          "name": "sourceAmount",
          "type": "uint256"
        },
        {
          "internalType": "uint256",
          "name": "minReturn",
          "type": "uint256"
        }
      ],
      "name": "convert",
      "outputs": [
        {
          "internalType": "uint256",
          "name": "",
          "type": "uint256"
        }
      ],
      "stateMutability": "payable",
      "type": "function"
    },
    {
      "inputs": [
        {
          "internalType": "address[]",
          "name": "path",
          "type": "address[]"
        },
        {
          "internalType": "uint256",
          "name": "sourceAmount",
          "type": "uint256"
        },
        {
          "internalType": "uint256",
          "name": "minReturn",
          "type": "uint256"
        },
        {
          "internalType": "address",
          "name": "",
          "type": "address"
        },
        {
          "internalType": "uint256",
          "name": "",
          "type": "uint256"
        }
      ],
      "name": "convert2",
      "outputs": [
        {
          "internalType": "uint256",
          "name": "",
          "type": "uint256"
        }
      ],
      "stateMutability": "payable",
      "type": "function"
    },
    {
      "inputs": [
        {
          "internalType": "address[]",
          "name": "path",
          "type": "address[]"
        },
        {
          "internalType": "uint256",
          "name": "sourceAmount",
          "type": "uint256"
        },
        {
          "internalType": "uint256",
          "name": "minReturn",
          "type": "uint256"
        },
        {
          "internalType": "address payable",
          "name": "beneficiary",
          "type": "address"
        },
        {
          "internalType": "address",
          "name": "",
          "type": "address"
        },
        {
          "internalType": "uint256",
          "name": "",
          "type": "uint256"
        }
      ],
      "name": "convertByPath",
      "outputs": [
        {
          "internalType": "uint256",
          "name": "",
          "type": "uint256"
        }
      ],
      "stateMutability": "payable",
      "type": "function"
    },
    {
      "inputs": [
        {
          "internalType": "address[]",
          "name": "path",
          "type": "address[]"
        },
        {
          "internalType": "uint256",
          "name": "sourceAmount",
          "type": "uint256"
        },
        {
          "internalType": "uint256",
          "name": "minReturn",
          "type": "uint256"
        },
        {
          "internalType": "address payable",
          "name": "beneficiary",
          "type": "address"
        }
      ],
      "name": "convertByPath2",
      "outputs": [
        {
          "internalType": "uint256",
          "name": "",
          "type": "uint256"
        }
      ],
      "stateMutability": "payable",
      "type": "function"
    },
    {
      "inputs": [
        {
          "internalType": "address[]",
          "name": "path",
          "type": "address[]"
        },
        {
          "internalType": "uint256",
          "name": "sourceAmount",
          "type": "uint256"
        },
        {
          "internalType": "uint256",
          "name": "minReturn",
          "type": "uint256"
        },
        {
          "internalType": "address payable",
          "name": "beneficiary",
          "type": "address"
        }
      ],
      "name": "convertFor",
      "outputs": [
        {
          "internalType": "uint256",
          "name": "",
          "type": "uint256"
        }
      ],
      "stateMutability": "payable",
      "type": "function"
    },
    {
      "inputs": [
        {
          "internalType": "address[]",
          "name": "path",
          "type": "address[]"
        },
        {
          "internalType": "uint256",
          "name": "sourceAmount",
          "type": "uint256"
        },
        {
          "internalType": "uint256",
          "name": "minReturn",
          "type": "uint256"
        },
        {
          "internalType": "address payable",
          "name": "beneficiary",
          "type": "address"
        },
        {
          "internalType": "address",
          "name": "",
          "type": "address"
        },
        {
          "internalType": "uint256",
          "name": "",
          "type": "uint256"
        }
      ],
      "name": "convertFor2",
      "outputs": [
        {
          "internalType": "uint256",
          "name": "",
          "type": "uint256"
        }
      ],
      "stateMutability": "payable",
      "type": "function"
    },
    {
      "inputs": [
        {
          "internalType": "address[]",
          "name": "path",
          "type": "address[]"
        },
        {
          "internalType": "uint256",
          "name": "sourceAmount",
          "type": "uint256"
        }
      ],
      "name": "getReturnByPath",
      "outputs": [
        {
          "internalType": "uint256",
          "name": "",
          "type": "uint256"
        },
        {
          "internalType": "uint256",
          "name": "",
          "type": "uint256"
        }
      ],
      "stateMutability": "view",
      "type": "function"
    },
    {
      "inputs": [],
      "name": "getReturnNew",
      "outputs": [
        {
          "internalType": "uint256",
          "name": "",
          "type": "uint256"
        },
        {
          "internalType": "uint256",
          "name": "",
          "type": "uint256"
        }
      ],
      "stateMutability": "view",
      "type": "function"
    },
    {
      "inputs": [],
      "name": "getReturnOld",
      "outputs": [
        {
          "internalType": "uint256",
          "name": "",
          "type": "uint256"
        },
        {
          "internalType": "uint256",
          "name": "",
          "type": "uint256"
        }
      ],
      "stateMutability": "view",
      "type": "function"
    },
    {
      "inputs": [
        {
          "internalType": "contract IConverter",
          "name": "converter",
          "type": "address"
        }
      ],
      "name": "isV28OrHigherConverterExternal",
      "outputs": [
        {
          "internalType": "bool",
          "name": "",
          "type": "bool"
        }
      ],
      "stateMutability": "view",
      "type": "function"
    },
    {
      "inputs": [],
      "name": "newOwner",
      "outputs": [
        {
          "internalType": "address",
          "name": "",
          "type": "address"
        }
      ],
      "stateMutability": "view",
      "type": "function"
    },
    {
      "inputs": [],
      "name": "onlyOwnerCanUpdateRegistry",
      "outputs": [
        {
          "internalType": "bool",
          "name": "",
          "type": "bool"
        }
      ],
      "stateMutability": "view",
      "type": "function"
    },
    {
      "inputs": [],
      "name": "owner",
      "outputs": [
        {
          "internalType": "address",
          "name": "",
          "type": "address"
        }
      ],
      "stateMutability": "view",
      "type": "function"
    },
    {
      "inputs": [],
      "name": "prevRegistry",
      "outputs": [
        {
          "internalType": "contract IContractRegistry",
          "name": "",
          "type": "address"
        }
      ],
      "stateMutability": "view",
      "type": "function"
    },
    {
      "inputs": [
        {
          "internalType": "address[]",
          "name": "path",
          "type": "address[]"
        },
        {
          "internalType": "uint256",
          "name": "sourceAmount",
          "type": "uint256"
        }
      ],
      "name": "rateByPath",
      "outputs": [
        {
          "internalType": "uint256",
          "name": "",
          "type": "uint256"
        }
      ],
      "stateMutability": "view",
      "type": "function"
    },
    {
      "inputs": [],
      "name": "registry",
      "outputs": [
        {
          "internalType": "contract IContractRegistry",
          "name": "",
          "type": "address"
        }
      ],
      "stateMutability": "view",
      "type": "function"
    },
    {
      "inputs": [],
      "name": "restoreRegistry",
      "outputs": [],
      "stateMutability": "nonpayable",
      "type": "function"
    },
    {
      "inputs": [
        {
          "internalType": "bool",
          "name": "restrictOwnerOnly",
          "type": "bool"
        }
      ],
      "name": "restrictRegistryUpdate",
      "outputs": [],
      "stateMutability": "nonpayable",
      "type": "function"
    },
    {
      "inputs": [
        {
          "internalType": "address",
          "name": "newOwner",
          "type": "address"
        }
      ],
      "name": "transferOwnership",
      "outputs": [],
      "stateMutability": "nonpayable",
      "type": "function"
    },
    {
      "inputs": [],
      "name": "updateRegistry",
      "outputs": [],
      "stateMutability": "nonpayable",
      "type": "function"
    },
    {
      "inputs": [
        {
          "internalType": "contract IReserveToken",
          "name": "reserveToken",
          "type": "address"
        },
        {
          "internalType": "address payable",
          "name": "to",
          "type": "address"
        },
        {
          "internalType": "uint256",
          "name": "amount",
          "type": "uint256"
        }
      ],
      "name": "withdrawTokens",
      "outputs": [],
      "stateMutability": "nonpayable",
      "type": "function"
    },
    {
      "inputs": [
        {
          "internalType": "contract IReserveToken[]",
          "name": "reserveTokens",
          "type": "address[]"
        },
        {
          "internalType": "address payable",
          "name": "to",
          "type": "address"
        },
        {
          "internalType": "uint256[]",
          "name": "amounts",
          "type": "uint256[]"
        }
      ],
      "name": "withdrawTokensMultiple",
      "outputs": [],
      "stateMutability": "nonpayable",
      "type": "function"
    },
    {
      "inputs": [
        {
          "internalType": "address[]",
          "name": "path",
          "type": "address[]"
        },
        {
          "internalType": "uint256",
          "name": "sourceAmount",
          "type": "uint256"
        },
        {
          "internalType": "uint256",
          "name": "minReturn",
          "type": "uint256"
        },
        {
          "internalType": "bytes32",
          "name": "targetBlockchain",
          "type": "bytes32"
        },
        {
          "internalType": "bytes32",
          "name": "targetAccount",
          "type": "bytes32"
        },
        {
          "internalType": "uint256",
          "name": "conversionId",
          "type": "uint256"
        }
      ],
      "name": "xConvert",
      "outputs": [
        {
          "internalType": "uint256",
          "name": "",
          "type": "uint256"
        }
      ],
      "stateMutability": "payable",
      "type": "function"
    },
    {
      "stateMutability": "payable",
      "type": "receive"
    }
  ],
  "bytecode": "0x60806040523480156200001157600080fd5b506040516200308f3803806200308f833981810160405260408110156200003757600080fd5b508051602090910151600080546001600160a01b031916331790556001808062000061816200014f565b50600280546001600160a01b039092166001600160a01b03199283168117909155600380549092161790555060016004556040518290620000a290620001ae565b90815260405190819003602001906000f080158015620000c6573d6000803e3d6000fd5b50600560006101000a8154816001600160a01b0302191690836001600160a01b031602179055508181604051620000fd90620001bb565b9182526020820152604080519182900301906000f08015801562000125573d6000803e3d6000fd5b50600680546001600160a01b0319166001600160a01b039290921691909117905550620001c89050565b6001600160a01b038116620001ab576040805162461bcd60e51b815260206004820152601360248201527f4552525f494e56414c49445f4144445245535300000000000000000000000000604482015290519081900360640190fd5b50565b60cf8062002ed983390190565b60e78062002fa883390190565b612d0180620001d86000396000f3fe6080604052600436106101d15760003560e01c80638da5cb5b116100f7578063c7ba24bc11610095578063e57738e511610064578063e57738e514610be7578063f2fde38b14610c0a578063f3898a9714610c3d578063f8394fb714610c53576101d8565b8063c7ba24bc14610a7e578063c98fefed14610b31578063d4ee1d9014610b47578063d734fa1914610b5c576101d8565b8063b1e9932b116100d1578063b1e9932b146108d9578063b4a176d31461099b578063b77d239b146109b0578063c52173de146109c6576101d8565b80638da5cb5b146107ea57806398e95740146107ff578063ab6214ce14610814576101d8565b8063569706eb1161016f57806379ba50971161013e57806379ba5097146106455780637b1039991461065a5780637f9c0ecd1461066f57806389f9cc611461071f576101d8565b8063569706eb146105015780635e35359e146105bc57806361cd756e146105ff578063699e754614610630576101d8565b80630c8496cc116101ab5780630c8496cc1461032a5780632978c10e146103f35780632fe8a6ad146104d757806349d10b64146104ec576101d8565b8063024c7ec7146101dd57806303613f391461020b57806308506df714610252576101d8565b366101d857005b600080fd5b3480156101e957600080fd5b506102096004803603602081101561020057600080fd5b50351515610d08565b005b34801561021757600080fd5b5061023e6004803603602081101561022e57600080fd5b50356001600160a01b0316610d2e565b604080519115158252519081900360200190f35b34801561025e57600080fd5b506102096004803603606081101561027557600080fd5b810190602081018135600160201b81111561028f57600080fd5b8201836020820111156102a157600080fd5b803590602001918460208302840111600160201b831117156102c257600080fd5b919390926001600160a01b0383351692604081019060200135600160201b8111156102ec57600080fd5b8201836020820111156102fe57600080fd5b803590602001918460208302840111600160201b8311171561031f57600080fd5b509092509050610d41565b34801561033657600080fd5b506103da6004803603604081101561034d57600080fd5b810190602081018135600160201b81111561036757600080fd5b82018360208201111561037957600080fd5b803590602001918460208302840111600160201b8311171561039a57600080fd5b9190808060200260200160405190810160405280939291908181526020018383602002808284376000920191909152509295505091359250610e05915050565b6040805192835260208301919091528051918290030190f35b3480156103ff57600080fd5b506104c5600480360360c081101561041657600080fd5b810190602081018135600160201b81111561043057600080fd5b82018360208201111561044257600080fd5b803590602001918460208302840111600160201b8311171561046357600080fd5b919080806020026020016040519081016040528093929190818152602001838360200280828437600092019190915250929550508235935050506020810135906001600160a01b03604082013581169160608101359091169060800135610e1d565b60408051918252519081900360200190f35b3480156104e357600080fd5b5061023e610e36565b3480156104f857600080fd5b50610209610e46565b6104c5600480360360a081101561051757600080fd5b810190602081018135600160201b81111561053157600080fd5b82018360208201111561054357600080fd5b803590602001918460208302840111600160201b8311171561056457600080fd5b919080806020026020016040519081016040528093929190818152602001838360200280828437600092019190915250929550508235935050506020810135906001600160a01b03604082013516906060013561105c565b3480156105c857600080fd5b50610209600480360360608110156105df57600080fd5b506001600160a01b03813581169160208101359091169060400135611075565b34801561060b57600080fd5b506106146110a1565b604080516001600160a01b039092168252519081900360200190f35b34801561063c57600080fd5b506103da6110b0565b34801561065157600080fd5b506102096110d5565b34801561066657600080fd5b5061061461118c565b34801561067b57600080fd5b506104c56004803603604081101561069257600080fd5b810190602081018135600160201b8111156106ac57600080fd5b8201836020820111156106be57600080fd5b803590602001918460208302840111600160201b831117156106df57600080fd5b919080806020026020016040519081016040528093929190818152602001838360200280828437600092019190915250929550509135925061119b915050565b34801561072b57600080fd5b506104c5600480360360a081101561074257600080fd5b810190602081018135600160201b81111561075c57600080fd5b82018360208201111561076e57600080fd5b803590602001918460208302840111600160201b8311171561078f57600080fd5b919080806020026020016040519081016040528093929190818152602001838360200280828437600092019190915250929550506001600160a01b0383358116945060208401359360408101359350606001351690506112e9565b3480156107f657600080fd5b50610614611458565b34801561080b57600080fd5b506103da611467565b6104c5600480360360c081101561082a57600080fd5b810190602081018135600160201b81111561084457600080fd5b82018360208201111561085657600080fd5b803590602001918460208302840111600160201b8311171561087757600080fd5b919080806020026020016040519081016040528093929190818152602001838360200280828437600092019190915250929550508235935050506020810135906001600160a01b03604082013581169160608101359091169060800135611484565b3480156108e557600080fd5b506104c5600480360360808110156108fc57600080fd5b810190602081018135600160201b81111561091657600080fd5b82018360208201111561092857600080fd5b803590602001918460208302840111600160201b8311171561094957600080fd5b91908080602002602001604051908101604052809392919081815260200183836020028082843760009201919091525092955050823593505050602081013590604001356001600160a01b03166114a8565b3480156109a757600080fd5b506102096114bf565b6104c5600480360360c081101561041657600080fd5b6104c5600480360360c08110156109dc57600080fd5b810190602081018135600160201b8111156109f657600080fd5b820183602082011115610a0857600080fd5b803590602001918460208302840111600160201b83111715610a2957600080fd5b91908080602002602001604051908101604052809392919081815260200183836020028082843760009201919091525092955050823593505050602081013590604081013590606081013590608001356114eb565b348015610a8a57600080fd5b506104c560048036036060811015610aa157600080fd5b810190602081018135600160201b811115610abb57600080fd5b820183602082011115610acd57600080fd5b803590602001918460208302840111600160201b83111715610aee57600080fd5b919080806020026020016040519081016040528093929190818152602001838360200280828437600092019190915250929550508235935050506020013561164b565b6104c5600480360360808110156108fc57600080fd5b348015610b5357600080fd5b50610614611664565b348015610b6857600080fd5b50610b9760048036036040811015610b7f57600080fd5b506001600160a01b0381358116916020013516611673565b60408051602080825283518183015283519192839290830191858101910280838360005b83811015610bd3578181015183820152602001610bbb565b505050509050019250505060405180910390f35b348015610bf357600080fd5b506104c5600480360360a081101561051757600080fd5b348015610c1657600080fd5b5061020960048036036020811015610c2d57600080fd5b50356001600160a01b03166117c7565b6104c560048036036060811015610aa157600080fd5b6104c560048036036080811015610c6957600080fd5b810190602081018135600160201b811115610c8357600080fd5b820183602082011115610c9557600080fd5b803590602001918460208302840111600160201b83111715610cb657600080fd5b91908080602002602001604051908101604052809392919081815260200183836020028082843760009201919091525092955050823593505050602081013590604001356001600160a01b0316611845565b610d1061198b565b60038054911515600160a01b0260ff60a01b19909216919091179055565b6000610d39826119e0565b90505b919050565b610d4961198b565b82610d5381611af7565b84828114610d9d576040805162461bcd60e51b815260206004820152601260248201527108aa4a4be929cac82989288be988a9c8ea8960731b604482015290519081900360640190fd5b60005b81811015610dfb57610df386868684818110610db857fe5b905060200201358a8a85818110610dcb57fe5b905060200201356001600160a01b03166001600160a01b0316611b4b9092919063ffffffff16565b600101610da0565b5050505050505050565b600080610e12848461119b565b946000945092505050565b6000610e2b87878787611845565b979650505050505050565b600354600160a01b900460ff1690565b610e4e611458565b6001600160a01b0316336001600160a01b03161480610e775750600354600160a01b900460ff16155b610ebc576040805162461bcd60e51b815260206004820152601160248201527011549497d050d0d154d4d7d11153925151607a1b604482015290519081900360640190fd5b6000610eda6f436f6e7472616374526567697374727960801b611bc2565b6002549091506001600160a01b03808316911614801590610f0357506001600160a01b03811615155b610f4b576040805162461bcd60e51b81526020600482015260146024820152734552525f494e56414c49445f524547495354525960601b604482015290519081900360640190fd5b60006001600160a01b0316816001600160a01b031663bb34534c6f436f6e7472616374526567697374727960801b6040518263ffffffff1660e01b81526004018082815260200191505060206040518083038186803b158015610fad57600080fd5b505afa158015610fc1573d6000803e3d6000fd5b505050506040513d6020811015610fd757600080fd5b50516001600160a01b0316141561102c576040805162461bcd60e51b81526020600482015260146024820152734552525f494e56414c49445f524547495354525960601b604482015290519081900360640190fd5b60028054600380546001600160a01b038084166001600160a01b0319928316179092559091169216919091179055565b600061106b8686866000611845565b9695505050505050565b61107d61198b565b8161108781611af7565b61109b6001600160a01b0385168484611b4b565b50505050565b6003546001600160a01b031690565b60065460009081906110cd906001600160a01b0316828080611c40565b915091509091565b6001546001600160a01b03163314611128576040805162461bcd60e51b815260206004820152601160248201527011549497d050d0d154d4d7d11153925151607a1b604482015290519081900360640190fd5b600154600080546040516001600160a01b0393841693909116917f343765429aea5a34b3ff6a3785a98a5abb2597aca87bfbb58632c173d585373a91a360018054600080546001600160a01b03199081166001600160a01b03841617909155169055565b6002546001600160a01b031690565b6000600283511180156111b9575060028351816111b457fe5b066001145b6111fd576040805162461bcd60e51b815260206004820152601060248201526f08aa4a4be929cac82989288bea082a8960831b604482015290519081900360640190fd5b8160025b84518110156112e157600085600283038151811061121b57fe5b60200260200101519050600086600184038151811061123657fe5b60200260200101519050600087848151811061124e57fe5b602002602001015190506000826001600160a01b0316638da5cb5b6040518163ffffffff1660e01b815260040160206040518083038186803b15801561129357600080fd5b505afa1580156112a7573d6000803e3d6000fd5b505050506040513d60208110156112bd57600080fd5b505190506112cd81858489611c40565b508096505050505050600281019050611201565b509392505050565b6000846001600160a01b031663fc0c546a6040518163ffffffff1660e01b815260040160206040518083038186803b15801561132457600080fd5b505afa158015611338573d6000803e3d6000fd5b505050506040513d602081101561134e57600080fd5b505186516001600160a01b0390911690879060009061136957fe5b60200260200101516001600160a01b0316146113c7576040805162461bcd60e51b815260206004820152601860248201527722a9292fa4a72b20a624a22fa9a7aaa921a2afaa27a5a2a760411b604482015290519081900360640190fd5b6000856001600160a01b031663aafd6b7686336040518363ffffffff1660e01b815260040180838152602001826001600160a01b031681526020019250505060206040518083038186803b15801561141e57600080fd5b505afa158015611432573d6000803e3d6000fd5b505050506040513d602081101561144857600080fd5b50519050610e2b87828686611845565b6000546001600160a01b031690565b60055460009081906110cd906001600160a01b0316828080611c40565b60008461149081611db4565b61149c88888888611845565b98975050505050505050565b60006114b685858585611845565b95945050505050565b6114c761198b565b600354600280546001600160a01b0319166001600160a01b03909216919091179055565b6000846114f781611db4565b60008860018a51038151811061150957fe5b60200260200101519050600061152866084c2dcc6dee4b60cb1b611bc2565b905061153e6721272a2a37b5b2b760c11b611bc2565b6001600160a01b0316826001600160a01b0316146115a3576040805162461bcd60e51b815260206004820152601860248201527f4552525f494e56414c49445f5441524745545f544f4b454e0000000000000000604482015290519081900360640190fd5b60006115b18b8b8b30611845565b90506115c76001600160a01b0384168383611dfa565b6040805163109f00dd60e21b8152600481018a905260248101899052604481018390526064810188905290516001600160a01b0384169163427c037491608480830192600092919082900301818387803b15801561162457600080fd5b505af1158015611638573d6000803e3d6000fd5b50929d9c50505050505050505050505050565b600061165a8484846000611845565b90505b9392505050565b6001546001600160a01b031690565b606060006116977321b7b73b32b939b4b7b72830ba342334b73232b960611b611bc2565b9050806001600160a01b031663a1c421cd85856040518363ffffffff1660e01b815260040180836001600160a01b03168152602001826001600160a01b031681526020019250505060006040518083038186803b1580156116f757600080fd5b505afa15801561170b573d6000803e3d6000fd5b505050506040513d6000823e601f3d908101601f19168201604052602081101561173457600080fd5b8101908080516040519392919084600160201b82111561175357600080fd5b90830190602082018581111561176857600080fd5b82518660208202830111600160201b8211171561178457600080fd5b82525081516020918201928201910280838360005b838110156117b1578181015183820152602001611799565b5050505090500160405250505091505092915050565b6117cf61198b565b6000546001600160a01b0382811691161415611823576040805162461bcd60e51b815260206004820152600e60248201526d22a9292fa9a0a6a2afa7aba722a960911b604482015290519081900360640190fd5b600180546001600160a01b0319166001600160a01b0392909216919091179055565b60006002600454141561189f576040805162461bcd60e51b815260206004820152601f60248201527f5265656e7472616e637947756172643a207265656e7472616e742063616c6c00604482015290519081900360640190fd5b6002600455826118ae81611db4565b600286511180156118ca575060028651816118c557fe5b066001145b61190e576040805162461bcd60e51b815260206004820152601060248201526f08aa4a4be929cac82989288bea082a8960831b604482015290519081900360640190fd5b6119418660008151811061191e57fe5b60200260200101518760018151811061193357fe5b602002602001015187611e2b565b6001600160a01b038316611953573392505b606061195f8785612046565b9050600061196e8288886122b5565b905061197b82828761268b565b6001600455979650505050505050565b6000546001600160a01b031633146119de576040805162461bcd60e51b815260206004820152601160248201527011549497d050d0d154d4d7d11153925151607a1b604482015290519081900360640190fd5b565b60408051600481526024810182526020810180516001600160e01b031663349814a760e21b1781529151815160009384926060926001600160a01b03881692610fa0928792909182918083835b60208310611a4c5780518252601f199092019160209182019101611a2d565b6001836020036101000a0380198251168184511680821785525050505050509050019150506000604051808303818686fa925050503d8060008114611aad576040519150601f19603f3d011682016040523d82523d6000602084013e611ab2565b606091505b5091509150818015611ac5575080516020145b15611aec57808060200190516020811015611adf57600080fd5b50519350610d3c92505050565b506000949350505050565b6001600160a01b038116611b48576040805162461bcd60e51b81526020600482015260136024820152724552525f494e56414c49445f4144445245535360681b604482015290519081900360640190fd5b50565b80611b5557611bbd565b611b5e83612702565b15611b9f576040516001600160a01b0383169082156108fc029083906000818181858888f19350505050158015611b99573d6000803e3d6000fd5b50611bbd565b611bbd8282611bad86612727565b6001600160a01b0316919061272a565b505050565b60025460408051632ecd14d360e21b81526004810184905290516000926001600160a01b03169163bb34534c916024808301926020929190829003018186803b158015611c0e57600080fd5b505afa158015611c22573d6000803e3d6000fd5b505050506040513d6020811015611c3857600080fd5b505192915050565b604080516001600160a01b0380861660248301528085166044830152606480830185905283518084039091018152608490920183526020820180516001600160e01b03166303c2803f60e31b178152925182516000948594938593606093918c169286928291908083835b60208310611cca5780518252601f199092019160209182019101611cab565b6001836020036101000a038019825116818451168082178552505050505050905001915050600060405180830381855afa9150503d8060008114611d2a576040519150601f19603f3d011682016040523d82523d6000602084013e611d2f565b606091505b50915091508115611da057805160401415611d7057808060200190516040811015611d5957600080fd5b5080516020909101519095509350611dab92505050565b805160201415611da057808060200190516020811015611d8f57600080fd5b5051945060009350611dab92505050565b600080945094505050505b94509492505050565b60008111611b48576040805162461bcd60e51b815260206004820152600e60248201526d4552525f5a45524f5f56414c554560901b604482015290519081900360640190fd5b611e0383612702565b15611e0d57611bbd565b611bbd8282611e1b86612727565b6001600160a01b0316919061277c565b6000826001600160a01b0316638da5cb5b6040518163ffffffff1660e01b815260040160206040518083038186803b158015611e6657600080fd5b505afa158015611e7a573d6000803e3d6000fd5b505050506040513d6020811015611e9057600080fd5b505190506000611e9f826119e0565b90503415611fb057823414611efb576040805162461bcd60e51b815260206004820152601760248201527f4552525f4554485f414d4f554e545f4d49534d41544348000000000000000000604482015290519081900360640190fd5b611f0d856001600160a01b0316612702565b611f59576040805162461bcd60e51b815260206004820152601860248201527722a9292fa4a72b20a624a22fa9a7aaa921a2afaa27a5a2a760411b604482015290519081900360640190fd5b80611fab576040805162461bcd60e51b815260206004820152601b60248201527f4552525f434f4e5645525445525f4e4f545f535550504f525445440000000000604482015290519081900360640190fd5b61203f565b611fc2856001600160a01b0316612702565b1561200f576040805162461bcd60e51b815260206004820152601860248201527722a9292fa4a72b20a624a22fa9a7aaa921a2afaa27a5a2a760411b604482015290519081900360640190fd5b801561202a57611fab6001600160a01b038616338486612841565b61203f6001600160a01b038616333086612841565b5050505050565b606080600284518161205457fe5b0467ffffffffffffffff8111801561206b57600080fd5b506040519080825280602002602001820160405280156120a557816020015b612092612c5f565b81526020019060019003908161208a5790505b50905060005b60018551038110156121f65760008582600101815181106120c857fe5b602002602001015190506000816001600160a01b0316638da5cb5b6040518163ffffffff1660e01b815260040160206040518083038186803b15801561210d57600080fd5b505afa158015612121573d6000803e3d6000fd5b505050506040513d602081101561213757600080fd5b5051875190915060009088906002860190811061215057fe5b602002602001015190506040518060c00160405280836001600160a01b03168152602001846001600160a01b0316815260200189868151811061218f57fe5b60200260200101516001600160a01b03168152602001826001600160a01b0316815260200160006001600160a01b031681526020016121cd846119e0565b151590528560028604815181106121e057fe5b60209081029190910101525050506002016120ab565b5060005b81518110156112e15761220b612c5f565b82828151811061221757fe5b602002602001015190508060a00151156122a557600183510382141561224b576001600160a01b03851660808201526122a0565b82826001018151811061225a57fe5b602002602001015160a00151156122995782826001018151811061227a57fe5b6020908102919091010151516001600160a01b031660808201526122a0565b3060808201525b6122ac565b3060808201525b506001016121fa565b60008060005b8551811015612640576122cc612c5f565b8682815181106122d857fe5b602002602001015190508060a001511561236c5781158015906123265750306001600160a01b031687600184038151811061230f57fe5b6020026020010151608001516001600160a01b0316145b8015612345575061234381604001516001600160a01b0316612702565b155b156123675780516040820151612367916001600160a01b039091169088611b4b565b6123ad565b80602001516001600160a01b031681604001516001600160a01b0316141561239057fe5b805160408201516123ad916001600160a01b039091169088611dfa565b8060a0015161245557805160408083015160608401518251635e5144eb60e01b81526001600160a01b0392831660048201529082166024820152604481018a9052600160648201529151921691635e5144eb916084808201926020929091908290030181600087803b15801561242257600080fd5b505af1158015612436573d6000803e3d6000fd5b505050506040513d602081101561244c57600080fd5b505192506125b8565b61246b81604001516001600160a01b0316612702565b1561251257805160408083015160608401516080850151835163e8dc12ff60e01b81526001600160a01b0393841660048201529183166024830152604482018b905233606483015282166084820152915192169163e8dc12ff91349160a480830192602092919082900301818588803b1580156124e757600080fd5b505af11580156124fb573d6000803e3d6000fd5b50505050506040513d602081101561244c57600080fd5b805160408083015160608401516080850151835163e8dc12ff60e01b81526001600160a01b0393841660048201529183166024830152604482018b905233606483015282166084820152915192169163e8dc12ff9160a4808201926020929091908290030181600087803b15801561258957600080fd5b505af115801561259d573d6000803e3d6000fd5b505050506040513d60208110156125b357600080fd5b505192505b80606001516001600160a01b031681604001516001600160a01b031682602001516001600160a01b03167f7154b38b5dd31bb3122436a96d4e09aba5b323ae1fd580025fab55074334c09589873360405180848152602001838152602001826001600160a01b03168152602001935050505060405180910390a45090935083906001016122bb565b508281101561165a576040805162461bcd60e51b81526020600482015260126024820152714552525f52455455524e5f544f4f5f4c4f5760701b604482015290519081900360640190fd5b612693612c5f565b836001855103815181106126a357fe5b60200260200101519050306001600160a01b031681608001516001600160a01b0316146126d05750611bbd565b60608101516126e76001600160a01b038216612702565b156126ee57fe5b61203f6001600160a01b0382168486611b4b565b6001600160a01b03811673eeeeeeeeeeeeeeeeeeeeeeeeeeeeeeeeeeeeeeee14919050565b90565b604080516001600160a01b038416602482015260448082018490528251808303909101815260649091019091526020810180516001600160e01b031663a9059cbb60e01b179052611bbd90849061287c565b8061278657611bbd565b60408051636eb1769f60e11b81523060048201526001600160a01b038481166024830152915160009286169163dd62ed3e916044808301926020929190829003018186803b1580156127d757600080fd5b505afa1580156127eb573d6000803e3d6000fd5b505050506040513d602081101561280157600080fd5b505190508181106128125750611bbd565b801561282d5761282d6001600160a01b03851684600061292d565b61109b6001600160a01b038516848461292d565b801580612852575061285284612702565b1561285c5761109b565b61109b83838361286b88612727565b6001600160a01b0316929190612a40565b60606128d1826040518060400160405280602081526020017f5361666545524332303a206c6f772d6c6576656c2063616c6c206661696c6564815250856001600160a01b0316612a9a9092919063ffffffff16565b805190915015611bbd578080602001905160208110156128f057600080fd5b5051611bbd5760405162461bcd60e51b815260040180806020018281038252602a815260200180612c95602a913960400191505060405180910390fd5b8015806129b3575060408051636eb1769f60e11b81523060048201526001600160a01b03848116602483015291519185169163dd62ed3e91604480820192602092909190829003018186803b15801561298557600080fd5b505afa158015612999573d6000803e3d6000fd5b505050506040513d60208110156129af57600080fd5b5051155b6129ee5760405162461bcd60e51b8152600401808060200182810382526036815260200180612cbf6036913960400191505060405180910390fd5b604080516001600160a01b038416602482015260448082018490528251808303909101815260649091019091526020810180516001600160e01b031663095ea7b360e01b179052611bbd90849061287c565b604080516001600160a01b0380861660248301528416604482015260648082018490528251808303909101815260849091019091526020810180516001600160e01b03166323b872dd60e01b17905261109b90859061287c565b606061165a848460008585612aae85612bb5565b612aff576040805162461bcd60e51b815260206004820152601d60248201527f416464726573733a2063616c6c20746f206e6f6e2d636f6e7472616374000000604482015290519081900360640190fd5b60006060866001600160a01b031685876040518082805190602001908083835b60208310612b3e5780518252601f199092019160209182019101612b1f565b6001836020036101000a03801982511681845116808217855250505050505090500191505060006040518083038185875af1925050503d8060008114612ba0576040519150601f19603f3d011682016040523d82523d6000602084013e612ba5565b606091505b5091509150610e2b828286612bbb565b3b151590565b60608315612bca57508161165d565b825115612bda5782518084602001fd5b8160405162461bcd60e51b81526004018080602001828103825283818151815260200191508051906020019080838360005b83811015612c24578181015183820152602001612c0c565b50505050905090810190601f168015612c515780820380516001836020036101000a031916815260200191505b509250505060405180910390fd5b6040805160c081018252600080825260208201819052918101829052606081018290526080810182905260a08101919091529056fe5361666545524332303a204552433230206f7065726174696f6e20646964206e6f7420737563636565645361666545524332303a20617070726f76652066726f6d206e6f6e2d7a65726f20746f206e6f6e2d7a65726f20616c6c6f77616e6365a164736f6c634300060c000a608060405234801561001057600080fd5b506040516100cf3803806100cf8339818101604052602081101561003357600080fd5b50516000556089806100466000396000f3fe6080604052348015600f57600080fd5b506004361060285760003560e01c80631e1401f814602d575b600080fd5b606060048036036060811015604157600080fd5b506001600160a01b038135811691602081013590911690604001356072565b60408051918252519081900360200190f35b600054939250505056fea164736f6c634300060c000a608060405234801561001057600080fd5b506040516100e73803806100e78339818101604052604081101561003357600080fd5b5080516020909101516000919091556001556094806100536000396000f3fe6080604052348015600f57600080fd5b506004361060285760003560e01c80631e1401f814602d575b600080fd5b606060048036036060811015604157600080fd5b506001600160a01b038135811691602081013590911690604001356079565b6040805192835260208301919091528051918290030190f35b60005460015493509391505056fea164736f6c634300060c000a",
  "linkReferences": {},
  "deployedLinkReferences": {}
}