{
  "_format": "hh-sol-artifact-1",
  "contractName": "TestTransferPositionCallback",
  "sourceName": "contracts/helpers/TestTransferPositionCallback.sol",
  "abi": [
    {
      "inputs": [
        {
          "internalType": "uint256",
          "name": "newId",
          "type": "uint256"
        },
        {
          "internalType": "address",
          "name": "provider",
          "type": "address"
        },
        {
          "internalType": "bytes",
          "name": "data",
          "type": "bytes"
        }
      ],
      "name": "onTransferPosition",
      "outputs": [],
      "stateMutability": "nonpayable",
      "type": "function"
    },
    {
      "inputs": [],
      "name": "transferEvent",
      "outputs": [
        {
          "internalType": "uint256",
          "name": "",
          "type": "uint256"
        },
        {
          "internalType": "address",
          "name": "",
          "type": "address"
        },
        {
          "internalType": "bytes",
          "name": "",
          "type": "bytes"
        }
      ],
      "stateMutability": "view",
      "type": "function"
    }
  ],
  "bytecode": "0x608060405234801561001057600080fd5b50610350806100206000396000f3fe608060405234801561001057600080fd5b50600436106100365760003560e01c80634265c7511461003b5780635c2ba845146100d2575b600080fd5b610043610159565b60405180848152602001836001600160a01b0316815260200180602001828103825283818151815260200191508051906020019080838360005b8381101561009557818101518382015260200161007d565b50505050905090810190601f1680156100c25780820380516001836020036101000a031916815260200191505b5094505050505060405180910390f35b610157600480360360608110156100e857600080fd5b8135916001600160a01b036020820135169181019060608101604082013564010000000081111561011857600080fd5b82018360208201111561012a57600080fd5b8035906020019184600183028401116401000000008311171561014c57600080fd5b50909250905061020b565b005b600080546001805460028054604080516020610100968416159690960260001901909216839004601f8101869004860283018601909152808252869560609590946001600160a01b031693929183918301828280156101f95780601f106101ce576101008083540402835291602001916101f9565b820191906000526020600020905b8154815290600101906020018083116101dc57829003601f168201915b50505050509050925092509250909192565b6040518060600160405280858152602001846001600160a01b0316815260200183838080601f016020809104026020016040519081016040528093929190818152602001838380828437600092018290525093909452505082518155602080840151600180546001600160a01b0319166001600160a01b03909216919091179055604084015180519293506102a79260029291909101906102b0565b50505050505050565b828054600181600116156101000203166002900490600052602060002090601f016020900481019282601f106102f157805160ff191683800117855561031e565b8280016001018555821561031e579182015b8281111561031e578251825591602001919060010190610303565b5061032a92915061032e565b5090565b5b8082111561032a576000815560010161032f56fea164736f6c634300060c000a",
  "linkReferences": {},
  "deployedLinkReferences": {}
}