{
  "_format": "hh-sol-artifact-1",
  "contractName": "ConverterRegistry",
  "sourceName": "contracts/converter/ConverterRegistry.sol",
  "abi": [
    {
      "inputs": [
        {
          "internalType": "contract IContractRegistry",
          "name": "registry",
          "type": "address"
        }
      ],
      "stateMutability": "nonpayable",
      "type": "constructor"
    },
    {
      "anonymous": false,
      "inputs": [
        {
          "indexed": true,
          "internalType": "contract IConverterAnchor",
          "name": "anchor",
          "type": "address"
        }
      ],
      "name": "ConverterAnchorAdded",
      "type": "event"
    },
    {
      "anonymous": false,
      "inputs": [
        {
          "indexed": true,
          "internalType": "contract IConverterAnchor",
          "name": "anchor",
          "type": "address"
        }
      ],
      "name": "ConverterAnchorRemoved",
      "type": "event"
    },
    {
      "anonymous": false,
      "inputs": [
        {
          "indexed": true,
          "internalType": "contract IReserveToken",
          "name": "convertibleToken",
          "type": "address"
        },
        {
          "indexed": true,
          "internalType": "contract IConverterAnchor",
          "name": "smartToken",
          "type": "address"
        }
      ],
      "name": "ConvertibleTokenAdded",
      "type": "event"
    },
    {
      "anonymous": false,
      "inputs": [
        {
          "indexed": true,
          "internalType": "contract IReserveToken",
          "name": "convertibleToken",
          "type": "address"
        },
        {
          "indexed": true,
          "internalType": "contract IConverterAnchor",
          "name": "smartToken",
          "type": "address"
        }
      ],
      "name": "ConvertibleTokenRemoved",
      "type": "event"
    },
    {
      "anonymous": false,
      "inputs": [
        {
          "indexed": true,
          "internalType": "contract IConverterAnchor",
          "name": "liquidityPool",
          "type": "address"
        }
      ],
      "name": "LiquidityPoolAdded",
      "type": "event"
    },
    {
      "anonymous": false,
      "inputs": [
        {
          "indexed": true,
          "internalType": "contract IConverterAnchor",
          "name": "liquidityPool",
          "type": "address"
        }
      ],
      "name": "LiquidityPoolRemoved",
      "type": "event"
    },
    {
      "anonymous": false,
      "inputs": [
        {
          "indexed": true,
          "internalType": "address",
          "name": "prevOwner",
          "type": "address"
        },
        {
          "indexed": true,
          "internalType": "address",
          "name": "newOwner",
          "type": "address"
        }
      ],
      "name": "OwnerUpdate",
      "type": "event"
    },
    {
      "anonymous": false,
      "inputs": [
        {
          "indexed": true,
          "internalType": "contract IConverterAnchor",
          "name": "smartToken",
          "type": "address"
        }
      ],
      "name": "SmartTokenAdded",
      "type": "event"
    },
    {
      "anonymous": false,
      "inputs": [
        {
          "indexed": true,
          "internalType": "contract IConverterAnchor",
          "name": "smartToken",
          "type": "address"
        }
      ],
      "name": "SmartTokenRemoved",
      "type": "event"
    },
    {
      "inputs": [],
      "name": "acceptOwnership",
      "outputs": [],
      "stateMutability": "nonpayable",
      "type": "function"
    },
    {
      "inputs": [
        {
          "internalType": "contract IConverter",
          "name": "converter",
          "type": "address"
        }
      ],
      "name": "addConverter",
      "outputs": [],
      "stateMutability": "nonpayable",
      "type": "function"
    },
    {
      "inputs": [
        {
          "internalType": "uint256",
          "name": "index",
          "type": "uint256"
        }
      ],
      "name": "getAnchor",
      "outputs": [
        {
          "internalType": "contract IConverterAnchor",
          "name": "",
          "type": "address"
        }
      ],
      "stateMutability": "view",
      "type": "function"
    },
    {
      "inputs": [],
      "name": "getAnchorCount",
      "outputs": [
        {
          "internalType": "uint256",
          "name": "",
          "type": "uint256"
        }
      ],
      "stateMutability": "view",
      "type": "function"
    },
    {
      "inputs": [],
      "name": "getAnchors",
      "outputs": [
        {
          "internalType": "address[]",
          "name": "",
          "type": "address[]"
        }
      ],
      "stateMutability": "view",
      "type": "function"
    },
    {
      "inputs": [
        {
          "internalType": "address[]",
          "name": "anchors",
          "type": "address[]"
        }
      ],
      "name": "getConvertersByAnchors",
      "outputs": [
        {
          "internalType": "contract IConverter[]",
          "name": "",
          "type": "address[]"
        }
      ],
      "stateMutability": "view",
      "type": "function"
    },
    {
      "inputs": [
        {
          "internalType": "address[]",
          "name": "smartTokens",
          "type": "address[]"
        }
      ],
      "name": "getConvertersBySmartTokens",
      "outputs": [
        {
          "internalType": "contract IConverter[]",
          "name": "",
          "type": "address[]"
        }
      ],
      "stateMutability": "view",
      "type": "function"
    },
    {
      "inputs": [
        {
          "internalType": "uint256",
          "name": "index",
          "type": "uint256"
        }
      ],
      "name": "getConvertibleToken",
      "outputs": [
        {
          "internalType": "contract IReserveToken",
          "name": "",
          "type": "address"
        }
      ],
      "stateMutability": "view",
      "type": "function"
    },
    {
      "inputs": [
        {
          "internalType": "contract IReserveToken",
          "name": "convertibleToken",
          "type": "address"
        },
        {
          "internalType": "uint256",
          "name": "index",
          "type": "uint256"
        }
      ],
      "name": "getConvertibleTokenAnchor",
      "outputs": [
        {
          "internalType": "contract IConverterAnchor",
          "name": "",
          "type": "address"
        }
      ],
      "stateMutability": "view",
      "type": "function"
    },
    {
      "inputs": [
        {
          "internalType": "contract IReserveToken",
          "name": "convertibleToken",
          "type": "address"
        }
      ],
      "name": "getConvertibleTokenAnchorCount",
      "outputs": [
        {
          "internalType": "uint256",
          "name": "",
          "type": "uint256"
        }
      ],
      "stateMutability": "view",
      "type": "function"
    },
    {
      "inputs": [
        {
          "internalType": "contract IReserveToken",
          "name": "convertibleToken",
          "type": "address"
        }
      ],
      "name": "getConvertibleTokenAnchors",
      "outputs": [
        {
          "internalType": "address[]",
          "name": "",
          "type": "address[]"
        }
      ],
      "stateMutability": "view",
      "type": "function"
    },
    {
      "inputs": [],
      "name": "getConvertibleTokenCount",
      "outputs": [
        {
          "internalType": "uint256",
          "name": "",
          "type": "uint256"
        }
      ],
      "stateMutability": "view",
      "type": "function"
    },
    {
      "inputs": [
        {
          "internalType": "contract IReserveToken",
          "name": "convertibleToken",
          "type": "address"
        },
        {
          "internalType": "uint256",
          "name": "index",
          "type": "uint256"
        }
      ],
      "name": "getConvertibleTokenSmartToken",
      "outputs": [
        {
          "internalType": "contract IConverterAnchor",
          "name": "",
          "type": "address"
        }
      ],
      "stateMutability": "view",
      "type": "function"
    },
    {
      "inputs": [
        {
          "internalType": "contract IReserveToken",
          "name": "convertibleToken",
          "type": "address"
        }
      ],
      "name": "getConvertibleTokenSmartTokenCount",
      "outputs": [
        {
          "internalType": "uint256",
          "name": "",
          "type": "uint256"
        }
      ],
      "stateMutability": "view",
      "type": "function"
    },
    {
      "inputs": [
        {
          "internalType": "contract IReserveToken",
          "name": "convertibleToken",
          "type": "address"
        }
      ],
      "name": "getConvertibleTokenSmartTokens",
      "outputs": [
        {
          "internalType": "address[]",
          "name": "",
          "type": "address[]"
        }
      ],
      "stateMutability": "view",
      "type": "function"
    },
    {
      "inputs": [],
      "name": "getConvertibleTokens",
      "outputs": [
        {
          "internalType": "address[]",
          "name": "",
          "type": "address[]"
        }
      ],
      "stateMutability": "view",
      "type": "function"
    },
    {
      "inputs": [
        {
          "internalType": "uint256",
          "name": "index",
          "type": "uint256"
        }
      ],
      "name": "getLiquidityPool",
      "outputs": [
        {
          "internalType": "contract IConverterAnchor",
          "name": "",
          "type": "address"
        }
      ],
      "stateMutability": "view",
      "type": "function"
    },
    {
      "inputs": [
        {
          "internalType": "uint16",
          "name": "converterType",
          "type": "uint16"
        },
        {
          "internalType": "contract IReserveToken[]",
          "name": "reserveTokens",
          "type": "address[]"
        },
        {
          "internalType": "uint32[]",
          "name": "reserveWeights",
          "type": "uint32[]"
        }
      ],
      "name": "getLiquidityPoolByConfig",
      "outputs": [
        {
          "internalType": "contract IConverterAnchor",
          "name": "",
          "type": "address"
        }
      ],
      "stateMutability": "view",
      "type": "function"
    },
    {
      "inputs": [
        {
          "internalType": "contract IReserveToken[]",
          "name": "reserveTokens",
          "type": "address[]"
        },
        {
          "internalType": "uint32[]",
          "name": "reserveWeights",
          "type": "uint32[]"
        }
      ],
      "name": "getLiquidityPoolByReserveConfig",
      "outputs": [
        {
          "internalType": "contract IConverterAnchor",
          "name": "",
          "type": "address"
        }
      ],
      "stateMutability": "view",
      "type": "function"
    },
    {
      "inputs": [],
      "name": "getLiquidityPoolCount",
      "outputs": [
        {
          "internalType": "uint256",
          "name": "",
          "type": "uint256"
        }
      ],
      "stateMutability": "view",
      "type": "function"
    },
    {
      "inputs": [],
      "name": "getLiquidityPools",
      "outputs": [
        {
          "internalType": "address[]",
          "name": "",
          "type": "address[]"
        }
      ],
      "stateMutability": "view",
      "type": "function"
    },
    {
      "inputs": [
        {
          "internalType": "uint256",
          "name": "index",
          "type": "uint256"
        }
      ],
      "name": "getSmartToken",
      "outputs": [
        {
          "internalType": "contract IConverterAnchor",
          "name": "",
          "type": "address"
        }
      ],
      "stateMutability": "view",
      "type": "function"
    },
    {
      "inputs": [],
      "name": "getSmartTokenCount",
      "outputs": [
        {
          "internalType": "uint256",
          "name": "",
          "type": "uint256"
        }
      ],
      "stateMutability": "view",
      "type": "function"
    },
    {
      "inputs": [],
      "name": "getSmartTokens",
      "outputs": [
        {
          "internalType": "address[]",
          "name": "",
          "type": "address[]"
        }
      ],
      "stateMutability": "view",
      "type": "function"
    },
    {
      "inputs": [
        {
          "internalType": "address",
          "name": "value",
          "type": "address"
        }
      ],
      "name": "isAnchor",
      "outputs": [
        {
          "internalType": "bool",
          "name": "",
          "type": "bool"
        }
      ],
      "stateMutability": "view",
      "type": "function"
    },
    {
      "inputs": [
        {
          "internalType": "contract IConverter",
          "name": "converter",
          "type": "address"
        }
      ],
      "name": "isConverterValid",
      "outputs": [
        {
          "internalType": "bool",
          "name": "",
          "type": "bool"
        }
      ],
      "stateMutability": "view",
      "type": "function"
    },
    {
      "inputs": [
        {
          "internalType": "address",
          "name": "value",
          "type": "address"
        }
      ],
      "name": "isConvertibleToken",
      "outputs": [
        {
          "internalType": "bool",
          "name": "",
          "type": "bool"
        }
      ],
      "stateMutability": "view",
      "type": "function"
    },
    {
      "inputs": [
        {
          "internalType": "contract IReserveToken",
          "name": "convertibleToken",
          "type": "address"
        },
        {
          "internalType": "address",
          "name": "value",
          "type": "address"
        }
      ],
      "name": "isConvertibleTokenAnchor",
      "outputs": [
        {
          "internalType": "bool",
          "name": "",
          "type": "bool"
        }
      ],
      "stateMutability": "view",
      "type": "function"
    },
    {
      "inputs": [
        {
          "internalType": "contract IReserveToken",
          "name": "convertibleToken",
          "type": "address"
        },
        {
          "internalType": "address",
          "name": "value",
          "type": "address"
        }
      ],
      "name": "isConvertibleTokenSmartToken",
      "outputs": [
        {
          "internalType": "bool",
          "name": "",
          "type": "bool"
        }
      ],
      "stateMutability": "view",
      "type": "function"
    },
    {
      "inputs": [
        {
          "internalType": "address",
          "name": "value",
          "type": "address"
        }
      ],
      "name": "isLiquidityPool",
      "outputs": [
        {
          "internalType": "bool",
          "name": "",
          "type": "bool"
        }
      ],
      "stateMutability": "view",
      "type": "function"
    },
    {
      "inputs": [
        {
          "internalType": "contract IConverter",
          "name": "converter",
          "type": "address"
        }
      ],
      "name": "isSimilarLiquidityPoolRegistered",
      "outputs": [
        {
          "internalType": "bool",
          "name": "",
          "type": "bool"
        }
      ],
      "stateMutability": "view",
      "type": "function"
    },
    {
      "inputs": [
        {
          "internalType": "address",
          "name": "value",
          "type": "address"
        }
      ],
      "name": "isSmartToken",
      "outputs": [
        {
          "internalType": "bool",
          "name": "",
          "type": "bool"
        }
      ],
      "stateMutability": "view",
      "type": "function"
    },
    {
      "inputs": [
        {
          "internalType": "uint16",
          "name": "converterType",
          "type": "uint16"
        },
        {
          "internalType": "string",
          "name": "name",
          "type": "string"
        },
        {
          "internalType": "string",
          "name": "symbol",
          "type": "string"
        },
        {
          "internalType": "uint8",
          "name": "decimals",
          "type": "uint8"
        },
        {
          "internalType": "uint32",
          "name": "maxConversionFee",
          "type": "uint32"
        },
        {
          "internalType": "contract IReserveToken[]",
          "name": "reserveTokens",
          "type": "address[]"
        },
        {
          "internalType": "uint32[]",
          "name": "reserveWeights",
          "type": "uint32[]"
        }
      ],
      "name": "newConverter",
      "outputs": [
        {
          "internalType": "contract IConverter",
          "name": "",
          "type": "address"
        }
      ],
      "stateMutability": "nonpayable",
      "type": "function"
    },
    {
      "inputs": [],
      "name": "newOwner",
      "outputs": [
        {
          "internalType": "address",
          "name": "",
          "type": "address"
        }
      ],
      "stateMutability": "view",
      "type": "function"
    },
    {
      "inputs": [],
      "name": "onlyOwnerCanUpdateRegistry",
      "outputs": [
        {
          "internalType": "bool",
          "name": "",
          "type": "bool"
        }
      ],
      "stateMutability": "view",
      "type": "function"
    },
    {
      "inputs": [],
      "name": "owner",
      "outputs": [
        {
          "internalType": "address",
          "name": "",
          "type": "address"
        }
      ],
      "stateMutability": "view",
      "type": "function"
    },
    {
      "inputs": [],
      "name": "prevRegistry",
      "outputs": [
        {
          "internalType": "contract IContractRegistry",
          "name": "",
          "type": "address"
        }
      ],
      "stateMutability": "view",
      "type": "function"
    },
    {
      "inputs": [],
      "name": "registry",
      "outputs": [
        {
          "internalType": "contract IContractRegistry",
          "name": "",
          "type": "address"
        }
      ],
      "stateMutability": "view",
      "type": "function"
    },
    {
      "inputs": [
        {
          "internalType": "contract IConverter",
          "name": "converter",
          "type": "address"
        }
      ],
      "name": "removeConverter",
      "outputs": [],
      "stateMutability": "nonpayable",
      "type": "function"
    },
    {
      "inputs": [],
      "name": "restoreRegistry",
      "outputs": [],
      "stateMutability": "nonpayable",
      "type": "function"
    },
    {
      "inputs": [
        {
          "internalType": "bool",
          "name": "restrictOwnerOnly",
          "type": "bool"
        }
      ],
      "name": "restrictRegistryUpdate",
      "outputs": [],
      "stateMutability": "nonpayable",
      "type": "function"
    },
    {
      "inputs": [
        {
          "internalType": "address",
          "name": "newOwner",
          "type": "address"
        }
      ],
      "name": "transferOwnership",
      "outputs": [],
      "stateMutability": "nonpayable",
      "type": "function"
    },
    {
      "inputs": [],
      "name": "updateRegistry",
      "outputs": [],
      "stateMutability": "nonpayable",
      "type": "function"
    }
  ],
  "bytecode": "0x60806040523480156200001157600080fd5b506040516200339a3803806200339a833981810160405260208110156200003757600080fd5b5051600080546001600160a01b03191633179055808062000058816200008a565b50600280546001600160a01b039092166001600160a01b031992831681179091556003805490921617905550620000e9565b6001600160a01b038116620000e6576040805162461bcd60e51b815260206004820152601360248201527f4552525f494e56414c49445f4144445245535300000000000000000000000000604482015290519081900360640190fd5b50565b6132a180620000f96000396000f3fe608060405234801561001057600080fd5b50600436106102695760003560e01c80637b10399911610151578063b4c4197a116100c3578063d8cced2a11610087578063d8cced2a14610bef578063e571049b14610c15578063e85455d714610c1d578063effb3c6e14610c43578063f2fde38b14610c4b578063f4fb86c014610c7157610269565b8063b4c4197a14610a62578063c22b82f014610a90578063d3182bed14610bb3578063d4ee1d9014610bbb578063d6c4b5b214610bc357610269565b8063954254f511610115578063954254f5146109ae5780639e76a007146109d4578063a109d214146109fa578063a43d5e9414610a17578063a74498aa14610a3d578063b4a176d314610a5a57610269565b80637b103999146109535780637f45c4c31461095b578063865cf194146109635780638da5cb5b146109805780638f1d0e1a1461098857610269565b80634c7df18f116101ea57806361cd756e116101ae57806361cd756e146108df57806369be4784146108e75780636ce1c4dc146108ef578063725b87861461091557806379ba5097146109435780637a5f0ffd1461094b57610269565b80634c7df18f146105a05780635a0a6618146105bd5780635f1b50fe1461080a578063603f51e414610812578063610c0b051461083e57610269565b80632fe8a6ad116102315780632fe8a6ad146104f85780633ab8857c146105145780634123ef601461053a57806349c5f32b1461056057806349d10b641461059857610269565b8063024c7ec71461026e57806304ceaf411461028f57806311839064146102e75780631d3fccd51461030d5780631f8e262014610457575b600080fd5b61028d6004803603602081101561028457600080fd5b50351515610c97565b005b610297610cbd565b60408051602080825283518183015283519192839290830191858101910280838360005b838110156102d35781810151838201526020016102bb565b505050509050019250505060405180910390f35b610297600480360360208110156102fd57600080fd5b50356001600160a01b0316610ccc565b61043b6004803603606081101561032357600080fd5b61ffff8235169190810190604081016020820135600160201b81111561034857600080fd5b82018360208201111561035a57600080fd5b803590602001918460208302840111600160201b8311171561037b57600080fd5b9190808060200260200160405190810160405280939291908181526020018383602002808284376000920191909152509295949360208101935035915050600160201b8111156103ca57600080fd5b8201836020820111156103dc57600080fd5b803590602001918460208302840111600160201b831117156103fd57600080fd5b919080806020026020016040519081016040528093929190818152602001838360200280828437600092019190915250929550610dff945050505050565b604080516001600160a01b039092168252519081900360200190f35b6102976004803603602081101561046d57600080fd5b810190602081018135600160201b81111561048757600080fd5b82018360208201111561049957600080fd5b803590602001918460208302840111600160201b831117156104ba57600080fd5b919080806020026020016040519081016040528093929190818152602001838360200280828437600092019190915250929550610ee6945050505050565b610500610ef7565b604080519115158252519081900360200190f35b6105006004803603602081101561052a57600080fd5b50356001600160a01b0316610f07565b6105006004803603602081101561055057600080fd5b50356001600160a01b0316610f9e565b6105866004803603602081101561057657600080fd5b50356001600160a01b0316610fa9565b60408051918252519081900360200190f35b61028d61100e565b61043b600480360360208110156105b657600080fd5b5035611224565b61043b600480360360e08110156105d357600080fd5b61ffff8235169190810190604081016020820135600160201b8111156105f857600080fd5b82018360208201111561060a57600080fd5b803590602001918460018302840111600160201b8311171561062b57600080fd5b91908080601f0160208091040260200160405190810160405280939291908181526020018383808284376000920191909152509295949360208101935035915050600160201b81111561067d57600080fd5b82018360208201111561068f57600080fd5b803590602001918460018302840111600160201b831117156106b057600080fd5b91908080601f016020809104026020016040519081016040528093929190818152602001838380828437600092019190915250929560ff8535169563ffffffff60208701351695919450925060608101915060400135600160201b81111561071757600080fd5b82018360208201111561072957600080fd5b803590602001918460208302840111600160201b8311171561074a57600080fd5b9190808060200260200160405190810160405280939291908181526020018383602002808284376000920191909152509295949360208101935035915050600160201b81111561079957600080fd5b8201836020820111156107ab57600080fd5b803590602001918460208302840111600160201b831117156107cc57600080fd5b919080806020026020016040519081016040528093929190818152602001838360200280828437600092019190915250929550611280945050505050565b61029761180a565b61043b6004803603604081101561082857600080fd5b506001600160a01b038135169060200135611927565b6102976004803603602081101561085457600080fd5b810190602081018135600160201b81111561086e57600080fd5b82018360208201111561088057600080fd5b803590602001918460208302840111600160201b831117156108a157600080fd5b9190808060200260200160405190810160405280939291908181526020018383602002808284376000920191909152509295506119c7945050505050565b61043b611ac8565b610586611ad7565b61028d6004803603602081101561090557600080fd5b50356001600160a01b0316611b59565b6105006004803603604081101561092b57600080fd5b506001600160a01b0381358116916020013516611bbf565b61028d611bcb565b610586611c82565b61043b611cd3565b610297611ce2565b61043b6004803603602081101561097957600080fd5b5035611d33565b61043b611d8f565b6105006004803603602081101561099e57600080fd5b50356001600160a01b0316611d9e565b610500600480360360208110156109c457600080fd5b50356001600160a01b0316611fa7565b61028d600480360360208110156109ea57600080fd5b50356001600160a01b0316612096565b61043b60048036036020811015610a1057600080fd5b5035612111565b61058660048036036020811015610a2d57600080fd5b50356001600160a01b031661211c565b61043b60048036036020811015610a5357600080fd5b5035612127565b61028d612183565b61050060048036036040811015610a7857600080fd5b506001600160a01b03813581169160200135166121af565b61043b60048036036040811015610aa657600080fd5b810190602081018135600160201b811115610ac057600080fd5b820183602082011115610ad257600080fd5b803590602001918460208302840111600160201b83111715610af357600080fd5b9190808060200260200160405190810160405280939291908181526020018383602002808284376000920191909152509295949360208101935035915050600160201b811115610b4257600080fd5b820183602082011115610b5457600080fd5b803590602001918460208302840111600160201b83111715610b7557600080fd5b919080806020026020016040519081016040528093929190818152602001838360200280828437600092019190915250929550612225945050505050565b610586612247565b61043b612298565b61043b60048036036040811015610bd957600080fd5b506001600160a01b0381351690602001356122a7565b61050060048036036020811015610c0557600080fd5b50356001600160a01b03166122b3565b610586612318565b61050060048036036020811015610c3357600080fd5b50356001600160a01b0316612322565b610297612387565b61028d60048036036020811015610c6157600080fd5b50356001600160a01b03166123d8565b61029760048036036020811015610c8757600080fd5b50356001600160a01b0316612456565b610c9f612461565b60038054911515600160a01b0260ff60a01b19909216919091179055565b6060610cc7612387565b905090565b6060610ce56000805160206132758339815191526124b6565b6001600160a01b031663f4fb86c0836040518263ffffffff1660e01b815260040180826001600160a01b0316815260200191505060006040518083038186803b158015610d3157600080fd5b505afa158015610d45573d6000803e3d6000fd5b505050506040513d6000823e601f3d908101601f191682016040526020811015610d6e57600080fd5b8101908080516040519392919084600160201b821115610d8d57600080fd5b908301906020820185811115610da257600080fd5b82518660208202830111600160201b82111715610dbe57600080fd5b82525081516020918201928201910280838360005b83811015610deb578181015183820152602001610dd3565b505050509050016040525050509050919050565b600081518351148015610e13575060018351115b15610edb576060610e2384612502565b905060005b8151811015610ed8576000828281518110610e3f57fe5b602002602001015190506000816001600160a01b0316638da5cb5b6040518163ffffffff1660e01b815260040160206040518083038186803b158015610e8457600080fd5b505afa158015610e98573d6000803e3d6000fd5b505050506040513d6020811015610eae57600080fd5b50519050610ebe81898989612798565b15610ece57509250610edf915050565b5050600101610e28565b50505b5060005b9392505050565b6060610ef1826119c7565b92915050565b600354600160a01b900460ff1690565b6000610f206000805160206132758339815191526124b6565b6001600160a01b0316633ab8857c836040518263ffffffff1660e01b815260040180826001600160a01b0316815260200191505060206040518083038186803b158015610f6c57600080fd5b505afa158015610f80573d6000803e3d6000fd5b505050506040513d6020811015610f9657600080fd5b505192915050565b6000610ef1826122b3565b6000610fc26000805160206132758339815191526124b6565b6001600160a01b031663a43d5e94836040518263ffffffff1660e01b815260040180826001600160a01b0316815260200191505060206040518083038186803b158015610f6c57600080fd5b611016611d8f565b6001600160a01b0316336001600160a01b0316148061103f5750600354600160a01b900460ff16155b611084576040805162461bcd60e51b815260206004820152601160248201527011549497d050d0d154d4d7d11153925151607a1b604482015290519081900360640190fd5b60006110a26f436f6e7472616374526567697374727960801b6124b6565b6002549091506001600160a01b038083169116148015906110cb57506001600160a01b03811615155b611113576040805162461bcd60e51b81526020600482015260146024820152734552525f494e56414c49445f524547495354525960601b604482015290519081900360640190fd5b60006001600160a01b0316816001600160a01b031663bb34534c6f436f6e7472616374526567697374727960801b6040518263ffffffff1660e01b81526004018082815260200191505060206040518083038186803b15801561117557600080fd5b505afa158015611189573d6000803e3d6000fd5b505050506040513d602081101561119f57600080fd5b50516001600160a01b031614156111f4576040805162461bcd60e51b81526020600482015260146024820152734552525f494e56414c49445f524547495354525960601b604482015290519081900360640190fd5b60028054600380546001600160a01b038084166001600160a01b0319928316179092559091169216919091179055565b600061123d6000805160206132758339815191526124b6565b6001600160a01b031663a109d214836040518263ffffffff1660e01b81526004018082815260200191505060206040518083038186803b158015610f6c57600080fd5b815181516000919081146112d2576040805162461bcd60e51b81526020600482015260146024820152734552525f494e56414c49445f524553455256455360601b604482015290519081900360640190fd5b8861ffff1660011480156112ea57506112ea836128aa565b156112f457600398505b60006113018a8686610dff565b6001600160a01b031614611351576040805162461bcd60e51b81526020600482015260126024820152714552525f414c52454144595f45584953545360701b604482015290519081900360640190fd5b600061136f6f436f6e766572746572466163746f727960801b6124b6565b90506000816001600160a01b0316632e9ab7b38c8c8c8c6040518563ffffffff1660e01b8152600401808561ffff16815260200180602001806020018460ff168152602001838103835286818151815260200191508051906020019080838360005b838110156113e95781810151838201526020016113d1565b50505050905090810190601f1680156114165780820380516001836020036101000a031916815260200191505b50838103825285518152855160209182019187019080838360005b83811015611449578181015183820152602001611431565b50505050905090810190601f1680156114765780820380516001836020036101000a031916815260200191505b509650505050505050602060405180830381600087803b15801561149957600080fd5b505af11580156114ad573d6000803e3d6000fd5b505050506040513d60208110156114c357600080fd5b5051905060006001600160a01b0383166315f64b6a8d846114e2611cd3565b8c6040518563ffffffff1660e01b8152600401808561ffff168152602001846001600160a01b03168152602001836001600160a01b031681526020018263ffffffff168152602001945050505050602060405180830381600087803b15801561154a57600080fd5b505af115801561155e573d6000803e3d6000fd5b505050506040513d602081101561157457600080fd5b5051604080516379ba509760e01b815290519192506001600160a01b038416916379ba50979160048082019260009290919082900301818387803b1580156115bb57600080fd5b505af11580156115cf573d6000803e3d6000fd5b50505050806001600160a01b03166379ba50976040518163ffffffff1660e01b8152600401600060405180830381600087803b15801561160e57600080fd5b505af1158015611622573d6000803e3d6000fd5b5050505060005b848110156116d857816001600160a01b0316636a49d2c489838151811061164c57fe5b602002602001015189848151811061166057fe5b60200260200101516040518363ffffffff1660e01b815260040180836001600160a01b031681526020018263ffffffff16815260200192505050600060405180830381600087803b1580156116b457600080fd5b505af11580156116c8573d6000803e3d6000fd5b5050600190920191506116299050565b50816001600160a01b031663f2fde38b826040518263ffffffff1660e01b815260040180826001600160a01b03168152602001915050600060405180830381600087803b15801561172857600080fd5b505af115801561173c573d6000803e3d6000fd5b50505050806001600160a01b031663cdc91c696040518163ffffffff1660e01b8152600401600060405180830381600087803b15801561177b57600080fd5b505af115801561178f573d6000803e3d6000fd5b50506040805163f2fde38b60e01b815233600482015290516001600160a01b038516935063f2fde38b9250602480830192600092919082900301818387803b1580156117da57600080fd5b505af11580156117ee573d6000803e3d6000fd5b505050506117fb8161290b565b9b9a5050505050505050505050565b60606118236000805160206132758339815191526124b6565b6001600160a01b0316635f1b50fe6040518163ffffffff1660e01b815260040160006040518083038186803b15801561185b57600080fd5b505afa15801561186f573d6000803e3d6000fd5b505050506040513d6000823e601f3d908101601f19168201604052602081101561189857600080fd5b8101908080516040519392919084600160201b8211156118b757600080fd5b9083019060208201858111156118cc57600080fd5b82518660208202830111600160201b821117156118e857600080fd5b82525081516020918201928201910280838360005b838110156119155781810151838201526020016118fd565b50505050905001604052505050905090565b60006119406000805160206132758339815191526124b6565b6001600160a01b031663d6c4b5b284846040518363ffffffff1660e01b815260040180836001600160a01b031681526020018281526020019250505060206040518083038186803b15801561199457600080fd5b505afa1580156119a8573d6000803e3d6000fd5b505050506040513d60208110156119be57600080fd5b50519392505050565b606080825167ffffffffffffffff811180156119e257600080fd5b50604051908082528060200260200182016040528015611a0c578160200160208202803683370190505b50905060005b8351811015611ac157838181518110611a2757fe5b60200260200101516001600160a01b0316638da5cb5b6040518163ffffffff1660e01b815260040160206040518083038186803b158015611a6757600080fd5b505afa158015611a7b573d6000803e3d6000fd5b505050506040513d6020811015611a9157600080fd5b50518251839083908110611aa157fe5b6001600160a01b0390921660209283029190910190910152600101611a12565b5092915050565b6003546001600160a01b031690565b6000611af06000805160206132758339815191526124b6565b6001600160a01b03166369be47846040518163ffffffff1660e01b815260040160206040518083038186803b158015611b2857600080fd5b505afa158015611b3c573d6000803e3d6000fd5b505050506040513d6020811015611b5257600080fd5b5051905090565b611b61612461565b611b6a81611fa7565b611bb3576040805162461bcd60e51b815260206004820152601560248201527422a9292fa4a72b20a624a22fa1a7a72b22a92a22a960591b604482015290519081900360640190fd5b611bbc8161290b565b50565b6000610edf83836121af565b6001546001600160a01b03163314611c1e576040805162461bcd60e51b815260206004820152601160248201527011549497d050d0d154d4d7d11153925151607a1b604482015290519081900360640190fd5b600154600080546040516001600160a01b0393841693909116917f343765429aea5a34b3ff6a3785a98a5abb2597aca87bfbb58632c173d585373a91a360018054600080546001600160a01b03199081166001600160a01b03841617909155169055565b6000611c9b6000805160206132758339815191526124b6565b6001600160a01b0316637a5f0ffd6040518163ffffffff1660e01b815260040160206040518083038186803b158015611b2857600080fd5b6002546001600160a01b031690565b6060611cfb6000805160206132758339815191526124b6565b6001600160a01b0316637f45c4c36040518163ffffffff1660e01b815260040160006040518083038186803b15801561185b57600080fd5b6000611d4c6000805160206132758339815191526124b6565b6001600160a01b031663865cf194836040518263ffffffff1660e01b81526004018082815260200191505060206040518083038186803b158015610f6c57600080fd5b6000546001600160a01b031690565b600080826001600160a01b03166371f52bf36040518163ffffffff1660e01b815260040160206040518083038186803b158015611dda57600080fd5b505afa158015611dee573d6000803e3d6000fd5b505050506040513d6020811015611e0457600080fd5b505161ffff16905060608167ffffffffffffffff81118015611e2557600080fd5b50604051908082528060200260200182016040528015611e4f578160200160208202803683370190505b50905060608267ffffffffffffffff81118015611e6b57600080fd5b50604051908082528060200260200182016040528015611e95578160200160208202803683370190505b50905060005b83811015611f7c576000866001600160a01b03166319b64015836040518263ffffffff1660e01b81526004018082815260200191505060206040518083038186803b158015611ee957600080fd5b505afa158015611efd573d6000803e3d6000fd5b505050506040513d6020811015611f1357600080fd5b505184519091508190859084908110611f2857fe5b60200260200101906001600160a01b031690816001600160a01b031681525050611f528782612ac6565b838381518110611f5e57fe5b63ffffffff9092166020928302919091019091015250600101611e9b565b506000611f93611f8c8786612b4d565b8484610dff565b6001600160a01b0316141595945050505050565b6000816001600160a01b0316826001600160a01b031663fc0c546a6040518163ffffffff1660e01b815260040160206040518083038186803b158015611fec57600080fd5b505afa158015612000573d6000803e3d6000fd5b505050506040513d602081101561201657600080fd5b505160408051638da5cb5b60e01b815290516001600160a01b0390921691638da5cb5b91600480820192602092909190829003018186803b15801561205a57600080fd5b505afa15801561206e573d6000803e3d6000fd5b505050506040513d602081101561208457600080fd5b50516001600160a01b03161492915050565b61209e611d8f565b6001600160a01b0316336001600160a01b031614806120c357506120c181611fa7565b155b612108576040805162461bcd60e51b815260206004820152601160248201527011549497d050d0d154d4d7d11153925151607a1b604482015290519081900360640190fd5b611bbc81612c72565b6000610ef182611224565b6000610ef182610fa9565b60006121406000805160206132758339815191526124b6565b6001600160a01b031663a74498aa836040518263ffffffff1660e01b81526004018082815260200191505060206040518083038186803b158015610f6c57600080fd5b61218b612461565b600354600280546001600160a01b0319166001600160a01b03909216919091179055565b60006121c86000805160206132758339815191526124b6565b6001600160a01b031663725b878684846040518363ffffffff1660e01b815260040180836001600160a01b03168152602001826001600160a01b031681526020019250505060206040518083038186803b15801561199457600080fd5b6000610edf600184511161223a57600061223d565b60015b60ff168484610dff565b60006122606000805160206132758339815191526124b6565b6001600160a01b031663e571049b6040518163ffffffff1660e01b815260040160206040518083038186803b158015611b2857600080fd5b6001546001600160a01b031690565b6000610edf8383611927565b60006122cc6000805160206132758339815191526124b6565b6001600160a01b0316634123ef60836040518263ffffffff1660e01b815260040180826001600160a01b0316815260200191505060206040518083038186803b158015610f6c57600080fd5b6000610cc7612247565b600061233b6000805160206132758339815191526124b6565b6001600160a01b031663e85455d7836040518263ffffffff1660e01b815260040180826001600160a01b0316815260200191505060206040518083038186803b158015610f6c57600080fd5b60606123a06000805160206132758339815191526124b6565b6001600160a01b03166304ceaf416040518163ffffffff1660e01b815260040160006040518083038186803b15801561185b57600080fd5b6123e0612461565b6000546001600160a01b0382811691161415612434576040805162461bcd60e51b815260206004820152600e60248201526d22a9292fa9a0a6a2afa7aba722a960911b604482015290519081900360640190fd5b600180546001600160a01b0319166001600160a01b0392909216919091179055565b6060610ef182610ccc565b6000546001600160a01b031633146124b4576040805162461bcd60e51b815260206004820152601160248201527011549497d050d0d154d4d7d11153925151607a1b604482015290519081900360640190fd5b565b60025460408051632ecd14d360e21b81526004810184905290516000926001600160a01b03169163bb34534c916024808301926020929190829003018186803b158015610f6c57600080fd5b6060600061251d6000805160206132758339815191526124b6565b90506000816001600160a01b031663a43d5e948560008151811061253d57fe5b60200260200101516040518263ffffffff1660e01b815260040180826001600160a01b0316815260200191505060206040518083038186803b15801561258257600080fd5b505afa158015612596573d6000803e3d6000fd5b505050506040513d60208110156125ac57600080fd5b50519050600060015b8551811015612666576000846001600160a01b031663a43d5e948884815181106125db57fe5b60200260200101516040518263ffffffff1660e01b815260040180826001600160a01b0316815260200191505060206040518083038186803b15801561262057600080fd5b505afa158015612634573d6000803e3d6000fd5b505050506040513d602081101561264a57600080fd5b505190508084111561265d578093508192505b506001016125b5565b50826001600160a01b031663f4fb86c086838151811061268257fe5b60200260200101516040518263ffffffff1660e01b815260040180826001600160a01b0316815260200191505060006040518083038186803b1580156126c757600080fd5b505afa1580156126db573d6000803e3d6000fd5b505050506040513d6000823e601f3d908101601f19168201604052602081101561270457600080fd5b8101908080516040519392919084600160201b82111561272357600080fd5b90830190602082018581111561273857600080fd5b82518660208202830111600160201b8211171561275457600080fd5b82525081516020918201928201910280838360005b83811015612781578181015183820152602001612769565b505050509050016040525050509350505050919050565b600080856001600160a01b03166371f52bf36040518163ffffffff1660e01b815260040160206040518083038186803b1580156127d457600080fd5b505afa1580156127e8573d6000803e3d6000fd5b505050506040513d60208110156127fe57600080fd5b505161ffff1690506128108682612b4d565b61ffff168561ffff16146128285760009150506128a2565b8084511461283a5760009150506128a2565b60005b845181101561289b576128638786838151811061285657fe5b6020026020010151612ac6565b63ffffffff1684828151811061287557fe5b602002602001015163ffffffff1614612893576000925050506128a2565b60010161283d565b5060019150505b949350505050565b6000815160021480156128da575081516207a1209083906000906128ca57fe5b602002602001015163ffffffff16145b8015610ef1575081516207a12090839060019081106128f557fe5b602002602001015163ffffffff16149050919050565b60006129246000805160206132758339815191526124b6565b90506000826001600160a01b031663fc0c546a6040518163ffffffff1660e01b815260040160206040518083038186803b15801561296157600080fd5b505afa158015612975573d6000803e3d6000fd5b505050506040513d602081101561298b57600080fd5b5051604080516371f52bf360e01b815290519192506000916001600160a01b038616916371f52bf3916004808301926020929190829003018186803b1580156129d357600080fd5b505afa1580156129e7573d6000803e3d6000fd5b505050506040513d60208110156129fd57600080fd5b505161ffff169050612a0f8383612e26565b6001811115612a2757612a228383612ef9565b612a32565b612a32838384612f98565b60005b81811015612abf57612ab784866001600160a01b03166319b64015846040518263ffffffff1660e01b81526004018082815260200191505060206040518083038186803b158015612a8557600080fd5b505afa158015612a99573d6000803e3d6000fd5b505050506040513d6020811015612aaf57600080fd5b505185612f98565b600101612a35565b5050505050565b600080836001600160a01b0316630e53aae9846040518263ffffffff1660e01b815260040180826001600160a01b0316815260200191505060a06040518083038186803b158015612b1657600080fd5b505afa158015612b2a573d6000803e3d6000fd5b505050506040513d60a0811015612b4057600080fd5b5060200151949350505050565b60408051600481526024810182526020810180516001600160e01b0316633e8ff43f60e01b1781529151815160009384936060936001600160a01b03891693919290918291908083835b60208310612bb65780518252601f199092019160209182019101612b97565b6001836020036101000a038019825116818451168082178552505050505050905001915050600060405180830381855afa9150503d8060008114612c16576040519150601f19603f3d011682016040523d82523d6000602084013e612c1b565b606091505b5091509150818015612c2e575080516020145b15612c5457808060200190516020811015612c4857600080fd5b50519250610ef1915050565b60018411612c63576000612c66565b60015b60ff1695945050505050565b6000612c8b6000805160206132758339815191526124b6565b90506000826001600160a01b031663fc0c546a6040518163ffffffff1660e01b815260040160206040518083038186803b158015612cc857600080fd5b505afa158015612cdc573d6000803e3d6000fd5b505050506040513d6020811015612cf257600080fd5b5051604080516371f52bf360e01b815290519192506000916001600160a01b038616916371f52bf3916004808301926020929190829003018186803b158015612d3a57600080fd5b505afa158015612d4e573d6000803e3d6000fd5b505050506040513d6020811015612d6457600080fd5b505161ffff169050612d76838361304d565b6001811115612d8e57612d898383613120565b612d99565b612d998383846131bf565b60005b81811015612abf57612e1e84866001600160a01b03166319b64015846040518263ffffffff1660e01b81526004018082815260200191505060206040518083038186803b158015612dec57600080fd5b505afa158015612e00573d6000803e3d6000fd5b505050506040513d6020811015612e1657600080fd5b5051856131bf565b600101612d9c565b816001600160a01b0316638de6c3eb826040518263ffffffff1660e01b815260040180826001600160a01b03168152602001915050600060405180830381600087803b158015612e7557600080fd5b505af1158015612e89573d6000803e3d6000fd5b50506040516001600160a01b03841692507fc0a6d303d67b7ed9fa0abae1c48878df32acc0e7ca4334c7dad2bceeee5956fd9150600090a26040516001600160a01b038216907f88881feecdf61136ac4bdb1f681f2f3746a82910263d21ffea94750d2a78c0ab90600090a25050565b816001600160a01b031663ee6a934c826040518263ffffffff1660e01b815260040180826001600160a01b03168152602001915050600060405180830381600087803b158015612f4857600080fd5b505af1158015612f5c573d6000803e3d6000fd5b50506040516001600160a01b03841692507fb893f883ef734b712208a877459424ee509832c57e0461fb1ac99ed4d42f2d899150600090a25050565b826001600160a01b03166336900c1183836040518363ffffffff1660e01b815260040180836001600160a01b03168152602001826001600160a01b0316815260200192505050600060405180830381600087803b158015612ff857600080fd5b505af115801561300c573d6000803e3d6000fd5b50506040516001600160a01b038085169350851691507ff2e7cf6d6ed3f77039511409a43d4fa5108f09ab71d72b014380364c910233a590600090a3505050565b816001600160a01b031663ceb9838c826040518263ffffffff1660e01b815260040180826001600160a01b03168152602001915050600060405180830381600087803b15801561309c57600080fd5b505af11580156130b0573d6000803e3d6000fd5b50506040516001600160a01b03841692507fbfdf1baaa7e4871111360083540f067050014f651c9e4610a2a4a4bdf8bfab5d9150600090a26040516001600160a01b038216907f2aff63790c7da80d1c50ede92d23bc841c384837735c92c184331f3d7b91e5bf90600090a25050565b816001600160a01b031663ae22107f826040518263ffffffff1660e01b815260040180826001600160a01b03168152602001915050600060405180830381600087803b15801561316f57600080fd5b505af1158015613183573d6000803e3d6000fd5b50506040516001600160a01b03841692507f59c3fbcae88f30e9b0e35c132a7f68c53231dffa4722f197c7ecb0ee013eee609150600090a25050565b826001600160a01b031663fba8f03183836040518363ffffffff1660e01b815260040180836001600160a01b03168152602001826001600160a01b0316815260200192505050600060405180830381600087803b15801561321f57600080fd5b505af1158015613233573d6000803e3d6000fd5b50506040516001600160a01b038085169350851691507f9430ad6ff45d6c3e126c7711bf0036bd9bc6b202fa19628abd88e59cf43ced4390600090a350505056fe42616e636f72436f6e7665727465725265676973747279446174610000000000a164736f6c634300060c000a",
  "linkReferences": {},
  "deployedLinkReferences": {}
}