{
  "_format": "hh-sol-artifact-1",
  "contractName": "TestConverterFactory",
  "sourceName": "contracts/helpers/TestConverterFactory.sol",
  "abi": [
    {
      "anonymous": false,
      "inputs": [
        {
          "indexed": true,
          "internalType": "uint16",
          "name": "converterType",
          "type": "uint16"
        },
        {
          "indexed": true,
          "internalType": "contract IConverter",
          "name": "converter",
          "type": "address"
        },
        {
          "indexed": true,
          "internalType": "address",
          "name": "converterOwner",
          "type": "address"
        }
      ],
      "name": "NewConverter",
      "type": "event"
    },
    {
      "anonymous": false,
      "inputs": [
        {
          "indexed": true,
          "internalType": "address",
          "name": "prevOwner",
          "type": "address"
        },
        {
          "indexed": true,
          "internalType": "address",
          "name": "newOwner",
          "type": "address"
        }
      ],
      "name": "OwnerUpdate",
      "type": "event"
    },
    {
      "inputs": [],
      "name": "acceptOwnership",
      "outputs": [],
      "stateMutability": "nonpayable",
      "type": "function"
    },
    {
      "inputs": [
        {
          "internalType": "uint16",
          "name": "converterType",
          "type": "uint16"
        }
      ],
      "name": "anchorFactories",
      "outputs": [
        {
          "internalType": "contract ITypedConverterAnchorFactory",
          "name": "",
          "type": "address"
        }
      ],
      "stateMutability": "view",
      "type": "function"
    },
    {
      "inputs": [
        {
          "internalType": "uint16",
          "name": "converterType",
          "type": "uint16"
        }
      ],
      "name": "converterFactories",
      "outputs": [
        {
          "internalType": "contract ITypedConverterFactory",
          "name": "",
          "type": "address"
        }
      ],
      "stateMutability": "view",
      "type": "function"
    },
    {
      "inputs": [
        {
          "internalType": "uint16",
          "name": "converterType",
          "type": "uint16"
        },
        {
          "internalType": "string",
          "name": "name",
          "type": "string"
        },
        {
          "internalType": "string",
          "name": "symbol",
          "type": "string"
        },
        {
          "internalType": "uint8",
          "name": "decimals",
          "type": "uint8"
        }
      ],
      "name": "createAnchor",
      "outputs": [
        {
          "internalType": "contract IConverterAnchor",
          "name": "",
          "type": "address"
        }
      ],
      "stateMutability": "nonpayable",
      "type": "function"
    },
    {
      "inputs": [
        {
          "internalType": "uint16",
          "name": "converterType",
          "type": "uint16"
        },
        {
          "internalType": "contract IConverterAnchor",
          "name": "anchor",
          "type": "address"
        },
        {
          "internalType": "contract IContractRegistry",
          "name": "registry",
          "type": "address"
        },
        {
          "internalType": "uint32",
          "name": "maxConversionFee",
          "type": "uint32"
        }
      ],
      "name": "createConverter",
      "outputs": [
        {
          "internalType": "contract IConverter",
          "name": "",
          "type": "address"
        }
      ],
      "stateMutability": "nonpayable",
      "type": "function"
    },
    {
      "inputs": [],
      "name": "createdAnchor",
      "outputs": [
        {
          "internalType": "contract IConverterAnchor",
          "name": "",
          "type": "address"
        }
      ],
      "stateMutability": "view",
      "type": "function"
    },
    {
      "inputs": [],
      "name": "createdConverter",
      "outputs": [
        {
          "internalType": "contract IConverter",
          "name": "",
          "type": "address"
        }
      ],
      "stateMutability": "view",
      "type": "function"
    },
    {
      "inputs": [],
      "name": "newOwner",
      "outputs": [
        {
          "internalType": "address",
          "name": "",
          "type": "address"
        }
      ],
      "stateMutability": "view",
      "type": "function"
    },
    {
      "inputs": [],
      "name": "owner",
      "outputs": [
        {
          "internalType": "address",
          "name": "",
          "type": "address"
        }
      ],
      "stateMutability": "view",
      "type": "function"
    },
    {
      "inputs": [
        {
          "internalType": "contract ITypedConverterAnchorFactory",
          "name": "factory",
          "type": "address"
        }
      ],
      "name": "registerTypedConverterAnchorFactory",
      "outputs": [],
      "stateMutability": "nonpayable",
      "type": "function"
    },
    {
      "inputs": [
        {
          "internalType": "contract ITypedConverterFactory",
          "name": "factory",
          "type": "address"
        }
      ],
      "name": "registerTypedConverterFactory",
      "outputs": [],
      "stateMutability": "nonpayable",
      "type": "function"
    },
    {
      "inputs": [
        {
          "internalType": "address",
          "name": "newOwner",
          "type": "address"
        }
      ],
      "name": "transferOwnership",
      "outputs": [],
      "stateMutability": "nonpayable",
      "type": "function"
    },
    {
      "inputs": [
        {
          "internalType": "contract ITypedConverterAnchorFactory",
          "name": "factory",
          "type": "address"
        }
      ],
      "name": "unregisterTypedConverterAnchorFactory",
      "outputs": [],
      "stateMutability": "nonpayable",
      "type": "function"
    },
    {
      "inputs": [
        {
          "internalType": "contract ITypedConverterFactory",
          "name": "factory",
          "type": "address"
        }
      ],
      "name": "unregisterTypedConverterFactory",
      "outputs": [],
      "stateMutability": "nonpayable",
      "type": "function"
    }
  ],
  "bytecode": "0x608060405234801561001057600080fd5b50600080546001600160a01b03191633179055612197806100326000396000f3fe60806040523480156200001157600080fd5b5060043610620001005760003560e01c80636a4e539111620000995780638da5cb5b116200006f5780638da5cb5b1462000394578063d4ee1d90146200039e578063e54b93ef14620003a8578063f2fde38b14620003d15762000100565b80636a4e5391146200035757806379ba5097146200036157806383abd947146200036b5762000100565b80632e9ab7b311620000db5780632e9ab7b314620001a0578063327779a714620002e65780633a8fc520146200030a5780635a322099146200032e5762000100565b806312b4c6c1146200010557806315f64b6a14620001305780631814f2d21462000196575b600080fd5b6200012e600480360360208110156200011d57600080fd5b50356001600160a01b0316620003fa565b005b6200017a600480360360808110156200014857600080fd5b50803561ffff169060208101356001600160a01b03908116916040810135909116906060013563ffffffff16620004a6565b604080516001600160a01b039092168252519081900360200190f35b6200017a620004de565b6200017a60048036036080811015620001b857600080fd5b61ffff8235169190810190604081016020820135640100000000811115620001df57600080fd5b820183602082011115620001f257600080fd5b803590602001918460018302840111640100000000831117156200021557600080fd5b91908080601f01602080910402602001604051908101604052809392919081815260200183838082843760009201919091525092959493602081019350359150506401000000008111156200026957600080fd5b8201836020820111156200027c57600080fd5b803590602001918460018302840111640100000000831117156200029f57600080fd5b91908080601f0160208091040260200160405190810160405280939291908181526020018383808284376000920191909152509295505050903560ff169150620004ed9050565b6200017a60048036036020811015620002fe57600080fd5b503561ffff1662000525565b6200017a600480360360208110156200032257600080fd5b503561ffff1662000544565b6200012e600480360360208110156200034657600080fd5b50356001600160a01b031662000563565b6200017a62000666565b6200012e62000675565b6200012e600480360360208110156200038357600080fd5b50356001600160a01b03166200072d565b6200017a62000830565b6200017a6200083f565b6200012e60048036036020811015620003c057600080fd5b50356001600160a01b03166200084e565b6200012e60048036036020811015620003e957600080fd5b50356001600160a01b031662000897565b6200040462000918565b8060026000836001600160a01b0316633e8ff43f6040518163ffffffff1660e01b815260040160206040518083038186803b1580156200044357600080fd5b505afa15801562000458573d6000803e3d6000fd5b505050506040513d60208110156200046f57600080fd5b505161ffff168152602081019190915260400160002080546001600160a01b0319166001600160a01b039290921691909117905550565b6000620004b6858585856200096e565b600480546001600160a01b0319166001600160a01b0392831617908190551695945050505050565b6004546001600160a01b031681565b6000620004fd8585858562000b13565b600580546001600160a01b0319166001600160a01b0392831617908190551695945050505050565b61ffff166000908152600260205260409020546001600160a01b031690565b61ffff166000908152600360205260409020546001600160a01b031690565b6200056d62000918565b6000816001600160a01b0316633e8ff43f6040518163ffffffff1660e01b815260040160206040518083038186803b158015620005a957600080fd5b505afa158015620005be573d6000803e3d6000fd5b505050506040513d6020811015620005d557600080fd5b505161ffff81166000908152600260205260409020549091506001600160a01b0383811691161462000643576040805162461bcd60e51b815260206004820152601260248201527111549497d393d517d49151d254d51154915160721b604482015290519081900360640190fd5b61ffff16600090815260026020526040902080546001600160a01b031916905550565b6005546001600160a01b031681565b6001546001600160a01b03163314620006c9576040805162461bcd60e51b815260206004820152601160248201527011549497d050d0d154d4d7d11153925151607a1b604482015290519081900360640190fd5b600154600080546040516001600160a01b0393841693909116917f343765429aea5a34b3ff6a3785a98a5abb2597aca87bfbb58632c173d585373a91a360018054600080546001600160a01b03199081166001600160a01b03841617909155169055565b6200073762000918565b6000816001600160a01b0316633e8ff43f6040518163ffffffff1660e01b815260040160206040518083038186803b1580156200077357600080fd5b505afa15801562000788573d6000803e3d6000fd5b505050506040513d60208110156200079f57600080fd5b505161ffff81166000908152600360205260409020549091506001600160a01b038381169116146200080d576040805162461bcd60e51b815260206004820152601260248201527111549497d393d517d49151d254d51154915160721b604482015290519081900360640190fd5b61ffff16600090815260036020526040902080546001600160a01b031916905550565b6000546001600160a01b031690565b6001546001600160a01b031690565b6200085862000918565b8060036000836001600160a01b0316633e8ff43f6040518163ffffffff1660e01b815260040160206040518083038186803b1580156200044357600080fd5b620008a162000918565b6000546001600160a01b0382811691161415620008f6576040805162461bcd60e51b815260206004820152600e60248201526d22a9292fa9a0a6a2afa7aba722a960911b604482015290519081900360640190fd5b600180546001600160a01b0319166001600160a01b0392909216919091179055565b6000546001600160a01b031633146200096c576040805162461bcd60e51b815260206004820152601160248201527011549497d050d0d154d4d7d11153925151607a1b604482015290519081900360640190fd5b565b61ffff84166000908152600260209081526040808320548151630228272b60e31b81526001600160a01b038881166004830152878116602483015263ffffffff8716604483015292518594939092169263114139589260648084019382900301818787803b158015620009e057600080fd5b505af1158015620009f5573d6000803e3d6000fd5b505050506040513d602081101562000a0c57600080fd5b5051604080516379ba509760e01b815290519192506001600160a01b038316916379ba50979160048082019260009290919082900301818387803b15801562000a5457600080fd5b505af115801562000a69573d6000803e3d6000fd5b50506040805163f2fde38b60e01b815233600482015290516001600160a01b038516935063f2fde38b9250602480830192600092919082900301818387803b15801562000ab557600080fd5b505af115801562000aca573d6000803e3d6000fd5b50506040513392506001600160a01b038416915061ffff8916907fbb340bcea68d239ac719bc5cf8c9a1716df04ad3babb8d1e562aa44d19fea3a390600090a495945050505050565b61ffff841660009081526003602052604081205481906001600160a01b03168062000c4e5785858560405162000b499062000e69565b60ff82166040820152606080825284519082015283518190602080830191608084019188019080838360005b8381101562000b8f57818101518382015260200162000b75565b50505050905090810190601f16801562000bbd5780820380516001836020036101000a031916815260200191505b50838103825285518152855160209182019187019080838360005b8381101562000bf257818101518382015260200162000bd8565b50505050905090810190601f16801562000c205780820380516001836020036101000a031916815260200191505b5095505050505050604051809103906000f08015801562000c45573d6000803e3d6000fd5b50915062000dfd565b806001600160a01b031663a9fd4a2a8787876040518463ffffffff1660e01b81526004018080602001806020018460ff168152602001838103835286818151815260200191508051906020019080838360005b8381101562000cbb57818101518382015260200162000ca1565b50505050905090810190601f16801562000ce95780820380516001836020036101000a031916815260200191505b50838103825285518152855160209182019187019080838360005b8381101562000d1e57818101518382015260200162000d04565b50505050905090810190601f16801562000d4c5780820380516001836020036101000a031916815260200191505b5095505050505050602060405180830381600087803b15801562000d6f57600080fd5b505af115801562000d84573d6000803e3d6000fd5b505050506040513d602081101562000d9b57600080fd5b5051604080516379ba509760e01b815290519193506001600160a01b038416916379ba50979160048082019260009290919082900301818387803b15801562000de357600080fd5b505af115801562000df8573d6000803e3d6000fd5b505050505b6040805163f2fde38b60e01b815233600482015290516001600160a01b0384169163f2fde38b91602480830192600092919082900301818387803b15801562000e4557600080fd5b505af115801562000e5a573d6000803e3d6000fd5b50939998505050505050505050565b6113138062000e788339019056fe60806040523480156200001157600080fd5b506040516200131338038062001313833981810160405260608110156200003757600080fd5b81019080805160405193929190846401000000008211156200005857600080fd5b9083019060208201858111156200006e57600080fd5b82516401000000008111828201881017156200008957600080fd5b82525081516020918201929091019080838360005b83811015620000b85781810151838201526020016200009e565b50505050905090810190601f168015620000e65780820380516001836020036101000a031916815260200191505b50604052602001805160405193929190846401000000008211156200010a57600080fd5b9083019060208201858111156200012057600080fd5b82516401000000008111828201881017156200013b57600080fd5b82525081516020918201929091019080838360005b838110156200016a57818101518382015260200162000150565b50505050905090810190601f168015620001985780820380516001836020036101000a031916815260200191505b5060405260209081015185519093508592508491620001bd9160039185019062000220565b508051620001d390600490602084019062000220565b505060058054601260ff1990911617610100600160a81b03191661010033021790555062000201816200020a565b505050620002bc565b6005805460ff191660ff92909216919091179055565b828054600181600116156101000203166002900490600052602060002090601f016020900481019282601f106200026357805160ff191683800117855562000293565b8280016001018555821562000293579182015b828111156200029357825182559160200191906001019062000276565b50620002a1929150620002a5565b5090565b5b80821115620002a15760008155600101620002a6565b61104780620002cc6000396000f3fe608060405234801561001057600080fd5b506004361061010b5760003560e01c8063867904b4116100a2578063a457c2d711610071578063a457c2d71461031b578063a9059cbb14610347578063d4ee1d9014610373578063dd62ed3e1461037b578063f2fde38b146103a95761010b565b8063867904b4146102975780638da5cb5b146102c357806395d89b41146102e7578063a24835d1146102ef5761010b565b8063313ce567116100de578063313ce5671461021d578063395093511461023b57806370a082311461026757806379ba50971461028d5761010b565b806306fdde0314610110578063095ea7b31461018d57806318160ddd146101cd57806323b872dd146101e7575b600080fd5b6101186103cf565b6040805160208082528351818301528351919283929083019185019080838360005b8381101561015257818101518382015260200161013a565b50505050905090810190601f16801561017f5780820380516001836020036101000a031916815260200191505b509250505060405180910390f35b6101b9600480360360408110156101a357600080fd5b506001600160a01b038135169060200135610465565b604080519115158252519081900360200190f35b6101d5610482565b60408051918252519081900360200190f35b6101b9600480360360608110156101fd57600080fd5b506001600160a01b03813581169160208101359091169060400135610488565b61022561050f565b6040805160ff9092168252519081900360200190f35b6101b96004803603604081101561025157600080fd5b506001600160a01b038135169060200135610518565b6101d56004803603602081101561027d57600080fd5b50356001600160a01b0316610566565b610295610581565b005b610295600480360360408110156102ad57600080fd5b506001600160a01b03813516906020013561064b565b6102cb61069f565b604080516001600160a01b039092168252519081900360200190f35b6101186106b3565b6102956004803603604081101561030557600080fd5b506001600160a01b038135169060200135610714565b6101b96004803603604081101561033157600080fd5b506001600160a01b03813516906020013561075d565b6101b96004803603604081101561035d57600080fd5b506001600160a01b0381351690602001356107c5565b6102cb6107d9565b6101d56004803603604081101561039157600080fd5b506001600160a01b03813581169160200135166107e8565b610295600480360360208110156103bf57600080fd5b50356001600160a01b0316610813565b60038054604080516020601f600260001961010060018816150201909516949094049384018190048102820181019092528281526060939092909183018282801561045b5780601f106104305761010080835404028352916020019161045b565b820191906000526020600020905b81548152906001019060200180831161043e57829003601f168201915b5050505050905090565b6000610479610472610896565b848461089a565b50600192915050565b60025490565b6000610495848484610986565b610505846104a1610896565b61050085604051806060016040528060288152602001610f84602891396001600160a01b038a166000908152600160205260408120906104df610896565b6001600160a01b031681526020810191909152604001600020549190610ae1565b61089a565b5060019392505050565b60055460ff1690565b6000610479610525610896565b846105008560016000610536610896565b6001600160a01b03908116825260208083019390935260409182016000908120918c168152925290205490610b78565b6001600160a01b031660009081526020819052604090205490565b6006546001600160a01b031633146105d4576040805162461bcd60e51b815260206004820152601160248201527011549497d050d0d154d4d7d11153925151607a1b604482015290519081900360640190fd5b6006546005546040516001600160a01b0392831692610100909204909116907f343765429aea5a34b3ff6a3785a98a5abb2597aca87bfbb58632c173d585373a90600090a36006805460058054610100600160a81b0319166101006001600160a01b038416021790556001600160a01b0319169055565b610653610bd9565b8161065d81610c33565b6106678383610ca8565b6040805183815290517f9386c90217c323f58030f9dadcbc938f807a940f4ff41cd4cead9562f5da7dc39181900360200190a1505050565b60055461010090046001600160a01b031690565b60048054604080516020601f600260001961010060018816150201909516949094049384018190048102820181019092528281526060939092909183018282801561045b5780601f106104305761010080835404028352916020019161045b565b61071c610bd9565b6107268282610d98565b6040805182815290517f9a1b418bc061a5d80270261562e6986a35d995f8051145f277be16103abd34539181900360200190a15050565b600061047961076a610896565b84610500856040518060600160405280602581526020016110166025913960016000610794610896565b6001600160a01b03908116825260208083019390935260409182016000908120918d16815292529020549190610ae1565b60006104796107d2610896565b8484610986565b6006546001600160a01b031690565b6001600160a01b03918216600090815260016020908152604080832093909416825291909152205490565b61081b610bd9565b6005546001600160a01b03828116610100909204161415610874576040805162461bcd60e51b815260206004820152600e60248201526d22a9292fa9a0a6a2afa7aba722a960911b604482015290519081900360640190fd5b600680546001600160a01b0319166001600160a01b0392909216919091179055565b3390565b6001600160a01b0383166108df5760405162461bcd60e51b8152600401808060200182810382526024815260200180610ff26024913960400191505060405180910390fd5b6001600160a01b0382166109245760405162461bcd60e51b8152600401808060200182810382526022815260200180610f3c6022913960400191505060405180910390fd5b6001600160a01b03808416600081815260016020908152604080832094871680845294825291829020859055815185815291517f8c5be1e5ebec7d5bd14f71427d1e84f3dd0314c0f7b2291e5b200ac8c7c3b9259281900390910190a3505050565b6001600160a01b0383166109cb5760405162461bcd60e51b8152600401808060200182810382526025815260200180610fcd6025913960400191505060405180910390fd5b6001600160a01b038216610a105760405162461bcd60e51b8152600401808060200182810382526023815260200180610ef76023913960400191505060405180910390fd5b610a1b838383610e94565b610a5881604051806060016040528060268152602001610f5e602691396001600160a01b0386166000908152602081905260409020549190610ae1565b6001600160a01b038085166000908152602081905260408082209390935590841681522054610a879082610b78565b6001600160a01b038084166000818152602081815260409182902094909455805185815290519193928716927fddf252ad1be2c89b69c2b068fc378daa952ba7f163c4a11628f55a4df523b3ef92918290030190a3505050565b60008184841115610b705760405162461bcd60e51b81526004018080602001828103825283818151815260200191508051906020019080838360005b83811015610b35578181015183820152602001610b1d565b50505050905090810190601f168015610b625780820380516001836020036101000a031916815260200191505b509250505060405180910390fd5b505050900390565b600082820183811015610bd2576040805162461bcd60e51b815260206004820152601b60248201527f536166654d6174683a206164646974696f6e206f766572666c6f770000000000604482015290519081900360640190fd5b9392505050565b60055461010090046001600160a01b03163314610c31576040805162461bcd60e51b815260206004820152601160248201527011549497d050d0d154d4d7d11153925151607a1b604482015290519081900360640190fd5b565b6001600160a01b03811615801590610c5457506001600160a01b0381163014155b610ca5576040805162461bcd60e51b815260206004820152601c60248201527f4552525f494e56414c49445f45585445524e414c5f4144445245535300000000604482015290519081900360640190fd5b50565b6001600160a01b038216610d03576040805162461bcd60e51b815260206004820152601f60248201527f45524332303a206d696e7420746f20746865207a65726f206164647265737300604482015290519081900360640190fd5b610d0f60008383610e94565b600254610d1c9082610b78565b6002556001600160a01b038216600090815260208190526040902054610d429082610b78565b6001600160a01b0383166000818152602081815260408083209490945583518581529351929391927fddf252ad1be2c89b69c2b068fc378daa952ba7f163c4a11628f55a4df523b3ef9281900390910190a35050565b6001600160a01b038216610ddd5760405162461bcd60e51b8152600401808060200182810382526021815260200180610fac6021913960400191505060405180910390fd5b610de982600083610e94565b610e2681604051806060016040528060228152602001610f1a602291396001600160a01b0385166000908152602081905260409020549190610ae1565b6001600160a01b038316600090815260208190526040902055600254610e4c9082610e99565b6002556040805182815290516000916001600160a01b038516917fddf252ad1be2c89b69c2b068fc378daa952ba7f163c4a11628f55a4df523b3ef9181900360200190a35050565b505050565b600082821115610ef0576040805162461bcd60e51b815260206004820152601e60248201527f536166654d6174683a207375627472616374696f6e206f766572666c6f770000604482015290519081900360640190fd5b5090039056fe45524332303a207472616e7366657220746f20746865207a65726f206164647265737345524332303a206275726e20616d6f756e7420657863656564732062616c616e636545524332303a20617070726f766520746f20746865207a65726f206164647265737345524332303a207472616e7366657220616d6f756e7420657863656564732062616c616e636545524332303a207472616e7366657220616d6f756e74206578636565647320616c6c6f77616e636545524332303a206275726e2066726f6d20746865207a65726f206164647265737345524332303a207472616e736665722066726f6d20746865207a65726f206164647265737345524332303a20617070726f76652066726f6d20746865207a65726f206164647265737345524332303a2064656372656173656420616c6c6f77616e63652062656c6f77207a65726fa164736f6c634300060c000aa164736f6c634300060c000a",
  "linkReferences": {},
  "deployedLinkReferences": {}
}