{
  "_format": "hh-sol-artifact-1",
  "contractName": "VortexBurner",
  "sourceName": "contracts/vortex/VortexBurner.sol",
  "abi": [
    {
      "inputs": [
        {
          "internalType": "contract IERC20",
          "name": "networkToken",
          "type": "address"
        },
        {
          "internalType": "contract ITokenGovernance",
          "name": "govTokenGovernance",
          "type": "address"
        },
        {
          "internalType": "contract IContractRegistry",
          "name": "registry",
          "type": "address"
        }
      ],
      "stateMutability": "nonpayable",
      "type": "constructor"
    },
    {
      "anonymous": false,
      "inputs": [
        {
          "indexed": false,
          "internalType": "uint32",
          "name": "prevBurnReward",
          "type": "uint32"
        },
        {
          "indexed": false,
          "internalType": "uint32",
          "name": "newBurnReward",
          "type": "uint32"
        },
        {
          "indexed": false,
          "internalType": "uint256",
          "name": "prevMaxBurnRewardAmount",
          "type": "uint256"
        },
        {
          "indexed": false,
          "internalType": "uint256",
          "name": "newMaxBurnRewardAmount",
          "type": "uint256"
        }
      ],
      "name": "BurnRewardUpdated",
      "type": "event"
    },
    {
      "anonymous": false,
      "inputs": [
        {
          "indexed": false,
          "internalType": "contract IReserveToken[]",
          "name": "reserveTokens",
          "type": "address[]"
        },
        {
          "indexed": false,
          "internalType": "uint256",
          "name": "sourceAmount",
          "type": "uint256"
        },
        {
          "indexed": false,
          "internalType": "uint256",
          "name": "burnedAmount",
          "type": "uint256"
        }
      ],
      "name": "Burned",
      "type": "event"
    },
    {
      "anonymous": false,
      "inputs": [
        {
          "indexed": false,
          "internalType": "contract IReserveToken",
          "name": "reserveToken",
          "type": "address"
        },
        {
          "indexed": false,
          "internalType": "uint256",
          "name": "sourceAmount",
          "type": "uint256"
        },
        {
          "indexed": false,
          "internalType": "uint256",
          "name": "targetAmount",
          "type": "uint256"
        }
      ],
      "name": "Converted",
      "type": "event"
    },
    {
      "anonymous": false,
      "inputs": [
        {
          "indexed": true,
          "internalType": "address",
          "name": "prevOwner",
          "type": "address"
        },
        {
          "indexed": true,
          "internalType": "address",
          "name": "newOwner",
          "type": "address"
        }
      ],
      "name": "OwnerUpdate",
      "type": "event"
    },
    {
      "inputs": [],
      "name": "acceptNetworkFeeOwnership",
      "outputs": [],
      "stateMutability": "nonpayable",
      "type": "function"
    },
    {
      "inputs": [],
      "name": "acceptOwnership",
      "outputs": [],
      "stateMutability": "nonpayable",
      "type": "function"
    },
    {
      "inputs": [
        {
          "internalType": "contract IReserveToken[]",
          "name": "reserveTokens",
          "type": "address[]"
        }
      ],
      "name": "burn",
      "outputs": [],
      "stateMutability": "nonpayable",
      "type": "function"
    },
    {
      "inputs": [],
      "name": "burnReward",
      "outputs": [
        {
          "internalType": "uint32",
          "name": "",
          "type": "uint32"
        },
        {
          "internalType": "uint256",
          "name": "",
          "type": "uint256"
        }
      ],
      "stateMutability": "view",
      "type": "function"
    },
    {
      "inputs": [],
      "name": "newOwner",
      "outputs": [
        {
          "internalType": "address",
          "name": "",
          "type": "address"
        }
      ],
      "stateMutability": "view",
      "type": "function"
    },
    {
      "inputs": [],
      "name": "onlyOwnerCanUpdateRegistry",
      "outputs": [
        {
          "internalType": "bool",
          "name": "",
          "type": "bool"
        }
      ],
      "stateMutability": "view",
      "type": "function"
    },
    {
      "inputs": [],
      "name": "owner",
      "outputs": [
        {
          "internalType": "address",
          "name": "",
          "type": "address"
        }
      ],
      "stateMutability": "view",
      "type": "function"
    },
    {
      "inputs": [],
      "name": "prevRegistry",
      "outputs": [
        {
          "internalType": "contract IContractRegistry",
          "name": "",
          "type": "address"
        }
      ],
      "stateMutability": "view",
      "type": "function"
    },
    {
      "inputs": [],
      "name": "registry",
      "outputs": [
        {
          "internalType": "contract IContractRegistry",
          "name": "",
          "type": "address"
        }
      ],
      "stateMutability": "view",
      "type": "function"
    },
    {
      "inputs": [],
      "name": "restoreRegistry",
      "outputs": [],
      "stateMutability": "nonpayable",
      "type": "function"
    },
    {
      "inputs": [
        {
          "internalType": "bool",
          "name": "restrictOwnerOnly",
          "type": "bool"
        }
      ],
      "name": "restrictRegistryUpdate",
      "outputs": [],
      "stateMutability": "nonpayable",
      "type": "function"
    },
    {
      "inputs": [
        {
          "internalType": "uint32",
          "name": "newBurnReward",
          "type": "uint32"
        },
        {
          "internalType": "uint256",
          "name": "newMaxBurnRewardAmount",
          "type": "uint256"
        }
      ],
      "name": "setBurnReward",
      "outputs": [],
      "stateMutability": "nonpayable",
      "type": "function"
    },
    {
      "inputs": [],
      "name": "totalBurnedAmount",
      "outputs": [
        {
          "internalType": "uint256",
          "name": "",
          "type": "uint256"
        }
      ],
      "stateMutability": "view",
      "type": "function"
    },
    {
      "inputs": [
        {
          "internalType": "address",
          "name": "newOwner",
          "type": "address"
        }
      ],
      "name": "transferNetworkFeeWalletOwnership",
      "outputs": [],
      "stateMutability": "nonpayable",
      "type": "function"
    },
    {
      "inputs": [
        {
          "internalType": "address",
          "name": "newOwner",
          "type": "address"
        }
      ],
      "name": "transferOwnership",
      "outputs": [],
      "stateMutability": "nonpayable",
      "type": "function"
    },
    {
      "inputs": [],
      "name": "updateRegistry",
      "outputs": [],
      "stateMutability": "nonpayable",
      "type": "function"
    },
    {
      "stateMutability": "payable",
      "type": "receive"
    }
  ],
  "bytecode": "0x60e06040523480156200001157600080fd5b506040516200235c3803806200235c833981810160405260608110156200003757600080fd5b5080516020820151604090920151600080546001600160a01b03191633179055600160025590919080806200006c8162000154565b50600380546001600160a01b039092166001600160a01b031992831681179091556004805490921617905582620000a38162000154565b82620000af8162000154565b6001600160601b0319606086811b821660805285901b1660c05260408051637e062a3560e11b815290516001600160a01b0386169163fc0c546a916004808301926020929190829003018186803b1580156200010a57600080fd5b505afa1580156200011f573d6000803e3d6000fd5b505050506040513d60208110156200013657600080fd5b505160601b6001600160601b03191660a05250620001b39350505050565b6001600160a01b038116620001b0576040805162461bcd60e51b815260206004820152601360248201527f4552525f494e56414c49445f4144445245535300000000000000000000000000604482015290519081900360640190fd5b50565b60805160601c60a05160601c60c05160601c61213c6200022060003980610cae52508061089d5280610b9b52806113b3528061151f52806115775250806108625280610a7f5280610d3d5280611384528061142652806114ca528061164c528061191a525061213c6000f3fe6080604052600436106100f75760003560e01c8063769b90b91161008a578063afd25caa11610059578063afd25caa14610321578063b4a176d314610336578063d4ee1d901461034b578063f2fde38b14610360576100fe565b8063769b90b9146102ac57806379ba5097146102e25780637b103999146102f75780638da5cb5b1461030c576100fe565b806349d10b64116100c657806349d10b64146101b65780634aca7fb2146101cb57806361cd756e146101fe5780636c5d61561461022f576100fe565b8063024c7ec71461010357806302a79454146101315780632fe8a6ad1461016657806335ab5f641461018f576100fe565b366100fe57005b600080fd5b34801561010f57600080fd5b5061012f6004803603602081101561012657600080fd5b50351515610393565b005b34801561013d57600080fd5b506101466103b9565b6040805163ffffffff909316835260208301919091528051918290030190f35b34801561017257600080fd5b5061017b6103d0565b604080519115158252519081900360200190f35b34801561019b57600080fd5b506101a46103e0565b60408051918252519081900360200190f35b3480156101c257600080fd5b5061012f6103e6565b3480156101d757600080fd5b5061012f600480360360208110156101ee57600080fd5b50356001600160a01b03166105fc565b34801561020a57600080fd5b50610213610675565b604080516001600160a01b039092168252519081900360200190f35b34801561023b57600080fd5b5061012f6004803603602081101561025257600080fd5b81019060208101813564010000000081111561026d57600080fd5b82018360208201111561027f57600080fd5b803590602001918460208302840111640100000000831117156102a157600080fd5b509092509050610684565b3480156102b857600080fd5b5061012f600480360360408110156102cf57600080fd5b5063ffffffff8135169060200135610e36565b3480156102ee57600080fd5b5061012f610ecf565b34801561030357600080fd5b50610213610f86565b34801561031857600080fd5b50610213610f95565b34801561032d57600080fd5b5061012f610fa4565b34801561034257600080fd5b5061012f611008565b34801561035757600080fd5b50610213611034565b34801561036c57600080fd5b5061012f6004803603602081101561038357600080fd5b50356001600160a01b0316611043565b61039b6110c1565b60048054911515600160a01b0260ff60a01b19909216919091179055565b600454600554600160a81b90910463ffffffff1691565b600454600160a01b900460ff1690565b60065490565b6103ee610f95565b6001600160a01b0316336001600160a01b031614806104175750600454600160a01b900460ff16155b61045c576040805162461bcd60e51b815260206004820152601160248201527011549497d050d0d154d4d7d11153925151607a1b604482015290519081900360640190fd5b600061047a6f436f6e7472616374526567697374727960801b611116565b6003549091506001600160a01b038083169116148015906104a357506001600160a01b03811615155b6104eb576040805162461bcd60e51b81526020600482015260146024820152734552525f494e56414c49445f524547495354525960601b604482015290519081900360640190fd5b60006001600160a01b0316816001600160a01b031663bb34534c6f436f6e7472616374526567697374727960801b6040518263ffffffff1660e01b81526004018082815260200191505060206040518083038186803b15801561054d57600080fd5b505afa158015610561573d6000803e3d6000fd5b505050506040513d602081101561057757600080fd5b50516001600160a01b031614156105cc576040805162461bcd60e51b81526020600482015260146024820152734552525f494e56414c49445f524547495354525960601b604482015290519081900360640190fd5b60038054600480546001600160a01b038084166001600160a01b0319928316179092559091169216919091179055565b6106046110c1565b61060c611194565b6001600160a01b031663f2fde38b826040518263ffffffff1660e01b815260040180826001600160a01b03168152602001915050600060405180830381600087803b15801561065a57600080fd5b505af115801561066e573d6000803e3d6000fd5b5050505050565b6004546001600160a01b031690565b6002805414156106db576040805162461bcd60e51b815260206004820152601f60248201527f5265656e7472616e637947756172643a207265656e7472616e742063616c6c00604482015290519081900360640190fd5b6002805560006106e9611194565b90506106f3612067565b6106fe848484611207565b9050816001600160a01b03166308506df785853085602001516040518563ffffffff1660e01b81526004018080602001846001600160a01b031681526020018060200183810383528787828181526020019250602002808284376000838201819052601f909101601f1916909201858103845286518152865160209182019382890193509102908190849084905b838110156107a457818101518382015260200161078c565b505050509050019650505050505050600060405180830381600087803b1580156107cd57600080fd5b505af11580156107e1573d6000803e3d6000fd5b5050505060006107ef6115ca565b905060005b825151811015610a5b5760008360200151828151811061081057fe5b6020026020010151905080600014156108295750610a53565b60608460000151838151811061083b57fe5b6020026020010151905060008160008151811061085457fe5b6020026020010151905060007f00000000000000000000000000000000000000000000000000000000000000006001600160a01b0316826001600160a01b031614806108d157507f00000000000000000000000000000000000000000000000000000000000000006001600160a01b0316826001600160a01b0316145b156108df5750505050610a53565b6108f1826001600160a01b03166115ea565b156108fd575082610911565b6109116001600160a01b038316878661160f565b6000866001600160a01b031663b77d239b8386886001306000806040518863ffffffff1660e01b81526004018080602001878152602001868152602001856001600160a01b03168152602001846001600160a01b03168152602001838152602001828103825288818151815260200191508051906020019060200280838360005b838110156109aa578181015183820152602001610992565b505050509050019750505050505050506020604051808303818588803b1580156109d357600080fd5b505af11580156109e7573d6000803e3d6000fd5b50505050506040513d60208110156109fe57600080fd5b5051604080516001600160a01b03861681526020810188905280820183905290519192507fe6a45eea08a42f7c3f90f290e8ecf15e16174981943adf509fc9ea49808a64c6919081900360600190a150505050505b6001016107f4565b50600080610a67611645565b90925090508115610b9757610aa66001600160a01b037f000000000000000000000000000000000000000000000000000000000000000016848461172f565b826001600160a01b031663b77d239b8560400151846001306000806040518763ffffffff1660e01b81526004018080602001878152602001868152602001856001600160a01b03168152602001846001600160a01b03168152602001838152602001828103825288818151815260200191508051906020019060200280838360005b83811015610b40578181015183820152602001610b28565b50505050905001975050505050505050602060405180830381600087803b158015610b6a57600080fd5b505af1158015610b7e573d6000803e3d6000fd5b505050506040513d6020811015610b9457600080fd5b50505b60007f00000000000000000000000000000000000000000000000000000000000000006001600160a01b03166370a08231306040518263ffffffff1660e01b815260040180826001600160a01b0316815260200191505060206040518083038186803b158015610c0657600080fd5b505afa158015610c1a573d6000803e3d6000fd5b505050506040513d6020811015610c3057600080fd5b5051905080610c7d576040805162461bcd60e51b815260206004820152601460248201527311549497d6915493d7d095549397d05353d5539560621b604482015290519081900360640190fd5b600654610c8a90826117f4565b60065560408051630852cd8d60e31b81526004810183905290516001600160a01b037f000000000000000000000000000000000000000000000000000000000000000016916342966c6891602480830192600092919082900301818387803b158015610cf557600080fd5b505af1158015610d09573d6000803e3d6000fd5b505050506000821115610db2576040805163a9059cbb60e01b81523360048201526024810184905290516001600160a01b037f0000000000000000000000000000000000000000000000000000000000000000169163a9059cbb9160448083019260209291908290030181600087803b158015610d8557600080fd5b505af1158015610d99573d6000803e3d6000fd5b505050506040513d6020811015610daf57600080fd5b50505b7f8d1a3aa2e14a1c054c9817979380a072bdf25ccff4f74e29d40616a716cb538888888486018460405180806020018481526020018381526020018281038252868682818152602001925060200280828437600083820152604051601f909101601f191690920182900397509095505050505050a150506001600255505050505050565b610e3e6110c1565b81610e4881611857565b6004546005546040805163ffffffff600160a81b9094048416815292861660208401528281019190915260608201849052517f71d9eda78517255f4f5f721d1855a56406b2daf72b2beedc9bcdc3f7fcee17539181900360800190a1506004805463ffffffff909316600160a81b0263ffffffff60a81b1990931692909217909155600555565b6001546001600160a01b03163314610f22576040805162461bcd60e51b815260206004820152601160248201527011549497d050d0d154d4d7d11153925151607a1b604482015290519081900360640190fd5b600154600080546040516001600160a01b0393841693909116917f343765429aea5a34b3ff6a3785a98a5abb2597aca87bfbb58632c173d585373a91a360018054600080546001600160a01b03199081166001600160a01b03841617909155169055565b6003546001600160a01b031690565b6000546001600160a01b031690565b610fac6110c1565b610fb4611194565b6001600160a01b03166379ba50976040518163ffffffff1660e01b8152600401600060405180830381600087803b158015610fee57600080fd5b505af1158015611002573d6000803e3d6000fd5b50505050565b6110106110c1565b600454600380546001600160a01b0319166001600160a01b03909216919091179055565b6001546001600160a01b031690565b61104b6110c1565b6000546001600160a01b038281169116141561109f576040805162461bcd60e51b815260206004820152600e60248201526d22a9292fa9a0a6a2afa7aba722a960911b604482015290519081900360640190fd5b600180546001600160a01b0319166001600160a01b0392909216919091179055565b6000546001600160a01b03163314611114576040805162461bcd60e51b815260206004820152601160248201527011549497d050d0d154d4d7d11153925151607a1b604482015290519081900360640190fd5b565b60035460408051632ecd14d360e21b81526004810184905290516000926001600160a01b03169163bb34534c916024808301926020929190829003018186803b15801561116257600080fd5b505afa158015611176573d6000803e3d6000fd5b505050506040513d602081101561118c57600080fd5b505192915050565b600061119e6118aa565b6001600160a01b0316633e4565046040518163ffffffff1660e01b815260040160206040518083038186803b1580156111d657600080fd5b505afa1580156111ea573d6000803e3d6000fd5b505050506040513d602081101561120057600080fd5b5051905090565b61120f612067565b60006112196118c7565b9050611223612067565b6040805160608101909152808667ffffffffffffffff8111801561124657600080fd5b5060405190808252806020026020018201604052801561127a57816020015b60608152602001906001900390816112655790505b5081526020018667ffffffffffffffff8111801561129757600080fd5b506040519080825280602002602001820160405280156112c1578160200160208202803683370190505b5081526040805160038082526080820190925260209283019290919082016060803683375050509052905060005b858110156114c757600087878381811061130557fe5b905060200201356001600160a01b031690506060600367ffffffffffffffff8111801561133157600080fd5b5060405190808252806020026020018201604052801561135b578160200160208202803683370190505b509050818160008151811061136c57fe5b6001600160a01b0392831660209182029290920101527f00000000000000000000000000000000000000000000000000000000000000008116908316148015906113e857507f00000000000000000000000000000000000000000000000000000000000000006001600160a01b0316826001600160a01b031614155b15611473576113f782866118f2565b8160018151811061140457fe5b60200260200101906001600160a01b031690816001600160a01b0316815250507f00000000000000000000000000000000000000000000000000000000000000008160028151811061145257fe5b60200260200101906001600160a01b031690816001600160a01b0316815250505b808460000151848151811061148457fe5b60209081029190910101526114a26001600160a01b03831688611b70565b846020015184815181106114b257fe5b602090810291909101015250506001016112ef565b507f000000000000000000000000000000000000000000000000000000000000000081604001516000815181106114fa57fe5b60200260200101906001600160a01b031690816001600160a01b0316815250506115447f0000000000000000000000000000000000000000000000000000000000000000836118f2565b816040015160018151811061155557fe5b60200260200101906001600160a01b031690816001600160a01b0316815250507f000000000000000000000000000000000000000000000000000000000000000081604001516002815181106115a757fe5b6001600160a01b03909216602092830291909101909101529150505b9392505050565b60006115e56c42616e636f724e6574776f726b60981b611116565b905090565b6001600160a01b03811673eeeeeeeeeeeeeeeeeeeeeeeeeeeeeeeeeeeeeeee14919050565b611618836115ea565b1561162257611640565b611640828261163086611c19565b6001600160a01b0316919061172f565b505050565b60008060007f00000000000000000000000000000000000000000000000000000000000000006001600160a01b03166370a08231306040518263ffffffff1660e01b815260040180826001600160a01b0316815260200191505060206040518083038186803b1580156116b757600080fd5b505afa1580156116cb573d6000803e3d6000fd5b505050506040513d60208110156116e157600080fd5b505160045490915060009061172190620f424090611711908590600160a81b900463ffffffff90811690611c1c16565b8161171857fe5b04600554611c75565b918290039350909150509091565b8061173957611640565b60408051636eb1769f60e11b81523060048201526001600160a01b038481166024830152915160009286169163dd62ed3e916044808301926020929190829003018186803b15801561178a57600080fd5b505afa15801561179e573d6000803e3d6000fd5b505050506040513d60208110156117b457600080fd5b505190508181106117c55750611640565b80156117e0576117e06001600160a01b038516846000611c8b565b6110026001600160a01b0385168484611c8b565b60008282018381101561184e576040805162461bcd60e51b815260206004820152601b60248201527f536166654d6174683a206164646974696f6e206f766572666c6f770000000000604482015290519081900360640190fd5b90505b92915050565b620f424063ffffffff821611156118a7576040805162461bcd60e51b815260206004820152600f60248201526e4552525f494e56414c49445f46454560881b604482015290519081900360640190fd5b50565b60006115e56e4e6574776f726b53657474696e677360881b611116565b60006115e57f42616e636f72436f6e7665727465725265676973747279000000000000000000611116565b60408051600280825260608083018452600093909291906020830190803683370190505090507f00000000000000000000000000000000000000000000000000000000000000008160008151811061194657fe5b60200260200101906001600160a01b031690816001600160a01b031681525050838160018151811061197457fe5b6001600160a01b03929092166020928302919091019091015260408051600280825260608281019093528160200160208202803683370190505090506002620f424004816000815181106119c457fe5b63ffffffff909216602092830291909101909101526002620f424004816001815181106119ed57fe5b602002602001019063ffffffff16908163ffffffff16815250506000846001600160a01b0316631d3fccd5600385856040518463ffffffff1660e01b8152600401808461ffff1681526020018060200180602001838103835285818151815260200191508051906020019060200280838360005b83811015611a79578181015183820152602001611a61565b50505050905001838103825284818151815260200191508051906020019060200280838360005b83811015611ab8578181015183820152602001611aa0565b505050509050019550505050505060206040518083038186803b158015611ade57600080fd5b505afa158015611af2573d6000803e3d6000fd5b505050506040513d6020811015611b0857600080fd5b505190506001600160a01b038116611b67576040805162461bcd60e51b815260206004820152601960248201527f4552525f494e56414c49445f524553455256455f544f4b454e00000000000000604482015290519081900360640190fd5b95945050505050565b6000611b7b836115ea565b15611b9157506001600160a01b03811631611851565b611b9a83611c19565b6001600160a01b03166370a08231836040518263ffffffff1660e01b815260040180826001600160a01b0316815260200191505060206040518083038186803b158015611be657600080fd5b505afa158015611bfa573d6000803e3d6000fd5b505050506040513d6020811015611c1057600080fd5b50519392505050565b90565b600082611c2b57506000611851565b82820282848281611c3857fe5b041461184e5760405162461bcd60e51b81526004018080602001828103825260218152602001806120af6021913960400191505060405180910390fd5b6000818310611c84578161184e565b5090919050565b801580611d11575060408051636eb1769f60e11b81523060048201526001600160a01b03848116602483015291519185169163dd62ed3e91604480820192602092909190829003018186803b158015611ce357600080fd5b505afa158015611cf7573d6000803e3d6000fd5b505050506040513d6020811015611d0d57600080fd5b5051155b611d4c5760405162461bcd60e51b81526004018080602001828103825260368152602001806120fa6036913960400191505060405180910390fd5b604080516001600160a01b038416602482015260448082018490528251808303909101815260649091019091526020810180516001600160e01b031663095ea7b360e01b1790526116409084906060611dee826040518060400160405280602081526020017f5361666545524332303a206c6f772d6c6576656c2063616c6c206661696c6564815250856001600160a01b0316611e4a9092919063ffffffff16565b80519091501561164057808060200190516020811015611e0d57600080fd5b50516116405760405162461bcd60e51b815260040180806020018281038252602a8152602001806120d0602a913960400191505060405180910390fd5b6060611e598484600085611e61565b949350505050565b606082471015611ea25760405162461bcd60e51b81526004018080602001828103825260268152602001806120896026913960400191505060405180910390fd5b611eab85611fbd565b611efc576040805162461bcd60e51b815260206004820152601d60248201527f416464726573733a2063616c6c20746f206e6f6e2d636f6e7472616374000000604482015290519081900360640190fd5b60006060866001600160a01b031685876040518082805190602001908083835b60208310611f3b5780518252601f199092019160209182019101611f1c565b6001836020036101000a03801982511681845116808217855250505050505090500191505060006040518083038185875af1925050503d8060008114611f9d576040519150601f19603f3d011682016040523d82523d6000602084013e611fa2565b606091505b5091509150611fb2828286611fc3565b979650505050505050565b3b151590565b60608315611fd25750816115c3565b825115611fe25782518084602001fd5b8160405162461bcd60e51b81526004018080602001828103825283818151815260200191508051906020019080838360005b8381101561202c578181015183820152602001612014565b50505050905090810190601f1680156120595780820380516001836020036101000a031916815260200191505b509250505060405180910390fd5b6040518060600160405280606081526020016060815260200160608152509056fe416464726573733a20696e73756666696369656e742062616c616e636520666f722063616c6c536166654d6174683a206d756c7469706c69636174696f6e206f766572666c6f775361666545524332303a204552433230206f7065726174696f6e20646964206e6f7420737563636565645361666545524332303a20617070726f76652066726f6d206e6f6e2d7a65726f20746f206e6f6e2d7a65726f20616c6c6f77616e6365a164736f6c634300060c000a",
  "linkReferences": {},
  "deployedLinkReferences": {}
}