{
  "_format": "hh-sol-artifact-1",
  "contractName": "ConversionPathFinder",
  "sourceName": "contracts/ConversionPathFinder.sol",
  "abi": [
    {
      "inputs": [
        {
          "internalType": "contract IContractRegistry",
          "name": "registry",
          "type": "address"
        }
      ],
      "stateMutability": "nonpayable",
      "type": "constructor"
    },
    {
      "anonymous": false,
      "inputs": [
        {
          "indexed": true,
          "internalType": "address",
          "name": "prevOwner",
          "type": "address"
        },
        {
          "indexed": true,
          "internalType": "address",
          "name": "newOwner",
          "type": "address"
        }
      ],
      "name": "OwnerUpdate",
      "type": "event"
    },
    {
      "inputs": [],
      "name": "acceptOwnership",
      "outputs": [],
      "stateMutability": "nonpayable",
      "type": "function"
    },
    {
      "inputs": [],
      "name": "anchorToken",
      "outputs": [
        {
          "internalType": "contract IERC20",
          "name": "",
          "type": "address"
        }
      ],
      "stateMutability": "view",
      "type": "function"
    },
    {
      "inputs": [
        {
          "internalType": "contract IReserveToken",
          "name": "sourceToken",
          "type": "address"
        },
        {
          "internalType": "contract IReserveToken",
          "name": "targetToken",
          "type": "address"
        }
      ],
      "name": "findPath",
      "outputs": [
        {
          "internalType": "address[]",
          "name": "",
          "type": "address[]"
        }
      ],
      "stateMutability": "view",
      "type": "function"
    },
    {
      "inputs": [],
      "name": "newOwner",
      "outputs": [
        {
          "internalType": "address",
          "name": "",
          "type": "address"
        }
      ],
      "stateMutability": "view",
      "type": "function"
    },
    {
      "inputs": [],
      "name": "onlyOwnerCanUpdateRegistry",
      "outputs": [
        {
          "internalType": "bool",
          "name": "",
          "type": "bool"
        }
      ],
      "stateMutability": "view",
      "type": "function"
    },
    {
      "inputs": [],
      "name": "owner",
      "outputs": [
        {
          "internalType": "address",
          "name": "",
          "type": "address"
        }
      ],
      "stateMutability": "view",
      "type": "function"
    },
    {
      "inputs": [],
      "name": "prevRegistry",
      "outputs": [
        {
          "internalType": "contract IContractRegistry",
          "name": "",
          "type": "address"
        }
      ],
      "stateMutability": "view",
      "type": "function"
    },
    {
      "inputs": [],
      "name": "registry",
      "outputs": [
        {
          "internalType": "contract IContractRegistry",
          "name": "",
          "type": "address"
        }
      ],
      "stateMutability": "view",
      "type": "function"
    },
    {
      "inputs": [],
      "name": "restoreRegistry",
      "outputs": [],
      "stateMutability": "nonpayable",
      "type": "function"
    },
    {
      "inputs": [
        {
          "internalType": "bool",
          "name": "restrictOwnerOnly",
          "type": "bool"
        }
      ],
      "name": "restrictRegistryUpdate",
      "outputs": [],
      "stateMutability": "nonpayable",
      "type": "function"
    },
    {
      "inputs": [
        {
          "internalType": "contract IERC20",
          "name": "newAnchorToken",
          "type": "address"
        }
      ],
      "name": "setAnchorToken",
      "outputs": [],
      "stateMutability": "nonpayable",
      "type": "function"
    },
    {
      "inputs": [
        {
          "internalType": "address",
          "name": "newOwner",
          "type": "address"
        }
      ],
      "name": "transferOwnership",
      "outputs": [],
      "stateMutability": "nonpayable",
      "type": "function"
    },
    {
      "inputs": [],
      "name": "updateRegistry",
      "outputs": [],
      "stateMutability": "nonpayable",
      "type": "function"
    }
  ],
  "bytecode": "0x608060405234801561001057600080fd5b5060405161108c38038061108c8339818101604052602081101561003357600080fd5b5051600080546001600160a01b03191633179055808061005281610083565b50600280546001600160a01b039092166001600160a01b0319928316811790915560038054909216179055506100e1565b6001600160a01b0381166100de576040805162461bcd60e51b815260206004820152601360248201527f4552525f494e56414c49445f4144445245535300000000000000000000000000604482015290519081900360640190fd5b50565b610f9c806100f06000396000f3fe608060405234801561001057600080fd5b50600436106100cf5760003560e01c80637b1039991161008c578063b4a176d311610066578063b4a176d3146101f9578063d4ee1d9014610201578063e1c4c96614610209578063f2fde38b14610211576100cf565b80637b1039991461016b5780638da5cb5b14610173578063a1c421cd1461017b576100cf565b8063024c7ec7146100d45780632f167f05146100f55780632fe8a6ad1461011b57806349d10b641461013757806361cd756e1461013f57806379ba509714610163575b600080fd5b6100f3600480360360208110156100ea57600080fd5b50351515610237565b005b6100f36004803603602081101561010b57600080fd5b50356001600160a01b031661025d565b610123610287565b604080519115158252519081900360200190f35b6100f3610297565b6101476104ad565b604080516001600160a01b039092168252519081900360200190f35b6100f36104bc565b610147610573565b610147610582565b6101a96004803603604081101561019157600080fd5b506001600160a01b0381358116916020013516610591565b60408051602080825283518183015283519192839290830191858101910280838360005b838110156101e55781810151838201526020016101cd565b505050509050019250505060405180910390f35b6100f36105f2565b61014761061e565b61014761062d565b6100f36004803603602081101561022757600080fd5b50356001600160a01b031661063c565b61023f6106ba565b60038054911515600160a01b0260ff60a01b19909216919091179055565b6102656106ba565b600480546001600160a01b0319166001600160a01b0392909216919091179055565b600354600160a01b900460ff1690565b61029f610582565b6001600160a01b0316336001600160a01b031614806102c85750600354600160a01b900460ff16155b61030d576040805162461bcd60e51b815260206004820152601160248201527011549497d050d0d154d4d7d11153925151607a1b604482015290519081900360640190fd5b600061032b6f436f6e7472616374526567697374727960801b61070f565b6002549091506001600160a01b0380831691161480159061035457506001600160a01b03811615155b61039c576040805162461bcd60e51b81526020600482015260146024820152734552525f494e56414c49445f524547495354525960601b604482015290519081900360640190fd5b60006001600160a01b0316816001600160a01b031663bb34534c6f436f6e7472616374526567697374727960801b6040518263ffffffff1660e01b81526004018082815260200191505060206040518083038186803b1580156103fe57600080fd5b505afa158015610412573d6000803e3d6000fd5b505050506040513d602081101561042857600080fd5b50516001600160a01b0316141561047d576040805162461bcd60e51b81526020600482015260146024820152734552525f494e56414c49445f524547495354525960601b604482015290519081900360640190fd5b60028054600380546001600160a01b038084166001600160a01b0319928316179092559091169216919091179055565b6003546001600160a01b031690565b6001546001600160a01b0316331461050f576040805162461bcd60e51b815260206004820152601160248201527011549497d050d0d154d4d7d11153925151607a1b604482015290519081900360640190fd5b600154600080546040516001600160a01b0393841693909116917f343765429aea5a34b3ff6a3785a98a5abb2597aca87bfbb58632c173d585373a91a360018054600080546001600160a01b03199081166001600160a01b03841617909155169055565b6002546001600160a01b031690565b6000546001600160a01b031690565b606060006105be7f42616e636f72436f6e766572746572526567697374727900000000000000000061070f565b905060606105cc858361078d565b905060606105da858461078d565b90506105e68282610b63565b93505050505b92915050565b6105fa6106ba565b600354600280546001600160a01b0319166001600160a01b03909216919091179055565b6001546001600160a01b031690565b6004546001600160a01b031690565b6106446106ba565b6000546001600160a01b0382811691161415610698576040805162461bcd60e51b815260206004820152600e60248201526d22a9292fa9a0a6a2afa7aba722a960911b604482015290519081900360640190fd5b600180546001600160a01b0319166001600160a01b0392909216919091179055565b6000546001600160a01b0316331461070d576040805162461bcd60e51b815260206004820152601160248201527011549497d050d0d154d4d7d11153925151607a1b604482015290519081900360640190fd5b565b60025460408051632ecd14d360e21b81526004810184905290516000926001600160a01b03169163bb34534c916024808301926020929190829003018186803b15801561075b57600080fd5b505afa15801561076f573d6000803e3d6000fd5b505050506040513d602081101561078557600080fd5b505192915050565b6004546060906001600160a01b03848116911614156107b6576107af83610db5565b90506105ec565b6060826001600160a01b031663d8cced2a856040518263ffffffff1660e01b815260040180826001600160a01b0316815260200191505060206040518083038186803b15801561080557600080fd5b505afa158015610819573d6000803e3d6000fd5b505050506040513d602081101561082f57600080fd5b5051156108465761083f84610db5565b905061095f565b826001600160a01b03166311839064856040518263ffffffff1660e01b815260040180826001600160a01b0316815260200191505060006040518083038186803b15801561089357600080fd5b505afa1580156108a7573d6000803e3d6000fd5b505050506040513d6000823e601f3d908101601f1916820160405260208110156108d057600080fd5b81019080805160405193929190846401000000008211156108f057600080fd5b90830190602082018581111561090557600080fd5b825186602082028301116401000000008211171561092257600080fd5b82525081516020918201928201910280838360005b8381101561094f578181015183820152602001610937565b5050505090500160405250505090505b60005b8151811015610b4757600082828151811061097957fe5b60200260200101516001600160a01b0316638da5cb5b6040518163ffffffff1660e01b815260040160206040518083038186803b1580156109b957600080fd5b505afa1580156109cd573d6000803e3d6000fd5b505050506040513d60208110156109e357600080fd5b5051604080516371f52bf360e01b815290519192506000916001600160a01b038416916371f52bf3916004808301926020929190829003018186803b158015610a2b57600080fd5b505afa158015610a3f573d6000803e3d6000fd5b505050506040513d6020811015610a5557600080fd5b505161ffff16905060005b81811015610b3c576000836001600160a01b03166319b64015836040518263ffffffff1660e01b81526004018082815260200191505060206040518083038186803b158015610aae57600080fd5b505afa158015610ac2573d6000803e3d6000fd5b505050506040513d6020811015610ad857600080fd5b505190506001600160a01b03808216908a1614610b33576060610afb828a61078d565b805190915015610b3157610b238a888881518110610b1557fe5b602002602001015183610e07565b9750505050505050506105ec565b505b50600101610a60565b505050600101610962565b5060408051600080825260208201909252905b50949350505050565b606060008351118015610b77575060008251115b15610d9b57825182515b600082118015610b915750600081115b8015610bda5750836001820381518110610ba757fe5b60200260200101516001600160a01b0316856001840381518110610bc757fe5b60200260200101516001600160a01b0316145b15610bec576000199182019101610b81565b606081830160010167ffffffffffffffff81118015610c0a57600080fd5b50604051908082528060200260200182016040528015610c34578160200160208202803683370190505b50905060005b838111610c8157868181518110610c4d57fe5b6020026020010151828281518110610c6157fe5b6001600160a01b0390921660209283029190910190910152600101610c3a565b50815b8015610cd157856001820381518110610c9957fe5b6020026020010151828284510381518110610cb057fe5b6001600160a01b039092166020928302919091019091015260001901610c84565b506000805b8251811015610d8557600281015b60028206845103811015610d3e57838181518110610cfe57fe5b60200260200101516001600160a01b0316848381518110610d1b57fe5b60200260200101516001600160a01b03161415610d36578091505b600201610ce4565b50828181518110610d4b57fe5b6020026020010151838380600101945081518110610d6557fe5b6001600160a01b0390921660209283029190910190910152600101610cd6565b50610d908282610efd565b9450505050506105ec565b60408051600080825260208201909252905b509392505050565b604080516001808252818301909252606091829190602080830190803683370190505090508281600081518110610de857fe5b6001600160a01b03909216602092830291909101909101529050919050565b606080825160020167ffffffffffffffff81118015610e2557600080fd5b50604051908082528060200260200182016040528015610e4f578160200160208202803683370190505b5090508481600081518110610e6057fe5b60200260200101906001600160a01b031690816001600160a01b0316815250508381600181518110610e8e57fe5b60200260200101906001600160a01b031690816001600160a01b03168152505060005b8351811015610b5a57838181518110610ec657fe5b6020026020010151828260020181518110610edd57fe5b6001600160a01b0390921660209283029190910190910152600101610eb1565b6060808267ffffffffffffffff81118015610f1757600080fd5b50604051908082528060200260200182016040528015610f41578160200160208202803683370190505b50905060005b83811015610dad57848181518110610f5b57fe5b6020026020010151828281518110610f6f57fe5b6001600160a01b0390921660209283029190910190910152600101610f4756fea164736f6c634300060c000a",
  "linkReferences": {},
  "deployedLinkReferences": {}
}