{
  "_format": "hh-sol-artifact-1",
  "contractName": "ConverterUpgrader",
  "sourceName": "contracts/converter/ConverterUpgrader.sol",
  "abi": [
    {
      "inputs": [
        {
          "internalType": "contract IContractRegistry",
          "name": "registry",
          "type": "address"
        }
      ],
      "stateMutability": "nonpayable",
      "type": "constructor"
    },
    {
      "anonymous": false,
      "inputs": [
        {
          "indexed": true,
          "internalType": "contract IConverter",
          "name": "converter",
          "type": "address"
        },
        {
          "indexed": true,
          "internalType": "address",
          "name": "owner",
          "type": "address"
        }
      ],
      "name": "ConverterOwned",
      "type": "event"
    },
    {
      "anonymous": false,
      "inputs": [
        {
          "indexed": true,
          "internalType": "address",
          "name": "oldConverter",
          "type": "address"
        },
        {
          "indexed": true,
          "internalType": "address",
          "name": "newConverter",
          "type": "address"
        }
      ],
      "name": "ConverterUpgrade",
      "type": "event"
    },
    {
      "anonymous": false,
      "inputs": [
        {
          "indexed": true,
          "internalType": "address",
          "name": "prevOwner",
          "type": "address"
        },
        {
          "indexed": true,
          "internalType": "address",
          "name": "newOwner",
          "type": "address"
        }
      ],
      "name": "OwnerUpdate",
      "type": "event"
    },
    {
      "inputs": [],
      "name": "acceptOwnership",
      "outputs": [],
      "stateMutability": "nonpayable",
      "type": "function"
    },
    {
      "inputs": [],
      "name": "newOwner",
      "outputs": [
        {
          "internalType": "address",
          "name": "",
          "type": "address"
        }
      ],
      "stateMutability": "view",
      "type": "function"
    },
    {
      "inputs": [],
      "name": "onlyOwnerCanUpdateRegistry",
      "outputs": [
        {
          "internalType": "bool",
          "name": "",
          "type": "bool"
        }
      ],
      "stateMutability": "view",
      "type": "function"
    },
    {
      "inputs": [],
      "name": "owner",
      "outputs": [
        {
          "internalType": "address",
          "name": "",
          "type": "address"
        }
      ],
      "stateMutability": "view",
      "type": "function"
    },
    {
      "inputs": [],
      "name": "prevRegistry",
      "outputs": [
        {
          "internalType": "contract IContractRegistry",
          "name": "",
          "type": "address"
        }
      ],
      "stateMutability": "view",
      "type": "function"
    },
    {
      "inputs": [],
      "name": "registry",
      "outputs": [
        {
          "internalType": "contract IContractRegistry",
          "name": "",
          "type": "address"
        }
      ],
      "stateMutability": "view",
      "type": "function"
    },
    {
      "inputs": [],
      "name": "restoreRegistry",
      "outputs": [],
      "stateMutability": "nonpayable",
      "type": "function"
    },
    {
      "inputs": [
        {
          "internalType": "bool",
          "name": "restrictOwnerOnly",
          "type": "bool"
        }
      ],
      "name": "restrictRegistryUpdate",
      "outputs": [],
      "stateMutability": "nonpayable",
      "type": "function"
    },
    {
      "inputs": [
        {
          "internalType": "address",
          "name": "newOwner",
          "type": "address"
        }
      ],
      "name": "transferOwnership",
      "outputs": [],
      "stateMutability": "nonpayable",
      "type": "function"
    },
    {
      "inputs": [],
      "name": "updateRegistry",
      "outputs": [],
      "stateMutability": "nonpayable",
      "type": "function"
    },
    {
      "inputs": [
        {
          "internalType": "uint16",
          "name": "version",
          "type": "uint16"
        }
      ],
      "name": "upgrade",
      "outputs": [],
      "stateMutability": "nonpayable",
      "type": "function"
    },
    {
      "inputs": [
        {
          "internalType": "bytes32",
          "name": "version",
          "type": "bytes32"
        }
      ],
      "name": "upgrade",
      "outputs": [],
      "stateMutability": "nonpayable",
      "type": "function"
    },
    {
      "inputs": [
        {
          "internalType": "contract IConverter",
          "name": "converter",
          "type": "address"
        },
        {
          "internalType": "bytes32",
          "name": "",
          "type": "bytes32"
        }
      ],
      "name": "upgradeOld",
      "outputs": [],
      "stateMutability": "nonpayable",
      "type": "function"
    }
  ],
  "bytecode": "0x608060405234801561001057600080fd5b506040516118913803806118918339818101604052602081101561003357600080fd5b5051600080546001600160a01b03191633179055808061005281610083565b50600280546001600160a01b039092166001600160a01b0319928316811790915560038054909216179055506100e1565b6001600160a01b0381166100de576040805162461bcd60e51b815260206004820152601360248201527f4552525f494e56414c49445f4144445245535300000000000000000000000000604482015290519081900360640190fd5b50565b6117a1806100f06000396000f3fe608060405234801561001057600080fd5b50600436106100cf5760003560e01c80638da5cb5b1161008c578063bc444e1311610066578063bc444e131461017e578063d4ee1d901461019b578063f2cfed87146101a3578063f2fde38b146101cf576100cf565b80638da5cb5b1461014d57806390f58c9614610155578063b4a176d314610176576100cf565b8063024c7ec7146100d45780632fe8a6ad146100f557806349d10b641461011157806361cd756e1461011957806379ba50971461013d5780637b10399914610145575b600080fd5b6100f3600480360360208110156100ea57600080fd5b503515156101f5565b005b6100fd61021b565b604080519115158252519081900360200190f35b6100f361022b565b610121610441565b604080516001600160a01b039092168252519081900360200190f35b6100f3610450565b610121610507565b610121610516565b6100f36004803603602081101561016b57600080fd5b503561ffff16610525565b6100f3610532565b6100f36004803603602081101561019457600080fd5b503561055e565b610121610568565b6100f3600480360360408110156101b957600080fd5b506001600160a01b038135169060200135610577565b6100f3600480360360208110156101e557600080fd5b50356001600160a01b0316610586565b6101fd610604565b60038054911515600160a01b0260ff60a01b19909216919091179055565b600354600160a01b900460ff1690565b610233610516565b6001600160a01b0316336001600160a01b0316148061025c5750600354600160a01b900460ff16155b6102a1576040805162461bcd60e51b815260206004820152601160248201527011549497d050d0d154d4d7d11153925151607a1b604482015290519081900360640190fd5b60006102bf6f436f6e7472616374526567697374727960801b610659565b6002549091506001600160a01b038083169116148015906102e857506001600160a01b03811615155b610330576040805162461bcd60e51b81526020600482015260146024820152734552525f494e56414c49445f524547495354525960601b604482015290519081900360640190fd5b60006001600160a01b0316816001600160a01b031663bb34534c6f436f6e7472616374526567697374727960801b6040518263ffffffff1660e01b81526004018082815260200191505060206040518083038186803b15801561039257600080fd5b505afa1580156103a6573d6000803e3d6000fd5b505050506040513d60208110156103bc57600080fd5b50516001600160a01b03161415610411576040805162461bcd60e51b81526020600482015260146024820152734552525f494e56414c49445f524547495354525960601b604482015290519081900360640190fd5b60028054600380546001600160a01b038084166001600160a01b0319928316179092559091169216919091179055565b6003546001600160a01b031690565b6001546001600160a01b031633146104a3576040805162461bcd60e51b815260206004820152601160248201527011549497d050d0d154d4d7d11153925151607a1b604482015290519081900360640190fd5b600154600080546040516001600160a01b0393841693909116917f343765429aea5a34b3ff6a3785a98a5abb2597aca87bfbb58632c173d585373a91a360018054600080546001600160a01b03199081166001600160a01b03841617909155169055565b6002546001600160a01b031690565b6000546001600160a01b031690565b61052f33826106d9565b50565b61053a610604565b600354600280546001600160a01b0319166001600160a01b03909216919091179055565b61052f3382610577565b6001546001600160a01b031690565b6105828260006106d9565b5050565b61058e610604565b6000546001600160a01b03828116911614156105e2576040805162461bcd60e51b815260206004820152600e60248201526d22a9292fa9a0a6a2afa7aba722a960911b604482015290519081900360640190fd5b600180546001600160a01b0319166001600160a01b0392909216919091179055565b6000546001600160a01b03163314610657576040805162461bcd60e51b815260206004820152601160248201527011549497d050d0d154d4d7d11153925151607a1b604482015290519081900360640190fd5b565b60025460408051632ecd14d360e21b81526004810184905290516000926001600160a01b03169163bb34534c916024808301926020929190829003018186803b1580156106a557600080fd5b505afa1580156106b9573d6000803e3d6000fd5b505050506040513d60208110156106cf57600080fd5b505190505b919050565b6000826001600160a01b0316638da5cb5b6040518163ffffffff1660e01b815260040160206040518083038186803b15801561071457600080fd5b505afa158015610728573d6000803e3d6000fd5b505050506040513d602081101561073e57600080fd5b5051905061074b83610a7c565b600061075684610b08565b90506107628482611050565b61076c8482611247565b61077784828561131c565b6000846001600160a01b031663fc0c546a6040518163ffffffff1660e01b815260040160206040518083038186803b1580156107b257600080fd5b505afa1580156107c6573d6000803e3d6000fd5b505050506040513d60208110156107dc57600080fd5b505160408051638da5cb5b60e01b815290519192506001600160a01b038088169290841691638da5cb5b916004808301926020929190829003018186803b15801561082657600080fd5b505afa15801561083a573d6000803e3d6000fd5b505050506040513d602081101561085057600080fd5b50516001600160a01b0316141561091c57846001600160a01b03166321e6b53d836040518263ffffffff1660e01b815260040180826001600160a01b03168152602001915050600060405180830381600087803b1580156108b057600080fd5b505af11580156108c4573d6000803e3d6000fd5b50505050816001600160a01b031663cdc91c696040518163ffffffff1660e01b8152600401600060405180830381600087803b15801561090357600080fd5b505af1158015610917573d6000803e3d6000fd5b505050505b846001600160a01b031663f2fde38b846040518263ffffffff1660e01b815260040180826001600160a01b03168152602001915050600060405180830381600087803b15801561096b57600080fd5b505af115801561097f573d6000803e3d6000fd5b50505050816001600160a01b031663f2fde38b846040518263ffffffff1660e01b815260040180826001600160a01b03168152602001915050600060405180830381600087803b1580156109d257600080fd5b505af11580156109e6573d6000803e3d6000fd5b50505050816001600160a01b03166350dc78f96040518163ffffffff1660e01b8152600401600060405180830381600087803b158015610a2557600080fd5b505af1158015610a39573d6000803e3d6000fd5b50506040516001600160a01b038086169350881691507f522b846327aea07106ec4d64ae4b6d6dea47689884dab650fd3a1f2e1d6a270190600090a35050505050565b806001600160a01b03166379ba50976040518163ffffffff1660e01b8152600401600060405180830381600087803b158015610ab757600080fd5b505af1158015610acb573d6000803e3d6000fd5b50506040513092506001600160a01b03841691507ff764604894fa993d4370a9cb28b81c11deb1aafdb2909156173ae3833dad807590600090a350565b600080826001600160a01b031663fc0c546a6040518163ffffffff1660e01b815260040160206040518083038186803b158015610b4457600080fd5b505afa158015610b58573d6000803e3d6000fd5b505050506040513d6020811015610b6e57600080fd5b5051604080516394c275ad60e01b815290519192506000916001600160a01b038616916394c275ad916004808301926020929190829003018186803b158015610bb657600080fd5b505afa158015610bca573d6000803e3d6000fd5b505050506040513d6020811015610be057600080fd5b5051604080516371f52bf360e01b815290519192506000916001600160a01b038716916371f52bf3916004808301926020929190829003018186803b158015610c2857600080fd5b505afa158015610c3c573d6000803e3d6000fd5b505050506040513d6020811015610c5257600080fd5b505190506000610c618661138b565b15610cd257856001600160a01b0316633e8ff43f6040518163ffffffff1660e01b815260040160206040518083038186803b158015610c9f57600080fd5b505afa158015610cb3573d6000803e3d6000fd5b505050506040513d6020811015610cc957600080fd5b50519050610ce4565b60018261ffff1611610ce057fe5b5060015b8061ffff166001148015610cfc57508161ffff166002145b15610f18576000866001600160a01b0316630e53aae9886001600160a01b03166319b6401560006040518263ffffffff1660e01b81526004018082815260200191505060206040518083038186803b158015610d5757600080fd5b505afa158015610d6b573d6000803e3d6000fd5b505050506040513d6020811015610d8157600080fd5b5051604080516001600160e01b031960e085901b1681526001600160a01b0390921660048301525160248083019260a0929190829003018186803b158015610dc857600080fd5b505afa158015610ddc573d6000803e3d6000fd5b505050506040513d60a0811015610df257600080fd5b50602090810151604080516319b6401560e01b81526001600482015290519193506000926001600160a01b038b1692630e53aae99284926319b6401592602480840193829003018186803b158015610e4957600080fd5b505afa158015610e5d573d6000803e3d6000fd5b505050506040513d6020811015610e7357600080fd5b5051604080516001600160e01b031960e085901b1681526001600160a01b0390921660048301525160248083019260a0929190829003018186803b158015610eba57600080fd5b505afa158015610ece573d6000803e3d6000fd5b505050506040513d60a0811015610ee457600080fd5b5060200151905063ffffffff82166207a120148015610f0b575063ffffffff81166207a120145b15610f1557600392505b50505b6000610f366f436f6e766572746572466163746f727960801b610659565b90506000816001600160a01b03166315f64b6a8488610f53610507565b896040518563ffffffff1660e01b8152600401808561ffff168152602001846001600160a01b03168152602001836001600160a01b031681526020018263ffffffff168152602001945050505050602060405180830381600087803b158015610fbb57600080fd5b505af1158015610fcf573d6000803e3d6000fd5b505050506040513d6020811015610fe557600080fd5b5051604080516379ba509760e01b815290519192506001600160a01b038316916379ba50979160048082019260009290919082900301818387803b15801561102c57600080fd5b505af1158015611040573d6000803e3d6000fd5b50929a9950505050505050505050565b6000826001600160a01b03166371f52bf36040518163ffffffff1660e01b815260040160206040518083038186803b15801561108b57600080fd5b505afa15801561109f573d6000803e3d6000fd5b505050506040513d60208110156110b557600080fd5b5051905060005b8161ffff168161ffff161015611241576000846001600160a01b03166319b64015836040518263ffffffff1660e01b8152600401808261ffff16815260200191505060206040518083038186803b15801561111657600080fd5b505afa15801561112a573d6000803e3d6000fd5b505050506040513d602081101561114057600080fd5b505160408051630e53aae960e01b81526001600160a01b038084166004830152915192935060009291881691630e53aae99160248082019260a092909190829003018186803b15801561119257600080fd5b505afa1580156111a6573d6000803e3d6000fd5b505050506040513d60a08110156111bc57600080fd5b506020015160408051631a9274b160e21b81526001600160a01b03858116600483015263ffffffff84166024830152915192935090871691636a49d2c49160448082019260009290919082900301818387803b15801561121b57600080fd5b505af115801561122f573d6000803e3d6000fd5b5050600190940193506110bc92505050565b50505050565b6000826001600160a01b031663579cd3ca6040518163ffffffff1660e01b815260040160206040518083038186803b15801561128257600080fd5b505afa158015611296573d6000803e3d6000fd5b505050506040513d60208110156112ac57600080fd5b50516040805163ecbca55d60e01b815263ffffffff8316600482015290519192506001600160a01b0384169163ecbca55d9160248082019260009290919082900301818387803b1580156112ff57600080fd5b505af1158015611313573d6000803e3d6000fd5b50505050505050565b602d8161ffff16116113375761133283836114a2565b611386565b826001600160a01b031663038d09e1836040518263ffffffff1660e01b815260040180826001600160a01b03168152602001915050600060405180830381600087803b1580156112ff57600080fd5b505050565b60408051600481526024810182526020810180516001600160e01b031663349814a760e21b1781529151815160009384926060926001600160a01b03881692610fa0928792909182918083835b602083106113f75780518252601f1990920191602091820191016113d8565b6001836020036101000a0380198251168184511680821785525050505050509050019150506000604051808303818686fa925050503d8060008114611458576040519150601f19603f3d011682016040523d82523d6000602084013e61145d565b606091505b5091509150818015611470575080516020145b156114975780806020019051602081101561148a57600080fd5b505193506106d492505050565b506000949350505050565b6000826001600160a01b03166371f52bf36040518163ffffffff1660e01b815260040160206040518083038186803b1580156114dd57600080fd5b505afa1580156114f1573d6000803e3d6000fd5b505050506040513d602081101561150757600080fd5b5051905060005b8161ffff168161ffff161015611241576000846001600160a01b03166319b64015836040518263ffffffff1660e01b8152600401808261ffff16815260200191505060206040518083038186803b15801561156857600080fd5b505afa15801561157c573d6000803e3d6000fd5b505050506040513d602081101561159257600080fd5b5051905060006115ab6001600160a01b038316876116c1565b905080156116b7576115c5826001600160a01b031661176c565b1561163657856001600160a01b031663690d8320866040518263ffffffff1660e01b815260040180826001600160a01b03168152602001915050600060405180830381600087803b15801561161957600080fd5b505af115801561162d573d6000803e3d6000fd5b505050506116b7565b856001600160a01b0316635e35359e8387846040518463ffffffff1660e01b815260040180846001600160a01b03168152602001836001600160a01b031681526020018281526020019350505050600060405180830381600087803b15801561169e57600080fd5b505af11580156116b2573d6000803e3d6000fd5b505050505b505060010161150e565b60006116cc8361176c565b156116e257506001600160a01b03811631611766565b6116eb83611791565b6001600160a01b03166370a08231836040518263ffffffff1660e01b815260040180826001600160a01b0316815260200191505060206040518083038186803b15801561173757600080fd5b505afa15801561174b573d6000803e3d6000fd5b505050506040513d602081101561176157600080fd5b505190505b92915050565b6001600160a01b03811673eeeeeeeeeeeeeeeeeeeeeeeeeeeeeeeeeeeeeeee14919050565b9056fea164736f6c634300060c000a",
  "linkReferences": {},
  "deployedLinkReferences": {}
}