{
  "_format": "hh-sol-artifact-1",
  "contractName": "TestStakingRewardsStore",
  "sourceName": "contracts/helpers/TestStakingRewardsStore.sol",
  "abi": [
    {
      "anonymous": false,
      "inputs": [
        {
          "indexed": true,
          "internalType": "contract IDSToken",
          "name": "poolToken",
          "type": "address"
        },
        {
          "indexed": false,
          "internalType": "uint256",
          "name": "startTime",
          "type": "uint256"
        },
        {
          "indexed": false,
          "internalType": "uint256",
          "name": "endTime",
          "type": "uint256"
        },
        {
          "indexed": false,
          "internalType": "uint256",
          "name": "rewardRate",
          "type": "uint256"
        }
      ],
      "name": "PoolProgramAdded",
      "type": "event"
    },
    {
      "anonymous": false,
      "inputs": [
        {
          "indexed": true,
          "internalType": "contract IDSToken",
          "name": "poolToken",
          "type": "address"
        }
      ],
      "name": "PoolProgramRemoved",
      "type": "event"
    },
    {
      "anonymous": false,
      "inputs": [
        {
          "indexed": true,
          "internalType": "address",
          "name": "provider",
          "type": "address"
        },
        {
          "indexed": false,
          "internalType": "uint256",
          "name": "claimTime",
          "type": "uint256"
        }
      ],
      "name": "ProviderLastClaimTimeUpdated",
      "type": "event"
    },
    {
      "anonymous": false,
      "inputs": [
        {
          "indexed": true,
          "internalType": "bytes32",
          "name": "role",
          "type": "bytes32"
        },
        {
          "indexed": true,
          "internalType": "bytes32",
          "name": "previousAdminRole",
          "type": "bytes32"
        },
        {
          "indexed": true,
          "internalType": "bytes32",
          "name": "newAdminRole",
          "type": "bytes32"
        }
      ],
      "name": "RoleAdminChanged",
      "type": "event"
    },
    {
      "anonymous": false,
      "inputs": [
        {
          "indexed": true,
          "internalType": "bytes32",
          "name": "role",
          "type": "bytes32"
        },
        {
          "indexed": true,
          "internalType": "address",
          "name": "account",
          "type": "address"
        },
        {
          "indexed": true,
          "internalType": "address",
          "name": "sender",
          "type": "address"
        }
      ],
      "name": "RoleGranted",
      "type": "event"
    },
    {
      "anonymous": false,
      "inputs": [
        {
          "indexed": true,
          "internalType": "bytes32",
          "name": "role",
          "type": "bytes32"
        },
        {
          "indexed": true,
          "internalType": "address",
          "name": "account",
          "type": "address"
        },
        {
          "indexed": true,
          "internalType": "address",
          "name": "sender",
          "type": "address"
        }
      ],
      "name": "RoleRevoked",
      "type": "event"
    },
    {
      "inputs": [],
      "name": "DEFAULT_ADMIN_ROLE",
      "outputs": [
        {
          "internalType": "bytes32",
          "name": "",
          "type": "bytes32"
        }
      ],
      "stateMutability": "view",
      "type": "function"
    },
    {
      "inputs": [],
      "name": "ROLE_MANAGER",
      "outputs": [
        {
          "internalType": "bytes32",
          "name": "",
          "type": "bytes32"
        }
      ],
      "stateMutability": "view",
      "type": "function"
    },
    {
      "inputs": [],
      "name": "ROLE_OWNER",
      "outputs": [
        {
          "internalType": "bytes32",
          "name": "",
          "type": "bytes32"
        }
      ],
      "stateMutability": "view",
      "type": "function"
    },
    {
      "inputs": [],
      "name": "ROLE_SEEDER",
      "outputs": [
        {
          "internalType": "bytes32",
          "name": "",
          "type": "bytes32"
        }
      ],
      "stateMutability": "view",
      "type": "function"
    },
    {
      "inputs": [],
      "name": "ROLE_SUPERVISOR",
      "outputs": [
        {
          "internalType": "bytes32",
          "name": "",
          "type": "bytes32"
        }
      ],
      "stateMutability": "view",
      "type": "function"
    },
    {
      "inputs": [
        {
          "internalType": "contract IDSToken[]",
          "name": "poolTokens",
          "type": "address[]"
        },
        {
          "internalType": "contract IReserveToken[2][]",
          "name": "reserveTokens",
          "type": "address[2][]"
        },
        {
          "internalType": "uint32[2][]",
          "name": "rewardShares",
          "type": "uint32[2][]"
        },
        {
          "internalType": "uint256[]",
          "name": "startTime",
          "type": "uint256[]"
        },
        {
          "internalType": "uint256[]",
          "name": "endTimes",
          "type": "uint256[]"
        },
        {
          "internalType": "uint256[]",
          "name": "rewardRates",
          "type": "uint256[]"
        }
      ],
      "name": "addPastPoolPrograms",
      "outputs": [],
      "stateMutability": "nonpayable",
      "type": "function"
    },
    {
      "inputs": [
        {
          "internalType": "contract IDSToken",
          "name": "poolToken",
          "type": "address"
        },
        {
          "internalType": "contract IReserveToken[2]",
          "name": "reserveTokens",
          "type": "address[2]"
        },
        {
          "internalType": "uint32[2]",
          "name": "rewardShares",
          "type": "uint32[2]"
        },
        {
          "internalType": "uint256",
          "name": "endTime",
          "type": "uint256"
        },
        {
          "internalType": "uint256",
          "name": "rewardRate",
          "type": "uint256"
        }
      ],
      "name": "addPoolProgram",
      "outputs": [],
      "stateMutability": "nonpayable",
      "type": "function"
    },
    {
      "inputs": [],
      "name": "currentTime",
      "outputs": [
        {
          "internalType": "uint256",
          "name": "",
          "type": "uint256"
        }
      ],
      "stateMutability": "view",
      "type": "function"
    },
    {
      "inputs": [
        {
          "internalType": "bytes32",
          "name": "role",
          "type": "bytes32"
        }
      ],
      "name": "getRoleAdmin",
      "outputs": [
        {
          "internalType": "bytes32",
          "name": "",
          "type": "bytes32"
        }
      ],
      "stateMutability": "view",
      "type": "function"
    },
    {
      "inputs": [
        {
          "internalType": "bytes32",
          "name": "role",
          "type": "bytes32"
        },
        {
          "internalType": "uint256",
          "name": "index",
          "type": "uint256"
        }
      ],
      "name": "getRoleMember",
      "outputs": [
        {
          "internalType": "address",
          "name": "",
          "type": "address"
        }
      ],
      "stateMutability": "view",
      "type": "function"
    },
    {
      "inputs": [
        {
          "internalType": "bytes32",
          "name": "role",
          "type": "bytes32"
        }
      ],
      "name": "getRoleMemberCount",
      "outputs": [
        {
          "internalType": "uint256",
          "name": "",
          "type": "uint256"
        }
      ],
      "stateMutability": "view",
      "type": "function"
    },
    {
      "inputs": [
        {
          "internalType": "bytes32",
          "name": "role",
          "type": "bytes32"
        },
        {
          "internalType": "address",
          "name": "account",
          "type": "address"
        }
      ],
      "name": "grantRole",
      "outputs": [],
      "stateMutability": "nonpayable",
      "type": "function"
    },
    {
      "inputs": [
        {
          "internalType": "bytes32",
          "name": "role",
          "type": "bytes32"
        },
        {
          "internalType": "address",
          "name": "account",
          "type": "address"
        }
      ],
      "name": "hasRole",
      "outputs": [
        {
          "internalType": "bool",
          "name": "",
          "type": "bool"
        }
      ],
      "stateMutability": "view",
      "type": "function"
    },
    {
      "inputs": [
        {
          "internalType": "contract IDSToken",
          "name": "poolToken",
          "type": "address"
        }
      ],
      "name": "isPoolParticipating",
      "outputs": [
        {
          "internalType": "bool",
          "name": "",
          "type": "bool"
        }
      ],
      "stateMutability": "view",
      "type": "function"
    },
    {
      "inputs": [
        {
          "internalType": "contract IDSToken",
          "name": "poolToken",
          "type": "address"
        },
        {
          "internalType": "contract IReserveToken",
          "name": "reserveToken",
          "type": "address"
        }
      ],
      "name": "isReserveParticipating",
      "outputs": [
        {
          "internalType": "bool",
          "name": "",
          "type": "bool"
        }
      ],
      "stateMutability": "view",
      "type": "function"
    },
    {
      "inputs": [
        {
          "internalType": "contract IDSToken",
          "name": "poolToken",
          "type": "address"
        }
      ],
      "name": "poolProgram",
      "outputs": [
        {
          "internalType": "uint256",
          "name": "",
          "type": "uint256"
        },
        {
          "internalType": "uint256",
          "name": "",
          "type": "uint256"
        },
        {
          "internalType": "uint256",
          "name": "",
          "type": "uint256"
        },
        {
          "internalType": "contract IReserveToken[2]",
          "name": "",
          "type": "address[2]"
        },
        {
          "internalType": "uint32[2]",
          "name": "",
          "type": "uint32[2]"
        }
      ],
      "stateMutability": "view",
      "type": "function"
    },
    {
      "inputs": [],
      "name": "poolPrograms",
      "outputs": [
        {
          "internalType": "contract IDSToken[]",
          "name": "",
          "type": "address[]"
        },
        {
          "internalType": "uint256[]",
          "name": "",
          "type": "uint256[]"
        },
        {
          "internalType": "uint256[]",
          "name": "",
          "type": "uint256[]"
        },
        {
          "internalType": "uint256[]",
          "name": "",
          "type": "uint256[]"
        },
        {
          "internalType": "contract IReserveToken[2][]",
          "name": "",
          "type": "address[2][]"
        },
        {
          "internalType": "uint32[2][]",
          "name": "",
          "type": "uint32[2][]"
        }
      ],
      "stateMutability": "view",
      "type": "function"
    },
    {
      "inputs": [
        {
          "internalType": "contract IDSToken",
          "name": "poolToken",
          "type": "address"
        },
        {
          "internalType": "contract IReserveToken",
          "name": "reserveToken",
          "type": "address"
        }
      ],
      "name": "poolRewards",
      "outputs": [
        {
          "internalType": "uint256",
          "name": "",
          "type": "uint256"
        },
        {
          "internalType": "uint256",
          "name": "",
          "type": "uint256"
        },
        {
          "internalType": "uint256",
          "name": "",
          "type": "uint256"
        }
      ],
      "stateMutability": "view",
      "type": "function"
    },
    {
      "inputs": [
        {
          "internalType": "address",
          "name": "provider",
          "type": "address"
        }
      ],
      "name": "providerLastClaimTime",
      "outputs": [
        {
          "internalType": "uint256",
          "name": "",
          "type": "uint256"
        }
      ],
      "stateMutability": "view",
      "type": "function"
    },
    {
      "inputs": [
        {
          "internalType": "address",
          "name": "provider",
          "type": "address"
        },
        {
          "internalType": "contract IDSToken",
          "name": "poolToken",
          "type": "address"
        },
        {
          "internalType": "contract IReserveToken",
          "name": "reserveToken",
          "type": "address"
        }
      ],
      "name": "providerRewards",
      "outputs": [
        {
          "internalType": "uint256",
          "name": "",
          "type": "uint256"
        },
        {
          "internalType": "uint256",
          "name": "",
          "type": "uint256"
        },
        {
          "internalType": "uint256",
          "name": "",
          "type": "uint256"
        },
        {
          "internalType": "uint256",
          "name": "",
          "type": "uint256"
        },
        {
          "internalType": "uint256",
          "name": "",
          "type": "uint256"
        },
        {
          "internalType": "uint32",
          "name": "",
          "type": "uint32"
        }
      ],
      "stateMutability": "view",
      "type": "function"
    },
    {
      "inputs": [
        {
          "internalType": "contract IDSToken",
          "name": "poolToken",
          "type": "address"
        }
      ],
      "name": "removePoolProgram",
      "outputs": [],
      "stateMutability": "nonpayable",
      "type": "function"
    },
    {
      "inputs": [
        {
          "internalType": "bytes32",
          "name": "role",
          "type": "bytes32"
        },
        {
          "internalType": "address",
          "name": "account",
          "type": "address"
        }
      ],
      "name": "renounceRole",
      "outputs": [],
      "stateMutability": "nonpayable",
      "type": "function"
    },
    {
      "inputs": [
        {
          "internalType": "bytes32",
          "name": "role",
          "type": "bytes32"
        },
        {
          "internalType": "address",
          "name": "account",
          "type": "address"
        }
      ],
      "name": "revokeRole",
      "outputs": [],
      "stateMutability": "nonpayable",
      "type": "function"
    },
    {
      "inputs": [
        {
          "internalType": "contract IDSToken",
          "name": "poolToken",
          "type": "address"
        },
        {
          "internalType": "uint256",
          "name": "newEndTime",
          "type": "uint256"
        }
      ],
      "name": "setPoolProgramEndTime",
      "outputs": [],
      "stateMutability": "nonpayable",
      "type": "function"
    },
    {
      "inputs": [
        {
          "internalType": "contract IDSToken[]",
          "name": "poolTokens",
          "type": "address[]"
        },
        {
          "internalType": "contract IReserveToken[]",
          "name": "reserveTokens",
          "type": "address[]"
        },
        {
          "internalType": "uint256[]",
          "name": "lastUpdateTimes",
          "type": "uint256[]"
        },
        {
          "internalType": "uint256[]",
          "name": "rewardsPerToken",
          "type": "uint256[]"
        },
        {
          "internalType": "uint256[]",
          "name": "totalClaimedRewards",
          "type": "uint256[]"
        }
      ],
      "name": "setPoolsRewardData",
      "outputs": [],
      "stateMutability": "nonpayable",
      "type": "function"
    },
    {
      "inputs": [
        {
          "internalType": "contract IDSToken",
          "name": "poolToken",
          "type": "address"
        },
        {
          "internalType": "contract IReserveToken",
          "name": "reserveToken",
          "type": "address"
        },
        {
          "internalType": "address[]",
          "name": "providers",
          "type": "address[]"
        },
        {
          "internalType": "uint256[]",
          "name": "rewardsPerToken",
          "type": "uint256[]"
        },
        {
          "internalType": "uint256[]",
          "name": "pendingBaseRewards",
          "type": "uint256[]"
        },
        {
          "internalType": "uint256[]",
          "name": "totalClaimedRewards",
          "type": "uint256[]"
        },
        {
          "internalType": "uint256[]",
          "name": "effectiveStakingTimes",
          "type": "uint256[]"
        },
        {
          "internalType": "uint256[]",
          "name": "baseRewardsDebts",
          "type": "uint256[]"
        },
        {
          "internalType": "uint32[]",
          "name": "baseRewardsDebtMultipliers",
          "type": "uint32[]"
        }
      ],
      "name": "setProviderRewardData",
      "outputs": [],
      "stateMutability": "nonpayable",
      "type": "function"
    },
    {
      "inputs": [
        {
          "internalType": "uint256",
          "name": "newCurrentTime",
          "type": "uint256"
        }
      ],
      "name": "setTime",
      "outputs": [],
      "stateMutability": "nonpayable",
      "type": "function"
    },
    {
      "inputs": [
        {
          "internalType": "contract IDSToken",
          "name": "poolToken",
          "type": "address"
        },
        {
          "internalType": "contract IReserveToken",
          "name": "reserveToken",
          "type": "address"
        },
        {
          "internalType": "uint256",
          "name": "lastUpdateTime",
          "type": "uint256"
        },
        {
          "internalType": "uint256",
          "name": "rewardPerToken",
          "type": "uint256"
        },
        {
          "internalType": "uint256",
          "name": "totalClaimedRewards",
          "type": "uint256"
        }
      ],
      "name": "updatePoolRewardsData",
      "outputs": [],
      "stateMutability": "nonpayable",
      "type": "function"
    },
    {
      "inputs": [
        {
          "internalType": "address",
          "name": "provider",
          "type": "address"
        }
      ],
      "name": "updateProviderLastClaimTime",
      "outputs": [],
      "stateMutability": "nonpayable",
      "type": "function"
    },
    {
      "inputs": [
        {
          "internalType": "address",
          "name": "provider",
          "type": "address"
        },
        {
          "internalType": "contract IDSToken",
          "name": "poolToken",
          "type": "address"
        },
        {
          "internalType": "contract IReserveToken",
          "name": "reserveToken",
          "type": "address"
        },
        {
          "internalType": "uint256",
          "name": "rewardPerToken",
          "type": "uint256"
        },
        {
          "internalType": "uint256",
          "name": "pendingBaseRewards",
          "type": "uint256"
        },
        {
          "internalType": "uint256",
          "name": "totalClaimedRewards",
          "type": "uint256"
        },
        {
          "internalType": "uint256",
          "name": "effectiveStakingTime",
          "type": "uint256"
        },
        {
          "internalType": "uint256",
          "name": "baseRewardsDebt",
          "type": "uint256"
        },
        {
          "internalType": "uint32",
          "name": "baseRewardsDebtMultiplier",
          "type": "uint32"
        }
      ],
      "name": "updateProviderRewardsData",
      "outputs": [],
      "stateMutability": "nonpayable",
      "type": "function"
    }
  ],
  "bytecode": "0x608060405260016007553480156200001657600080fd5b5062000032600080516020620032e2833981519152806200010d565b6200006d7f9f4e1c871d5fdd0aee1cd182666698a4492b24c6832aac230d07b11046af5a89600080516020620032e28339815191526200010d565b620000a87ff206625bad3d9112d5609b8d356e6fbd514cd1f69980d4ce2b3e6e68e1789ace600080516020620032e28339815191526200010d565b620000e37fd040da8733f282f8b56d042e742cba64aa94b6398cd5a45974e40912f9b3b33f600080516020620032e28339815191526200010d565b62000107600080516020620032e2833981519152620001016200015f565b62000163565b62000273565b600082815260208190526040808220600201549051839285917fbd79b86ffe0ab8e8776151514217cd7cacd52c909f66475c3af44e129f0b00ff9190a460009182526020829052604090912060020155565b3390565b6200016f828262000173565b5050565b6000828152602081815260409091206200019891839062002341620001ec821b17901c565b156200016f57620001a86200015f565b6001600160a01b0316816001600160a01b0316837f2f8788117e7eff1d82e926ec794901d17c78024a50270940304540a733656f0d60405160405180910390a45050565b600062000203836001600160a01b0384166200020c565b90505b92915050565b60006200021a83836200025b565b620002525750815460018181018455600084815260208082209093018490558454848252828601909352604090209190915562000206565b50600062000206565b60009081526001919091016020526040902054151590565b61305f80620002836000396000f3fe608060405234801561001057600080fd5b50600436106101d95760003560e01c8063822a03bd11610104578063c55b65ce116100a2578063d547741f11610071578063d547741f14610f35578063f0d0f9aa14610f61578063f5b944eb14610fa3578063f615d5be14610fab576101d9565b8063c55b65ce14610e98578063ca15c87314610ee4578063cea0d5a714610f01578063d18e81b314610f2d576101d9565b80639010d07c116100de5780639010d07c14610dff57806391d1485414610e3e5780639abc559e14610e6a578063a217fddf14610e90576101d9565b8063822a03bd14610c235780638a4bdf6e14610c495780638ad682af14610df7576101d9565b806336568abe1161017c5780636b639ced1161014b5780636b639ced146107bf57806371188625146107c757806371b942c2146109b45780637e6d8da714610a25576101d9565b806336568abe146106ae5780633beb26c4146106da5780634768399e146106f75780634d33070b14610799576101d9565b80630cf90edb116101b85780630cf90edb146106095780630d80af9b1461064b578063248a9ca3146106655780632f2ff15d14610682576101d9565b80625c8bc3146101de57806301a354a3146105a75780630a5a96f9146105e3575b600080fd5b6105a560048036036101208110156101f557600080fd5b6001600160a01b038235811692602081013590911691810190606081016040820135600160201b81111561022857600080fd5b82018360208201111561023a57600080fd5b803590602001918460208302840111600160201b8311171561025b57600080fd5b9190808060200260200160405190810160405280939291908181526020018383602002808284376000920191909152509295949360208101935035915050600160201b8111156102aa57600080fd5b8201836020820111156102bc57600080fd5b803590602001918460208302840111600160201b831117156102dd57600080fd5b9190808060200260200160405190810160405280939291908181526020018383602002808284376000920191909152509295949360208101935035915050600160201b81111561032c57600080fd5b82018360208201111561033e57600080fd5b803590602001918460208302840111600160201b8311171561035f57600080fd5b9190808060200260200160405190810160405280939291908181526020018383602002808284376000920191909152509295949360208101935035915050600160201b8111156103ae57600080fd5b8201836020820111156103c057600080fd5b803590602001918460208302840111600160201b831117156103e157600080fd5b9190808060200260200160405190810160405280939291908181526020018383602002808284376000920191909152509295949360208101935035915050600160201b81111561043057600080fd5b82018360208201111561044257600080fd5b803590602001918460208302840111600160201b8311171561046357600080fd5b9190808060200260200160405190810160405280939291908181526020018383602002808284376000920191909152509295949360208101935035915050600160201b8111156104b257600080fd5b8201836020820111156104c457600080fd5b803590602001918460208302840111600160201b831117156104e557600080fd5b9190808060200260200160405190810160405280939291908181526020018383602002808284376000920191909152509295949360208101935035915050600160201b81111561053457600080fd5b82018360208201111561054657600080fd5b803590602001918460208302840111600160201b8311171561056757600080fd5b91908080602002602001604051908101604052809392919081815260200183836020028082843760009201919091525092955061100e945050505050565b005b6105a5600480360360e08110156105bd57600080fd5b506001600160a01b03813516906020810190606081019060a08101359060c001356112b5565b6105a5600480360360208110156105f957600080fd5b50356001600160a01b0316611345565b6106376004803603604081101561061f57600080fd5b506001600160a01b03813581169160200135166113c0565b604080519115158252519081900360200190f35b610653611500565b60408051918252519081900360200190f35b6106536004803603602081101561067b57600080fd5b5035611524565b6105a56004803603604081101561069857600080fd5b50803590602001356001600160a01b0316611539565b6105a5600480360360408110156106c457600080fd5b50803590602001356001600160a01b03166115a5565b6105a5600480360360208110156106f057600080fd5b5035611606565b61071d6004803603602081101561070d57600080fd5b50356001600160a01b031661160b565b6040518086815260200185815260200184815260200183600260200280838360005b8381101561075757818101518382015260200161073f565b5050505090500182600260200280838360005b8381101561078257818101518382015260200161076a565b505050509050019550505050505060405180910390f35b610637600480360360208110156107af57600080fd5b50356001600160a01b0316611734565b610653611837565b6107cf611849565b6040518080602001806020018060200180602001806020018060200187810387528d818151815260200191508051906020019060200280838360005b8381101561082357818101518382015260200161080b565b5050505090500187810386528c818151815260200191508051906020019060200280838360005b8381101561086257818101518382015260200161084a565b5050505090500187810385528b818151815260200191508051906020019060200280838360005b838110156108a1578181015183820152602001610889565b5050505090500187810384528a818151815260200191508051906020019060200280838360005b838110156108e05781810151838201526020016108c8565b505050509050018781038352898181518152602001915080516000925b8184101561093f57602080850284010151604080838360005b8381101561092e578181015183820152602001610916565b5050505090500192600101926108fd565b8a810385528b5181528b51600094508c935091506020015b8184101561099957602080850284010151604080838360005b83811015610988578181015183820152602001610970565b505050509050019260010192610957565b925050509c5050505050505050505050505060405180910390f35b6109ec600480360360608110156109ca57600080fd5b506001600160a01b038135811691602081013582169160409091013516611c05565b604080519687526020870195909552858501939093526060850191909152608084015263ffffffff1660a0830152519081900360c00190f35b6105a5600480360360c0811015610a3b57600080fd5b810190602081018135600160201b811115610a5557600080fd5b820183602082011115610a6757600080fd5b803590602001918460208302840111600160201b83111715610a8857600080fd5b919390929091602081019035600160201b811115610aa557600080fd5b820183602082011115610ab757600080fd5b803590602001918460408302840111600160201b83111715610ad857600080fd5b919390929091602081019035600160201b811115610af557600080fd5b820183602082011115610b0757600080fd5b803590602001918460408302840111600160201b83111715610b2857600080fd5b919390929091602081019035600160201b811115610b4557600080fd5b820183602082011115610b5757600080fd5b803590602001918460208302840111600160201b83111715610b7857600080fd5b919390929091602081019035600160201b811115610b9557600080fd5b820183602082011115610ba757600080fd5b803590602001918460208302840111600160201b83111715610bc857600080fd5b919390929091602081019035600160201b811115610be557600080fd5b820183602082011115610bf757600080fd5b803590602001918460208302840111600160201b83111715610c1857600080fd5b509092509050611ca5565b61065360048036036020811015610c3957600080fd5b50356001600160a01b0316611dd6565b6105a5600480360360a0811015610c5f57600080fd5b810190602081018135600160201b811115610c7957600080fd5b820183602082011115610c8b57600080fd5b803590602001918460208302840111600160201b83111715610cac57600080fd5b919390929091602081019035600160201b811115610cc957600080fd5b820183602082011115610cdb57600080fd5b803590602001918460208302840111600160201b83111715610cfc57600080fd5b919390929091602081019035600160201b811115610d1957600080fd5b820183602082011115610d2b57600080fd5b803590602001918460208302840111600160201b83111715610d4c57600080fd5b919390929091602081019035600160201b811115610d6957600080fd5b820183602082011115610d7b57600080fd5b803590602001918460208302840111600160201b83111715610d9c57600080fd5b919390929091602081019035600160201b811115610db957600080fd5b820183602082011115610dcb57600080fd5b803590602001918460208302840111600160201b83111715610dec57600080fd5b509092509050611df1565b610653611f5d565b610e2260048036036040811015610e1557600080fd5b5080359060200135611f6f565b604080516001600160a01b039092168252519081900360200190f35b61063760048036036040811015610e5457600080fd5b50803590602001356001600160a01b0316611f8e565b6105a560048036036020811015610e8057600080fd5b50356001600160a01b0316611fa6565b610653612098565b610ec660048036036040811015610eae57600080fd5b506001600160a01b038135811691602001351661209d565b60408051938452602084019290925282820152519081900360600190f35b61065360048036036020811015610efa57600080fd5b50356120ff565b6105a560048036036040811015610f1757600080fd5b506001600160a01b038135169060200135612116565b6106536121f8565b6105a560048036036040811015610f4b57600080fd5b50803590602001356001600160a01b03166121fe565b6105a5600480360360a0811015610f7757600080fd5b506001600160a01b03813581169160208101359091169060408101359060608101359060800135612257565b6106536122a9565b6105a56004803603610120811015610fc257600080fd5b5080356001600160a01b039081169160208101358216916040820135169060608101359060808101359060a08101359060c08101359060e081013590610100013563ffffffff166122bb565b611025600080516020612f43833981519152612356565b8861102f816123a8565b88611039816123a8565b885188518114801561104b5750875181145b80156110575750865181145b80156110635750855181145b801561106f5750845181145b801561107b5750835181145b6110c1576040805162461bcd60e51b815260206004820152601260248201527108aa4a4be929cac82989288be988a9c8ea8960731b604482015290519081900360640190fd5b60005b818110156112a6576000600560008d84815181106110de57fe5b60200260200101516001600160a01b03166001600160a01b0316815260200190815260200160002060008f6001600160a01b03166001600160a01b0316815260200190815260200160002060008e6001600160a01b03166001600160a01b031681526020019081526020016000209050600087838151811061115c57fe5b60200260200101519050600087848151811061117457fe5b6020026020010151905081600014806111aa5750620f424063ffffffff8216108015906111aa5750621e848063ffffffff821611155b6111f4576040805162461bcd60e51b815260206004820152601660248201527522a9292fa4a72b20a624a22fa6aaa62a24a82624a2a960511b604482015290519081900360640190fd5b8c848151811061120057fe5b602002602001015183600001819055508b848151811061121c57fe5b602002602001015183600101819055508a848151811061123857fe5b6020026020010151836002018190555089848151811061125457fe5b6020026020010151836003018190555088848151811061127057fe5b602090810291909101015160048401556005909201805463ffffffff191663ffffffff90931692909217909155506001016110c4565b50505050505050505050505050565b6112cc600080516020612fe4833981519152612356565b846112d6816123a8565b60006112e06123f9565b90506112f0878787848888612408565b604080518281526020810186905280820185905290516001600160a01b038916917f038f7360b8a68adae0fd8fc6aa0825e32bde01c5dce6a47a40f675b3906864f8919081900360600190a250505050505050565b61135c600080516020613004833981519152612356565b60006113666123f9565b6001600160a01b0383166000818152600660209081526040918290208490558151848152915193945091927f4dfcfb2b2d57f1087742c4969714b1b49f92ebc28dac25d04a4f286b387986c7929181900390910190a25050565b60006113cb83611734565b6113d7575060006114fa565b6113df612d49565b6001600160a01b038416600090815260016020818152604092839020835160a081018552815481529281015491830191909152600280820154838501528351808501948590529293919260608501929091600385019182845b81546001600160a01b031681526001909101906020018083116114385750505091835250506040805180820191829052602090920191906005840190600290826000855b82829054906101000a900463ffffffff1663ffffffff168152602001906004019060208260030104928301926001038202915080841161147c5750505092909352505050506060810151519091506001600160a01b03848116911614806114f657506060810151602001516001600160a01b038481169116145b9150505b92915050565b7f0c7ade2c7c08453ea605b4a8f3fb0e03e3ffcffbfa41ca8ee543d0fd74cada3881565b60009081526020819052604090206002015490565b60008281526020819052604090206002015461155c906115576129d9565b611f8e565b6115975760405162461bcd60e51b815260040180806020018281038252602f815260200180612f85602f913960400191505060405180910390fd5b6115a182826129dd565b5050565b6115ad6129d9565b6001600160a01b0316816001600160a01b0316146115fc5760405162461bcd60e51b815260040180806020018281038252602f815260200180613024602f913960400191505060405180910390fd5b6115a18282612a46565b600755565b6000806000611618612d83565b611620612d83565b611628612d49565b6001600160a01b038716600090815260016020818152604092839020835160a081018552815481529281015491830191909152600280820154838501528351808501948590529293919260608501929091600385019182845b81546001600160a01b031681526001909101906020018083116116815750505091835250506040805180820191829052602090920191906005840190600290826000855b82829054906101000a900463ffffffff1663ffffffff16815260200190600401906020826003010492830192600103820291508084116116c5575050509290935250508251602084015160408501516060860151608090960151929d919c509a50939850965091945050505050565b600061173e612d49565b6001600160a01b038316600090815260016020818152604092839020835160a081018552815481529281015491830191909152600280820154838501528351808501948590529293919260608501929091600385019182845b81546001600160a01b031681526001909101906020018083116117975750505091835250506040805180820191829052602090920191906005840190600290826000855b82829054906101000a900463ffffffff1663ffffffff16815260200190600401906020826003010492830192600103820291508084116117db579050505050505081525050905061182a6123f9565b6020909101511192915050565b600080516020612f4383398151915281565b606080606080606080600061185e6002612aaf565b905060608167ffffffffffffffff8111801561187957600080fd5b506040519080825280602002602001820160405280156118a3578160200160208202803683370190505b50905060608267ffffffffffffffff811180156118bf57600080fd5b506040519080825280602002602001820160405280156118e9578160200160208202803683370190505b50905060608367ffffffffffffffff8111801561190557600080fd5b5060405190808252806020026020018201604052801561192f578160200160208202803683370190505b50905060608467ffffffffffffffff8111801561194b57600080fd5b50604051908082528060200260200182016040528015611975578160200160208202803683370190505b50905060608567ffffffffffffffff8111801561199157600080fd5b506040519080825280602002602001820160405280156119cb57816020015b6119b8612d83565b8152602001906001900390816119b05790505b50905060608667ffffffffffffffff811180156119e757600080fd5b50604051908082528060200260200182016040528015611a2157816020015b611a0e612d83565b815260200190600190039081611a065790505b50905060005b87811015611bf0576000611a3c600283612aba565b9050611a46612d49565b6001600160a01b038216600090815260016020818152604092839020835160a081018552815481529281015491830191909152600280820154838501528351808501948590529293919260608501929091600385019182845b81546001600160a01b03168152600190910190602001808311611a9f5750505091835250506040805180820191829052602090920191906005840190600290826000855b82829054906101000a900463ffffffff1663ffffffff1681526020019060040190602082600301049283019260010382029150808411611ae3579050505050505081525050905081898481518110611b3757fe5b60200260200101906001600160a01b031690816001600160a01b0316815250508060000151888481518110611b6857fe5b6020026020010181815250508060200151878481518110611b8557fe5b6020026020010181815250508060400151868481518110611ba257fe5b6020026020010181815250508060600151858481518110611bbf57fe5b60200260200101819052508060800151848481518110611bdb57fe5b60209081029190910101525050600101611a27565b50949c939b5091995097509550909350915050565b600080600080600080611c16612da1565b505050506001600160a01b039586166000908152600560208181526040808420988a168452978152878320969098168252948752859020855160c081018752815480825260018301549882018990526002830154978201889052600383015460608301819052600484015460808401819052939097015463ffffffff1660a09092018290529891945092509050565b611cbc600080516020612f43833981519152612356565b8a8981148015611ccb57508088145b8015611cd657508086145b8015611ce157508084145b8015611cec57508082145b611d32576040805162461bcd60e51b815260206004820152601260248201527108aa4a4be929cac82989288be988a9c8ea8960731b604482015290519081900360640190fd5b60005b81811015611dc657611dbe8e8e83818110611d4c57fe5b905060200201356001600160a01b03168d8d84818110611d6857fe5b9050604002018c8c85818110611d7a57fe5b9050604002018b8b86818110611d8c57fe5b905060200201358a8a87818110611d9f57fe5b90506020020135898988818110611db257fe5b90506020020135612ac6565b600101611d35565b5050505050505050505050505050565b6001600160a01b031660009081526006602052604090205490565b611e08600080516020612f43833981519152612356565b888781148015611e1757508086145b8015611e2257508084145b8015611e2d57508082145b611e73576040805162461bcd60e51b815260206004820152601260248201527108aa4a4be929cac82989288be988a9c8ea8960731b604482015290519081900360640190fd5b60005b81811015611f4f5760008c8c83818110611e8c57fe5b905060200201356001600160a01b03169050611ea7816123a8565b60008b8b84818110611eb557fe5b905060200201356001600160a01b03169050611ed0816123a8565b6001600160a01b0380831660009081526004602090815260408083209385168352929052208a8a85818110611f0157fe5b6020029190910135825550888885818110611f1857fe5b6020029190910135600183015550868685818110611f3257fe5b905060200201358160020181905550505050806001019050611e76565b505050505050505050505050565b60008051602061300483398151915281565b6000828152602081905260408120611f879083612aba565b9392505050565b6000828152602081905260408120611f879083612b35565b611fbd600080516020612fe4833981519152612356565b611fc8600282612b4a565b612019576040805162461bcd60e51b815260206004820152601a60248201527f4552525f504f4f4c5f4e4f545f50415254494349504154494e47000000000000604482015290519081900360640190fd5b6001600160a01b0381166000908152600160208190526040822082815590810182905560028101829055906120516003830182612ddd565b61205f600583016000612deb565b50506040516001600160a01b038216907f9780185ec6d37535bd80ea2b03b82d5b583825250953df7cdbd9a1b3da07b41e90600090a250565b600081565b60008060006120aa612df2565b505050506001600160a01b039182166000908152600460209081526040808320939094168252918252829020825160608101845281548082526001830154938201849052600290920154930183905292909190565b60008181526020819052604081206114fa90612aaf565b61212d600080516020612fe4833981519152612356565b61213682611734565b612187576040805162461bcd60e51b815260206004820152601a60248201527f4552525f504f4f4c5f4e4f545f50415254494349504154494e47000000000000604482015290519081900360640190fd5b6001600160a01b03821660009081526001602052604090206121a76123f9565b82116121f1576040805162461bcd60e51b815260206004820152601460248201527322a9292fa4a72b20a624a22fa22aa920aa24a7a760611b604482015290519081900360640190fd5b6001015550565b60075490565b60008281526020819052604090206002015461221c906115576129d9565b6115fc5760405162461bcd60e51b8152600401808060200182810382526030815260200180612fb46030913960400191505060405180910390fd5b61226e600080516020613004833981519152612356565b6001600160a01b0394851660009081526004602090815260408083209690971682529490945293909220908155600181019190915560020155565b600080516020612fe483398151915281565b6122d2600080516020613004833981519152612356565b6001600160a01b0398891660009081526005602081815260408084209b8d1684529a81528a832099909b1682529790995296909720938455600184019290925560028301556003820155600481019390935591909101805463ffffffff191663ffffffff909216919091179055565b6000611f87836001600160a01b038416612b5f565b6123608133611f8e565b6123a5576040805162461bcd60e51b815260206004820152601160248201527011549497d050d0d154d4d7d11153925151607a1b604482015290519081900360640190fd5b50565b6001600160a01b0381166123a5576040805162461bcd60e51b81526020600482015260136024820152724552525f494e56414c49445f4144445245535360681b604482015290519081900360640190fd5b60006124036121f8565b905090565b818310801561241d575061241a6123f9565b82115b612465576040805162461bcd60e51b815260206004820152601460248201527322a9292fa4a72b20a624a22fa22aa920aa24a7a760611b604482015290519081900360640190fd5b600081116124ab576040805162461bcd60e51b815260206004820152600e60248201526d4552525f5a45524f5f56414c554560901b604482015290519081900360640190fd5b6fffffffffffffffffffffffffffffffff811115612510576040805162461bcd60e51b815260206004820152601860248201527f4552525f5245574152445f524154455f544f4f5f484947480000000000000000604482015290519081900360640190fd5b620f424061252f63ffffffff86358116906020880135811690612ba916565b14612581576040805162461bcd60e51b815260206004820152601960248201527f4552525f494e56414c49445f5245574152445f53484152455300000000000000604482015290519081900360640190fd5b61258c600287612341565b6125dd576040805162461bcd60e51b815260206004820152601960248201527f4552525f414c52454144595f50415254494349504154494e4700000000000000604482015290519081900360640190fd5b6001600160a01b038616600090815260016020819052604090912084815590810183905560028082018390556126199060058301908790612e13565b506000876001600160a01b0316638da5cb5b6040518163ffffffff1660e01b815260040160206040518083038186803b15801561265557600080fd5b505afa158015612669573d6000803e3d6000fd5b505050506040513d602081101561267f57600080fd5b5051604080516371f52bf360e01b815290519192506000916001600160a01b038416916371f52bf3916004808301926020929190829003018186803b1580156126c757600080fd5b505afa1580156126db573d6000803e3d6000fd5b505050506040513d60208110156126f157600080fd5b505161ffff16905060028114612747576040805162461bcd60e51b815260206004820152601660248201527511549497d413d3d317d393d517d4d5541413d495115160521b604482015290519081900360640190fd5b604080516319b6401560e01b81526000600482015290516001600160a01b038a35811692908516916319b6401591602480820192602092909190829003018186803b15801561279557600080fd5b505afa1580156127a9573d6000803e3d6000fd5b505050506040513d60208110156127bf57600080fd5b50516001600160a01b03161480156128575750604080516319b6401560e01b81526001600482015290516001600160a01b036020808c0135821693918616926319b64015926024808201939291829003018186803b15801561282057600080fd5b505afa158015612834573d6000803e3d6000fd5b505050506040513d602081101561284a57600080fd5b50516001600160a01b0316145b8061296d5750604080516319b6401560e01b81526000600482015290516001600160a01b036020808c0135821693918616926319b64015926024808201939291829003018186803b1580156128ab57600080fd5b505afa1580156128bf573d6000803e3d6000fd5b505050506040513d60208110156128d557600080fd5b50516001600160a01b031614801561296d5750604080516319b6401560e01b81526001600482015290516001600160a01b038a35811692908516916319b6401591602480820192602092909190829003018186803b15801561293657600080fd5b505afa15801561294a573d6000803e3d6000fd5b505050506040513d602081101561296057600080fd5b50516001600160a01b0316145b6129be576040805162461bcd60e51b815260206004820152601a60248201527f4552525f494e56414c49445f524553455256455f544f4b454e53000000000000604482015290519081900360640190fd5b6129cd60038401896002612eb5565b50505050505050505050565b3390565b60008281526020819052604090206129f59082612341565b156115a157612a026129d9565b6001600160a01b0316816001600160a01b0316837f2f8788117e7eff1d82e926ec794901d17c78024a50270940304540a733656f0d60405160405180910390a45050565b6000828152602081905260409020612a5e9082612b4a565b156115a157612a6b6129d9565b6001600160a01b0316816001600160a01b0316837ff6391f5c32d9c69d2a47ea670b442974b53935d1edc7fd64eb21e047a839171b60405160405180910390a45050565b60006114fa82612c03565b6000611f878383612c07565b85612ad0816123a8565b612ad86123f9565b8410612b1e576040805162461bcd60e51b815260206004820152601060248201526f4552525f494e56414c49445f54494d4560801b604482015290519081900360640190fd5b612b2c878787878787612408565b50505050505050565b6000611f87836001600160a01b038416612c6b565b6000611f87836001600160a01b038416612c83565b6000612b6b8383612c6b565b612ba1575081546001818101845560008481526020808220909301849055845484825282860190935260409020919091556114fa565b5060006114fa565b600082820183811015611f87576040805162461bcd60e51b815260206004820152601b60248201527f536166654d6174683a206164646974696f6e206f766572666c6f770000000000604482015290519081900360640190fd5b5490565b81546000908210612c495760405162461bcd60e51b8152600401808060200182810382526022815260200180612f636022913960400191505060405180910390fd5b826000018281548110612c5857fe5b9060005260206000200154905092915050565b60009081526001919091016020526040902054151590565b60008181526001830160205260408120548015612d3f5783546000198083019190810190600090879083908110612cb657fe5b9060005260206000200154905080876000018481548110612cd357fe5b600091825260208083209091019290925582815260018981019092526040902090840190558654879080612d0357fe5b600190038181906000526020600020016000905590558660010160008781526020019081526020016000206000905560019450505050506114fa565b60009150506114fa565b6040518060a00160405280600081526020016000815260200160008152602001612d71612d83565b8152602001612d7e612d83565b905290565b60405180604001604052806002906020820280368337509192915050565b6040518060c001604052806000815260200160008152602001600081526020016000815260200160008152602001600063ffffffff1681525090565b506000815560010160009055565b5060009055565b60405180606001604052806000815260200160008152602001600081525090565b600183019183908215612ea55791602002820160005b83821115612e7357833563ffffffff1683826101000a81548163ffffffff021916908363ffffffff1602179055509260200192600401602081600301049283019260010302612e29565b8015612ea35782816101000a81549063ffffffff0219169055600401602081600301049283019260010302612e73565b505b50612eb1929150612f07565b5090565b8260028101928215612efb579160200282015b82811115612efb5781546001600160a01b0319166001600160a01b03843516178255602090920191600190910190612ec8565b50612eb1929150612f23565b5b80821115612eb157805463ffffffff19168155600101612f08565b5b80821115612eb15780546001600160a01b0319168155600101612f2456fed040da8733f282f8b56d042e742cba64aa94b6398cd5a45974e40912f9b3b33f456e756d657261626c655365743a20696e646578206f7574206f6620626f756e6473416363657373436f6e74726f6c3a2073656e646572206d75737420626520616e2061646d696e20746f206772616e74416363657373436f6e74726f6c3a2073656e646572206d75737420626520616e2061646d696e20746f207265766f6b65f206625bad3d9112d5609b8d356e6fbd514cd1f69980d4ce2b3e6e68e1789ace9f4e1c871d5fdd0aee1cd182666698a4492b24c6832aac230d07b11046af5a89416363657373436f6e74726f6c3a2063616e206f6e6c792072656e6f756e636520726f6c657320666f722073656c66a164736f6c634300060c000a0c7ade2c7c08453ea605b4a8f3fb0e03e3ffcffbfa41ca8ee543d0fd74cada38",
  "linkReferences": {},
  "deployedLinkReferences": {}
}