{
  "_format": "hh-sol-artifact-1",
  "contractName": "TestCheckpointStore",
  "sourceName": "contracts/helpers/TestCheckpointStore.sol",
  "abi": [
    {
      "anonymous": false,
      "inputs": [
        {
          "indexed": true,
          "internalType": "address",
          "name": "target",
          "type": "address"
        },
        {
          "indexed": false,
          "internalType": "uint256",
          "name": "timestamp",
          "type": "uint256"
        }
      ],
      "name": "CheckpointUpdated",
      "type": "event"
    },
    {
      "anonymous": false,
      "inputs": [
        {
          "indexed": true,
          "internalType": "bytes32",
          "name": "role",
          "type": "bytes32"
        },
        {
          "indexed": true,
          "internalType": "bytes32",
          "name": "previousAdminRole",
          "type": "bytes32"
        },
        {
          "indexed": true,
          "internalType": "bytes32",
          "name": "newAdminRole",
          "type": "bytes32"
        }
      ],
      "name": "RoleAdminChanged",
      "type": "event"
    },
    {
      "anonymous": false,
      "inputs": [
        {
          "indexed": true,
          "internalType": "bytes32",
          "name": "role",
          "type": "bytes32"
        },
        {
          "indexed": true,
          "internalType": "address",
          "name": "account",
          "type": "address"
        },
        {
          "indexed": true,
          "internalType": "address",
          "name": "sender",
          "type": "address"
        }
      ],
      "name": "RoleGranted",
      "type": "event"
    },
    {
      "anonymous": false,
      "inputs": [
        {
          "indexed": true,
          "internalType": "bytes32",
          "name": "role",
          "type": "bytes32"
        },
        {
          "indexed": true,
          "internalType": "address",
          "name": "account",
          "type": "address"
        },
        {
          "indexed": true,
          "internalType": "address",
          "name": "sender",
          "type": "address"
        }
      ],
      "name": "RoleRevoked",
      "type": "event"
    },
    {
      "inputs": [],
      "name": "DEFAULT_ADMIN_ROLE",
      "outputs": [
        {
          "internalType": "bytes32",
          "name": "",
          "type": "bytes32"
        }
      ],
      "stateMutability": "view",
      "type": "function"
    },
    {
      "inputs": [],
      "name": "ROLE_OWNER",
      "outputs": [
        {
          "internalType": "bytes32",
          "name": "",
          "type": "bytes32"
        }
      ],
      "stateMutability": "view",
      "type": "function"
    },
    {
      "inputs": [],
      "name": "ROLE_SEEDER",
      "outputs": [
        {
          "internalType": "bytes32",
          "name": "",
          "type": "bytes32"
        }
      ],
      "stateMutability": "view",
      "type": "function"
    },
    {
      "inputs": [
        {
          "internalType": "address",
          "name": "target",
          "type": "address"
        }
      ],
      "name": "addCheckpoint",
      "outputs": [],
      "stateMutability": "nonpayable",
      "type": "function"
    },
    {
      "inputs": [
        {
          "internalType": "address",
          "name": "target",
          "type": "address"
        },
        {
          "internalType": "uint256",
          "name": "timestamp",
          "type": "uint256"
        }
      ],
      "name": "addPastCheckpoint",
      "outputs": [],
      "stateMutability": "nonpayable",
      "type": "function"
    },
    {
      "inputs": [
        {
          "internalType": "address[]",
          "name": "targets",
          "type": "address[]"
        },
        {
          "internalType": "uint256[]",
          "name": "timestamps",
          "type": "uint256[]"
        }
      ],
      "name": "addPastCheckpoints",
      "outputs": [],
      "stateMutability": "nonpayable",
      "type": "function"
    },
    {
      "inputs": [
        {
          "internalType": "address",
          "name": "target",
          "type": "address"
        }
      ],
      "name": "checkpoint",
      "outputs": [
        {
          "internalType": "uint256",
          "name": "",
          "type": "uint256"
        }
      ],
      "stateMutability": "view",
      "type": "function"
    },
    {
      "inputs": [],
      "name": "currentTime",
      "outputs": [
        {
          "internalType": "uint256",
          "name": "",
          "type": "uint256"
        }
      ],
      "stateMutability": "view",
      "type": "function"
    },
    {
      "inputs": [
        {
          "internalType": "bytes32",
          "name": "role",
          "type": "bytes32"
        }
      ],
      "name": "getRoleAdmin",
      "outputs": [
        {
          "internalType": "bytes32",
          "name": "",
          "type": "bytes32"
        }
      ],
      "stateMutability": "view",
      "type": "function"
    },
    {
      "inputs": [
        {
          "internalType": "bytes32",
          "name": "role",
          "type": "bytes32"
        },
        {
          "internalType": "uint256",
          "name": "index",
          "type": "uint256"
        }
      ],
      "name": "getRoleMember",
      "outputs": [
        {
          "internalType": "address",
          "name": "",
          "type": "address"
        }
      ],
      "stateMutability": "view",
      "type": "function"
    },
    {
      "inputs": [
        {
          "internalType": "bytes32",
          "name": "role",
          "type": "bytes32"
        }
      ],
      "name": "getRoleMemberCount",
      "outputs": [
        {
          "internalType": "uint256",
          "name": "",
          "type": "uint256"
        }
      ],
      "stateMutability": "view",
      "type": "function"
    },
    {
      "inputs": [
        {
          "internalType": "bytes32",
          "name": "role",
          "type": "bytes32"
        },
        {
          "internalType": "address",
          "name": "account",
          "type": "address"
        }
      ],
      "name": "grantRole",
      "outputs": [],
      "stateMutability": "nonpayable",
      "type": "function"
    },
    {
      "inputs": [
        {
          "internalType": "bytes32",
          "name": "role",
          "type": "bytes32"
        },
        {
          "internalType": "address",
          "name": "account",
          "type": "address"
        }
      ],
      "name": "hasRole",
      "outputs": [
        {
          "internalType": "bool",
          "name": "",
          "type": "bool"
        }
      ],
      "stateMutability": "view",
      "type": "function"
    },
    {
      "inputs": [
        {
          "internalType": "bytes32",
          "name": "role",
          "type": "bytes32"
        },
        {
          "internalType": "address",
          "name": "account",
          "type": "address"
        }
      ],
      "name": "renounceRole",
      "outputs": [],
      "stateMutability": "nonpayable",
      "type": "function"
    },
    {
      "inputs": [
        {
          "internalType": "bytes32",
          "name": "role",
          "type": "bytes32"
        },
        {
          "internalType": "address",
          "name": "account",
          "type": "address"
        }
      ],
      "name": "revokeRole",
      "outputs": [],
      "stateMutability": "nonpayable",
      "type": "function"
    },
    {
      "inputs": [
        {
          "internalType": "uint256",
          "name": "newCurrentTime",
          "type": "uint256"
        }
      ],
      "name": "setTime",
      "outputs": [],
      "stateMutability": "nonpayable",
      "type": "function"
    }
  ],
  "bytecode": "0x608060405260016002553480156200001657600080fd5b506200003260008051602062000f2c833981519152806200008e565b6200006d7fd040da8733f282f8b56d042e742cba64aa94b6398cd5a45974e40912f9b3b33f60008051602062000f2c8339815191526200008e565b6200008860008051602062000f2c83398151915233620000e0565b620001f4565b600082815260208190526040808220600201549051839285917fbd79b86ffe0ab8e8776151514217cd7cacd52c909f66475c3af44e129f0b00ff9190a460009182526020829052604090912060020155565b620000ec8282620000f0565b5050565b600082815260208181526040909120620001159183906200089962000169821b17901c565b15620000ec576200012562000189565b6001600160a01b0316816001600160a01b0316837f2f8788117e7eff1d82e926ec794901d17c78024a50270940304540a733656f0d60405160405180910390a45050565b600062000180836001600160a01b0384166200018d565b90505b92915050565b3390565b60006200019b8383620001dc565b620001d35750815460018181018455600084815260208082209093018490558454848252828601909352604090209190915562000183565b50600062000183565b60009081526001919091016020526040902054151590565b610d2880620002046000396000f3fe608060405234801561001057600080fd5b50600436106101005760003560e01c806391d1485411610097578063bcb81bfc11610066578063bcb81bfc146102ba578063ca15c8731461037c578063d18e81b314610399578063d547741f146103a157610100565b806391d1485414610220578063a217fddf14610260578063a3699b3714610268578063a972985e1461029457610100565b80633beb26c4116100d35780633beb26c4146101b45780636b639ced146101d15780638ad682af146101d95780639010d07c146101e157610100565b80631d092adf14610105578063248a9ca31461012d5780632f2ff15d1461015c57806336568abe14610188575b600080fd5b61012b6004803603602081101561011b57600080fd5b50356001600160a01b03166103cd565b005b61014a6004803603602081101561014357600080fd5b503561045b565b60408051918252519081900360200190f35b61012b6004803603604081101561017257600080fd5b50803590602001356001600160a01b0316610470565b61012b6004803603604081101561019e57600080fd5b50803590602001356001600160a01b03166104d8565b61012b600480360360208110156101ca57600080fd5b5035610539565b61014a61053e565b61014a610562565b610204600480360360408110156101f757600080fd5b5080359060200135610586565b604080516001600160a01b039092168252519081900360200190f35b61024c6004803603604081101561023657600080fd5b50803590602001356001600160a01b03166105a7565b604080519115158252519081900360200190f35b61014a6105bf565b61012b6004803603604081101561027e57600080fd5b506001600160a01b0381351690602001356105c4565b61014a600480360360208110156102aa57600080fd5b50356001600160a01b031661069a565b61012b600480360360408110156102d057600080fd5b8101906020810181356401000000008111156102eb57600080fd5b8201836020820111156102fd57600080fd5b8035906020019184602083028401116401000000008311171561031f57600080fd5b91939092909160208101903564010000000081111561033d57600080fd5b82018360208201111561034f57600080fd5b8035906020019184602083028401116401000000008311171561037157600080fd5b5090925090506106b5565b61014a6004803603602081101561039257600080fd5b5035610823565b61014a61083a565b61012b600480360360408110156103b757600080fd5b50803590602001356001600160a01b0316610840565b806103d7816108ae565b6104017f9f4e1c871d5fdd0aee1cd182666698a4492b24c6832aac230d07b11046af5a89336105a7565b610446576040805162461bcd60e51b815260206004820152601160248201527011549497d050d0d154d4d7d11153925151607a1b604482015290519081900360640190fd5b61045782610452610902565b610911565b5050565b60009081526020819052604090206002015490565b6000828152602081905260409020600201546104939061048e6109c4565b6105a7565b6104ce5760405162461bcd60e51b815260040180806020018281038252602f815260200180610c8e602f913960400191505060405180910390fd5b61045782826109c8565b6104e06109c4565b6001600160a01b0316816001600160a01b03161461052f5760405162461bcd60e51b815260040180806020018281038252602f815260200180610ced602f913960400191505060405180910390fd5b6104578282610a31565b600255565b7fd040da8733f282f8b56d042e742cba64aa94b6398cd5a45974e40912f9b3b33f81565b7f9f4e1c871d5fdd0aee1cd182666698a4492b24c6832aac230d07b11046af5a8981565b600082815260208190526040812061059e9083610a9a565b90505b92915050565b600082815260208190526040812061059e9083610aa6565b600081565b816105ce816108ae565b6105f87fd040da8733f282f8b56d042e742cba64aa94b6398cd5a45974e40912f9b3b33f336105a7565b61063d576040805162461bcd60e51b815260206004820152601160248201527011549497d050d0d154d4d7d11153925151607a1b604482015290519081900360640190fd5b610645610902565b821061068b576040805162461bcd60e51b815260206004820152601060248201526f4552525f494e56414c49445f54494d4560801b604482015290519081900360640190fd5b6106958383610911565b505050565b6001600160a01b031660009081526001602052604090205490565b6106df7fd040da8733f282f8b56d042e742cba64aa94b6398cd5a45974e40912f9b3b33f336105a7565b610724576040805162461bcd60e51b815260206004820152601160248201527011549497d050d0d154d4d7d11153925151607a1b604482015290519081900360640190fd5b8281811461076e576040805162461bcd60e51b815260206004820152601260248201527108aa4a4be929cac82989288be988a9c8ea8960731b604482015290519081900360640190fd5b60005b8181101561081b57600086868381811061078757fe5b905060200201356001600160a01b0316905060008585848181106107a757fe5b9050602002013590506107b9826108ae565b6107c1610902565b8110610807576040805162461bcd60e51b815260206004820152601060248201526f4552525f494e56414c49445f54494d4560801b604482015290519081900360640190fd5b6108118282610911565b5050600101610771565b505050505050565b60008181526020819052604081206105a190610abb565b60025490565b60008281526020819052604090206002015461085e9061048e6109c4565b61052f5760405162461bcd60e51b8152600401808060200182810382526030815260200180610cbd6030913960400191505060405180910390fd5b600061059e836001600160a01b038416610ac6565b6001600160a01b0381166108ff576040805162461bcd60e51b81526020600482015260136024820152724552525f494e56414c49445f4144445245535360681b604482015290519081900360640190fd5b50565b600061090c61083a565b905090565b6001600160a01b038216600090815260016020526040902054811015610970576040805162461bcd60e51b815260206004820152600f60248201526e22a9292faba927a723afa7a92222a960891b604482015290519081900360640190fd5b6001600160a01b038216600081815260016020908152604091829020849055815184815291517f6eb3d2afd129515b81e7e76f1cd8eef506c90c811bed42bda361e9bebd93be259281900390910190a25050565b3390565b60008281526020819052604090206109e09082610899565b15610457576109ed6109c4565b6001600160a01b0316816001600160a01b0316837f2f8788117e7eff1d82e926ec794901d17c78024a50270940304540a733656f0d60405160405180910390a45050565b6000828152602081905260409020610a499082610b10565b1561045757610a566109c4565b6001600160a01b0316816001600160a01b0316837ff6391f5c32d9c69d2a47ea670b442974b53935d1edc7fd64eb21e047a839171b60405160405180910390a45050565b600061059e8383610b25565b600061059e836001600160a01b038416610b89565b60006105a182610ba1565b6000610ad28383610b89565b610b08575081546001818101845560008481526020808220909301849055845484825282860190935260409020919091556105a1565b5060006105a1565b600061059e836001600160a01b038416610ba5565b81546000908210610b675760405162461bcd60e51b8152600401808060200182810382526022815260200180610c6c6022913960400191505060405180910390fd5b826000018281548110610b7657fe5b9060005260206000200154905092915050565b60009081526001919091016020526040902054151590565b5490565b60008181526001830160205260408120548015610c615783546000198083019190810190600090879083908110610bd857fe5b9060005260206000200154905080876000018481548110610bf557fe5b600091825260208083209091019290925582815260018981019092526040902090840190558654879080610c2557fe5b600190038181906000526020600020016000905590558660010160008781526020019081526020016000206000905560019450505050506105a1565b60009150506105a156fe456e756d657261626c655365743a20696e646578206f7574206f6620626f756e6473416363657373436f6e74726f6c3a2073656e646572206d75737420626520616e2061646d696e20746f206772616e74416363657373436f6e74726f6c3a2073656e646572206d75737420626520616e2061646d696e20746f207265766f6b65416363657373436f6e74726f6c3a2063616e206f6e6c792072656e6f756e636520726f6c657320666f722073656c66a164736f6c634300060c000a9f4e1c871d5fdd0aee1cd182666698a4492b24c6832aac230d07b11046af5a89",
  "linkReferences": {},
  "deployedLinkReferences": {}
}