{
  "_format": "hh-sol-artifact-1",
  "contractName": "ConverterVersion",
  "sourceName": "contracts/converter/ConverterVersion.sol",
  "abi": [
    {
      "inputs": [],
      "name": "version",
      "outputs": [
        {
          "internalType": "uint16",
          "name": "",
          "type": "uint16"
        }
      ],
      "stateMutability": "view",
      "type": "function"
    }
  ],
  "bytecode": "0x6080604052348015600f57600080fd5b50605c8061001e6000396000f3fe6080604052348015600f57600080fd5b506004361060285760003560e01c806354fd4d5014602d575b600080fd5b6033604a565b6040805161ffff9092168252519081900360200190f35b602f8156fea164736f6c634300060c000a",
  "deployedBytecode": "0x6080604052348015600f57600080fd5b506004361060285760003560e01c806354fd4d5014602d575b600080fd5b6033604a565b6040805161ffff9092168252519081900360200190f35b602f8156fea164736f6c634300060c000a",
  "linkReferences": {},
  "deployedLinkReferences": {}
}